{
	"contracts/RoninP2PFeeAndRewardDistribution.sol": {
		"RoninP2PFeeAndRewardDistribution": {
			"abi": [
				{
					"inputs": [
						{
							"internalType": "address",
							"name": "_adminWallet",
							"type": "address"
						},
						{
							"internalType": "address",
							"name": "_treasuryManagerWallet",
							"type": "address"
						}
					],
					"stateMutability": "nonpayable",
					"type": "constructor"
				},
				{
					"anonymous": false,
					"inputs": [
						{
							"indexed": false,
							"internalType": "uint256",
							"name": "agreementId",
							"type": "uint256"
						},
						{
							"indexed": false,
							"internalType": "uint256",
							"name": "adminFee",
							"type": "uint256"
						},
						{
							"indexed": false,
							"internalType": "uint256",
							"name": "treasuryFee",
							"type": "uint256"
						},
						{
							"indexed": false,
							"internalType": "uint256",
							"name": "rewardPoolFee",
							"type": "uint256"
						}
					],
					"name": "FeesDistributed",
					"type": "event"
				},
				{
					"anonymous": false,
					"inputs": [
						{
							"indexed": false,
							"internalType": "address[]",
							"name": "topUsers",
							"type": "address[]"
						},
						{
							"indexed": false,
							"internalType": "uint256[]",
							"name": "rewards",
							"type": "uint256[]"
						}
					],
					"name": "RewardsDistributed",
					"type": "event"
				},
				{
					"inputs": [],
					"name": "adminWallet",
					"outputs": [
						{
							"internalType": "address",
							"name": "",
							"type": "address"
						}
					],
					"stateMutability": "view",
					"type": "function"
				},
				{
					"inputs": [
						{
							"internalType": "uint256",
							"name": "floorValue",
							"type": "uint256"
						},
						{
							"internalType": "uint8",
							"name": "rarity",
							"type": "uint8"
						}
					],
					"name": "calculateFees",
					"outputs": [
						{
							"internalType": "uint256",
							"name": "",
							"type": "uint256"
						}
					],
					"stateMutability": "pure",
					"type": "function"
				},
				{
					"inputs": [
						{
							"internalType": "uint256",
							"name": "agreementId",
							"type": "uint256"
						},
						{
							"internalType": "uint256",
							"name": "floorValue",
							"type": "uint256"
						},
						{
							"internalType": "uint8",
							"name": "rarity",
							"type": "uint8"
						}
					],
					"name": "distributeFees",
					"outputs": [],
					"stateMutability": "nonpayable",
					"type": "function"
				},
				{
					"inputs": [
						{
							"internalType": "address[]",
							"name": "topUsers",
							"type": "address[]"
						},
						{
							"internalType": "uint256[]",
							"name": "rewards",
							"type": "uint256[]"
						}
					],
					"name": "distributeRewards",
					"outputs": [],
					"stateMutability": "nonpayable",
					"type": "function"
				},
				{
					"inputs": [],
					"name": "rewardPool",
					"outputs": [
						{
							"internalType": "uint256",
							"name": "",
							"type": "uint256"
						}
					],
					"stateMutability": "view",
					"type": "function"
				},
				{
					"inputs": [],
					"name": "threshold",
					"outputs": [
						{
							"internalType": "uint256",
							"name": "",
							"type": "uint256"
						}
					],
					"stateMutability": "view",
					"type": "function"
				},
				{
					"inputs": [],
					"name": "treasuryManagerWallet",
					"outputs": [
						{
							"internalType": "address",
							"name": "",
							"type": "address"
						}
					],
					"stateMutability": "view",
					"type": "function"
				}
			],
			"devdoc": {
				"kind": "dev",
				"methods": {},
				"version": 1
			},
			"evm": {
				"assembly": "    /* \"contracts/RoninP2PFeeAndRewardDistribution.sol\":57:8922  contract RoninP2PFeeAndRewardDistribution {... */\n  mstore(0x40, 0x80)\n    /* \"contracts/RoninP2PFeeAndRewardDistribution.sol\":261:271  0.05 ether */\n  0xb1a2bc2ec50000\n    /* \"contracts/RoninP2PFeeAndRewardDistribution.sol\":234:271  uint256 public threshold = 0.05 ether */\n  0x03\n  sstore\n    /* \"contracts/RoninP2PFeeAndRewardDistribution.sol\":518:791  constructor(address _adminWallet, address _treasuryManagerWallet) {... */\n  callvalue\n  dup1\n  iszero\n  tag_1\n  jumpi\n  0x00\n  dup1\n  revert\ntag_1:\n  pop\n  mload(0x40)\n  sub(codesize, bytecodeSize)\n  dup1\n  bytecodeSize\n  dup4\n  codecopy\n  dup2\n  dup2\n  add\n  0x40\n  mstore\n  dup2\n  add\n  swap1\n  tag_2\n  swap2\n  swap1\n  tag_3\n  jump\t// in\ntag_2:\n    /* \"contracts/RoninP2PFeeAndRewardDistribution.sol\":636:648  _adminWallet */\n  dup2\n    /* \"contracts/RoninP2PFeeAndRewardDistribution.sol\":622:633  adminWallet */\n  0x00\n  dup1\n    /* \"contracts/RoninP2PFeeAndRewardDistribution.sol\":622:648  adminWallet = _adminWallet */\n  0x0100\n  exp\n  dup2\n  sload\n  dup2\n  0xffffffffffffffffffffffffffffffffffffffff\n  mul\n  not\n  and\n  swap1\n  dup4\n  0xffffffffffffffffffffffffffffffffffffffff\n  and\n  mul\n  or\n  swap1\n  sstore\n  pop\n    /* \"contracts/RoninP2PFeeAndRewardDistribution.sol\":718:740  _treasuryManagerWallet */\n  dup1\n    /* \"contracts/RoninP2PFeeAndRewardDistribution.sol\":694:715  treasuryManagerWallet */\n  0x01\n  0x00\n    /* \"contracts/RoninP2PFeeAndRewardDistribution.sol\":694:740  treasuryManagerWallet = _treasuryManagerWallet */\n  0x0100\n  exp\n  dup2\n  sload\n  dup2\n  0xffffffffffffffffffffffffffffffffffffffff\n  mul\n  not\n  and\n  swap1\n  dup4\n  0xffffffffffffffffffffffffffffffffffffffff\n  and\n  mul\n  or\n  swap1\n  sstore\n  pop\n    /* \"contracts/RoninP2PFeeAndRewardDistribution.sol\":518:791  constructor(address _adminWallet, address _treasuryManagerWallet) {... */\n  pop\n  pop\n    /* \"contracts/RoninP2PFeeAndRewardDistribution.sol\":57:8922  contract RoninP2PFeeAndRewardDistribution {... */\n  jump(tag_6)\n    /* \"#utility.yul\":88:205   */\ntag_8:\n    /* \"#utility.yul\":197:198   */\n  0x00\n    /* \"#utility.yul\":194:195   */\n  dup1\n    /* \"#utility.yul\":187:199   */\n  revert\n    /* \"#utility.yul\":334:460   */\ntag_10:\n    /* \"#utility.yul\":371:378   */\n  0x00\n    /* \"#utility.yul\":411:453   */\n  0xffffffffffffffffffffffffffffffffffffffff\n    /* \"#utility.yul\":404:409   */\n  dup3\n    /* \"#utility.yul\":400:454   */\n  and\n    /* \"#utility.yul\":389:454   */\n  swap1\n  pop\n    /* \"#utility.yul\":334:460   */\n  swap2\n  swap1\n  pop\n  jump\t// out\n    /* \"#utility.yul\":466:562   */\ntag_11:\n    /* \"#utility.yul\":503:510   */\n  0x00\n    /* \"#utility.yul\":532:556   */\n  tag_20\n    /* \"#utility.yul\":550:555   */\n  dup3\n    /* \"#utility.yul\":532:556   */\n  tag_10\n  jump\t// in\ntag_20:\n    /* \"#utility.yul\":521:556   */\n  swap1\n  pop\n    /* \"#utility.yul\":466:562   */\n  swap2\n  swap1\n  pop\n  jump\t// out\n    /* \"#utility.yul\":568:690   */\ntag_12:\n    /* \"#utility.yul\":641:665   */\n  tag_22\n    /* \"#utility.yul\":659:664   */\n  dup2\n    /* \"#utility.yul\":641:665   */\n  tag_11\n  jump\t// in\ntag_22:\n    /* \"#utility.yul\":634:639   */\n  dup2\n    /* \"#utility.yul\":631:666   */\n  eq\n    /* \"#utility.yul\":621:684   */\n  tag_23\n  jumpi\n    /* \"#utility.yul\":680:681   */\n  0x00\n    /* \"#utility.yul\":677:678   */\n  dup1\n    /* \"#utility.yul\":670:682   */\n  revert\n    /* \"#utility.yul\":621:684   */\ntag_23:\n    /* \"#utility.yul\":568:690   */\n  pop\n  jump\t// out\n    /* \"#utility.yul\":696:839   */\ntag_13:\n    /* \"#utility.yul\":753:758   */\n  0x00\n    /* \"#utility.yul\":784:790   */\n  dup2\n    /* \"#utility.yul\":778:791   */\n  mload\n    /* \"#utility.yul\":769:791   */\n  swap1\n  pop\n    /* \"#utility.yul\":800:833   */\n  tag_25\n    /* \"#utility.yul\":827:832   */\n  dup2\n    /* \"#utility.yul\":800:833   */\n  tag_12\n  jump\t// in\ntag_25:\n    /* \"#utility.yul\":696:839   */\n  swap3\n  swap2\n  pop\n  pop\n  jump\t// out\n    /* \"#utility.yul\":845:1352   */\ntag_3:\n    /* \"#utility.yul\":924:930   */\n  0x00\n    /* \"#utility.yul\":932:938   */\n  dup1\n    /* \"#utility.yul\":981:983   */\n  0x40\n    /* \"#utility.yul\":969:978   */\n  dup4\n    /* \"#utility.yul\":960:967   */\n  dup6\n    /* \"#utility.yul\":956:979   */\n  sub\n    /* \"#utility.yul\":952:984   */\n  slt\n    /* \"#utility.yul\":949:1068   */\n  iszero\n  tag_27\n  jumpi\n    /* \"#utility.yul\":987:1066   */\n  tag_28\n  tag_8\n  jump\t// in\ntag_28:\n    /* \"#utility.yul\":949:1068   */\ntag_27:\n    /* \"#utility.yul\":1107:1108   */\n  0x00\n    /* \"#utility.yul\":1132:1196   */\n  tag_29\n    /* \"#utility.yul\":1188:1195   */\n  dup6\n    /* \"#utility.yul\":1179:1185   */\n  dup3\n    /* \"#utility.yul\":1168:1177   */\n  dup7\n    /* \"#utility.yul\":1164:1186   */\n  add\n    /* \"#utility.yul\":1132:1196   */\n  tag_13\n  jump\t// in\ntag_29:\n    /* \"#utility.yul\":1122:1196   */\n  swap3\n  pop\n    /* \"#utility.yul\":1078:1206   */\n  pop\n    /* \"#utility.yul\":1245:1247   */\n  0x20\n    /* \"#utility.yul\":1271:1335   */\n  tag_30\n    /* \"#utility.yul\":1327:1334   */\n  dup6\n    /* \"#utility.yul\":1318:1324   */\n  dup3\n    /* \"#utility.yul\":1307:1316   */\n  dup7\n    /* \"#utility.yul\":1303:1325   */\n  add\n    /* \"#utility.yul\":1271:1335   */\n  tag_13\n  jump\t// in\ntag_30:\n    /* \"#utility.yul\":1261:1335   */\n  swap2\n  pop\n    /* \"#utility.yul\":1216:1345   */\n  pop\n    /* \"#utility.yul\":845:1352   */\n  swap3\n  pop\n  swap3\n  swap1\n  pop\n  jump\t// out\n    /* \"contracts/RoninP2PFeeAndRewardDistribution.sol\":57:8922  contract RoninP2PFeeAndRewardDistribution {... */\ntag_6:\n  dataSize(sub_0)\n  dup1\n  dataOffset(sub_0)\n  0x00\n  codecopy\n  0x00\n  return\nstop\n\nsub_0: assembly {\n        /* \"contracts/RoninP2PFeeAndRewardDistribution.sol\":57:8922  contract RoninP2PFeeAndRewardDistribution {... */\n      mstore(0x40, 0x80)\n      callvalue\n      dup1\n      iszero\n      tag_1\n      jumpi\n      0x00\n      dup1\n      revert\n    tag_1:\n      pop\n      jumpi(tag_2, lt(calldatasize, 0x04))\n      shr(0xe0, calldataload(0x00))\n      dup1\n      0x66666aa9\n      gt\n      tag_10\n      jumpi\n      dup1\n      0x66666aa9\n      eq\n      tag_6\n      jumpi\n      dup1\n      0x7cc2a0a7\n      eq\n      tag_7\n      jumpi\n      dup1\n      0xdc03d932\n      eq\n      tag_8\n      jumpi\n      dup1\n      0xffe9573a\n      eq\n      tag_9\n      jumpi\n      jump(tag_2)\n    tag_10:\n      dup1\n      0x143ba4f3\n      eq\n      tag_3\n      jumpi\n      dup1\n      0x36b19cd7\n      eq\n      tag_4\n      jumpi\n      dup1\n      0x42cde4e8\n      eq\n      tag_5\n      jumpi\n    tag_2:\n      0x00\n      dup1\n      revert\n        /* \"contracts/RoninP2PFeeAndRewardDistribution.sol\":5845:8600  function distributeRewards(address[] memory topUsers, uint256[] memory rewards) public {... */\n    tag_3:\n      tag_11\n      0x04\n      dup1\n      calldatasize\n      sub\n      dup2\n      add\n      swap1\n      tag_12\n      swap2\n      swap1\n      tag_13\n      jump\t// in\n    tag_12:\n      tag_14\n      jump\t// in\n    tag_11:\n      stop\n        /* \"contracts/RoninP2PFeeAndRewardDistribution.sol\":105:131  address public adminWallet */\n    tag_4:\n      tag_15\n      tag_16\n      jump\t// in\n    tag_15:\n      mload(0x40)\n      tag_17\n      swap2\n      swap1\n      tag_18\n      jump\t// in\n    tag_17:\n      mload(0x40)\n      dup1\n      swap2\n      sub\n      swap1\n      return\n        /* \"contracts/RoninP2PFeeAndRewardDistribution.sol\":234:271  uint256 public threshold = 0.05 ether */\n    tag_5:\n      tag_19\n      tag_20\n      jump\t// in\n    tag_19:\n      mload(0x40)\n      tag_21\n      swap2\n      swap1\n      tag_22\n      jump\t// in\n    tag_21:\n      mload(0x40)\n      dup1\n      swap2\n      sub\n      swap1\n      return\n        /* \"contracts/RoninP2PFeeAndRewardDistribution.sol\":191:216  uint256 public rewardPool */\n    tag_6:\n      tag_23\n      tag_24\n      jump\t// in\n    tag_23:\n      mload(0x40)\n      tag_25\n      swap2\n      swap1\n      tag_22\n      jump\t// in\n    tag_25:\n      mload(0x40)\n      dup1\n      swap2\n      sub\n      swap1\n      return\n        /* \"contracts/RoninP2PFeeAndRewardDistribution.sol\":3114:5587  function distributeFees(uint256 agreementId, uint256 floorValue, uint8 rarity) public {... */\n    tag_7:\n      tag_26\n      0x04\n      dup1\n      calldatasize\n      sub\n      dup2\n      add\n      swap1\n      tag_27\n      swap2\n      swap1\n      tag_28\n      jump\t// in\n    tag_27:\n      tag_29\n      jump\t// in\n    tag_26:\n      stop\n        /* \"contracts/RoninP2PFeeAndRewardDistribution.sol\":845:2928  function calculateFees(uint256 floorValue, uint8 rarity) public pure returns (uint256) {... */\n    tag_8:\n      tag_30\n      0x04\n      dup1\n      calldatasize\n      sub\n      dup2\n      add\n      swap1\n      tag_31\n      swap2\n      swap1\n      tag_32\n      jump\t// in\n    tag_31:\n      tag_33\n      jump\t// in\n    tag_30:\n      mload(0x40)\n      tag_34\n      swap2\n      swap1\n      tag_22\n      jump\t// in\n    tag_34:\n      mload(0x40)\n      dup1\n      swap2\n      sub\n      swap1\n      return\n        /* \"contracts/RoninP2PFeeAndRewardDistribution.sol\":141:177  address public treasuryManagerWallet */\n    tag_9:\n      tag_35\n      tag_36\n      jump\t// in\n    tag_35:\n      mload(0x40)\n      tag_37\n      swap2\n      swap1\n      tag_18\n      jump\t// in\n    tag_37:\n      mload(0x40)\n      dup1\n      swap2\n      sub\n      swap1\n      return\n        /* \"contracts/RoninP2PFeeAndRewardDistribution.sol\":5845:8600  function distributeRewards(address[] memory topUsers, uint256[] memory rewards) public {... */\n    tag_14:\n        /* \"contracts/RoninP2PFeeAndRewardDistribution.sol\":6220:6229  threshold */\n      sload(0x03)\n        /* \"contracts/RoninP2PFeeAndRewardDistribution.sol\":6206:6216  rewardPool */\n      sload(0x02)\n        /* \"contracts/RoninP2PFeeAndRewardDistribution.sol\":6206:6229  rewardPool >= threshold */\n      lt\n      iszero\n        /* \"contracts/RoninP2PFeeAndRewardDistribution.sol\":6198:6263  require(rewardPool >= threshold, \"Reward pool threshold not met\") */\n      tag_39\n      jumpi\n      mload(0x40)\n      0x08c379a000000000000000000000000000000000000000000000000000000000\n      dup2\n      mstore\n      0x04\n      add\n      tag_40\n      swap1\n      tag_41\n      jump\t// in\n    tag_40:\n      mload(0x40)\n      dup1\n      swap2\n      sub\n      swap1\n      revert\n    tag_39:\n        /* \"contracts/RoninP2PFeeAndRewardDistribution.sol\":6564:6571  rewards */\n      dup1\n        /* \"contracts/RoninP2PFeeAndRewardDistribution.sol\":6564:6578  rewards.length */\n      mload\n        /* \"contracts/RoninP2PFeeAndRewardDistribution.sol\":6545:6553  topUsers */\n      dup3\n        /* \"contracts/RoninP2PFeeAndRewardDistribution.sol\":6545:6560  topUsers.length */\n      mload\n        /* \"contracts/RoninP2PFeeAndRewardDistribution.sol\":6545:6578  topUsers.length == rewards.length */\n      eq\n        /* \"contracts/RoninP2PFeeAndRewardDistribution.sol\":6537:6618  require(topUsers.length == rewards.length, \"Mismatched users and rewards length\") */\n      tag_42\n      jumpi\n      mload(0x40)\n      0x08c379a000000000000000000000000000000000000000000000000000000000\n      dup2\n      mstore\n      0x04\n      add\n      tag_43\n      swap1\n      tag_44\n      jump\t// in\n    tag_43:\n      mload(0x40)\n      dup1\n      swap2\n      sub\n      swap1\n      revert\n    tag_42:\n        /* \"contracts/RoninP2PFeeAndRewardDistribution.sol\":6905:6914  uint256 i */\n      0x00\n        /* \"contracts/RoninP2PFeeAndRewardDistribution.sol\":6900:7584  for (uint256 i = 0; i < topUsers.length; i++) {... */\n    tag_45:\n        /* \"contracts/RoninP2PFeeAndRewardDistribution.sol\":6924:6932  topUsers */\n      dup3\n        /* \"contracts/RoninP2PFeeAndRewardDistribution.sol\":6924:6939  topUsers.length */\n      mload\n        /* \"contracts/RoninP2PFeeAndRewardDistribution.sol\":6920:6921  i */\n      dup2\n        /* \"contracts/RoninP2PFeeAndRewardDistribution.sol\":6920:6939  i < topUsers.length */\n      lt\n        /* \"contracts/RoninP2PFeeAndRewardDistribution.sol\":6900:7584  for (uint256 i = 0; i < topUsers.length; i++) {... */\n      iszero\n      tag_46\n      jumpi\n        /* \"contracts/RoninP2PFeeAndRewardDistribution.sol\":7248:7256  topUsers */\n      dup3\n        /* \"contracts/RoninP2PFeeAndRewardDistribution.sol\":7257:7258  i */\n      dup2\n        /* \"contracts/RoninP2PFeeAndRewardDistribution.sol\":7248:7259  topUsers[i] */\n      dup2\n      mload\n      dup2\n      lt\n      tag_48\n      jumpi\n      tag_49\n      tag_50\n      jump\t// in\n    tag_49:\n    tag_48:\n      0x20\n      mul\n      0x20\n      add\n      add\n      mload\n        /* \"contracts/RoninP2PFeeAndRewardDistribution.sol\":7240:7269  payable(topUsers[i]).transfer */\n      0xffffffffffffffffffffffffffffffffffffffff\n      and\n        /* \"contracts/RoninP2PFeeAndRewardDistribution.sol\":7240:7281  payable(topUsers[i]).transfer(rewards[i]) */\n      0x08fc\n        /* \"contracts/RoninP2PFeeAndRewardDistribution.sol\":7270:7277  rewards */\n      dup4\n        /* \"contracts/RoninP2PFeeAndRewardDistribution.sol\":7278:7279  i */\n      dup4\n        /* \"contracts/RoninP2PFeeAndRewardDistribution.sol\":7270:7280  rewards[i] */\n      dup2\n      mload\n      dup2\n      lt\n      tag_51\n      jumpi\n      tag_52\n      tag_50\n      jump\t// in\n    tag_52:\n    tag_51:\n      0x20\n      mul\n      0x20\n      add\n      add\n      mload\n        /* \"contracts/RoninP2PFeeAndRewardDistribution.sol\":7240:7281  payable(topUsers[i]).transfer(rewards[i]) */\n      swap1\n      dup2\n      iszero\n      mul\n      swap1\n      mload(0x40)\n      0x00\n      mload(0x40)\n      dup1\n      dup4\n      sub\n      dup2\n      dup6\n      dup9\n      dup9\n      call\n      swap4\n      pop\n      pop\n      pop\n      pop\n      iszero\n      dup1\n      iszero\n      tag_54\n      jumpi\n      returndatasize\n      0x00\n      dup1\n      returndatacopy\n      revert(0x00, returndatasize)\n    tag_54:\n      pop\n        /* \"contracts/RoninP2PFeeAndRewardDistribution.sol\":6941:6944  i++ */\n      dup1\n      dup1\n      tag_55\n      swap1\n      tag_56\n      jump\t// in\n    tag_55:\n      swap2\n      pop\n      pop\n        /* \"contracts/RoninP2PFeeAndRewardDistribution.sol\":6900:7584  for (uint256 i = 0; i < topUsers.length; i++) {... */\n      jump(tag_45)\n    tag_46:\n      pop\n        /* \"contracts/RoninP2PFeeAndRewardDistribution.sol\":7908:7917  threshold */\n      sload(0x03)\n        /* \"contracts/RoninP2PFeeAndRewardDistribution.sol\":7894:7904  rewardPool */\n      0x02\n      0x00\n        /* \"contracts/RoninP2PFeeAndRewardDistribution.sol\":7894:7917  rewardPool -= threshold */\n      dup3\n      dup3\n      sload\n      tag_57\n      swap2\n      swap1\n      tag_58\n      jump\t// in\n    tag_57:\n      swap3\n      pop\n      pop\n      dup2\n      swap1\n      sstore\n      pop\n        /* \"contracts/RoninP2PFeeAndRewardDistribution.sol\":8240:8277  RewardsDistributed(topUsers, rewards) */\n      0xe69d325558610ba73c441901deb46d7f251108348dc5dc9447e8866774c12edc\n        /* \"contracts/RoninP2PFeeAndRewardDistribution.sol\":8259:8267  topUsers */\n      dup3\n        /* \"contracts/RoninP2PFeeAndRewardDistribution.sol\":8269:8276  rewards */\n      dup3\n        /* \"contracts/RoninP2PFeeAndRewardDistribution.sol\":8240:8277  RewardsDistributed(topUsers, rewards) */\n      mload(0x40)\n      tag_59\n      swap3\n      swap2\n      swap1\n      tag_60\n      jump\t// in\n    tag_59:\n      mload(0x40)\n      dup1\n      swap2\n      sub\n      swap1\n      log1\n        /* \"contracts/RoninP2PFeeAndRewardDistribution.sol\":5845:8600  function distributeRewards(address[] memory topUsers, uint256[] memory rewards) public {... */\n      pop\n      pop\n      jump\t// out\n        /* \"contracts/RoninP2PFeeAndRewardDistribution.sol\":105:131  address public adminWallet */\n    tag_16:\n      0x00\n      dup1\n      sload\n      swap1\n      0x0100\n      exp\n      swap1\n      div\n      0xffffffffffffffffffffffffffffffffffffffff\n      and\n      dup2\n      jump\t// out\n        /* \"contracts/RoninP2PFeeAndRewardDistribution.sol\":234:271  uint256 public threshold = 0.05 ether */\n    tag_20:\n      sload(0x03)\n      dup2\n      jump\t// out\n        /* \"contracts/RoninP2PFeeAndRewardDistribution.sol\":191:216  uint256 public rewardPool */\n    tag_24:\n      sload(0x02)\n      dup2\n      jump\t// out\n        /* \"contracts/RoninP2PFeeAndRewardDistribution.sol\":3114:5587  function distributeFees(uint256 agreementId, uint256 floorValue, uint8 rarity) public {... */\n    tag_29:\n        /* \"contracts/RoninP2PFeeAndRewardDistribution.sol\":3394:3405  uint256 fee */\n      0x00\n        /* \"contracts/RoninP2PFeeAndRewardDistribution.sol\":3408:3441  calculateFees(floorValue, rarity) */\n      tag_62\n        /* \"contracts/RoninP2PFeeAndRewardDistribution.sol\":3422:3432  floorValue */\n      dup4\n        /* \"contracts/RoninP2PFeeAndRewardDistribution.sol\":3434:3440  rarity */\n      dup4\n        /* \"contracts/RoninP2PFeeAndRewardDistribution.sol\":3408:3421  calculateFees */\n      tag_33\n        /* \"contracts/RoninP2PFeeAndRewardDistribution.sol\":3408:3441  calculateFees(floorValue, rarity) */\n      jump\t// in\n    tag_62:\n        /* \"contracts/RoninP2PFeeAndRewardDistribution.sol\":3394:3441  uint256 fee = calculateFees(floorValue, rarity) */\n      swap1\n      pop\n        /* \"contracts/RoninP2PFeeAndRewardDistribution.sol\":3643:3659  uint256 adminFee */\n      0x00\n        /* \"contracts/RoninP2PFeeAndRewardDistribution.sol\":3676:3680  1000 */\n      0x03e8\n        /* \"contracts/RoninP2PFeeAndRewardDistribution.sol\":3669:3672  475 */\n      0x01db\n        /* \"contracts/RoninP2PFeeAndRewardDistribution.sol\":3663:3666  fee */\n      dup4\n        /* \"contracts/RoninP2PFeeAndRewardDistribution.sol\":3663:3672  fee * 475 */\n      tag_63\n      swap2\n      swap1\n      tag_64\n      jump\t// in\n    tag_63:\n        /* \"contracts/RoninP2PFeeAndRewardDistribution.sol\":3662:3680  (fee * 475) / 1000 */\n      tag_65\n      swap2\n      swap1\n      tag_66\n      jump\t// in\n    tag_65:\n        /* \"contracts/RoninP2PFeeAndRewardDistribution.sol\":3643:3680  uint256 adminFee = (fee * 475) / 1000 */\n      swap1\n      pop\n        /* \"contracts/RoninP2PFeeAndRewardDistribution.sol\":3890:3909  uint256 treasuryFee */\n      0x00\n        /* \"contracts/RoninP2PFeeAndRewardDistribution.sol\":3926:3930  1000 */\n      0x03e8\n        /* \"contracts/RoninP2PFeeAndRewardDistribution.sol\":3919:3922  475 */\n      0x01db\n        /* \"contracts/RoninP2PFeeAndRewardDistribution.sol\":3913:3916  fee */\n      dup5\n        /* \"contracts/RoninP2PFeeAndRewardDistribution.sol\":3913:3922  fee * 475 */\n      tag_67\n      swap2\n      swap1\n      tag_64\n      jump\t// in\n    tag_67:\n        /* \"contracts/RoninP2PFeeAndRewardDistribution.sol\":3912:3930  (fee * 475) / 1000 */\n      tag_68\n      swap2\n      swap1\n      tag_66\n      jump\t// in\n    tag_68:\n        /* \"contracts/RoninP2PFeeAndRewardDistribution.sol\":3890:3930  uint256 treasuryFee = (fee * 475) / 1000 */\n      swap1\n      pop\n        /* \"contracts/RoninP2PFeeAndRewardDistribution.sol\":4148:4169  uint256 rewardPoolFee */\n      0x00\n        /* \"contracts/RoninP2PFeeAndRewardDistribution.sol\":4185:4189  1000 */\n      0x03e8\n        /* \"contracts/RoninP2PFeeAndRewardDistribution.sol\":4179:4181  50 */\n      0x32\n        /* \"contracts/RoninP2PFeeAndRewardDistribution.sol\":4173:4176  fee */\n      dup6\n        /* \"contracts/RoninP2PFeeAndRewardDistribution.sol\":4173:4181  fee * 50 */\n      tag_69\n      swap2\n      swap1\n      tag_64\n      jump\t// in\n    tag_69:\n        /* \"contracts/RoninP2PFeeAndRewardDistribution.sol\":4172:4189  (fee * 50) / 1000 */\n      tag_70\n      swap2\n      swap1\n      tag_66\n      jump\t// in\n    tag_70:\n        /* \"contracts/RoninP2PFeeAndRewardDistribution.sol\":4148:4189  uint256 rewardPoolFee = (fee * 50) / 1000 */\n      swap1\n      pop\n        /* \"contracts/RoninP2PFeeAndRewardDistribution.sol\":4424:4435  adminWallet */\n      0x00\n      dup1\n      sload\n      swap1\n      0x0100\n      exp\n      swap1\n      div\n      0xffffffffffffffffffffffffffffffffffffffff\n      and\n        /* \"contracts/RoninP2PFeeAndRewardDistribution.sol\":4416:4445  payable(adminWallet).transfer */\n      0xffffffffffffffffffffffffffffffffffffffff\n      and\n        /* \"contracts/RoninP2PFeeAndRewardDistribution.sol\":4416:4455  payable(adminWallet).transfer(adminFee) */\n      0x08fc\n        /* \"contracts/RoninP2PFeeAndRewardDistribution.sol\":4446:4454  adminFee */\n      dup5\n        /* \"contracts/RoninP2PFeeAndRewardDistribution.sol\":4416:4455  payable(adminWallet).transfer(adminFee) */\n      swap1\n      dup2\n      iszero\n      mul\n      swap1\n      mload(0x40)\n      0x00\n      mload(0x40)\n      dup1\n      dup4\n      sub\n      dup2\n      dup6\n      dup9\n      dup9\n      call\n      swap4\n      pop\n      pop\n      pop\n      pop\n      iszero\n      dup1\n      iszero\n      tag_72\n      jumpi\n      returndatasize\n      0x00\n      dup1\n      returndatacopy\n      revert(0x00, returndatasize)\n    tag_72:\n      pop\n        /* \"contracts/RoninP2PFeeAndRewardDistribution.sol\":4697:4718  treasuryManagerWallet */\n      0x01\n      0x00\n      swap1\n      sload\n      swap1\n      0x0100\n      exp\n      swap1\n      div\n      0xffffffffffffffffffffffffffffffffffffffff\n      and\n        /* \"contracts/RoninP2PFeeAndRewardDistribution.sol\":4689:4728  payable(treasuryManagerWallet).transfer */\n      0xffffffffffffffffffffffffffffffffffffffff\n      and\n        /* \"contracts/RoninP2PFeeAndRewardDistribution.sol\":4689:4741  payable(treasuryManagerWallet).transfer(treasuryFee) */\n      0x08fc\n        /* \"contracts/RoninP2PFeeAndRewardDistribution.sol\":4729:4740  treasuryFee */\n      dup4\n        /* \"contracts/RoninP2PFeeAndRewardDistribution.sol\":4689:4741  payable(treasuryManagerWallet).transfer(treasuryFee) */\n      swap1\n      dup2\n      iszero\n      mul\n      swap1\n      mload(0x40)\n      0x00\n      mload(0x40)\n      dup1\n      dup4\n      sub\n      dup2\n      dup6\n      dup9\n      dup9\n      call\n      swap4\n      pop\n      pop\n      pop\n      pop\n      iszero\n      dup1\n      iszero\n      tag_74\n      jumpi\n      returndatasize\n      0x00\n      dup1\n      returndatacopy\n      revert(0x00, returndatasize)\n    tag_74:\n      pop\n        /* \"contracts/RoninP2PFeeAndRewardDistribution.sol\":4997:5010  rewardPoolFee */\n      dup1\n        /* \"contracts/RoninP2PFeeAndRewardDistribution.sol\":4983:4993  rewardPool */\n      0x02\n      0x00\n        /* \"contracts/RoninP2PFeeAndRewardDistribution.sol\":4983:5010  rewardPool += rewardPoolFee */\n      dup3\n      dup3\n      sload\n      tag_75\n      swap2\n      swap1\n      tag_76\n      jump\t// in\n    tag_75:\n      swap3\n      pop\n      pop\n      dup2\n      swap1\n      sstore\n      pop\n        /* \"contracts/RoninP2PFeeAndRewardDistribution.sol\":5266:5332  FeesDistributed(agreementId, adminFee, treasuryFee, rewardPoolFee) */\n      0x78490b24a020086d2701460dc169a540280c517bef9cdcd742f751a9099922a3\n        /* \"contracts/RoninP2PFeeAndRewardDistribution.sol\":5282:5293  agreementId */\n      dup8\n        /* \"contracts/RoninP2PFeeAndRewardDistribution.sol\":5295:5303  adminFee */\n      dup5\n        /* \"contracts/RoninP2PFeeAndRewardDistribution.sol\":5305:5316  treasuryFee */\n      dup5\n        /* \"contracts/RoninP2PFeeAndRewardDistribution.sol\":5318:5331  rewardPoolFee */\n      dup5\n        /* \"contracts/RoninP2PFeeAndRewardDistribution.sol\":5266:5332  FeesDistributed(agreementId, adminFee, treasuryFee, rewardPoolFee) */\n      mload(0x40)\n      tag_77\n      swap5\n      swap4\n      swap3\n      swap2\n      swap1\n      tag_78\n      jump\t// in\n    tag_77:\n      mload(0x40)\n      dup1\n      swap2\n      sub\n      swap1\n      log1\n        /* \"contracts/RoninP2PFeeAndRewardDistribution.sol\":3200:5587  {... */\n      pop\n      pop\n      pop\n      pop\n        /* \"contracts/RoninP2PFeeAndRewardDistribution.sol\":3114:5587  function distributeFees(uint256 agreementId, uint256 floorValue, uint8 rarity) public {... */\n      pop\n      pop\n      pop\n      jump\t// out\n        /* \"contracts/RoninP2PFeeAndRewardDistribution.sol\":845:2928  function calculateFees(uint256 floorValue, uint8 rarity) public pure returns (uint256) {... */\n    tag_33:\n        /* \"contracts/RoninP2PFeeAndRewardDistribution.sol\":923:930  uint256 */\n      0x00\n        /* \"contracts/RoninP2PFeeAndRewardDistribution.sol\":994:1015  uint256 feePercentage */\n      dup1\n        /* \"contracts/RoninP2PFeeAndRewardDistribution.sol\":1099:1100  1 */\n      0x01\n        /* \"contracts/RoninP2PFeeAndRewardDistribution.sol\":1089:1095  rarity */\n      dup4\n        /* \"contracts/RoninP2PFeeAndRewardDistribution.sol\":1089:1100  rarity == 1 */\n      0xff\n      and\n      sub\n        /* \"contracts/RoninP2PFeeAndRewardDistribution.sol\":1085:2527  if (rarity == 1) {... */\n      tag_80\n      jumpi\n        /* \"contracts/RoninP2PFeeAndRewardDistribution.sol\":1200:1201  1 */\n      0x01\n        /* \"contracts/RoninP2PFeeAndRewardDistribution.sol\":1184:1201  feePercentage = 1 */\n      swap1\n      pop\n        /* \"contracts/RoninP2PFeeAndRewardDistribution.sol\":1085:2527  if (rarity == 1) {... */\n      jump(tag_81)\n    tag_80:\n        /* \"contracts/RoninP2PFeeAndRewardDistribution.sol\":1312:1313  2 */\n      0x02\n        /* \"contracts/RoninP2PFeeAndRewardDistribution.sol\":1302:1308  rarity */\n      dup4\n        /* \"contracts/RoninP2PFeeAndRewardDistribution.sol\":1302:1313  rarity == 2 */\n      0xff\n      and\n      sub\n        /* \"contracts/RoninP2PFeeAndRewardDistribution.sol\":1298:2527  if (rarity == 2) {... */\n      tag_82\n      jumpi\n        /* \"contracts/RoninP2PFeeAndRewardDistribution.sol\":1433:1434  2 */\n      0x02\n        /* \"contracts/RoninP2PFeeAndRewardDistribution.sol\":1417:1434  feePercentage = 2 */\n      swap1\n      pop\n        /* \"contracts/RoninP2PFeeAndRewardDistribution.sol\":1298:2527  if (rarity == 2) {... */\n      jump(tag_83)\n    tag_82:\n        /* \"contracts/RoninP2PFeeAndRewardDistribution.sol\":1565:1566  3 */\n      0x03\n        /* \"contracts/RoninP2PFeeAndRewardDistribution.sol\":1555:1561  rarity */\n      dup4\n        /* \"contracts/RoninP2PFeeAndRewardDistribution.sol\":1555:1566  rarity == 3 */\n      0xff\n      and\n      sub\n        /* \"contracts/RoninP2PFeeAndRewardDistribution.sol\":1551:2527  if (rarity == 3) {... */\n      tag_84\n      jumpi\n        /* \"contracts/RoninP2PFeeAndRewardDistribution.sol\":1706:1707  3 */\n      0x03\n        /* \"contracts/RoninP2PFeeAndRewardDistribution.sol\":1690:1707  feePercentage = 3 */\n      swap1\n      pop\n        /* \"contracts/RoninP2PFeeAndRewardDistribution.sol\":1551:2527  if (rarity == 3) {... */\n      jump(tag_85)\n    tag_84:\n        /* \"contracts/RoninP2PFeeAndRewardDistribution.sol\":1858:1859  4 */\n      0x04\n        /* \"contracts/RoninP2PFeeAndRewardDistribution.sol\":1848:1854  rarity */\n      dup4\n        /* \"contracts/RoninP2PFeeAndRewardDistribution.sol\":1848:1859  rarity == 4 */\n      0xff\n      and\n      sub\n        /* \"contracts/RoninP2PFeeAndRewardDistribution.sol\":1844:2527  if (rarity == 4) {... */\n      tag_86\n      jumpi\n        /* \"contracts/RoninP2PFeeAndRewardDistribution.sol\":2019:2020  4 */\n      0x04\n        /* \"contracts/RoninP2PFeeAndRewardDistribution.sol\":2003:2020  feePercentage = 4 */\n      swap1\n      pop\n        /* \"contracts/RoninP2PFeeAndRewardDistribution.sol\":1844:2527  if (rarity == 4) {... */\n      jump(tag_87)\n    tag_86:\n        /* \"contracts/RoninP2PFeeAndRewardDistribution.sol\":2355:2356  5 */\n      0x05\n        /* \"contracts/RoninP2PFeeAndRewardDistribution.sol\":2339:2356  feePercentage = 5 */\n      swap1\n      pop\n        /* \"contracts/RoninP2PFeeAndRewardDistribution.sol\":1844:2527  if (rarity == 4) {... */\n    tag_87:\n        /* \"contracts/RoninP2PFeeAndRewardDistribution.sol\":1551:2527  if (rarity == 3) {... */\n    tag_85:\n        /* \"contracts/RoninP2PFeeAndRewardDistribution.sol\":1298:2527  if (rarity == 2) {... */\n    tag_83:\n        /* \"contracts/RoninP2PFeeAndRewardDistribution.sol\":1085:2527  if (rarity == 1) {... */\n    tag_81:\n        /* \"contracts/RoninP2PFeeAndRewardDistribution.sol\":2742:2745  100 */\n      0x64\n        /* \"contracts/RoninP2PFeeAndRewardDistribution.sol\":2725:2738  feePercentage */\n      dup2\n        /* \"contracts/RoninP2PFeeAndRewardDistribution.sol\":2712:2722  floorValue */\n      dup6\n        /* \"contracts/RoninP2PFeeAndRewardDistribution.sol\":2712:2738  floorValue * feePercentage */\n      tag_88\n      swap2\n      swap1\n      tag_64\n      jump\t// in\n    tag_88:\n        /* \"contracts/RoninP2PFeeAndRewardDistribution.sol\":2711:2745  (floorValue * feePercentage) / 100 */\n      tag_89\n      swap2\n      swap1\n      tag_66\n      jump\t// in\n    tag_89:\n        /* \"contracts/RoninP2PFeeAndRewardDistribution.sol\":2704:2745  return (floorValue * feePercentage) / 100 */\n      swap2\n      pop\n      pop\n        /* \"contracts/RoninP2PFeeAndRewardDistribution.sol\":845:2928  function calculateFees(uint256 floorValue, uint8 rarity) public pure returns (uint256) {... */\n      swap3\n      swap2\n      pop\n      pop\n      jump\t// out\n        /* \"contracts/RoninP2PFeeAndRewardDistribution.sol\":141:177  address public treasuryManagerWallet */\n    tag_36:\n      0x01\n      0x00\n      swap1\n      sload\n      swap1\n      0x0100\n      exp\n      swap1\n      div\n      0xffffffffffffffffffffffffffffffffffffffff\n      and\n      dup2\n      jump\t// out\n        /* \"#utility.yul\":7:82   */\n    tag_90:\n        /* \"#utility.yul\":40:46   */\n      0x00\n        /* \"#utility.yul\":73:75   */\n      0x40\n        /* \"#utility.yul\":67:76   */\n      mload\n        /* \"#utility.yul\":57:76   */\n      swap1\n      pop\n        /* \"#utility.yul\":7:82   */\n      swap1\n      jump\t// out\n        /* \"#utility.yul\":88:205   */\n    tag_91:\n        /* \"#utility.yul\":197:198   */\n      0x00\n        /* \"#utility.yul\":194:195   */\n      dup1\n        /* \"#utility.yul\":187:199   */\n      revert\n        /* \"#utility.yul\":211:328   */\n    tag_92:\n        /* \"#utility.yul\":320:321   */\n      0x00\n        /* \"#utility.yul\":317:318   */\n      dup1\n        /* \"#utility.yul\":310:322   */\n      revert\n        /* \"#utility.yul\":334:451   */\n    tag_93:\n        /* \"#utility.yul\":443:444   */\n      0x00\n        /* \"#utility.yul\":440:441   */\n      dup1\n        /* \"#utility.yul\":433:445   */\n      revert\n        /* \"#utility.yul\":457:559   */\n    tag_94:\n        /* \"#utility.yul\":498:504   */\n      0x00\n        /* \"#utility.yul\":549:551   */\n      0x1f\n        /* \"#utility.yul\":545:552   */\n      not\n        /* \"#utility.yul\":540:542   */\n      0x1f\n        /* \"#utility.yul\":533:538   */\n      dup4\n        /* \"#utility.yul\":529:543   */\n      add\n        /* \"#utility.yul\":525:553   */\n      and\n        /* \"#utility.yul\":515:553   */\n      swap1\n      pop\n        /* \"#utility.yul\":457:559   */\n      swap2\n      swap1\n      pop\n      jump\t// out\n        /* \"#utility.yul\":565:745   */\n    tag_95:\n        /* \"#utility.yul\":613:690   */\n      0x4e487b7100000000000000000000000000000000000000000000000000000000\n        /* \"#utility.yul\":610:611   */\n      0x00\n        /* \"#utility.yul\":603:691   */\n      mstore\n        /* \"#utility.yul\":710:714   */\n      0x41\n        /* \"#utility.yul\":707:708   */\n      0x04\n        /* \"#utility.yul\":700:715   */\n      mstore\n        /* \"#utility.yul\":734:738   */\n      0x24\n        /* \"#utility.yul\":731:732   */\n      0x00\n        /* \"#utility.yul\":724:739   */\n      revert\n        /* \"#utility.yul\":751:1032   */\n    tag_96:\n        /* \"#utility.yul\":834:861   */\n      tag_146\n        /* \"#utility.yul\":856:860   */\n      dup3\n        /* \"#utility.yul\":834:861   */\n      tag_94\n      jump\t// in\n    tag_146:\n        /* \"#utility.yul\":826:832   */\n      dup2\n        /* \"#utility.yul\":822:862   */\n      add\n        /* \"#utility.yul\":964:970   */\n      dup2\n        /* \"#utility.yul\":952:962   */\n      dup2\n        /* \"#utility.yul\":949:971   */\n      lt\n        /* \"#utility.yul\":928:946   */\n      0xffffffffffffffff\n        /* \"#utility.yul\":916:926   */\n      dup3\n        /* \"#utility.yul\":913:947   */\n      gt\n        /* \"#utility.yul\":910:972   */\n      or\n        /* \"#utility.yul\":907:995   */\n      iszero\n      tag_147\n      jumpi\n        /* \"#utility.yul\":975:993   */\n      tag_148\n      tag_95\n      jump\t// in\n    tag_148:\n        /* \"#utility.yul\":907:995   */\n    tag_147:\n        /* \"#utility.yul\":1015:1025   */\n      dup1\n        /* \"#utility.yul\":1011:1013   */\n      0x40\n        /* \"#utility.yul\":1004:1026   */\n      mstore\n        /* \"#utility.yul\":794:1032   */\n      pop\n        /* \"#utility.yul\":751:1032   */\n      pop\n      pop\n      jump\t// out\n        /* \"#utility.yul\":1038:1167   */\n    tag_97:\n        /* \"#utility.yul\":1072:1078   */\n      0x00\n        /* \"#utility.yul\":1099:1119   */\n      tag_150\n      tag_90\n      jump\t// in\n    tag_150:\n        /* \"#utility.yul\":1089:1119   */\n      swap1\n      pop\n        /* \"#utility.yul\":1128:1161   */\n      tag_151\n        /* \"#utility.yul\":1156:1160   */\n      dup3\n        /* \"#utility.yul\":1148:1154   */\n      dup3\n        /* \"#utility.yul\":1128:1161   */\n      tag_96\n      jump\t// in\n    tag_151:\n        /* \"#utility.yul\":1038:1167   */\n      swap2\n      swap1\n      pop\n      jump\t// out\n        /* \"#utility.yul\":1173:1484   */\n    tag_98:\n        /* \"#utility.yul\":1250:1254   */\n      0x00\n        /* \"#utility.yul\":1340:1358   */\n      0xffffffffffffffff\n        /* \"#utility.yul\":1332:1338   */\n      dup3\n        /* \"#utility.yul\":1329:1359   */\n      gt\n        /* \"#utility.yul\":1326:1382   */\n      iszero\n      tag_153\n      jumpi\n        /* \"#utility.yul\":1362:1380   */\n      tag_154\n      tag_95\n      jump\t// in\n    tag_154:\n        /* \"#utility.yul\":1326:1382   */\n    tag_153:\n        /* \"#utility.yul\":1412:1416   */\n      0x20\n        /* \"#utility.yul\":1404:1410   */\n      dup3\n        /* \"#utility.yul\":1400:1417   */\n      mul\n        /* \"#utility.yul\":1392:1417   */\n      swap1\n      pop\n        /* \"#utility.yul\":1472:1476   */\n      0x20\n        /* \"#utility.yul\":1466:1470   */\n      dup2\n        /* \"#utility.yul\":1462:1477   */\n      add\n        /* \"#utility.yul\":1454:1477   */\n      swap1\n      pop\n        /* \"#utility.yul\":1173:1484   */\n      swap2\n      swap1\n      pop\n      jump\t// out\n        /* \"#utility.yul\":1490:1607   */\n    tag_99:\n        /* \"#utility.yul\":1599:1600   */\n      0x00\n        /* \"#utility.yul\":1596:1597   */\n      dup1\n        /* \"#utility.yul\":1589:1601   */\n      revert\n        /* \"#utility.yul\":1613:1739   */\n    tag_100:\n        /* \"#utility.yul\":1650:1657   */\n      0x00\n        /* \"#utility.yul\":1690:1732   */\n      0xffffffffffffffffffffffffffffffffffffffff\n        /* \"#utility.yul\":1683:1688   */\n      dup3\n        /* \"#utility.yul\":1679:1733   */\n      and\n        /* \"#utility.yul\":1668:1733   */\n      swap1\n      pop\n        /* \"#utility.yul\":1613:1739   */\n      swap2\n      swap1\n      pop\n      jump\t// out\n        /* \"#utility.yul\":1745:1841   */\n    tag_101:\n        /* \"#utility.yul\":1782:1789   */\n      0x00\n        /* \"#utility.yul\":1811:1835   */\n      tag_158\n        /* \"#utility.yul\":1829:1834   */\n      dup3\n        /* \"#utility.yul\":1811:1835   */\n      tag_100\n      jump\t// in\n    tag_158:\n        /* \"#utility.yul\":1800:1835   */\n      swap1\n      pop\n        /* \"#utility.yul\":1745:1841   */\n      swap2\n      swap1\n      pop\n      jump\t// out\n        /* \"#utility.yul\":1847:1969   */\n    tag_102:\n        /* \"#utility.yul\":1920:1944   */\n      tag_160\n        /* \"#utility.yul\":1938:1943   */\n      dup2\n        /* \"#utility.yul\":1920:1944   */\n      tag_101\n      jump\t// in\n    tag_160:\n        /* \"#utility.yul\":1913:1918   */\n      dup2\n        /* \"#utility.yul\":1910:1945   */\n      eq\n        /* \"#utility.yul\":1900:1963   */\n      tag_161\n      jumpi\n        /* \"#utility.yul\":1959:1960   */\n      0x00\n        /* \"#utility.yul\":1956:1957   */\n      dup1\n        /* \"#utility.yul\":1949:1961   */\n      revert\n        /* \"#utility.yul\":1900:1963   */\n    tag_161:\n        /* \"#utility.yul\":1847:1969   */\n      pop\n      jump\t// out\n        /* \"#utility.yul\":1975:2114   */\n    tag_103:\n        /* \"#utility.yul\":2021:2026   */\n      0x00\n        /* \"#utility.yul\":2059:2065   */\n      dup2\n        /* \"#utility.yul\":2046:2066   */\n      calldataload\n        /* \"#utility.yul\":2037:2066   */\n      swap1\n      pop\n        /* \"#utility.yul\":2075:2108   */\n      tag_163\n        /* \"#utility.yul\":2102:2107   */\n      dup2\n        /* \"#utility.yul\":2075:2108   */\n      tag_102\n      jump\t// in\n    tag_163:\n        /* \"#utility.yul\":1975:2114   */\n      swap3\n      swap2\n      pop\n      pop\n      jump\t// out\n        /* \"#utility.yul\":2137:2847   */\n    tag_104:\n        /* \"#utility.yul\":2233:2238   */\n      0x00\n        /* \"#utility.yul\":2258:2339   */\n      tag_165\n        /* \"#utility.yul\":2274:2338   */\n      tag_166\n        /* \"#utility.yul\":2331:2337   */\n      dup5\n        /* \"#utility.yul\":2274:2338   */\n      tag_98\n      jump\t// in\n    tag_166:\n        /* \"#utility.yul\":2258:2339   */\n      tag_97\n      jump\t// in\n    tag_165:\n        /* \"#utility.yul\":2249:2339   */\n      swap1\n      pop\n        /* \"#utility.yul\":2359:2364   */\n      dup1\n        /* \"#utility.yul\":2388:2394   */\n      dup4\n        /* \"#utility.yul\":2381:2386   */\n      dup3\n        /* \"#utility.yul\":2374:2395   */\n      mstore\n        /* \"#utility.yul\":2422:2426   */\n      0x20\n        /* \"#utility.yul\":2415:2420   */\n      dup3\n        /* \"#utility.yul\":2411:2427   */\n      add\n        /* \"#utility.yul\":2404:2427   */\n      swap1\n      pop\n        /* \"#utility.yul\":2475:2479   */\n      0x20\n        /* \"#utility.yul\":2467:2473   */\n      dup5\n        /* \"#utility.yul\":2463:2480   */\n      mul\n        /* \"#utility.yul\":2455:2461   */\n      dup4\n        /* \"#utility.yul\":2451:2481   */\n      add\n        /* \"#utility.yul\":2504:2507   */\n      dup6\n        /* \"#utility.yul\":2496:2502   */\n      dup2\n        /* \"#utility.yul\":2493:2508   */\n      gt\n        /* \"#utility.yul\":2490:2612   */\n      iszero\n      tag_167\n      jumpi\n        /* \"#utility.yul\":2523:2602   */\n      tag_168\n      tag_99\n      jump\t// in\n    tag_168:\n        /* \"#utility.yul\":2490:2612   */\n    tag_167:\n        /* \"#utility.yul\":2638:2644   */\n      dup4\n        /* \"#utility.yul\":2621:2841   */\n    tag_169:\n        /* \"#utility.yul\":2655:2661   */\n      dup2\n        /* \"#utility.yul\":2650:2653   */\n      dup2\n        /* \"#utility.yul\":2647:2662   */\n      lt\n        /* \"#utility.yul\":2621:2841   */\n      iszero\n      tag_171\n      jumpi\n        /* \"#utility.yul\":2730:2733   */\n      dup1\n        /* \"#utility.yul\":2759:2796   */\n      tag_172\n        /* \"#utility.yul\":2792:2795   */\n      dup9\n        /* \"#utility.yul\":2780:2790   */\n      dup3\n        /* \"#utility.yul\":2759:2796   */\n      tag_103\n      jump\t// in\n    tag_172:\n        /* \"#utility.yul\":2754:2757   */\n      dup5\n        /* \"#utility.yul\":2747:2797   */\n      mstore\n        /* \"#utility.yul\":2826:2830   */\n      0x20\n        /* \"#utility.yul\":2821:2824   */\n      dup5\n        /* \"#utility.yul\":2817:2831   */\n      add\n        /* \"#utility.yul\":2810:2831   */\n      swap4\n      pop\n        /* \"#utility.yul\":2697:2841   */\n      pop\n        /* \"#utility.yul\":2681:2685   */\n      0x20\n        /* \"#utility.yul\":2676:2679   */\n      dup2\n        /* \"#utility.yul\":2672:2686   */\n      add\n        /* \"#utility.yul\":2665:2686   */\n      swap1\n      pop\n        /* \"#utility.yul\":2621:2841   */\n      jump(tag_169)\n    tag_171:\n        /* \"#utility.yul\":2625:2646   */\n      pop\n        /* \"#utility.yul\":2239:2847   */\n      pop\n      pop\n        /* \"#utility.yul\":2137:2847   */\n      swap4\n      swap3\n      pop\n      pop\n      pop\n      jump\t// out\n        /* \"#utility.yul\":2870:3240   */\n    tag_105:\n        /* \"#utility.yul\":2941:2946   */\n      0x00\n        /* \"#utility.yul\":2990:2993   */\n      dup3\n        /* \"#utility.yul\":2983:2987   */\n      0x1f\n        /* \"#utility.yul\":2975:2981   */\n      dup4\n        /* \"#utility.yul\":2971:2988   */\n      add\n        /* \"#utility.yul\":2967:2994   */\n      slt\n        /* \"#utility.yul\":2957:3079   */\n      tag_174\n      jumpi\n        /* \"#utility.yul\":2998:3077   */\n      tag_175\n      tag_93\n      jump\t// in\n    tag_175:\n        /* \"#utility.yul\":2957:3079   */\n    tag_174:\n        /* \"#utility.yul\":3115:3121   */\n      dup2\n        /* \"#utility.yul\":3102:3122   */\n      calldataload\n        /* \"#utility.yul\":3140:3234   */\n      tag_176\n        /* \"#utility.yul\":3230:3233   */\n      dup5\n        /* \"#utility.yul\":3222:3228   */\n      dup3\n        /* \"#utility.yul\":3215:3219   */\n      0x20\n        /* \"#utility.yul\":3207:3213   */\n      dup7\n        /* \"#utility.yul\":3203:3220   */\n      add\n        /* \"#utility.yul\":3140:3234   */\n      tag_104\n      jump\t// in\n    tag_176:\n        /* \"#utility.yul\":3131:3234   */\n      swap2\n      pop\n        /* \"#utility.yul\":2947:3240   */\n      pop\n        /* \"#utility.yul\":2870:3240   */\n      swap3\n      swap2\n      pop\n      pop\n      jump\t// out\n        /* \"#utility.yul\":3246:3557   */\n    tag_106:\n        /* \"#utility.yul\":3323:3327   */\n      0x00\n        /* \"#utility.yul\":3413:3431   */\n      0xffffffffffffffff\n        /* \"#utility.yul\":3405:3411   */\n      dup3\n        /* \"#utility.yul\":3402:3432   */\n      gt\n        /* \"#utility.yul\":3399:3455   */\n      iszero\n      tag_178\n      jumpi\n        /* \"#utility.yul\":3435:3453   */\n      tag_179\n      tag_95\n      jump\t// in\n    tag_179:\n        /* \"#utility.yul\":3399:3455   */\n    tag_178:\n        /* \"#utility.yul\":3485:3489   */\n      0x20\n        /* \"#utility.yul\":3477:3483   */\n      dup3\n        /* \"#utility.yul\":3473:3490   */\n      mul\n        /* \"#utility.yul\":3465:3490   */\n      swap1\n      pop\n        /* \"#utility.yul\":3545:3549   */\n      0x20\n        /* \"#utility.yul\":3539:3543   */\n      dup2\n        /* \"#utility.yul\":3535:3550   */\n      add\n        /* \"#utility.yul\":3527:3550   */\n      swap1\n      pop\n        /* \"#utility.yul\":3246:3557   */\n      swap2\n      swap1\n      pop\n      jump\t// out\n        /* \"#utility.yul\":3563:3640   */\n    tag_107:\n        /* \"#utility.yul\":3600:3607   */\n      0x00\n        /* \"#utility.yul\":3629:3634   */\n      dup2\n        /* \"#utility.yul\":3618:3634   */\n      swap1\n      pop\n        /* \"#utility.yul\":3563:3640   */\n      swap2\n      swap1\n      pop\n      jump\t// out\n        /* \"#utility.yul\":3646:3768   */\n    tag_108:\n        /* \"#utility.yul\":3719:3743   */\n      tag_182\n        /* \"#utility.yul\":3737:3742   */\n      dup2\n        /* \"#utility.yul\":3719:3743   */\n      tag_107\n      jump\t// in\n    tag_182:\n        /* \"#utility.yul\":3712:3717   */\n      dup2\n        /* \"#utility.yul\":3709:3744   */\n      eq\n        /* \"#utility.yul\":3699:3762   */\n      tag_183\n      jumpi\n        /* \"#utility.yul\":3758:3759   */\n      0x00\n        /* \"#utility.yul\":3755:3756   */\n      dup1\n        /* \"#utility.yul\":3748:3760   */\n      revert\n        /* \"#utility.yul\":3699:3762   */\n    tag_183:\n        /* \"#utility.yul\":3646:3768   */\n      pop\n      jump\t// out\n        /* \"#utility.yul\":3774:3913   */\n    tag_109:\n        /* \"#utility.yul\":3820:3825   */\n      0x00\n        /* \"#utility.yul\":3858:3864   */\n      dup2\n        /* \"#utility.yul\":3845:3865   */\n      calldataload\n        /* \"#utility.yul\":3836:3865   */\n      swap1\n      pop\n        /* \"#utility.yul\":3874:3907   */\n      tag_185\n        /* \"#utility.yul\":3901:3906   */\n      dup2\n        /* \"#utility.yul\":3874:3907   */\n      tag_108\n      jump\t// in\n    tag_185:\n        /* \"#utility.yul\":3774:3913   */\n      swap3\n      swap2\n      pop\n      pop\n      jump\t// out\n        /* \"#utility.yul\":3936:4646   */\n    tag_110:\n        /* \"#utility.yul\":4032:4037   */\n      0x00\n        /* \"#utility.yul\":4057:4138   */\n      tag_187\n        /* \"#utility.yul\":4073:4137   */\n      tag_188\n        /* \"#utility.yul\":4130:4136   */\n      dup5\n        /* \"#utility.yul\":4073:4137   */\n      tag_106\n      jump\t// in\n    tag_188:\n        /* \"#utility.yul\":4057:4138   */\n      tag_97\n      jump\t// in\n    tag_187:\n        /* \"#utility.yul\":4048:4138   */\n      swap1\n      pop\n        /* \"#utility.yul\":4158:4163   */\n      dup1\n        /* \"#utility.yul\":4187:4193   */\n      dup4\n        /* \"#utility.yul\":4180:4185   */\n      dup3\n        /* \"#utility.yul\":4173:4194   */\n      mstore\n        /* \"#utility.yul\":4221:4225   */\n      0x20\n        /* \"#utility.yul\":4214:4219   */\n      dup3\n        /* \"#utility.yul\":4210:4226   */\n      add\n        /* \"#utility.yul\":4203:4226   */\n      swap1\n      pop\n        /* \"#utility.yul\":4274:4278   */\n      0x20\n        /* \"#utility.yul\":4266:4272   */\n      dup5\n        /* \"#utility.yul\":4262:4279   */\n      mul\n        /* \"#utility.yul\":4254:4260   */\n      dup4\n        /* \"#utility.yul\":4250:4280   */\n      add\n        /* \"#utility.yul\":4303:4306   */\n      dup6\n        /* \"#utility.yul\":4295:4301   */\n      dup2\n        /* \"#utility.yul\":4292:4307   */\n      gt\n        /* \"#utility.yul\":4289:4411   */\n      iszero\n      tag_189\n      jumpi\n        /* \"#utility.yul\":4322:4401   */\n      tag_190\n      tag_99\n      jump\t// in\n    tag_190:\n        /* \"#utility.yul\":4289:4411   */\n    tag_189:\n        /* \"#utility.yul\":4437:4443   */\n      dup4\n        /* \"#utility.yul\":4420:4640   */\n    tag_191:\n        /* \"#utility.yul\":4454:4460   */\n      dup2\n        /* \"#utility.yul\":4449:4452   */\n      dup2\n        /* \"#utility.yul\":4446:4461   */\n      lt\n        /* \"#utility.yul\":4420:4640   */\n      iszero\n      tag_193\n      jumpi\n        /* \"#utility.yul\":4529:4532   */\n      dup1\n        /* \"#utility.yul\":4558:4595   */\n      tag_194\n        /* \"#utility.yul\":4591:4594   */\n      dup9\n        /* \"#utility.yul\":4579:4589   */\n      dup3\n        /* \"#utility.yul\":4558:4595   */\n      tag_109\n      jump\t// in\n    tag_194:\n        /* \"#utility.yul\":4553:4556   */\n      dup5\n        /* \"#utility.yul\":4546:4596   */\n      mstore\n        /* \"#utility.yul\":4625:4629   */\n      0x20\n        /* \"#utility.yul\":4620:4623   */\n      dup5\n        /* \"#utility.yul\":4616:4630   */\n      add\n        /* \"#utility.yul\":4609:4630   */\n      swap4\n      pop\n        /* \"#utility.yul\":4496:4640   */\n      pop\n        /* \"#utility.yul\":4480:4484   */\n      0x20\n        /* \"#utility.yul\":4475:4478   */\n      dup2\n        /* \"#utility.yul\":4471:4485   */\n      add\n        /* \"#utility.yul\":4464:4485   */\n      swap1\n      pop\n        /* \"#utility.yul\":4420:4640   */\n      jump(tag_191)\n    tag_193:\n        /* \"#utility.yul\":4424:4445   */\n      pop\n        /* \"#utility.yul\":4038:4646   */\n      pop\n      pop\n        /* \"#utility.yul\":3936:4646   */\n      swap4\n      swap3\n      pop\n      pop\n      pop\n      jump\t// out\n        /* \"#utility.yul\":4669:5039   */\n    tag_111:\n        /* \"#utility.yul\":4740:4745   */\n      0x00\n        /* \"#utility.yul\":4789:4792   */\n      dup3\n        /* \"#utility.yul\":4782:4786   */\n      0x1f\n        /* \"#utility.yul\":4774:4780   */\n      dup4\n        /* \"#utility.yul\":4770:4787   */\n      add\n        /* \"#utility.yul\":4766:4793   */\n      slt\n        /* \"#utility.yul\":4756:4878   */\n      tag_196\n      jumpi\n        /* \"#utility.yul\":4797:4876   */\n      tag_197\n      tag_93\n      jump\t// in\n    tag_197:\n        /* \"#utility.yul\":4756:4878   */\n    tag_196:\n        /* \"#utility.yul\":4914:4920   */\n      dup2\n        /* \"#utility.yul\":4901:4921   */\n      calldataload\n        /* \"#utility.yul\":4939:5033   */\n      tag_198\n        /* \"#utility.yul\":5029:5032   */\n      dup5\n        /* \"#utility.yul\":5021:5027   */\n      dup3\n        /* \"#utility.yul\":5014:5018   */\n      0x20\n        /* \"#utility.yul\":5006:5012   */\n      dup7\n        /* \"#utility.yul\":5002:5019   */\n      add\n        /* \"#utility.yul\":4939:5033   */\n      tag_110\n      jump\t// in\n    tag_198:\n        /* \"#utility.yul\":4930:5033   */\n      swap2\n      pop\n        /* \"#utility.yul\":4746:5039   */\n      pop\n        /* \"#utility.yul\":4669:5039   */\n      swap3\n      swap2\n      pop\n      pop\n      jump\t// out\n        /* \"#utility.yul\":5045:5939   */\n    tag_13:\n        /* \"#utility.yul\":5163:5169   */\n      0x00\n        /* \"#utility.yul\":5171:5177   */\n      dup1\n        /* \"#utility.yul\":5220:5222   */\n      0x40\n        /* \"#utility.yul\":5208:5217   */\n      dup4\n        /* \"#utility.yul\":5199:5206   */\n      dup6\n        /* \"#utility.yul\":5195:5218   */\n      sub\n        /* \"#utility.yul\":5191:5223   */\n      slt\n        /* \"#utility.yul\":5188:5307   */\n      iszero\n      tag_200\n      jumpi\n        /* \"#utility.yul\":5226:5305   */\n      tag_201\n      tag_91\n      jump\t// in\n    tag_201:\n        /* \"#utility.yul\":5188:5307   */\n    tag_200:\n        /* \"#utility.yul\":5374:5375   */\n      0x00\n        /* \"#utility.yul\":5363:5372   */\n      dup4\n        /* \"#utility.yul\":5359:5376   */\n      add\n        /* \"#utility.yul\":5346:5377   */\n      calldataload\n        /* \"#utility.yul\":5404:5422   */\n      0xffffffffffffffff\n        /* \"#utility.yul\":5396:5402   */\n      dup2\n        /* \"#utility.yul\":5393:5423   */\n      gt\n        /* \"#utility.yul\":5390:5507   */\n      iszero\n      tag_202\n      jumpi\n        /* \"#utility.yul\":5426:5505   */\n      tag_203\n      tag_92\n      jump\t// in\n    tag_203:\n        /* \"#utility.yul\":5390:5507   */\n    tag_202:\n        /* \"#utility.yul\":5531:5609   */\n      tag_204\n        /* \"#utility.yul\":5601:5608   */\n      dup6\n        /* \"#utility.yul\":5592:5598   */\n      dup3\n        /* \"#utility.yul\":5581:5590   */\n      dup7\n        /* \"#utility.yul\":5577:5599   */\n      add\n        /* \"#utility.yul\":5531:5609   */\n      tag_105\n      jump\t// in\n    tag_204:\n        /* \"#utility.yul\":5521:5609   */\n      swap3\n      pop\n        /* \"#utility.yul\":5317:5619   */\n      pop\n        /* \"#utility.yul\":5686:5688   */\n      0x20\n        /* \"#utility.yul\":5675:5684   */\n      dup4\n        /* \"#utility.yul\":5671:5689   */\n      add\n        /* \"#utility.yul\":5658:5690   */\n      calldataload\n        /* \"#utility.yul\":5717:5735   */\n      0xffffffffffffffff\n        /* \"#utility.yul\":5709:5715   */\n      dup2\n        /* \"#utility.yul\":5706:5736   */\n      gt\n        /* \"#utility.yul\":5703:5820   */\n      iszero\n      tag_205\n      jumpi\n        /* \"#utility.yul\":5739:5818   */\n      tag_206\n      tag_92\n      jump\t// in\n    tag_206:\n        /* \"#utility.yul\":5703:5820   */\n    tag_205:\n        /* \"#utility.yul\":5844:5922   */\n      tag_207\n        /* \"#utility.yul\":5914:5921   */\n      dup6\n        /* \"#utility.yul\":5905:5911   */\n      dup3\n        /* \"#utility.yul\":5894:5903   */\n      dup7\n        /* \"#utility.yul\":5890:5912   */\n      add\n        /* \"#utility.yul\":5844:5922   */\n      tag_111\n      jump\t// in\n    tag_207:\n        /* \"#utility.yul\":5834:5922   */\n      swap2\n      pop\n        /* \"#utility.yul\":5629:5932   */\n      pop\n        /* \"#utility.yul\":5045:5939   */\n      swap3\n      pop\n      swap3\n      swap1\n      pop\n      jump\t// out\n        /* \"#utility.yul\":5945:6063   */\n    tag_112:\n        /* \"#utility.yul\":6032:6056   */\n      tag_209\n        /* \"#utility.yul\":6050:6055   */\n      dup2\n        /* \"#utility.yul\":6032:6056   */\n      tag_101\n      jump\t// in\n    tag_209:\n        /* \"#utility.yul\":6027:6030   */\n      dup3\n        /* \"#utility.yul\":6020:6057   */\n      mstore\n        /* \"#utility.yul\":5945:6063   */\n      pop\n      pop\n      jump\t// out\n        /* \"#utility.yul\":6069:6291   */\n    tag_18:\n        /* \"#utility.yul\":6162:6166   */\n      0x00\n        /* \"#utility.yul\":6200:6202   */\n      0x20\n        /* \"#utility.yul\":6189:6198   */\n      dup3\n        /* \"#utility.yul\":6185:6203   */\n      add\n        /* \"#utility.yul\":6177:6203   */\n      swap1\n      pop\n        /* \"#utility.yul\":6213:6284   */\n      tag_211\n        /* \"#utility.yul\":6281:6282   */\n      0x00\n        /* \"#utility.yul\":6270:6279   */\n      dup4\n        /* \"#utility.yul\":6266:6283   */\n      add\n        /* \"#utility.yul\":6257:6263   */\n      dup5\n        /* \"#utility.yul\":6213:6284   */\n      tag_112\n      jump\t// in\n    tag_211:\n        /* \"#utility.yul\":6069:6291   */\n      swap3\n      swap2\n      pop\n      pop\n      jump\t// out\n        /* \"#utility.yul\":6297:6415   */\n    tag_113:\n        /* \"#utility.yul\":6384:6408   */\n      tag_213\n        /* \"#utility.yul\":6402:6407   */\n      dup2\n        /* \"#utility.yul\":6384:6408   */\n      tag_107\n      jump\t// in\n    tag_213:\n        /* \"#utility.yul\":6379:6382   */\n      dup3\n        /* \"#utility.yul\":6372:6409   */\n      mstore\n        /* \"#utility.yul\":6297:6415   */\n      pop\n      pop\n      jump\t// out\n        /* \"#utility.yul\":6421:6643   */\n    tag_22:\n        /* \"#utility.yul\":6514:6518   */\n      0x00\n        /* \"#utility.yul\":6552:6554   */\n      0x20\n        /* \"#utility.yul\":6541:6550   */\n      dup3\n        /* \"#utility.yul\":6537:6555   */\n      add\n        /* \"#utility.yul\":6529:6555   */\n      swap1\n      pop\n        /* \"#utility.yul\":6565:6636   */\n      tag_215\n        /* \"#utility.yul\":6633:6634   */\n      0x00\n        /* \"#utility.yul\":6622:6631   */\n      dup4\n        /* \"#utility.yul\":6618:6635   */\n      add\n        /* \"#utility.yul\":6609:6615   */\n      dup5\n        /* \"#utility.yul\":6565:6636   */\n      tag_113\n      jump\t// in\n    tag_215:\n        /* \"#utility.yul\":6421:6643   */\n      swap3\n      swap2\n      pop\n      pop\n      jump\t// out\n        /* \"#utility.yul\":6649:6735   */\n    tag_114:\n        /* \"#utility.yul\":6684:6691   */\n      0x00\n        /* \"#utility.yul\":6724:6728   */\n      0xff\n        /* \"#utility.yul\":6717:6722   */\n      dup3\n        /* \"#utility.yul\":6713:6729   */\n      and\n        /* \"#utility.yul\":6702:6729   */\n      swap1\n      pop\n        /* \"#utility.yul\":6649:6735   */\n      swap2\n      swap1\n      pop\n      jump\t// out\n        /* \"#utility.yul\":6741:6859   */\n    tag_115:\n        /* \"#utility.yul\":6812:6834   */\n      tag_218\n        /* \"#utility.yul\":6828:6833   */\n      dup2\n        /* \"#utility.yul\":6812:6834   */\n      tag_114\n      jump\t// in\n    tag_218:\n        /* \"#utility.yul\":6805:6810   */\n      dup2\n        /* \"#utility.yul\":6802:6835   */\n      eq\n        /* \"#utility.yul\":6792:6853   */\n      tag_219\n      jumpi\n        /* \"#utility.yul\":6849:6850   */\n      0x00\n        /* \"#utility.yul\":6846:6847   */\n      dup1\n        /* \"#utility.yul\":6839:6851   */\n      revert\n        /* \"#utility.yul\":6792:6853   */\n    tag_219:\n        /* \"#utility.yul\":6741:6859   */\n      pop\n      jump\t// out\n        /* \"#utility.yul\":6865:7000   */\n    tag_116:\n        /* \"#utility.yul\":6909:6914   */\n      0x00\n        /* \"#utility.yul\":6947:6953   */\n      dup2\n        /* \"#utility.yul\":6934:6954   */\n      calldataload\n        /* \"#utility.yul\":6925:6954   */\n      swap1\n      pop\n        /* \"#utility.yul\":6963:6994   */\n      tag_221\n        /* \"#utility.yul\":6988:6993   */\n      dup2\n        /* \"#utility.yul\":6963:6994   */\n      tag_115\n      jump\t// in\n    tag_221:\n        /* \"#utility.yul\":6865:7000   */\n      swap3\n      swap2\n      pop\n      pop\n      jump\t// out\n        /* \"#utility.yul\":7006:7621   */\n    tag_28:\n        /* \"#utility.yul\":7081:7087   */\n      0x00\n        /* \"#utility.yul\":7089:7095   */\n      dup1\n        /* \"#utility.yul\":7097:7103   */\n      0x00\n        /* \"#utility.yul\":7146:7148   */\n      0x60\n        /* \"#utility.yul\":7134:7143   */\n      dup5\n        /* \"#utility.yul\":7125:7132   */\n      dup7\n        /* \"#utility.yul\":7121:7144   */\n      sub\n        /* \"#utility.yul\":7117:7149   */\n      slt\n        /* \"#utility.yul\":7114:7233   */\n      iszero\n      tag_223\n      jumpi\n        /* \"#utility.yul\":7152:7231   */\n      tag_224\n      tag_91\n      jump\t// in\n    tag_224:\n        /* \"#utility.yul\":7114:7233   */\n    tag_223:\n        /* \"#utility.yul\":7272:7273   */\n      0x00\n        /* \"#utility.yul\":7297:7350   */\n      tag_225\n        /* \"#utility.yul\":7342:7349   */\n      dup7\n        /* \"#utility.yul\":7333:7339   */\n      dup3\n        /* \"#utility.yul\":7322:7331   */\n      dup8\n        /* \"#utility.yul\":7318:7340   */\n      add\n        /* \"#utility.yul\":7297:7350   */\n      tag_109\n      jump\t// in\n    tag_225:\n        /* \"#utility.yul\":7287:7350   */\n      swap4\n      pop\n        /* \"#utility.yul\":7243:7360   */\n      pop\n        /* \"#utility.yul\":7399:7401   */\n      0x20\n        /* \"#utility.yul\":7425:7478   */\n      tag_226\n        /* \"#utility.yul\":7470:7477   */\n      dup7\n        /* \"#utility.yul\":7461:7467   */\n      dup3\n        /* \"#utility.yul\":7450:7459   */\n      dup8\n        /* \"#utility.yul\":7446:7468   */\n      add\n        /* \"#utility.yul\":7425:7478   */\n      tag_109\n      jump\t// in\n    tag_226:\n        /* \"#utility.yul\":7415:7478   */\n      swap3\n      pop\n        /* \"#utility.yul\":7370:7488   */\n      pop\n        /* \"#utility.yul\":7527:7529   */\n      0x40\n        /* \"#utility.yul\":7553:7604   */\n      tag_227\n        /* \"#utility.yul\":7596:7603   */\n      dup7\n        /* \"#utility.yul\":7587:7593   */\n      dup3\n        /* \"#utility.yul\":7576:7585   */\n      dup8\n        /* \"#utility.yul\":7572:7594   */\n      add\n        /* \"#utility.yul\":7553:7604   */\n      tag_116\n      jump\t// in\n    tag_227:\n        /* \"#utility.yul\":7543:7604   */\n      swap2\n      pop\n        /* \"#utility.yul\":7498:7614   */\n      pop\n        /* \"#utility.yul\":7006:7621   */\n      swap3\n      pop\n      swap3\n      pop\n      swap3\n      jump\t// out\n        /* \"#utility.yul\":7627:8097   */\n    tag_32:\n        /* \"#utility.yul\":7693:7699   */\n      0x00\n        /* \"#utility.yul\":7701:7707   */\n      dup1\n        /* \"#utility.yul\":7750:7752   */\n      0x40\n        /* \"#utility.yul\":7738:7747   */\n      dup4\n        /* \"#utility.yul\":7729:7736   */\n      dup6\n        /* \"#utility.yul\":7725:7748   */\n      sub\n        /* \"#utility.yul\":7721:7753   */\n      slt\n        /* \"#utility.yul\":7718:7837   */\n      iszero\n      tag_229\n      jumpi\n        /* \"#utility.yul\":7756:7835   */\n      tag_230\n      tag_91\n      jump\t// in\n    tag_230:\n        /* \"#utility.yul\":7718:7837   */\n    tag_229:\n        /* \"#utility.yul\":7876:7877   */\n      0x00\n        /* \"#utility.yul\":7901:7954   */\n      tag_231\n        /* \"#utility.yul\":7946:7953   */\n      dup6\n        /* \"#utility.yul\":7937:7943   */\n      dup3\n        /* \"#utility.yul\":7926:7935   */\n      dup7\n        /* \"#utility.yul\":7922:7944   */\n      add\n        /* \"#utility.yul\":7901:7954   */\n      tag_109\n      jump\t// in\n    tag_231:\n        /* \"#utility.yul\":7891:7954   */\n      swap3\n      pop\n        /* \"#utility.yul\":7847:7964   */\n      pop\n        /* \"#utility.yul\":8003:8005   */\n      0x20\n        /* \"#utility.yul\":8029:8080   */\n      tag_232\n        /* \"#utility.yul\":8072:8079   */\n      dup6\n        /* \"#utility.yul\":8063:8069   */\n      dup3\n        /* \"#utility.yul\":8052:8061   */\n      dup7\n        /* \"#utility.yul\":8048:8070   */\n      add\n        /* \"#utility.yul\":8029:8080   */\n      tag_116\n      jump\t// in\n    tag_232:\n        /* \"#utility.yul\":8019:8080   */\n      swap2\n      pop\n        /* \"#utility.yul\":7974:8090   */\n      pop\n        /* \"#utility.yul\":7627:8097   */\n      swap3\n      pop\n      swap3\n      swap1\n      pop\n      jump\t// out\n        /* \"#utility.yul\":8103:8272   */\n    tag_117:\n        /* \"#utility.yul\":8187:8198   */\n      0x00\n        /* \"#utility.yul\":8221:8227   */\n      dup3\n        /* \"#utility.yul\":8216:8219   */\n      dup3\n        /* \"#utility.yul\":8209:8228   */\n      mstore\n        /* \"#utility.yul\":8261:8265   */\n      0x20\n        /* \"#utility.yul\":8256:8259   */\n      dup3\n        /* \"#utility.yul\":8252:8266   */\n      add\n        /* \"#utility.yul\":8237:8266   */\n      swap1\n      pop\n        /* \"#utility.yul\":8103:8272   */\n      swap3\n      swap2\n      pop\n      pop\n      jump\t// out\n        /* \"#utility.yul\":8278:8457   */\n    tag_118:\n        /* \"#utility.yul\":8418:8449   */\n      0x52657761726420706f6f6c207468726573686f6c64206e6f74206d6574000000\n        /* \"#utility.yul\":8414:8415   */\n      0x00\n        /* \"#utility.yul\":8406:8412   */\n      dup3\n        /* \"#utility.yul\":8402:8416   */\n      add\n        /* \"#utility.yul\":8395:8450   */\n      mstore\n        /* \"#utility.yul\":8278:8457   */\n      pop\n      jump\t// out\n        /* \"#utility.yul\":8463:8829   */\n    tag_119:\n        /* \"#utility.yul\":8605:8608   */\n      0x00\n        /* \"#utility.yul\":8626:8693   */\n      tag_236\n        /* \"#utility.yul\":8690:8692   */\n      0x1d\n        /* \"#utility.yul\":8685:8688   */\n      dup4\n        /* \"#utility.yul\":8626:8693   */\n      tag_117\n      jump\t// in\n    tag_236:\n        /* \"#utility.yul\":8619:8693   */\n      swap2\n      pop\n        /* \"#utility.yul\":8702:8795   */\n      tag_237\n        /* \"#utility.yul\":8791:8794   */\n      dup3\n        /* \"#utility.yul\":8702:8795   */\n      tag_118\n      jump\t// in\n    tag_237:\n        /* \"#utility.yul\":8820:8822   */\n      0x20\n        /* \"#utility.yul\":8815:8818   */\n      dup3\n        /* \"#utility.yul\":8811:8823   */\n      add\n        /* \"#utility.yul\":8804:8823   */\n      swap1\n      pop\n        /* \"#utility.yul\":8463:8829   */\n      swap2\n      swap1\n      pop\n      jump\t// out\n        /* \"#utility.yul\":8835:9254   */\n    tag_41:\n        /* \"#utility.yul\":9001:9005   */\n      0x00\n        /* \"#utility.yul\":9039:9041   */\n      0x20\n        /* \"#utility.yul\":9028:9037   */\n      dup3\n        /* \"#utility.yul\":9024:9042   */\n      add\n        /* \"#utility.yul\":9016:9042   */\n      swap1\n      pop\n        /* \"#utility.yul\":9088:9097   */\n      dup2\n        /* \"#utility.yul\":9082:9086   */\n      dup2\n        /* \"#utility.yul\":9078:9098   */\n      sub\n        /* \"#utility.yul\":9074:9075   */\n      0x00\n        /* \"#utility.yul\":9063:9072   */\n      dup4\n        /* \"#utility.yul\":9059:9076   */\n      add\n        /* \"#utility.yul\":9052:9099   */\n      mstore\n        /* \"#utility.yul\":9116:9247   */\n      tag_239\n        /* \"#utility.yul\":9242:9246   */\n      dup2\n        /* \"#utility.yul\":9116:9247   */\n      tag_119\n      jump\t// in\n    tag_239:\n        /* \"#utility.yul\":9108:9247   */\n      swap1\n      pop\n        /* \"#utility.yul\":8835:9254   */\n      swap2\n      swap1\n      pop\n      jump\t// out\n        /* \"#utility.yul\":9260:9482   */\n    tag_120:\n        /* \"#utility.yul\":9400:9434   */\n      0x4d69736d61746368656420757365727320616e642072657761726473206c656e\n        /* \"#utility.yul\":9396:9397   */\n      0x00\n        /* \"#utility.yul\":9388:9394   */\n      dup3\n        /* \"#utility.yul\":9384:9398   */\n      add\n        /* \"#utility.yul\":9377:9435   */\n      mstore\n        /* \"#utility.yul\":9469:9474   */\n      0x6774680000000000000000000000000000000000000000000000000000000000\n        /* \"#utility.yul\":9464:9466   */\n      0x20\n        /* \"#utility.yul\":9456:9462   */\n      dup3\n        /* \"#utility.yul\":9452:9467   */\n      add\n        /* \"#utility.yul\":9445:9475   */\n      mstore\n        /* \"#utility.yul\":9260:9482   */\n      pop\n      jump\t// out\n        /* \"#utility.yul\":9488:9854   */\n    tag_121:\n        /* \"#utility.yul\":9630:9633   */\n      0x00\n        /* \"#utility.yul\":9651:9718   */\n      tag_242\n        /* \"#utility.yul\":9715:9717   */\n      0x23\n        /* \"#utility.yul\":9710:9713   */\n      dup4\n        /* \"#utility.yul\":9651:9718   */\n      tag_117\n      jump\t// in\n    tag_242:\n        /* \"#utility.yul\":9644:9718   */\n      swap2\n      pop\n        /* \"#utility.yul\":9727:9820   */\n      tag_243\n        /* \"#utility.yul\":9816:9819   */\n      dup3\n        /* \"#utility.yul\":9727:9820   */\n      tag_120\n      jump\t// in\n    tag_243:\n        /* \"#utility.yul\":9845:9847   */\n      0x40\n        /* \"#utility.yul\":9840:9843   */\n      dup3\n        /* \"#utility.yul\":9836:9848   */\n      add\n        /* \"#utility.yul\":9829:9848   */\n      swap1\n      pop\n        /* \"#utility.yul\":9488:9854   */\n      swap2\n      swap1\n      pop\n      jump\t// out\n        /* \"#utility.yul\":9860:10279   */\n    tag_44:\n        /* \"#utility.yul\":10026:10030   */\n      0x00\n        /* \"#utility.yul\":10064:10066   */\n      0x20\n        /* \"#utility.yul\":10053:10062   */\n      dup3\n        /* \"#utility.yul\":10049:10067   */\n      add\n        /* \"#utility.yul\":10041:10067   */\n      swap1\n      pop\n        /* \"#utility.yul\":10113:10122   */\n      dup2\n        /* \"#utility.yul\":10107:10111   */\n      dup2\n        /* \"#utility.yul\":10103:10123   */\n      sub\n        /* \"#utility.yul\":10099:10100   */\n      0x00\n        /* \"#utility.yul\":10088:10097   */\n      dup4\n        /* \"#utility.yul\":10084:10101   */\n      add\n        /* \"#utility.yul\":10077:10124   */\n      mstore\n        /* \"#utility.yul\":10141:10272   */\n      tag_245\n        /* \"#utility.yul\":10267:10271   */\n      dup2\n        /* \"#utility.yul\":10141:10272   */\n      tag_121\n      jump\t// in\n    tag_245:\n        /* \"#utility.yul\":10133:10272   */\n      swap1\n      pop\n        /* \"#utility.yul\":9860:10279   */\n      swap2\n      swap1\n      pop\n      jump\t// out\n        /* \"#utility.yul\":10285:10465   */\n    tag_50:\n        /* \"#utility.yul\":10333:10410   */\n      0x4e487b7100000000000000000000000000000000000000000000000000000000\n        /* \"#utility.yul\":10330:10331   */\n      0x00\n        /* \"#utility.yul\":10323:10411   */\n      mstore\n        /* \"#utility.yul\":10430:10434   */\n      0x32\n        /* \"#utility.yul\":10427:10428   */\n      0x04\n        /* \"#utility.yul\":10420:10435   */\n      mstore\n        /* \"#utility.yul\":10454:10458   */\n      0x24\n        /* \"#utility.yul\":10451:10452   */\n      0x00\n        /* \"#utility.yul\":10444:10459   */\n      revert\n        /* \"#utility.yul\":10471:10651   */\n    tag_122:\n        /* \"#utility.yul\":10519:10596   */\n      0x4e487b7100000000000000000000000000000000000000000000000000000000\n        /* \"#utility.yul\":10516:10517   */\n      0x00\n        /* \"#utility.yul\":10509:10597   */\n      mstore\n        /* \"#utility.yul\":10616:10620   */\n      0x11\n        /* \"#utility.yul\":10613:10614   */\n      0x04\n        /* \"#utility.yul\":10606:10621   */\n      mstore\n        /* \"#utility.yul\":10640:10644   */\n      0x24\n        /* \"#utility.yul\":10637:10638   */\n      0x00\n        /* \"#utility.yul\":10630:10645   */\n      revert\n        /* \"#utility.yul\":10657:10890   */\n    tag_56:\n        /* \"#utility.yul\":10696:10699   */\n      0x00\n        /* \"#utility.yul\":10719:10743   */\n      tag_249\n        /* \"#utility.yul\":10737:10742   */\n      dup3\n        /* \"#utility.yul\":10719:10743   */\n      tag_107\n      jump\t// in\n    tag_249:\n        /* \"#utility.yul\":10710:10743   */\n      swap2\n      pop\n        /* \"#utility.yul\":10765:10831   */\n      0xffffffffffffffffffffffffffffffffffffffffffffffffffffffffffffffff\n        /* \"#utility.yul\":10758:10763   */\n      dup3\n        /* \"#utility.yul\":10755:10832   */\n      sub\n        /* \"#utility.yul\":10752:10855   */\n      tag_250\n      jumpi\n        /* \"#utility.yul\":10835:10853   */\n      tag_251\n      tag_122\n      jump\t// in\n    tag_251:\n        /* \"#utility.yul\":10752:10855   */\n    tag_250:\n        /* \"#utility.yul\":10882:10883   */\n      0x01\n        /* \"#utility.yul\":10875:10880   */\n      dup3\n        /* \"#utility.yul\":10871:10884   */\n      add\n        /* \"#utility.yul\":10864:10884   */\n      swap1\n      pop\n        /* \"#utility.yul\":10657:10890   */\n      swap2\n      swap1\n      pop\n      jump\t// out\n        /* \"#utility.yul\":10896:11090   */\n    tag_58:\n        /* \"#utility.yul\":10936:10940   */\n      0x00\n        /* \"#utility.yul\":10956:10976   */\n      tag_253\n        /* \"#utility.yul\":10974:10975   */\n      dup3\n        /* \"#utility.yul\":10956:10976   */\n      tag_107\n      jump\t// in\n    tag_253:\n        /* \"#utility.yul\":10951:10976   */\n      swap2\n      pop\n        /* \"#utility.yul\":10990:11010   */\n      tag_254\n        /* \"#utility.yul\":11008:11009   */\n      dup4\n        /* \"#utility.yul\":10990:11010   */\n      tag_107\n      jump\t// in\n    tag_254:\n        /* \"#utility.yul\":10985:11010   */\n      swap3\n      pop\n        /* \"#utility.yul\":11034:11035   */\n      dup3\n        /* \"#utility.yul\":11031:11032   */\n      dup3\n        /* \"#utility.yul\":11027:11036   */\n      sub\n        /* \"#utility.yul\":11019:11036   */\n      swap1\n      pop\n        /* \"#utility.yul\":11058:11059   */\n      dup2\n        /* \"#utility.yul\":11052:11056   */\n      dup2\n        /* \"#utility.yul\":11049:11060   */\n      gt\n        /* \"#utility.yul\":11046:11083   */\n      iszero\n      tag_255\n      jumpi\n        /* \"#utility.yul\":11063:11081   */\n      tag_256\n      tag_122\n      jump\t// in\n    tag_256:\n        /* \"#utility.yul\":11046:11083   */\n    tag_255:\n        /* \"#utility.yul\":10896:11090   */\n      swap3\n      swap2\n      pop\n      pop\n      jump\t// out\n        /* \"#utility.yul\":11096:11210   */\n    tag_123:\n        /* \"#utility.yul\":11163:11169   */\n      0x00\n        /* \"#utility.yul\":11197:11202   */\n      dup2\n        /* \"#utility.yul\":11191:11203   */\n      mload\n        /* \"#utility.yul\":11181:11203   */\n      swap1\n      pop\n        /* \"#utility.yul\":11096:11210   */\n      swap2\n      swap1\n      pop\n      jump\t// out\n        /* \"#utility.yul\":11216:11400   */\n    tag_124:\n        /* \"#utility.yul\":11315:11326   */\n      0x00\n        /* \"#utility.yul\":11349:11355   */\n      dup3\n        /* \"#utility.yul\":11344:11347   */\n      dup3\n        /* \"#utility.yul\":11337:11356   */\n      mstore\n        /* \"#utility.yul\":11389:11393   */\n      0x20\n        /* \"#utility.yul\":11384:11387   */\n      dup3\n        /* \"#utility.yul\":11380:11394   */\n      add\n        /* \"#utility.yul\":11365:11394   */\n      swap1\n      pop\n        /* \"#utility.yul\":11216:11400   */\n      swap3\n      swap2\n      pop\n      pop\n      jump\t// out\n        /* \"#utility.yul\":11406:11538   */\n    tag_125:\n        /* \"#utility.yul\":11473:11477   */\n      0x00\n        /* \"#utility.yul\":11496:11499   */\n      dup2\n        /* \"#utility.yul\":11488:11499   */\n      swap1\n      pop\n        /* \"#utility.yul\":11526:11530   */\n      0x20\n        /* \"#utility.yul\":11521:11524   */\n      dup3\n        /* \"#utility.yul\":11517:11531   */\n      add\n        /* \"#utility.yul\":11509:11531   */\n      swap1\n      pop\n        /* \"#utility.yul\":11406:11538   */\n      swap2\n      swap1\n      pop\n      jump\t// out\n        /* \"#utility.yul\":11544:11652   */\n    tag_126:\n        /* \"#utility.yul\":11621:11645   */\n      tag_261\n        /* \"#utility.yul\":11639:11644   */\n      dup2\n        /* \"#utility.yul\":11621:11645   */\n      tag_101\n      jump\t// in\n    tag_261:\n        /* \"#utility.yul\":11616:11619   */\n      dup3\n        /* \"#utility.yul\":11609:11646   */\n      mstore\n        /* \"#utility.yul\":11544:11652   */\n      pop\n      pop\n      jump\t// out\n        /* \"#utility.yul\":11658:11837   */\n    tag_127:\n        /* \"#utility.yul\":11727:11737   */\n      0x00\n        /* \"#utility.yul\":11748:11794   */\n      tag_263\n        /* \"#utility.yul\":11790:11793   */\n      dup4\n        /* \"#utility.yul\":11782:11788   */\n      dup4\n        /* \"#utility.yul\":11748:11794   */\n      tag_126\n      jump\t// in\n    tag_263:\n        /* \"#utility.yul\":11826:11830   */\n      0x20\n        /* \"#utility.yul\":11821:11824   */\n      dup4\n        /* \"#utility.yul\":11817:11831   */\n      add\n        /* \"#utility.yul\":11803:11831   */\n      swap1\n      pop\n        /* \"#utility.yul\":11658:11837   */\n      swap3\n      swap2\n      pop\n      pop\n      jump\t// out\n        /* \"#utility.yul\":11843:11956   */\n    tag_128:\n        /* \"#utility.yul\":11913:11917   */\n      0x00\n        /* \"#utility.yul\":11945:11949   */\n      0x20\n        /* \"#utility.yul\":11940:11943   */\n      dup3\n        /* \"#utility.yul\":11936:11950   */\n      add\n        /* \"#utility.yul\":11928:11950   */\n      swap1\n      pop\n        /* \"#utility.yul\":11843:11956   */\n      swap2\n      swap1\n      pop\n      jump\t// out\n        /* \"#utility.yul\":11992:12724   */\n    tag_129:\n        /* \"#utility.yul\":12111:12114   */\n      0x00\n        /* \"#utility.yul\":12140:12194   */\n      tag_266\n        /* \"#utility.yul\":12188:12193   */\n      dup3\n        /* \"#utility.yul\":12140:12194   */\n      tag_123\n      jump\t// in\n    tag_266:\n        /* \"#utility.yul\":12210:12296   */\n      tag_267\n        /* \"#utility.yul\":12289:12295   */\n      dup2\n        /* \"#utility.yul\":12284:12287   */\n      dup6\n        /* \"#utility.yul\":12210:12296   */\n      tag_124\n      jump\t// in\n    tag_267:\n        /* \"#utility.yul\":12203:12296   */\n      swap4\n      pop\n        /* \"#utility.yul\":12320:12376   */\n      tag_268\n        /* \"#utility.yul\":12370:12375   */\n      dup4\n        /* \"#utility.yul\":12320:12376   */\n      tag_125\n      jump\t// in\n    tag_268:\n        /* \"#utility.yul\":12399:12406   */\n      dup1\n        /* \"#utility.yul\":12430:12431   */\n      0x00\n        /* \"#utility.yul\":12415:12699   */\n    tag_269:\n        /* \"#utility.yul\":12440:12446   */\n      dup4\n        /* \"#utility.yul\":12437:12438   */\n      dup2\n        /* \"#utility.yul\":12434:12447   */\n      lt\n        /* \"#utility.yul\":12415:12699   */\n      iszero\n      tag_271\n      jumpi\n        /* \"#utility.yul\":12516:12522   */\n      dup2\n        /* \"#utility.yul\":12510:12523   */\n      mload\n        /* \"#utility.yul\":12543:12606   */\n      tag_272\n        /* \"#utility.yul\":12602:12605   */\n      dup9\n        /* \"#utility.yul\":12587:12600   */\n      dup3\n        /* \"#utility.yul\":12543:12606   */\n      tag_127\n      jump\t// in\n    tag_272:\n        /* \"#utility.yul\":12536:12606   */\n      swap8\n      pop\n        /* \"#utility.yul\":12629:12689   */\n      tag_273\n        /* \"#utility.yul\":12682:12688   */\n      dup4\n        /* \"#utility.yul\":12629:12689   */\n      tag_128\n      jump\t// in\n    tag_273:\n        /* \"#utility.yul\":12619:12689   */\n      swap3\n      pop\n        /* \"#utility.yul\":12475:12699   */\n      pop\n        /* \"#utility.yul\":12462:12463   */\n      0x01\n        /* \"#utility.yul\":12459:12460   */\n      dup2\n        /* \"#utility.yul\":12455:12464   */\n      add\n        /* \"#utility.yul\":12450:12464   */\n      swap1\n      pop\n        /* \"#utility.yul\":12415:12699   */\n      jump(tag_269)\n    tag_271:\n        /* \"#utility.yul\":12419:12433   */\n      pop\n        /* \"#utility.yul\":12715:12718   */\n      dup6\n        /* \"#utility.yul\":12708:12718   */\n      swap4\n      pop\n        /* \"#utility.yul\":12116:12724   */\n      pop\n      pop\n      pop\n        /* \"#utility.yul\":11992:12724   */\n      swap3\n      swap2\n      pop\n      pop\n      jump\t// out\n        /* \"#utility.yul\":12730:12844   */\n    tag_130:\n        /* \"#utility.yul\":12797:12803   */\n      0x00\n        /* \"#utility.yul\":12831:12836   */\n      dup2\n        /* \"#utility.yul\":12825:12837   */\n      mload\n        /* \"#utility.yul\":12815:12837   */\n      swap1\n      pop\n        /* \"#utility.yul\":12730:12844   */\n      swap2\n      swap1\n      pop\n      jump\t// out\n        /* \"#utility.yul\":12850:13034   */\n    tag_131:\n        /* \"#utility.yul\":12949:12960   */\n      0x00\n        /* \"#utility.yul\":12983:12989   */\n      dup3\n        /* \"#utility.yul\":12978:12981   */\n      dup3\n        /* \"#utility.yul\":12971:12990   */\n      mstore\n        /* \"#utility.yul\":13023:13027   */\n      0x20\n        /* \"#utility.yul\":13018:13021   */\n      dup3\n        /* \"#utility.yul\":13014:13028   */\n      add\n        /* \"#utility.yul\":12999:13028   */\n      swap1\n      pop\n        /* \"#utility.yul\":12850:13034   */\n      swap3\n      swap2\n      pop\n      pop\n      jump\t// out\n        /* \"#utility.yul\":13040:13172   */\n    tag_132:\n        /* \"#utility.yul\":13107:13111   */\n      0x00\n        /* \"#utility.yul\":13130:13133   */\n      dup2\n        /* \"#utility.yul\":13122:13133   */\n      swap1\n      pop\n        /* \"#utility.yul\":13160:13164   */\n      0x20\n        /* \"#utility.yul\":13155:13158   */\n      dup3\n        /* \"#utility.yul\":13151:13165   */\n      add\n        /* \"#utility.yul\":13143:13165   */\n      swap1\n      pop\n        /* \"#utility.yul\":13040:13172   */\n      swap2\n      swap1\n      pop\n      jump\t// out\n        /* \"#utility.yul\":13178:13286   */\n    tag_133:\n        /* \"#utility.yul\":13255:13279   */\n      tag_278\n        /* \"#utility.yul\":13273:13278   */\n      dup2\n        /* \"#utility.yul\":13255:13279   */\n      tag_107\n      jump\t// in\n    tag_278:\n        /* \"#utility.yul\":13250:13253   */\n      dup3\n        /* \"#utility.yul\":13243:13280   */\n      mstore\n        /* \"#utility.yul\":13178:13286   */\n      pop\n      pop\n      jump\t// out\n        /* \"#utility.yul\":13292:13471   */\n    tag_134:\n        /* \"#utility.yul\":13361:13371   */\n      0x00\n        /* \"#utility.yul\":13382:13428   */\n      tag_280\n        /* \"#utility.yul\":13424:13427   */\n      dup4\n        /* \"#utility.yul\":13416:13422   */\n      dup4\n        /* \"#utility.yul\":13382:13428   */\n      tag_133\n      jump\t// in\n    tag_280:\n        /* \"#utility.yul\":13460:13464   */\n      0x20\n        /* \"#utility.yul\":13455:13458   */\n      dup4\n        /* \"#utility.yul\":13451:13465   */\n      add\n        /* \"#utility.yul\":13437:13465   */\n      swap1\n      pop\n        /* \"#utility.yul\":13292:13471   */\n      swap3\n      swap2\n      pop\n      pop\n      jump\t// out\n        /* \"#utility.yul\":13477:13590   */\n    tag_135:\n        /* \"#utility.yul\":13547:13551   */\n      0x00\n        /* \"#utility.yul\":13579:13583   */\n      0x20\n        /* \"#utility.yul\":13574:13577   */\n      dup3\n        /* \"#utility.yul\":13570:13584   */\n      add\n        /* \"#utility.yul\":13562:13584   */\n      swap1\n      pop\n        /* \"#utility.yul\":13477:13590   */\n      swap2\n      swap1\n      pop\n      jump\t// out\n        /* \"#utility.yul\":13626:14358   */\n    tag_136:\n        /* \"#utility.yul\":13745:13748   */\n      0x00\n        /* \"#utility.yul\":13774:13828   */\n      tag_283\n        /* \"#utility.yul\":13822:13827   */\n      dup3\n        /* \"#utility.yul\":13774:13828   */\n      tag_130\n      jump\t// in\n    tag_283:\n        /* \"#utility.yul\":13844:13930   */\n      tag_284\n        /* \"#utility.yul\":13923:13929   */\n      dup2\n        /* \"#utility.yul\":13918:13921   */\n      dup6\n        /* \"#utility.yul\":13844:13930   */\n      tag_131\n      jump\t// in\n    tag_284:\n        /* \"#utility.yul\":13837:13930   */\n      swap4\n      pop\n        /* \"#utility.yul\":13954:14010   */\n      tag_285\n        /* \"#utility.yul\":14004:14009   */\n      dup4\n        /* \"#utility.yul\":13954:14010   */\n      tag_132\n      jump\t// in\n    tag_285:\n        /* \"#utility.yul\":14033:14040   */\n      dup1\n        /* \"#utility.yul\":14064:14065   */\n      0x00\n        /* \"#utility.yul\":14049:14333   */\n    tag_286:\n        /* \"#utility.yul\":14074:14080   */\n      dup4\n        /* \"#utility.yul\":14071:14072   */\n      dup2\n        /* \"#utility.yul\":14068:14081   */\n      lt\n        /* \"#utility.yul\":14049:14333   */\n      iszero\n      tag_288\n      jumpi\n        /* \"#utility.yul\":14150:14156   */\n      dup2\n        /* \"#utility.yul\":14144:14157   */\n      mload\n        /* \"#utility.yul\":14177:14240   */\n      tag_289\n        /* \"#utility.yul\":14236:14239   */\n      dup9\n        /* \"#utility.yul\":14221:14234   */\n      dup3\n        /* \"#utility.yul\":14177:14240   */\n      tag_134\n      jump\t// in\n    tag_289:\n        /* \"#utility.yul\":14170:14240   */\n      swap8\n      pop\n        /* \"#utility.yul\":14263:14323   */\n      tag_290\n        /* \"#utility.yul\":14316:14322   */\n      dup4\n        /* \"#utility.yul\":14263:14323   */\n      tag_135\n      jump\t// in\n    tag_290:\n        /* \"#utility.yul\":14253:14323   */\n      swap3\n      pop\n        /* \"#utility.yul\":14109:14333   */\n      pop\n        /* \"#utility.yul\":14096:14097   */\n      0x01\n        /* \"#utility.yul\":14093:14094   */\n      dup2\n        /* \"#utility.yul\":14089:14098   */\n      add\n        /* \"#utility.yul\":14084:14098   */\n      swap1\n      pop\n        /* \"#utility.yul\":14049:14333   */\n      jump(tag_286)\n    tag_288:\n        /* \"#utility.yul\":14053:14067   */\n      pop\n        /* \"#utility.yul\":14349:14352   */\n      dup6\n        /* \"#utility.yul\":14342:14352   */\n      swap4\n      pop\n        /* \"#utility.yul\":13750:14358   */\n      pop\n      pop\n      pop\n        /* \"#utility.yul\":13626:14358   */\n      swap3\n      swap2\n      pop\n      pop\n      jump\t// out\n        /* \"#utility.yul\":14364:14998   */\n    tag_60:\n        /* \"#utility.yul\":14585:14589   */\n      0x00\n        /* \"#utility.yul\":14623:14625   */\n      0x40\n        /* \"#utility.yul\":14612:14621   */\n      dup3\n        /* \"#utility.yul\":14608:14626   */\n      add\n        /* \"#utility.yul\":14600:14626   */\n      swap1\n      pop\n        /* \"#utility.yul\":14672:14681   */\n      dup2\n        /* \"#utility.yul\":14666:14670   */\n      dup2\n        /* \"#utility.yul\":14662:14682   */\n      sub\n        /* \"#utility.yul\":14658:14659   */\n      0x00\n        /* \"#utility.yul\":14647:14656   */\n      dup4\n        /* \"#utility.yul\":14643:14660   */\n      add\n        /* \"#utility.yul\":14636:14683   */\n      mstore\n        /* \"#utility.yul\":14700:14808   */\n      tag_292\n        /* \"#utility.yul\":14803:14807   */\n      dup2\n        /* \"#utility.yul\":14794:14800   */\n      dup6\n        /* \"#utility.yul\":14700:14808   */\n      tag_129\n      jump\t// in\n    tag_292:\n        /* \"#utility.yul\":14692:14808   */\n      swap1\n      pop\n        /* \"#utility.yul\":14855:14864   */\n      dup2\n        /* \"#utility.yul\":14849:14853   */\n      dup2\n        /* \"#utility.yul\":14845:14865   */\n      sub\n        /* \"#utility.yul\":14840:14842   */\n      0x20\n        /* \"#utility.yul\":14829:14838   */\n      dup4\n        /* \"#utility.yul\":14825:14843   */\n      add\n        /* \"#utility.yul\":14818:14866   */\n      mstore\n        /* \"#utility.yul\":14883:14991   */\n      tag_293\n        /* \"#utility.yul\":14986:14990   */\n      dup2\n        /* \"#utility.yul\":14977:14983   */\n      dup5\n        /* \"#utility.yul\":14883:14991   */\n      tag_136\n      jump\t// in\n    tag_293:\n        /* \"#utility.yul\":14875:14991   */\n      swap1\n      pop\n        /* \"#utility.yul\":14364:14998   */\n      swap4\n      swap3\n      pop\n      pop\n      pop\n      jump\t// out\n        /* \"#utility.yul\":15004:15414   */\n    tag_64:\n        /* \"#utility.yul\":15044:15051   */\n      0x00\n        /* \"#utility.yul\":15067:15087   */\n      tag_295\n        /* \"#utility.yul\":15085:15086   */\n      dup3\n        /* \"#utility.yul\":15067:15087   */\n      tag_107\n      jump\t// in\n    tag_295:\n        /* \"#utility.yul\":15062:15087   */\n      swap2\n      pop\n        /* \"#utility.yul\":15101:15121   */\n      tag_296\n        /* \"#utility.yul\":15119:15120   */\n      dup4\n        /* \"#utility.yul\":15101:15121   */\n      tag_107\n      jump\t// in\n    tag_296:\n        /* \"#utility.yul\":15096:15121   */\n      swap3\n      pop\n        /* \"#utility.yul\":15156:15157   */\n      dup3\n        /* \"#utility.yul\":15153:15154   */\n      dup3\n        /* \"#utility.yul\":15149:15158   */\n      mul\n        /* \"#utility.yul\":15178:15208   */\n      tag_297\n        /* \"#utility.yul\":15196:15207   */\n      dup2\n        /* \"#utility.yul\":15178:15208   */\n      tag_107\n      jump\t// in\n    tag_297:\n        /* \"#utility.yul\":15167:15208   */\n      swap2\n      pop\n        /* \"#utility.yul\":15357:15358   */\n      dup3\n        /* \"#utility.yul\":15348:15355   */\n      dup3\n        /* \"#utility.yul\":15344:15359   */\n      div\n        /* \"#utility.yul\":15341:15342   */\n      dup5\n        /* \"#utility.yul\":15338:15360   */\n      eq\n        /* \"#utility.yul\":15318:15319   */\n      dup4\n        /* \"#utility.yul\":15311:15320   */\n      iszero\n        /* \"#utility.yul\":15291:15374   */\n      or\n        /* \"#utility.yul\":15268:15407   */\n      tag_298\n      jumpi\n        /* \"#utility.yul\":15387:15405   */\n      tag_299\n      tag_122\n      jump\t// in\n    tag_299:\n        /* \"#utility.yul\":15268:15407   */\n    tag_298:\n        /* \"#utility.yul\":15052:15414   */\n      pop\n        /* \"#utility.yul\":15004:15414   */\n      swap3\n      swap2\n      pop\n      pop\n      jump\t// out\n        /* \"#utility.yul\":15420:15600   */\n    tag_137:\n        /* \"#utility.yul\":15468:15545   */\n      0x4e487b7100000000000000000000000000000000000000000000000000000000\n        /* \"#utility.yul\":15465:15466   */\n      0x00\n        /* \"#utility.yul\":15458:15546   */\n      mstore\n        /* \"#utility.yul\":15565:15569   */\n      0x12\n        /* \"#utility.yul\":15562:15563   */\n      0x04\n        /* \"#utility.yul\":15555:15570   */\n      mstore\n        /* \"#utility.yul\":15589:15593   */\n      0x24\n        /* \"#utility.yul\":15586:15587   */\n      0x00\n        /* \"#utility.yul\":15579:15594   */\n      revert\n        /* \"#utility.yul\":15606:15791   */\n    tag_66:\n        /* \"#utility.yul\":15646:15647   */\n      0x00\n        /* \"#utility.yul\":15663:15683   */\n      tag_302\n        /* \"#utility.yul\":15681:15682   */\n      dup3\n        /* \"#utility.yul\":15663:15683   */\n      tag_107\n      jump\t// in\n    tag_302:\n        /* \"#utility.yul\":15658:15683   */\n      swap2\n      pop\n        /* \"#utility.yul\":15697:15717   */\n      tag_303\n        /* \"#utility.yul\":15715:15716   */\n      dup4\n        /* \"#utility.yul\":15697:15717   */\n      tag_107\n      jump\t// in\n    tag_303:\n        /* \"#utility.yul\":15692:15717   */\n      swap3\n      pop\n        /* \"#utility.yul\":15736:15737   */\n      dup3\n        /* \"#utility.yul\":15726:15761   */\n      tag_304\n      jumpi\n        /* \"#utility.yul\":15741:15759   */\n      tag_305\n      tag_137\n      jump\t// in\n    tag_305:\n        /* \"#utility.yul\":15726:15761   */\n    tag_304:\n        /* \"#utility.yul\":15783:15784   */\n      dup3\n        /* \"#utility.yul\":15780:15781   */\n      dup3\n        /* \"#utility.yul\":15776:15785   */\n      div\n        /* \"#utility.yul\":15771:15785   */\n      swap1\n      pop\n        /* \"#utility.yul\":15606:15791   */\n      swap3\n      swap2\n      pop\n      pop\n      jump\t// out\n        /* \"#utility.yul\":15797:15988   */\n    tag_76:\n        /* \"#utility.yul\":15837:15840   */\n      0x00\n        /* \"#utility.yul\":15856:15876   */\n      tag_307\n        /* \"#utility.yul\":15874:15875   */\n      dup3\n        /* \"#utility.yul\":15856:15876   */\n      tag_107\n      jump\t// in\n    tag_307:\n        /* \"#utility.yul\":15851:15876   */\n      swap2\n      pop\n        /* \"#utility.yul\":15890:15910   */\n      tag_308\n        /* \"#utility.yul\":15908:15909   */\n      dup4\n        /* \"#utility.yul\":15890:15910   */\n      tag_107\n      jump\t// in\n    tag_308:\n        /* \"#utility.yul\":15885:15910   */\n      swap3\n      pop\n        /* \"#utility.yul\":15933:15934   */\n      dup3\n        /* \"#utility.yul\":15930:15931   */\n      dup3\n        /* \"#utility.yul\":15926:15935   */\n      add\n        /* \"#utility.yul\":15919:15935   */\n      swap1\n      pop\n        /* \"#utility.yul\":15954:15957   */\n      dup1\n        /* \"#utility.yul\":15951:15952   */\n      dup3\n        /* \"#utility.yul\":15948:15958   */\n      gt\n        /* \"#utility.yul\":15945:15981   */\n      iszero\n      tag_309\n      jumpi\n        /* \"#utility.yul\":15961:15979   */\n      tag_310\n      tag_122\n      jump\t// in\n    tag_310:\n        /* \"#utility.yul\":15945:15981   */\n    tag_309:\n        /* \"#utility.yul\":15797:15988   */\n      swap3\n      swap2\n      pop\n      pop\n      jump\t// out\n        /* \"#utility.yul\":15994:16547   */\n    tag_78:\n        /* \"#utility.yul\":16171:16175   */\n      0x00\n        /* \"#utility.yul\":16209:16212   */\n      0x80\n        /* \"#utility.yul\":16198:16207   */\n      dup3\n        /* \"#utility.yul\":16194:16213   */\n      add\n        /* \"#utility.yul\":16186:16213   */\n      swap1\n      pop\n        /* \"#utility.yul\":16223:16294   */\n      tag_312\n        /* \"#utility.yul\":16291:16292   */\n      0x00\n        /* \"#utility.yul\":16280:16289   */\n      dup4\n        /* \"#utility.yul\":16276:16293   */\n      add\n        /* \"#utility.yul\":16267:16273   */\n      dup8\n        /* \"#utility.yul\":16223:16294   */\n      tag_113\n      jump\t// in\n    tag_312:\n        /* \"#utility.yul\":16304:16376   */\n      tag_313\n        /* \"#utility.yul\":16372:16374   */\n      0x20\n        /* \"#utility.yul\":16361:16370   */\n      dup4\n        /* \"#utility.yul\":16357:16375   */\n      add\n        /* \"#utility.yul\":16348:16354   */\n      dup7\n        /* \"#utility.yul\":16304:16376   */\n      tag_113\n      jump\t// in\n    tag_313:\n        /* \"#utility.yul\":16386:16458   */\n      tag_314\n        /* \"#utility.yul\":16454:16456   */\n      0x40\n        /* \"#utility.yul\":16443:16452   */\n      dup4\n        /* \"#utility.yul\":16439:16457   */\n      add\n        /* \"#utility.yul\":16430:16436   */\n      dup6\n        /* \"#utility.yul\":16386:16458   */\n      tag_113\n      jump\t// in\n    tag_314:\n        /* \"#utility.yul\":16468:16540   */\n      tag_315\n        /* \"#utility.yul\":16536:16538   */\n      0x60\n        /* \"#utility.yul\":16525:16534   */\n      dup4\n        /* \"#utility.yul\":16521:16539   */\n      add\n        /* \"#utility.yul\":16512:16518   */\n      dup5\n        /* \"#utility.yul\":16468:16540   */\n      tag_113\n      jump\t// in\n    tag_315:\n        /* \"#utility.yul\":15994:16547   */\n      swap6\n      swap5\n      pop\n      pop\n      pop\n      pop\n      pop\n      jump\t// out\n\n    auxdata: 0xa2646970667358221220320bc0e4100862e8b92111333055b5438766efcc52007ecff8dab16dd96ceba864736f6c63430008150033\n}\n",
				"bytecode": {
					"linkReferences": {},
					"object": "608060405266b1a2bc2ec500006003553480156200001b575f80fd5b5060405162000fb238038062000fb283398181016040528101906200004191906200012d565b815f806101000a81548173ffffffffffffffffffffffffffffffffffffffff021916908373ffffffffffffffffffffffffffffffffffffffff1602179055508060015f6101000a81548173ffffffffffffffffffffffffffffffffffffffff021916908373ffffffffffffffffffffffffffffffffffffffff160217905550505062000172565b5f80fd5b5f73ffffffffffffffffffffffffffffffffffffffff82169050919050565b5f620000f782620000cc565b9050919050565b6200010981620000eb565b811462000114575f80fd5b50565b5f815190506200012781620000fe565b92915050565b5f8060408385031215620001465762000145620000c8565b5b5f620001558582860162000117565b9250506020620001688582860162000117565b9150509250929050565b610e3280620001805f395ff3fe608060405234801561000f575f80fd5b506004361061007b575f3560e01c806366666aa91161005957806366666aa9146100d75780637cc2a0a7146100f5578063dc03d93214610111578063ffe9573a146101415761007b565b8063143ba4f31461007f57806336b19cd71461009b57806342cde4e8146100b9575b5f80fd5b610099600480360381019061009491906107e1565b61015f565b005b6100a36102d8565b6040516100b09190610866565b60405180910390f35b6100c16102fb565b6040516100ce919061088e565b60405180910390f35b6100df610301565b6040516100ec919061088e565b60405180910390f35b61010f600480360381019061010a91906108dd565b610307565b005b61012b6004803603810190610126919061092d565b610493565b604051610138919061088e565b60405180910390f35b61014961050e565b6040516101569190610866565b60405180910390f35b60035460025410156101a6576040517f08c379a000000000000000000000000000000000000000000000000000000000815260040161019d906109c5565b60405180910390fd5b80518251146101ea576040517f08c379a00000000000000000000000000000000000000000000000000000000081526004016101e190610a53565b60405180910390fd5b5f5b82518110156102805782818151811061020857610207610a71565b5b602002602001015173ffffffffffffffffffffffffffffffffffffffff166108fc83838151811061023c5761023b610a71565b5b602002602001015190811502906040515f60405180830381858888f1935050505015801561026c573d5f803e3d5ffd5b50808061027890610acb565b9150506101ec565b5060035460025f8282546102949190610b12565b925050819055507fe69d325558610ba73c441901deb46d7f251108348dc5dc9447e8866774c12edc82826040516102cc929190610cb3565b60405180910390a15050565b5f8054906101000a900473ffffffffffffffffffffffffffffffffffffffff1681565b60035481565b60025481565b5f6103128383610493565b90505f6103e86101db836103269190610ce8565b6103309190610d56565b90505f6103e86101db846103449190610ce8565b61034e9190610d56565b90505f6103e86032856103619190610ce8565b61036b9190610d56565b90505f8054906101000a900473ffffffffffffffffffffffffffffffffffffffff1673ffffffffffffffffffffffffffffffffffffffff166108fc8490811502906040515f60405180830381858888f193505050501580156103cf573d5f803e3d5ffd5b5060015f9054906101000a900473ffffffffffffffffffffffffffffffffffffffff1673ffffffffffffffffffffffffffffffffffffffff166108fc8390811502906040515f60405180830381858888f19350505050158015610434573d5f803e3d5ffd5b508060025f8282546104469190610d86565b925050819055507f78490b24a020086d2701460dc169a540280c517bef9cdcd742f751a9099922a3878484846040516104829493929190610db9565b60405180910390a150505050505050565b5f8060018360ff16036104a957600190506104ed565b60028360ff16036104bd57600290506104ec565b60038360ff16036104d157600390506104eb565b60048360ff16036104e557600490506104ea565b600590505b5b5b5b606481856104fb9190610ce8565b6105059190610d56565b91505092915050565b60015f9054906101000a900473ffffffffffffffffffffffffffffffffffffffff1681565b5f604051905090565b5f80fd5b5f80fd5b5f80fd5b5f601f19601f8301169050919050565b7f4e487b71000000000000000000000000000000000000000000000000000000005f52604160045260245ffd5b61058e82610548565b810181811067ffffffffffffffff821117156105ad576105ac610558565b5b80604052505050565b5f6105bf610533565b90506105cb8282610585565b919050565b5f67ffffffffffffffff8211156105ea576105e9610558565b5b602082029050602081019050919050565b5f80fd5b5f73ffffffffffffffffffffffffffffffffffffffff82169050919050565b5f610628826105ff565b9050919050565b6106388161061e565b8114610642575f80fd5b50565b5f813590506106538161062f565b92915050565b5f61066b610666846105d0565b6105b6565b9050808382526020820190506020840283018581111561068e5761068d6105fb565b5b835b818110156106b757806106a38882610645565b845260208401935050602081019050610690565b5050509392505050565b5f82601f8301126106d5576106d4610544565b5b81356106e5848260208601610659565b91505092915050565b5f67ffffffffffffffff82111561070857610707610558565b5b602082029050602081019050919050565b5f819050919050565b61072b81610719565b8114610735575f80fd5b50565b5f8135905061074681610722565b92915050565b5f61075e610759846106ee565b6105b6565b90508083825260208201905060208402830185811115610781576107806105fb565b5b835b818110156107aa57806107968882610738565b845260208401935050602081019050610783565b5050509392505050565b5f82601f8301126107c8576107c7610544565b5b81356107d884826020860161074c565b91505092915050565b5f80604083850312156107f7576107f661053c565b5b5f83013567ffffffffffffffff81111561081457610813610540565b5b610820858286016106c1565b925050602083013567ffffffffffffffff81111561084157610840610540565b5b61084d858286016107b4565b9150509250929050565b6108608161061e565b82525050565b5f6020820190506108795f830184610857565b92915050565b61088881610719565b82525050565b5f6020820190506108a15f83018461087f565b92915050565b5f60ff82169050919050565b6108bc816108a7565b81146108c6575f80fd5b50565b5f813590506108d7816108b3565b92915050565b5f805f606084860312156108f4576108f361053c565b5b5f61090186828701610738565b935050602061091286828701610738565b9250506040610923868287016108c9565b9150509250925092565b5f80604083850312156109435761094261053c565b5b5f61095085828601610738565b9250506020610961858286016108c9565b9150509250929050565b5f82825260208201905092915050565b7f52657761726420706f6f6c207468726573686f6c64206e6f74206d65740000005f82015250565b5f6109af601d8361096b565b91506109ba8261097b565b602082019050919050565b5f6020820190508181035f8301526109dc816109a3565b9050919050565b7f4d69736d61746368656420757365727320616e642072657761726473206c656e5f8201527f6774680000000000000000000000000000000000000000000000000000000000602082015250565b5f610a3d60238361096b565b9150610a48826109e3565b604082019050919050565b5f6020820190508181035f830152610a6a81610a31565b9050919050565b7f4e487b71000000000000000000000000000000000000000000000000000000005f52603260045260245ffd5b7f4e487b71000000000000000000000000000000000000000000000000000000005f52601160045260245ffd5b5f610ad582610719565b91507fffffffffffffffffffffffffffffffffffffffffffffffffffffffffffffffff8203610b0757610b06610a9e565b5b600182019050919050565b5f610b1c82610719565b9150610b2783610719565b9250828203905081811115610b3f57610b3e610a9e565b5b92915050565b5f81519050919050565b5f82825260208201905092915050565b5f819050602082019050919050565b610b778161061e565b82525050565b5f610b888383610b6e565b60208301905092915050565b5f602082019050919050565b5f610baa82610b45565b610bb48185610b4f565b9350610bbf83610b5f565b805f5b83811015610bef578151610bd68882610b7d565b9750610be183610b94565b925050600181019050610bc2565b5085935050505092915050565b5f81519050919050565b5f82825260208201905092915050565b5f819050602082019050919050565b610c2e81610719565b82525050565b5f610c3f8383610c25565b60208301905092915050565b5f602082019050919050565b5f610c6182610bfc565b610c6b8185610c06565b9350610c7683610c16565b805f5b83811015610ca6578151610c8d8882610c34565b9750610c9883610c4b565b925050600181019050610c79565b5085935050505092915050565b5f6040820190508181035f830152610ccb8185610ba0565b90508181036020830152610cdf8184610c57565b90509392505050565b5f610cf282610719565b9150610cfd83610719565b9250828202610d0b81610719565b91508282048414831517610d2257610d21610a9e565b5b5092915050565b7f4e487b71000000000000000000000000000000000000000000000000000000005f52601260045260245ffd5b5f610d6082610719565b9150610d6b83610719565b925082610d7b57610d7a610d29565b5b828204905092915050565b5f610d9082610719565b9150610d9b83610719565b9250828201905080821115610db357610db2610a9e565b5b92915050565b5f608082019050610dcc5f83018761087f565b610dd9602083018661087f565b610de6604083018561087f565b610df3606083018461087f565b9594505050505056fea2646970667358221220320bc0e4100862e8b92111333055b5438766efcc52007ecff8dab16dd96ceba864736f6c63430008150033",
					"opcodes": "PUSH1 0x80 PUSH1 0x40 MSTORE PUSH7 0xB1A2BC2EC50000 PUSH1 0x3 SSTORE CALLVALUE DUP1 ISZERO PUSH3 0x1B JUMPI PUSH0 DUP1 REVERT JUMPDEST POP PUSH1 0x40 MLOAD PUSH3 0xFB2 CODESIZE SUB DUP1 PUSH3 0xFB2 DUP4 CODECOPY DUP2 DUP2 ADD PUSH1 0x40 MSTORE DUP2 ADD SWAP1 PUSH3 0x41 SWAP2 SWAP1 PUSH3 0x12D JUMP JUMPDEST DUP2 PUSH0 DUP1 PUSH2 0x100 EXP DUP2 SLOAD DUP2 PUSH20 0xFFFFFFFFFFFFFFFFFFFFFFFFFFFFFFFFFFFFFFFF MUL NOT AND SWAP1 DUP4 PUSH20 0xFFFFFFFFFFFFFFFFFFFFFFFFFFFFFFFFFFFFFFFF AND MUL OR SWAP1 SSTORE POP DUP1 PUSH1 0x1 PUSH0 PUSH2 0x100 EXP DUP2 SLOAD DUP2 PUSH20 0xFFFFFFFFFFFFFFFFFFFFFFFFFFFFFFFFFFFFFFFF MUL NOT AND SWAP1 DUP4 PUSH20 0xFFFFFFFFFFFFFFFFFFFFFFFFFFFFFFFFFFFFFFFF AND MUL OR SWAP1 SSTORE POP POP POP PUSH3 0x172 JUMP JUMPDEST PUSH0 DUP1 REVERT JUMPDEST PUSH0 PUSH20 0xFFFFFFFFFFFFFFFFFFFFFFFFFFFFFFFFFFFFFFFF DUP3 AND SWAP1 POP SWAP2 SWAP1 POP JUMP JUMPDEST PUSH0 PUSH3 0xF7 DUP3 PUSH3 0xCC JUMP JUMPDEST SWAP1 POP SWAP2 SWAP1 POP JUMP JUMPDEST PUSH3 0x109 DUP2 PUSH3 0xEB JUMP JUMPDEST DUP2 EQ PUSH3 0x114 JUMPI PUSH0 DUP1 REVERT JUMPDEST POP JUMP JUMPDEST PUSH0 DUP2 MLOAD SWAP1 POP PUSH3 0x127 DUP2 PUSH3 0xFE JUMP JUMPDEST SWAP3 SWAP2 POP POP JUMP JUMPDEST PUSH0 DUP1 PUSH1 0x40 DUP4 DUP6 SUB SLT ISZERO PUSH3 0x146 JUMPI PUSH3 0x145 PUSH3 0xC8 JUMP JUMPDEST JUMPDEST PUSH0 PUSH3 0x155 DUP6 DUP3 DUP7 ADD PUSH3 0x117 JUMP JUMPDEST SWAP3 POP POP PUSH1 0x20 PUSH3 0x168 DUP6 DUP3 DUP7 ADD PUSH3 0x117 JUMP JUMPDEST SWAP2 POP POP SWAP3 POP SWAP3 SWAP1 POP JUMP JUMPDEST PUSH2 0xE32 DUP1 PUSH3 0x180 PUSH0 CODECOPY PUSH0 RETURN INVALID PUSH1 0x80 PUSH1 0x40 MSTORE CALLVALUE DUP1 ISZERO PUSH2 0xF JUMPI PUSH0 DUP1 REVERT JUMPDEST POP PUSH1 0x4 CALLDATASIZE LT PUSH2 0x7B JUMPI PUSH0 CALLDATALOAD PUSH1 0xE0 SHR DUP1 PUSH4 0x66666AA9 GT PUSH2 0x59 JUMPI DUP1 PUSH4 0x66666AA9 EQ PUSH2 0xD7 JUMPI DUP1 PUSH4 0x7CC2A0A7 EQ PUSH2 0xF5 JUMPI DUP1 PUSH4 0xDC03D932 EQ PUSH2 0x111 JUMPI DUP1 PUSH4 0xFFE9573A EQ PUSH2 0x141 JUMPI PUSH2 0x7B JUMP JUMPDEST DUP1 PUSH4 0x143BA4F3 EQ PUSH2 0x7F JUMPI DUP1 PUSH4 0x36B19CD7 EQ PUSH2 0x9B JUMPI DUP1 PUSH4 0x42CDE4E8 EQ PUSH2 0xB9 JUMPI JUMPDEST PUSH0 DUP1 REVERT JUMPDEST PUSH2 0x99 PUSH1 0x4 DUP1 CALLDATASIZE SUB DUP2 ADD SWAP1 PUSH2 0x94 SWAP2 SWAP1 PUSH2 0x7E1 JUMP JUMPDEST PUSH2 0x15F JUMP JUMPDEST STOP JUMPDEST PUSH2 0xA3 PUSH2 0x2D8 JUMP JUMPDEST PUSH1 0x40 MLOAD PUSH2 0xB0 SWAP2 SWAP1 PUSH2 0x866 JUMP JUMPDEST PUSH1 0x40 MLOAD DUP1 SWAP2 SUB SWAP1 RETURN JUMPDEST PUSH2 0xC1 PUSH2 0x2FB JUMP JUMPDEST PUSH1 0x40 MLOAD PUSH2 0xCE SWAP2 SWAP1 PUSH2 0x88E JUMP JUMPDEST PUSH1 0x40 MLOAD DUP1 SWAP2 SUB SWAP1 RETURN JUMPDEST PUSH2 0xDF PUSH2 0x301 JUMP JUMPDEST PUSH1 0x40 MLOAD PUSH2 0xEC SWAP2 SWAP1 PUSH2 0x88E JUMP JUMPDEST PUSH1 0x40 MLOAD DUP1 SWAP2 SUB SWAP1 RETURN JUMPDEST PUSH2 0x10F PUSH1 0x4 DUP1 CALLDATASIZE SUB DUP2 ADD SWAP1 PUSH2 0x10A SWAP2 SWAP1 PUSH2 0x8DD JUMP JUMPDEST PUSH2 0x307 JUMP JUMPDEST STOP JUMPDEST PUSH2 0x12B PUSH1 0x4 DUP1 CALLDATASIZE SUB DUP2 ADD SWAP1 PUSH2 0x126 SWAP2 SWAP1 PUSH2 0x92D JUMP JUMPDEST PUSH2 0x493 JUMP JUMPDEST PUSH1 0x40 MLOAD PUSH2 0x138 SWAP2 SWAP1 PUSH2 0x88E JUMP JUMPDEST PUSH1 0x40 MLOAD DUP1 SWAP2 SUB SWAP1 RETURN JUMPDEST PUSH2 0x149 PUSH2 0x50E JUMP JUMPDEST PUSH1 0x40 MLOAD PUSH2 0x156 SWAP2 SWAP1 PUSH2 0x866 JUMP JUMPDEST PUSH1 0x40 MLOAD DUP1 SWAP2 SUB SWAP1 RETURN JUMPDEST PUSH1 0x3 SLOAD PUSH1 0x2 SLOAD LT ISZERO PUSH2 0x1A6 JUMPI PUSH1 0x40 MLOAD PUSH32 0x8C379A000000000000000000000000000000000000000000000000000000000 DUP2 MSTORE PUSH1 0x4 ADD PUSH2 0x19D SWAP1 PUSH2 0x9C5 JUMP JUMPDEST PUSH1 0x40 MLOAD DUP1 SWAP2 SUB SWAP1 REVERT JUMPDEST DUP1 MLOAD DUP3 MLOAD EQ PUSH2 0x1EA JUMPI PUSH1 0x40 MLOAD PUSH32 0x8C379A000000000000000000000000000000000000000000000000000000000 DUP2 MSTORE PUSH1 0x4 ADD PUSH2 0x1E1 SWAP1 PUSH2 0xA53 JUMP JUMPDEST PUSH1 0x40 MLOAD DUP1 SWAP2 SUB SWAP1 REVERT JUMPDEST PUSH0 JUMPDEST DUP3 MLOAD DUP2 LT ISZERO PUSH2 0x280 JUMPI DUP3 DUP2 DUP2 MLOAD DUP2 LT PUSH2 0x208 JUMPI PUSH2 0x207 PUSH2 0xA71 JUMP JUMPDEST JUMPDEST PUSH1 0x20 MUL PUSH1 0x20 ADD ADD MLOAD PUSH20 0xFFFFFFFFFFFFFFFFFFFFFFFFFFFFFFFFFFFFFFFF AND PUSH2 0x8FC DUP4 DUP4 DUP2 MLOAD DUP2 LT PUSH2 0x23C JUMPI PUSH2 0x23B PUSH2 0xA71 JUMP JUMPDEST JUMPDEST PUSH1 0x20 MUL PUSH1 0x20 ADD ADD MLOAD SWAP1 DUP2 ISZERO MUL SWAP1 PUSH1 0x40 MLOAD PUSH0 PUSH1 0x40 MLOAD DUP1 DUP4 SUB DUP2 DUP6 DUP9 DUP9 CALL SWAP4 POP POP POP POP ISZERO DUP1 ISZERO PUSH2 0x26C JUMPI RETURNDATASIZE PUSH0 DUP1 RETURNDATACOPY RETURNDATASIZE PUSH0 REVERT JUMPDEST POP DUP1 DUP1 PUSH2 0x278 SWAP1 PUSH2 0xACB JUMP JUMPDEST SWAP2 POP POP PUSH2 0x1EC JUMP JUMPDEST POP PUSH1 0x3 SLOAD PUSH1 0x2 PUSH0 DUP3 DUP3 SLOAD PUSH2 0x294 SWAP2 SWAP1 PUSH2 0xB12 JUMP JUMPDEST SWAP3 POP POP DUP2 SWAP1 SSTORE POP PUSH32 0xE69D325558610BA73C441901DEB46D7F251108348DC5DC9447E8866774C12EDC DUP3 DUP3 PUSH1 0x40 MLOAD PUSH2 0x2CC SWAP3 SWAP2 SWAP1 PUSH2 0xCB3 JUMP JUMPDEST PUSH1 0x40 MLOAD DUP1 SWAP2 SUB SWAP1 LOG1 POP POP JUMP JUMPDEST PUSH0 DUP1 SLOAD SWAP1 PUSH2 0x100 EXP SWAP1 DIV PUSH20 0xFFFFFFFFFFFFFFFFFFFFFFFFFFFFFFFFFFFFFFFF AND DUP2 JUMP JUMPDEST PUSH1 0x3 SLOAD DUP2 JUMP JUMPDEST PUSH1 0x2 SLOAD DUP2 JUMP JUMPDEST PUSH0 PUSH2 0x312 DUP4 DUP4 PUSH2 0x493 JUMP JUMPDEST SWAP1 POP PUSH0 PUSH2 0x3E8 PUSH2 0x1DB DUP4 PUSH2 0x326 SWAP2 SWAP1 PUSH2 0xCE8 JUMP JUMPDEST PUSH2 0x330 SWAP2 SWAP1 PUSH2 0xD56 JUMP JUMPDEST SWAP1 POP PUSH0 PUSH2 0x3E8 PUSH2 0x1DB DUP5 PUSH2 0x344 SWAP2 SWAP1 PUSH2 0xCE8 JUMP JUMPDEST PUSH2 0x34E SWAP2 SWAP1 PUSH2 0xD56 JUMP JUMPDEST SWAP1 POP PUSH0 PUSH2 0x3E8 PUSH1 0x32 DUP6 PUSH2 0x361 SWAP2 SWAP1 PUSH2 0xCE8 JUMP JUMPDEST PUSH2 0x36B SWAP2 SWAP1 PUSH2 0xD56 JUMP JUMPDEST SWAP1 POP PUSH0 DUP1 SLOAD SWAP1 PUSH2 0x100 EXP SWAP1 DIV PUSH20 0xFFFFFFFFFFFFFFFFFFFFFFFFFFFFFFFFFFFFFFFF AND PUSH20 0xFFFFFFFFFFFFFFFFFFFFFFFFFFFFFFFFFFFFFFFF AND PUSH2 0x8FC DUP5 SWAP1 DUP2 ISZERO MUL SWAP1 PUSH1 0x40 MLOAD PUSH0 PUSH1 0x40 MLOAD DUP1 DUP4 SUB DUP2 DUP6 DUP9 DUP9 CALL SWAP4 POP POP POP POP ISZERO DUP1 ISZERO PUSH2 0x3CF JUMPI RETURNDATASIZE PUSH0 DUP1 RETURNDATACOPY RETURNDATASIZE PUSH0 REVERT JUMPDEST POP PUSH1 0x1 PUSH0 SWAP1 SLOAD SWAP1 PUSH2 0x100 EXP SWAP1 DIV PUSH20 0xFFFFFFFFFFFFFFFFFFFFFFFFFFFFFFFFFFFFFFFF AND PUSH20 0xFFFFFFFFFFFFFFFFFFFFFFFFFFFFFFFFFFFFFFFF AND PUSH2 0x8FC DUP4 SWAP1 DUP2 ISZERO MUL SWAP1 PUSH1 0x40 MLOAD PUSH0 PUSH1 0x40 MLOAD DUP1 DUP4 SUB DUP2 DUP6 DUP9 DUP9 CALL SWAP4 POP POP POP POP ISZERO DUP1 ISZERO PUSH2 0x434 JUMPI RETURNDATASIZE PUSH0 DUP1 RETURNDATACOPY RETURNDATASIZE PUSH0 REVERT JUMPDEST POP DUP1 PUSH1 0x2 PUSH0 DUP3 DUP3 SLOAD PUSH2 0x446 SWAP2 SWAP1 PUSH2 0xD86 JUMP JUMPDEST SWAP3 POP POP DUP2 SWAP1 SSTORE POP PUSH32 0x78490B24A020086D2701460DC169A540280C517BEF9CDCD742F751A9099922A3 DUP8 DUP5 DUP5 DUP5 PUSH1 0x40 MLOAD PUSH2 0x482 SWAP5 SWAP4 SWAP3 SWAP2 SWAP1 PUSH2 0xDB9 JUMP JUMPDEST PUSH1 0x40 MLOAD DUP1 SWAP2 SUB SWAP1 LOG1 POP POP POP POP POP POP POP JUMP JUMPDEST PUSH0 DUP1 PUSH1 0x1 DUP4 PUSH1 0xFF AND SUB PUSH2 0x4A9 JUMPI PUSH1 0x1 SWAP1 POP PUSH2 0x4ED JUMP JUMPDEST PUSH1 0x2 DUP4 PUSH1 0xFF AND SUB PUSH2 0x4BD JUMPI PUSH1 0x2 SWAP1 POP PUSH2 0x4EC JUMP JUMPDEST PUSH1 0x3 DUP4 PUSH1 0xFF AND SUB PUSH2 0x4D1 JUMPI PUSH1 0x3 SWAP1 POP PUSH2 0x4EB JUMP JUMPDEST PUSH1 0x4 DUP4 PUSH1 0xFF AND SUB PUSH2 0x4E5 JUMPI PUSH1 0x4 SWAP1 POP PUSH2 0x4EA JUMP JUMPDEST PUSH1 0x5 SWAP1 POP JUMPDEST JUMPDEST JUMPDEST JUMPDEST PUSH1 0x64 DUP2 DUP6 PUSH2 0x4FB SWAP2 SWAP1 PUSH2 0xCE8 JUMP JUMPDEST PUSH2 0x505 SWAP2 SWAP1 PUSH2 0xD56 JUMP JUMPDEST SWAP2 POP POP SWAP3 SWAP2 POP POP JUMP JUMPDEST PUSH1 0x1 PUSH0 SWAP1 SLOAD SWAP1 PUSH2 0x100 EXP SWAP1 DIV PUSH20 0xFFFFFFFFFFFFFFFFFFFFFFFFFFFFFFFFFFFFFFFF AND DUP2 JUMP JUMPDEST PUSH0 PUSH1 0x40 MLOAD SWAP1 POP SWAP1 JUMP JUMPDEST PUSH0 DUP1 REVERT JUMPDEST PUSH0 DUP1 REVERT JUMPDEST PUSH0 DUP1 REVERT JUMPDEST PUSH0 PUSH1 0x1F NOT PUSH1 0x1F DUP4 ADD AND SWAP1 POP SWAP2 SWAP1 POP JUMP JUMPDEST PUSH32 0x4E487B7100000000000000000000000000000000000000000000000000000000 PUSH0 MSTORE PUSH1 0x41 PUSH1 0x4 MSTORE PUSH1 0x24 PUSH0 REVERT JUMPDEST PUSH2 0x58E DUP3 PUSH2 0x548 JUMP JUMPDEST DUP2 ADD DUP2 DUP2 LT PUSH8 0xFFFFFFFFFFFFFFFF DUP3 GT OR ISZERO PUSH2 0x5AD JUMPI PUSH2 0x5AC PUSH2 0x558 JUMP JUMPDEST JUMPDEST DUP1 PUSH1 0x40 MSTORE POP POP POP JUMP JUMPDEST PUSH0 PUSH2 0x5BF PUSH2 0x533 JUMP JUMPDEST SWAP1 POP PUSH2 0x5CB DUP3 DUP3 PUSH2 0x585 JUMP JUMPDEST SWAP2 SWAP1 POP JUMP JUMPDEST PUSH0 PUSH8 0xFFFFFFFFFFFFFFFF DUP3 GT ISZERO PUSH2 0x5EA JUMPI PUSH2 0x5E9 PUSH2 0x558 JUMP JUMPDEST JUMPDEST PUSH1 0x20 DUP3 MUL SWAP1 POP PUSH1 0x20 DUP2 ADD SWAP1 POP SWAP2 SWAP1 POP JUMP JUMPDEST PUSH0 DUP1 REVERT JUMPDEST PUSH0 PUSH20 0xFFFFFFFFFFFFFFFFFFFFFFFFFFFFFFFFFFFFFFFF DUP3 AND SWAP1 POP SWAP2 SWAP1 POP JUMP JUMPDEST PUSH0 PUSH2 0x628 DUP3 PUSH2 0x5FF JUMP JUMPDEST SWAP1 POP SWAP2 SWAP1 POP JUMP JUMPDEST PUSH2 0x638 DUP2 PUSH2 0x61E JUMP JUMPDEST DUP2 EQ PUSH2 0x642 JUMPI PUSH0 DUP1 REVERT JUMPDEST POP JUMP JUMPDEST PUSH0 DUP2 CALLDATALOAD SWAP1 POP PUSH2 0x653 DUP2 PUSH2 0x62F JUMP JUMPDEST SWAP3 SWAP2 POP POP JUMP JUMPDEST PUSH0 PUSH2 0x66B PUSH2 0x666 DUP5 PUSH2 0x5D0 JUMP JUMPDEST PUSH2 0x5B6 JUMP JUMPDEST SWAP1 POP DUP1 DUP4 DUP3 MSTORE PUSH1 0x20 DUP3 ADD SWAP1 POP PUSH1 0x20 DUP5 MUL DUP4 ADD DUP6 DUP2 GT ISZERO PUSH2 0x68E JUMPI PUSH2 0x68D PUSH2 0x5FB JUMP JUMPDEST JUMPDEST DUP4 JUMPDEST DUP2 DUP2 LT ISZERO PUSH2 0x6B7 JUMPI DUP1 PUSH2 0x6A3 DUP9 DUP3 PUSH2 0x645 JUMP JUMPDEST DUP5 MSTORE PUSH1 0x20 DUP5 ADD SWAP4 POP POP PUSH1 0x20 DUP2 ADD SWAP1 POP PUSH2 0x690 JUMP JUMPDEST POP POP POP SWAP4 SWAP3 POP POP POP JUMP JUMPDEST PUSH0 DUP3 PUSH1 0x1F DUP4 ADD SLT PUSH2 0x6D5 JUMPI PUSH2 0x6D4 PUSH2 0x544 JUMP JUMPDEST JUMPDEST DUP2 CALLDATALOAD PUSH2 0x6E5 DUP5 DUP3 PUSH1 0x20 DUP7 ADD PUSH2 0x659 JUMP JUMPDEST SWAP2 POP POP SWAP3 SWAP2 POP POP JUMP JUMPDEST PUSH0 PUSH8 0xFFFFFFFFFFFFFFFF DUP3 GT ISZERO PUSH2 0x708 JUMPI PUSH2 0x707 PUSH2 0x558 JUMP JUMPDEST JUMPDEST PUSH1 0x20 DUP3 MUL SWAP1 POP PUSH1 0x20 DUP2 ADD SWAP1 POP SWAP2 SWAP1 POP JUMP JUMPDEST PUSH0 DUP2 SWAP1 POP SWAP2 SWAP1 POP JUMP JUMPDEST PUSH2 0x72B DUP2 PUSH2 0x719 JUMP JUMPDEST DUP2 EQ PUSH2 0x735 JUMPI PUSH0 DUP1 REVERT JUMPDEST POP JUMP JUMPDEST PUSH0 DUP2 CALLDATALOAD SWAP1 POP PUSH2 0x746 DUP2 PUSH2 0x722 JUMP JUMPDEST SWAP3 SWAP2 POP POP JUMP JUMPDEST PUSH0 PUSH2 0x75E PUSH2 0x759 DUP5 PUSH2 0x6EE JUMP JUMPDEST PUSH2 0x5B6 JUMP JUMPDEST SWAP1 POP DUP1 DUP4 DUP3 MSTORE PUSH1 0x20 DUP3 ADD SWAP1 POP PUSH1 0x20 DUP5 MUL DUP4 ADD DUP6 DUP2 GT ISZERO PUSH2 0x781 JUMPI PUSH2 0x780 PUSH2 0x5FB JUMP JUMPDEST JUMPDEST DUP4 JUMPDEST DUP2 DUP2 LT ISZERO PUSH2 0x7AA JUMPI DUP1 PUSH2 0x796 DUP9 DUP3 PUSH2 0x738 JUMP JUMPDEST DUP5 MSTORE PUSH1 0x20 DUP5 ADD SWAP4 POP POP PUSH1 0x20 DUP2 ADD SWAP1 POP PUSH2 0x783 JUMP JUMPDEST POP POP POP SWAP4 SWAP3 POP POP POP JUMP JUMPDEST PUSH0 DUP3 PUSH1 0x1F DUP4 ADD SLT PUSH2 0x7C8 JUMPI PUSH2 0x7C7 PUSH2 0x544 JUMP JUMPDEST JUMPDEST DUP2 CALLDATALOAD PUSH2 0x7D8 DUP5 DUP3 PUSH1 0x20 DUP7 ADD PUSH2 0x74C JUMP JUMPDEST SWAP2 POP POP SWAP3 SWAP2 POP POP JUMP JUMPDEST PUSH0 DUP1 PUSH1 0x40 DUP4 DUP6 SUB SLT ISZERO PUSH2 0x7F7 JUMPI PUSH2 0x7F6 PUSH2 0x53C JUMP JUMPDEST JUMPDEST PUSH0 DUP4 ADD CALLDATALOAD PUSH8 0xFFFFFFFFFFFFFFFF DUP2 GT ISZERO PUSH2 0x814 JUMPI PUSH2 0x813 PUSH2 0x540 JUMP JUMPDEST JUMPDEST PUSH2 0x820 DUP6 DUP3 DUP7 ADD PUSH2 0x6C1 JUMP JUMPDEST SWAP3 POP POP PUSH1 0x20 DUP4 ADD CALLDATALOAD PUSH8 0xFFFFFFFFFFFFFFFF DUP2 GT ISZERO PUSH2 0x841 JUMPI PUSH2 0x840 PUSH2 0x540 JUMP JUMPDEST JUMPDEST PUSH2 0x84D DUP6 DUP3 DUP7 ADD PUSH2 0x7B4 JUMP JUMPDEST SWAP2 POP POP SWAP3 POP SWAP3 SWAP1 POP JUMP JUMPDEST PUSH2 0x860 DUP2 PUSH2 0x61E JUMP JUMPDEST DUP3 MSTORE POP POP JUMP JUMPDEST PUSH0 PUSH1 0x20 DUP3 ADD SWAP1 POP PUSH2 0x879 PUSH0 DUP4 ADD DUP5 PUSH2 0x857 JUMP JUMPDEST SWAP3 SWAP2 POP POP JUMP JUMPDEST PUSH2 0x888 DUP2 PUSH2 0x719 JUMP JUMPDEST DUP3 MSTORE POP POP JUMP JUMPDEST PUSH0 PUSH1 0x20 DUP3 ADD SWAP1 POP PUSH2 0x8A1 PUSH0 DUP4 ADD DUP5 PUSH2 0x87F JUMP JUMPDEST SWAP3 SWAP2 POP POP JUMP JUMPDEST PUSH0 PUSH1 0xFF DUP3 AND SWAP1 POP SWAP2 SWAP1 POP JUMP JUMPDEST PUSH2 0x8BC DUP2 PUSH2 0x8A7 JUMP JUMPDEST DUP2 EQ PUSH2 0x8C6 JUMPI PUSH0 DUP1 REVERT JUMPDEST POP JUMP JUMPDEST PUSH0 DUP2 CALLDATALOAD SWAP1 POP PUSH2 0x8D7 DUP2 PUSH2 0x8B3 JUMP JUMPDEST SWAP3 SWAP2 POP POP JUMP JUMPDEST PUSH0 DUP1 PUSH0 PUSH1 0x60 DUP5 DUP7 SUB SLT ISZERO PUSH2 0x8F4 JUMPI PUSH2 0x8F3 PUSH2 0x53C JUMP JUMPDEST JUMPDEST PUSH0 PUSH2 0x901 DUP7 DUP3 DUP8 ADD PUSH2 0x738 JUMP JUMPDEST SWAP4 POP POP PUSH1 0x20 PUSH2 0x912 DUP7 DUP3 DUP8 ADD PUSH2 0x738 JUMP JUMPDEST SWAP3 POP POP PUSH1 0x40 PUSH2 0x923 DUP7 DUP3 DUP8 ADD PUSH2 0x8C9 JUMP JUMPDEST SWAP2 POP POP SWAP3 POP SWAP3 POP SWAP3 JUMP JUMPDEST PUSH0 DUP1 PUSH1 0x40 DUP4 DUP6 SUB SLT ISZERO PUSH2 0x943 JUMPI PUSH2 0x942 PUSH2 0x53C JUMP JUMPDEST JUMPDEST PUSH0 PUSH2 0x950 DUP6 DUP3 DUP7 ADD PUSH2 0x738 JUMP JUMPDEST SWAP3 POP POP PUSH1 0x20 PUSH2 0x961 DUP6 DUP3 DUP7 ADD PUSH2 0x8C9 JUMP JUMPDEST SWAP2 POP POP SWAP3 POP SWAP3 SWAP1 POP JUMP JUMPDEST PUSH0 DUP3 DUP3 MSTORE PUSH1 0x20 DUP3 ADD SWAP1 POP SWAP3 SWAP2 POP POP JUMP JUMPDEST PUSH32 0x52657761726420706F6F6C207468726573686F6C64206E6F74206D6574000000 PUSH0 DUP3 ADD MSTORE POP JUMP JUMPDEST PUSH0 PUSH2 0x9AF PUSH1 0x1D DUP4 PUSH2 0x96B JUMP JUMPDEST SWAP2 POP PUSH2 0x9BA DUP3 PUSH2 0x97B JUMP JUMPDEST PUSH1 0x20 DUP3 ADD SWAP1 POP SWAP2 SWAP1 POP JUMP JUMPDEST PUSH0 PUSH1 0x20 DUP3 ADD SWAP1 POP DUP2 DUP2 SUB PUSH0 DUP4 ADD MSTORE PUSH2 0x9DC DUP2 PUSH2 0x9A3 JUMP JUMPDEST SWAP1 POP SWAP2 SWAP1 POP JUMP JUMPDEST PUSH32 0x4D69736D61746368656420757365727320616E642072657761726473206C656E PUSH0 DUP3 ADD MSTORE PUSH32 0x6774680000000000000000000000000000000000000000000000000000000000 PUSH1 0x20 DUP3 ADD MSTORE POP JUMP JUMPDEST PUSH0 PUSH2 0xA3D PUSH1 0x23 DUP4 PUSH2 0x96B JUMP JUMPDEST SWAP2 POP PUSH2 0xA48 DUP3 PUSH2 0x9E3 JUMP JUMPDEST PUSH1 0x40 DUP3 ADD SWAP1 POP SWAP2 SWAP1 POP JUMP JUMPDEST PUSH0 PUSH1 0x20 DUP3 ADD SWAP1 POP DUP2 DUP2 SUB PUSH0 DUP4 ADD MSTORE PUSH2 0xA6A DUP2 PUSH2 0xA31 JUMP JUMPDEST SWAP1 POP SWAP2 SWAP1 POP JUMP JUMPDEST PUSH32 0x4E487B7100000000000000000000000000000000000000000000000000000000 PUSH0 MSTORE PUSH1 0x32 PUSH1 0x4 MSTORE PUSH1 0x24 PUSH0 REVERT JUMPDEST PUSH32 0x4E487B7100000000000000000000000000000000000000000000000000000000 PUSH0 MSTORE PUSH1 0x11 PUSH1 0x4 MSTORE PUSH1 0x24 PUSH0 REVERT JUMPDEST PUSH0 PUSH2 0xAD5 DUP3 PUSH2 0x719 JUMP JUMPDEST SWAP2 POP PUSH32 0xFFFFFFFFFFFFFFFFFFFFFFFFFFFFFFFFFFFFFFFFFFFFFFFFFFFFFFFFFFFFFFFF DUP3 SUB PUSH2 0xB07 JUMPI PUSH2 0xB06 PUSH2 0xA9E JUMP JUMPDEST JUMPDEST PUSH1 0x1 DUP3 ADD SWAP1 POP SWAP2 SWAP1 POP JUMP JUMPDEST PUSH0 PUSH2 0xB1C DUP3 PUSH2 0x719 JUMP JUMPDEST SWAP2 POP PUSH2 0xB27 DUP4 PUSH2 0x719 JUMP JUMPDEST SWAP3 POP DUP3 DUP3 SUB SWAP1 POP DUP2 DUP2 GT ISZERO PUSH2 0xB3F JUMPI PUSH2 0xB3E PUSH2 0xA9E JUMP JUMPDEST JUMPDEST SWAP3 SWAP2 POP POP JUMP JUMPDEST PUSH0 DUP2 MLOAD SWAP1 POP SWAP2 SWAP1 POP JUMP JUMPDEST PUSH0 DUP3 DUP3 MSTORE PUSH1 0x20 DUP3 ADD SWAP1 POP SWAP3 SWAP2 POP POP JUMP JUMPDEST PUSH0 DUP2 SWAP1 POP PUSH1 0x20 DUP3 ADD SWAP1 POP SWAP2 SWAP1 POP JUMP JUMPDEST PUSH2 0xB77 DUP2 PUSH2 0x61E JUMP JUMPDEST DUP3 MSTORE POP POP JUMP JUMPDEST PUSH0 PUSH2 0xB88 DUP4 DUP4 PUSH2 0xB6E JUMP JUMPDEST PUSH1 0x20 DUP4 ADD SWAP1 POP SWAP3 SWAP2 POP POP JUMP JUMPDEST PUSH0 PUSH1 0x20 DUP3 ADD SWAP1 POP SWAP2 SWAP1 POP JUMP JUMPDEST PUSH0 PUSH2 0xBAA DUP3 PUSH2 0xB45 JUMP JUMPDEST PUSH2 0xBB4 DUP2 DUP6 PUSH2 0xB4F JUMP JUMPDEST SWAP4 POP PUSH2 0xBBF DUP4 PUSH2 0xB5F JUMP JUMPDEST DUP1 PUSH0 JUMPDEST DUP4 DUP2 LT ISZERO PUSH2 0xBEF JUMPI DUP2 MLOAD PUSH2 0xBD6 DUP9 DUP3 PUSH2 0xB7D JUMP JUMPDEST SWAP8 POP PUSH2 0xBE1 DUP4 PUSH2 0xB94 JUMP JUMPDEST SWAP3 POP POP PUSH1 0x1 DUP2 ADD SWAP1 POP PUSH2 0xBC2 JUMP JUMPDEST POP DUP6 SWAP4 POP POP POP POP SWAP3 SWAP2 POP POP JUMP JUMPDEST PUSH0 DUP2 MLOAD SWAP1 POP SWAP2 SWAP1 POP JUMP JUMPDEST PUSH0 DUP3 DUP3 MSTORE PUSH1 0x20 DUP3 ADD SWAP1 POP SWAP3 SWAP2 POP POP JUMP JUMPDEST PUSH0 DUP2 SWAP1 POP PUSH1 0x20 DUP3 ADD SWAP1 POP SWAP2 SWAP1 POP JUMP JUMPDEST PUSH2 0xC2E DUP2 PUSH2 0x719 JUMP JUMPDEST DUP3 MSTORE POP POP JUMP JUMPDEST PUSH0 PUSH2 0xC3F DUP4 DUP4 PUSH2 0xC25 JUMP JUMPDEST PUSH1 0x20 DUP4 ADD SWAP1 POP SWAP3 SWAP2 POP POP JUMP JUMPDEST PUSH0 PUSH1 0x20 DUP3 ADD SWAP1 POP SWAP2 SWAP1 POP JUMP JUMPDEST PUSH0 PUSH2 0xC61 DUP3 PUSH2 0xBFC JUMP JUMPDEST PUSH2 0xC6B DUP2 DUP6 PUSH2 0xC06 JUMP JUMPDEST SWAP4 POP PUSH2 0xC76 DUP4 PUSH2 0xC16 JUMP JUMPDEST DUP1 PUSH0 JUMPDEST DUP4 DUP2 LT ISZERO PUSH2 0xCA6 JUMPI DUP2 MLOAD PUSH2 0xC8D DUP9 DUP3 PUSH2 0xC34 JUMP JUMPDEST SWAP8 POP PUSH2 0xC98 DUP4 PUSH2 0xC4B JUMP JUMPDEST SWAP3 POP POP PUSH1 0x1 DUP2 ADD SWAP1 POP PUSH2 0xC79 JUMP JUMPDEST POP DUP6 SWAP4 POP POP POP POP SWAP3 SWAP2 POP POP JUMP JUMPDEST PUSH0 PUSH1 0x40 DUP3 ADD SWAP1 POP DUP2 DUP2 SUB PUSH0 DUP4 ADD MSTORE PUSH2 0xCCB DUP2 DUP6 PUSH2 0xBA0 JUMP JUMPDEST SWAP1 POP DUP2 DUP2 SUB PUSH1 0x20 DUP4 ADD MSTORE PUSH2 0xCDF DUP2 DUP5 PUSH2 0xC57 JUMP JUMPDEST SWAP1 POP SWAP4 SWAP3 POP POP POP JUMP JUMPDEST PUSH0 PUSH2 0xCF2 DUP3 PUSH2 0x719 JUMP JUMPDEST SWAP2 POP PUSH2 0xCFD DUP4 PUSH2 0x719 JUMP JUMPDEST SWAP3 POP DUP3 DUP3 MUL PUSH2 0xD0B DUP2 PUSH2 0x719 JUMP JUMPDEST SWAP2 POP DUP3 DUP3 DIV DUP5 EQ DUP4 ISZERO OR PUSH2 0xD22 JUMPI PUSH2 0xD21 PUSH2 0xA9E JUMP JUMPDEST JUMPDEST POP SWAP3 SWAP2 POP POP JUMP JUMPDEST PUSH32 0x4E487B7100000000000000000000000000000000000000000000000000000000 PUSH0 MSTORE PUSH1 0x12 PUSH1 0x4 MSTORE PUSH1 0x24 PUSH0 REVERT JUMPDEST PUSH0 PUSH2 0xD60 DUP3 PUSH2 0x719 JUMP JUMPDEST SWAP2 POP PUSH2 0xD6B DUP4 PUSH2 0x719 JUMP JUMPDEST SWAP3 POP DUP3 PUSH2 0xD7B JUMPI PUSH2 0xD7A PUSH2 0xD29 JUMP JUMPDEST JUMPDEST DUP3 DUP3 DIV SWAP1 POP SWAP3 SWAP2 POP POP JUMP JUMPDEST PUSH0 PUSH2 0xD90 DUP3 PUSH2 0x719 JUMP JUMPDEST SWAP2 POP PUSH2 0xD9B DUP4 PUSH2 0x719 JUMP JUMPDEST SWAP3 POP DUP3 DUP3 ADD SWAP1 POP DUP1 DUP3 GT ISZERO PUSH2 0xDB3 JUMPI PUSH2 0xDB2 PUSH2 0xA9E JUMP JUMPDEST JUMPDEST SWAP3 SWAP2 POP POP JUMP JUMPDEST PUSH0 PUSH1 0x80 DUP3 ADD SWAP1 POP PUSH2 0xDCC PUSH0 DUP4 ADD DUP8 PUSH2 0x87F JUMP JUMPDEST PUSH2 0xDD9 PUSH1 0x20 DUP4 ADD DUP7 PUSH2 0x87F JUMP JUMPDEST PUSH2 0xDE6 PUSH1 0x40 DUP4 ADD DUP6 PUSH2 0x87F JUMP JUMPDEST PUSH2 0xDF3 PUSH1 0x60 DUP4 ADD DUP5 PUSH2 0x87F JUMP JUMPDEST SWAP6 SWAP5 POP POP POP POP POP JUMP INVALID LOG2 PUSH5 0x6970667358 0x22 SLT KECCAK256 ORIGIN SIGNEXTEND 0xC0 0xE4 LT ADDMOD PUSH3 0xE8B921 GT CALLER ADDRESS SSTORE 0xB5 NUMBER DUP8 PUSH7 0xEFCC52007ECFF8 0xDA 0xB1 PUSH14 0xD96CEBA864736F6C634300081500 CALLER "
				},
				"gasEstimates": {
					"creation": {
						"codeDepositCost": "726800",
						"executionCost": "infinite",
						"totalCost": "infinite"
					},
					"external": {
						"adminWallet()": "2528",
						"calculateFees(uint256,uint8)": "infinite",
						"distributeFees(uint256,uint256,uint8)": "infinite",
						"distributeRewards(address[],uint256[])": "infinite",
						"rewardPool()": "2425",
						"threshold()": "2470",
						"treasuryManagerWallet()": "2574"
					}
				},
				"methodIdentifiers": {
					"adminWallet()": "36b19cd7",
					"calculateFees(uint256,uint8)": "dc03d932",
					"distributeFees(uint256,uint256,uint8)": "7cc2a0a7",
					"distributeRewards(address[],uint256[])": "143ba4f3",
					"rewardPool()": "66666aa9",
					"threshold()": "42cde4e8",
					"treasuryManagerWallet()": "ffe9573a"
				}
			},
			"storageLayout": {
				"storage": [
					{
						"astId": 3,
						"contract": "contracts/RoninP2PFeeAndRewardDistribution.sol:RoninP2PFeeAndRewardDistribution",
						"label": "adminWallet",
						"offset": 0,
						"slot": "0",
						"type": "t_address"
					},
					{
						"astId": 5,
						"contract": "contracts/RoninP2PFeeAndRewardDistribution.sol:RoninP2PFeeAndRewardDistribution",
						"label": "treasuryManagerWallet",
						"offset": 0,
						"slot": "1",
						"type": "t_address"
					},
					{
						"astId": 7,
						"contract": "contracts/RoninP2PFeeAndRewardDistribution.sol:RoninP2PFeeAndRewardDistribution",
						"label": "rewardPool",
						"offset": 0,
						"slot": "2",
						"type": "t_uint256"
					},
					{
						"astId": 10,
						"contract": "contracts/RoninP2PFeeAndRewardDistribution.sol:RoninP2PFeeAndRewardDistribution",
						"label": "threshold",
						"offset": 0,
						"slot": "3",
						"type": "t_uint256"
					}
				],
				"types": {
					"t_address": {
						"encoding": "inplace",
						"label": "address",
						"numberOfBytes": "20"
					},
					"t_uint256": {
						"encoding": "inplace",
						"label": "uint256",
						"numberOfBytes": "32"
					}
				}
			},
			"userdoc": {
				"kind": "user",
				"methods": {},
				"version": 1
			}
		}
	}
}