{
	"contracts/RoninP2PFeeAndRewardDistribution.sol": {
		"RoninP2PFeeAndRewardDistribution": {
			"abi": [
				{
					"inputs": [
						{
							"internalType": "address",
							"name": "_adminWallet",
							"type": "address"
						},
						{
							"internalType": "address",
							"name": "_treasuryManagerWallet",
							"type": "address"
						}
					],
					"stateMutability": "nonpayable",
					"type": "constructor"
				},
				{
					"anonymous": false,
					"inputs": [
						{
							"indexed": false,
							"internalType": "uint256",
							"name": "agreementId",
							"type": "uint256"
						},
						{
							"indexed": false,
							"internalType": "uint256",
							"name": "adminFee",
							"type": "uint256"
						},
						{
							"indexed": false,
							"internalType": "uint256",
							"name": "treasuryFee",
							"type": "uint256"
						},
						{
							"indexed": false,
							"internalType": "uint256",
							"name": "rewardPoolFee",
							"type": "uint256"
						}
					],
					"name": "FeesDistributed",
					"type": "event"
				},
				{
					"anonymous": false,
					"inputs": [
						{
							"indexed": false,
							"internalType": "address[]",
							"name": "topUsers",
							"type": "address[]"
						},
						{
							"indexed": false,
							"internalType": "uint256[]",
							"name": "rewards",
							"type": "uint256[]"
						}
					],
					"name": "RewardsDistributed",
					"type": "event"
				},
				{
					"inputs": [],
					"name": "adminWallet",
					"outputs": [
						{
							"internalType": "address",
							"name": "",
							"type": "address"
						}
					],
					"stateMutability": "view",
					"type": "function"
				},
				{
					"inputs": [
						{
							"internalType": "uint256",
							"name": "floorValue",
							"type": "uint256"
						},
						{
							"internalType": "uint8",
							"name": "rarity",
							"type": "uint8"
						}
					],
					"name": "calculateFees",
					"outputs": [
						{
							"internalType": "uint256",
							"name": "",
							"type": "uint256"
						}
					],
					"stateMutability": "pure",
					"type": "function"
				},
				{
					"inputs": [
						{
							"internalType": "uint256",
							"name": "agreementId",
							"type": "uint256"
						},
						{
							"internalType": "uint256",
							"name": "floorValue",
							"type": "uint256"
						},
						{
							"internalType": "uint8",
							"name": "rarity",
							"type": "uint8"
						}
					],
					"name": "distributeFees",
					"outputs": [],
					"stateMutability": "nonpayable",
					"type": "function"
				},
				{
					"inputs": [
						{
							"internalType": "address[]",
							"name": "topUsers",
							"type": "address[]"
						},
						{
							"internalType": "uint256[]",
							"name": "rewards",
							"type": "uint256[]"
						}
					],
					"name": "distributeRewards",
					"outputs": [],
					"stateMutability": "nonpayable",
					"type": "function"
				},
				{
					"inputs": [],
					"name": "rewardPool",
					"outputs": [
						{
							"internalType": "uint256",
							"name": "",
							"type": "uint256"
						}
					],
					"stateMutability": "view",
					"type": "function"
				},
				{
					"inputs": [],
					"name": "threshold",
					"outputs": [
						{
							"internalType": "uint256",
							"name": "",
							"type": "uint256"
						}
					],
					"stateMutability": "view",
					"type": "function"
				},
				{
					"inputs": [],
					"name": "treasuryManagerWallet",
					"outputs": [
						{
							"internalType": "address",
							"name": "",
							"type": "address"
						}
					],
					"stateMutability": "view",
					"type": "function"
				}
			],
			"devdoc": {
				"kind": "dev",
				"methods": {},
				"version": 1
			},
			"evm": {
				"assembly": "    /* \"contracts/RoninP2PFeeAndRewardDistribution.sol\":57:8922  contract RoninP2PFeeAndRewardDistribution {... */\n  mstore(0x40, 0x80)\n    /* \"contracts/RoninP2PFeeAndRewardDistribution.sol\":261:271  0.05 ether */\n  0xb1a2bc2ec50000\n    /* \"contracts/RoninP2PFeeAndRewardDistribution.sol\":234:271  uint256 public threshold = 0.05 ether */\n  0x03\n  sstore\n    /* \"contracts/RoninP2PFeeAndRewardDistribution.sol\":518:791  constructor(address _adminWallet, address _treasuryManagerWallet) {... */\n  callvalue\n  dup1\n  iszero\n  tag_1\n  jumpi\n  0x00\n  dup1\n  revert\ntag_1:\n  pop\n  mload(0x40)\n  sub(codesize, bytecodeSize)\n  dup1\n  bytecodeSize\n  dup4\n  codecopy\n  dup2\n  dup2\n  add\n  0x40\n  mstore\n  dup2\n  add\n  swap1\n  tag_2\n  swap2\n  swap1\n  tag_3\n  jump\t// in\ntag_2:\n    /* \"contracts/RoninP2PFeeAndRewardDistribution.sol\":636:648  _adminWallet */\n  dup2\n    /* \"contracts/RoninP2PFeeAndRewardDistribution.sol\":622:633  adminWallet */\n  0x00\n  dup1\n    /* \"contracts/RoninP2PFeeAndRewardDistribution.sol\":622:648  adminWallet = _adminWallet */\n  0x0100\n  exp\n  dup2\n  sload\n  dup2\n  0xffffffffffffffffffffffffffffffffffffffff\n  mul\n  not\n  and\n  swap1\n  dup4\n  0xffffffffffffffffffffffffffffffffffffffff\n  and\n  mul\n  or\n  swap1\n  sstore\n  pop\n    /* \"contracts/RoninP2PFeeAndRewardDistribution.sol\":718:740  _treasuryManagerWallet */\n  dup1\n    /* \"contracts/RoninP2PFeeAndRewardDistribution.sol\":694:715  treasuryManagerWallet */\n  0x01\n  0x00\n    /* \"contracts/RoninP2PFeeAndRewardDistribution.sol\":694:740  treasuryManagerWallet = _treasuryManagerWallet */\n  0x0100\n  exp\n  dup2\n  sload\n  dup2\n  0xffffffffffffffffffffffffffffffffffffffff\n  mul\n  not\n  and\n  swap1\n  dup4\n  0xffffffffffffffffffffffffffffffffffffffff\n  and\n  mul\n  or\n  swap1\n  sstore\n  pop\n    /* \"contracts/RoninP2PFeeAndRewardDistribution.sol\":518:791  constructor(address _adminWallet, address _treasuryManagerWallet) {... */\n  pop\n  pop\n    /* \"contracts/RoninP2PFeeAndRewardDistribution.sol\":57:8922  contract RoninP2PFeeAndRewardDistribution {... */\n  jump(tag_6)\n    /* \"#utility.yul\":88:205   */\ntag_8:\n    /* \"#utility.yul\":197:198   */\n  0x00\n    /* \"#utility.yul\":194:195   */\n  dup1\n    /* \"#utility.yul\":187:199   */\n  revert\n    /* \"#utility.yul\":334:460   */\ntag_10:\n    /* \"#utility.yul\":371:378   */\n  0x00\n    /* \"#utility.yul\":411:453   */\n  0xffffffffffffffffffffffffffffffffffffffff\n    /* \"#utility.yul\":404:409   */\n  dup3\n    /* \"#utility.yul\":400:454   */\n  and\n    /* \"#utility.yul\":389:454   */\n  swap1\n  pop\n    /* \"#utility.yul\":334:460   */\n  swap2\n  swap1\n  pop\n  jump\t// out\n    /* \"#utility.yul\":466:562   */\ntag_11:\n    /* \"#utility.yul\":503:510   */\n  0x00\n    /* \"#utility.yul\":532:556   */\n  tag_20\n    /* \"#utility.yul\":550:555   */\n  dup3\n    /* \"#utility.yul\":532:556   */\n  tag_10\n  jump\t// in\ntag_20:\n    /* \"#utility.yul\":521:556   */\n  swap1\n  pop\n    /* \"#utility.yul\":466:562   */\n  swap2\n  swap1\n  pop\n  jump\t// out\n    /* \"#utility.yul\":568:690   */\ntag_12:\n    /* \"#utility.yul\":641:665   */\n  tag_22\n    /* \"#utility.yul\":659:664   */\n  dup2\n    /* \"#utility.yul\":641:665   */\n  tag_11\n  jump\t// in\ntag_22:\n    /* \"#utility.yul\":634:639   */\n  dup2\n    /* \"#utility.yul\":631:666   */\n  eq\n    /* \"#utility.yul\":621:684   */\n  tag_23\n  jumpi\n    /* \"#utility.yul\":680:681   */\n  0x00\n    /* \"#utility.yul\":677:678   */\n  dup1\n    /* \"#utility.yul\":670:682   */\n  revert\n    /* \"#utility.yul\":621:684   */\ntag_23:\n    /* \"#utility.yul\":568:690   */\n  pop\n  jump\t// out\n    /* \"#utility.yul\":696:839   */\ntag_13:\n    /* \"#utility.yul\":753:758   */\n  0x00\n    /* \"#utility.yul\":784:790   */\n  dup2\n    /* \"#utility.yul\":778:791   */\n  mload\n    /* \"#utility.yul\":769:791   */\n  swap1\n  pop\n    /* \"#utility.yul\":800:833   */\n  tag_25\n    /* \"#utility.yul\":827:832   */\n  dup2\n    /* \"#utility.yul\":800:833   */\n  tag_12\n  jump\t// in\ntag_25:\n    /* \"#utility.yul\":696:839   */\n  swap3\n  swap2\n  pop\n  pop\n  jump\t// out\n    /* \"#utility.yul\":845:1352   */\ntag_3:\n    /* \"#utility.yul\":924:930   */\n  0x00\n    /* \"#utility.yul\":932:938   */\n  dup1\n    /* \"#utility.yul\":981:983   */\n  0x40\n    /* \"#utility.yul\":969:978   */\n  dup4\n    /* \"#utility.yul\":960:967   */\n  dup6\n    /* \"#utility.yul\":956:979   */\n  sub\n    /* \"#utility.yul\":952:984   */\n  slt\n    /* \"#utility.yul\":949:1068   */\n  iszero\n  tag_27\n  jumpi\n    /* \"#utility.yul\":987:1066   */\n  tag_28\n  tag_8\n  jump\t// in\ntag_28:\n    /* \"#utility.yul\":949:1068   */\ntag_27:\n    /* \"#utility.yul\":1107:1108   */\n  0x00\n    /* \"#utility.yul\":1132:1196   */\n  tag_29\n    /* \"#utility.yul\":1188:1195   */\n  dup6\n    /* \"#utility.yul\":1179:1185   */\n  dup3\n    /* \"#utility.yul\":1168:1177   */\n  dup7\n    /* \"#utility.yul\":1164:1186   */\n  add\n    /* \"#utility.yul\":1132:1196   */\n  tag_13\n  jump\t// in\ntag_29:\n    /* \"#utility.yul\":1122:1196   */\n  swap3\n  pop\n    /* \"#utility.yul\":1078:1206   */\n  pop\n    /* \"#utility.yul\":1245:1247   */\n  0x20\n    /* \"#utility.yul\":1271:1335   */\n  tag_30\n    /* \"#utility.yul\":1327:1334   */\n  dup6\n    /* \"#utility.yul\":1318:1324   */\n  dup3\n    /* \"#utility.yul\":1307:1316   */\n  dup7\n    /* \"#utility.yul\":1303:1325   */\n  add\n    /* \"#utility.yul\":1271:1335   */\n  tag_13\n  jump\t// in\ntag_30:\n    /* \"#utility.yul\":1261:1335   */\n  swap2\n  pop\n    /* \"#utility.yul\":1216:1345   */\n  pop\n    /* \"#utility.yul\":845:1352   */\n  swap3\n  pop\n  swap3\n  swap1\n  pop\n  jump\t// out\n    /* \"contracts/RoninP2PFeeAndRewardDistribution.sol\":57:8922  contract RoninP2PFeeAndRewardDistribution {... */\ntag_6:\n  dataSize(sub_0)\n  dup1\n  dataOffset(sub_0)\n  0x00\n  codecopy\n  0x00\n  return\nstop\n\nsub_0: assembly {\n        /* \"contracts/RoninP2PFeeAndRewardDistribution.sol\":57:8922  contract RoninP2PFeeAndRewardDistribution {... */\n      mstore(0x40, 0x80)\n      callvalue\n      dup1\n      iszero\n      tag_1\n      jumpi\n      0x00\n      dup1\n      revert\n    tag_1:\n      pop\n      jumpi(tag_2, lt(calldatasize, 0x04))\n      shr(0xe0, calldataload(0x00))\n      dup1\n      0x66666aa9\n      gt\n      tag_10\n      jumpi\n      dup1\n      0x66666aa9\n      eq\n      tag_6\n      jumpi\n      dup1\n      0x7cc2a0a7\n      eq\n      tag_7\n      jumpi\n      dup1\n      0xdc03d932\n      eq\n      tag_8\n      jumpi\n      dup1\n      0xffe9573a\n      eq\n      tag_9\n      jumpi\n      jump(tag_2)\n    tag_10:\n      dup1\n      0x143ba4f3\n      eq\n      tag_3\n      jumpi\n      dup1\n      0x36b19cd7\n      eq\n      tag_4\n      jumpi\n      dup1\n      0x42cde4e8\n      eq\n      tag_5\n      jumpi\n    tag_2:\n      0x00\n      dup1\n      revert\n        /* \"contracts/RoninP2PFeeAndRewardDistribution.sol\":5845:8600  function distributeRewards(address[] memory topUsers, uint256[] memory rewards) public {... */\n    tag_3:\n      tag_11\n      0x04\n      dup1\n      calldatasize\n      sub\n      dup2\n      add\n      swap1\n      tag_12\n      swap2\n      swap1\n      tag_13\n      jump\t// in\n    tag_12:\n      tag_14\n      jump\t// in\n    tag_11:\n      stop\n        /* \"contracts/RoninP2PFeeAndRewardDistribution.sol\":105:131  address public adminWallet */\n    tag_4:\n      tag_15\n      tag_16\n      jump\t// in\n    tag_15:\n      mload(0x40)\n      tag_17\n      swap2\n      swap1\n      tag_18\n      jump\t// in\n    tag_17:\n      mload(0x40)\n      dup1\n      swap2\n      sub\n      swap1\n      return\n        /* \"contracts/RoninP2PFeeAndRewardDistribution.sol\":234:271  uint256 public threshold = 0.05 ether */\n    tag_5:\n      tag_19\n      tag_20\n      jump\t// in\n    tag_19:\n      mload(0x40)\n      tag_21\n      swap2\n      swap1\n      tag_22\n      jump\t// in\n    tag_21:\n      mload(0x40)\n      dup1\n      swap2\n      sub\n      swap1\n      return\n        /* \"contracts/RoninP2PFeeAndRewardDistribution.sol\":191:216  uint256 public rewardPool */\n    tag_6:\n      tag_23\n      tag_24\n      jump\t// in\n    tag_23:\n      mload(0x40)\n      tag_25\n      swap2\n      swap1\n      tag_22\n      jump\t// in\n    tag_25:\n      mload(0x40)\n      dup1\n      swap2\n      sub\n      swap1\n      return\n        /* \"contracts/RoninP2PFeeAndRewardDistribution.sol\":3114:5587  function distributeFees(uint256 agreementId, uint256 floorValue, uint8 rarity) public {... */\n    tag_7:\n      tag_26\n      0x04\n      dup1\n      calldatasize\n      sub\n      dup2\n      add\n      swap1\n      tag_27\n      swap2\n      swap1\n      tag_28\n      jump\t// in\n    tag_27:\n      tag_29\n      jump\t// in\n    tag_26:\n      stop\n        /* \"contracts/RoninP2PFeeAndRewardDistribution.sol\":845:2928  function calculateFees(uint256 floorValue, uint8 rarity) public pure returns (uint256) {... */\n    tag_8:\n      tag_30\n      0x04\n      dup1\n      calldatasize\n      sub\n      dup2\n      add\n      swap1\n      tag_31\n      swap2\n      swap1\n      tag_32\n      jump\t// in\n    tag_31:\n      tag_33\n      jump\t// in\n    tag_30:\n      mload(0x40)\n      tag_34\n      swap2\n      swap1\n      tag_22\n      jump\t// in\n    tag_34:\n      mload(0x40)\n      dup1\n      swap2\n      sub\n      swap1\n      return\n        /* \"contracts/RoninP2PFeeAndRewardDistribution.sol\":141:177  address public treasuryManagerWallet */\n    tag_9:\n      tag_35\n      tag_36\n      jump\t// in\n    tag_35:\n      mload(0x40)\n      tag_37\n      swap2\n      swap1\n      tag_18\n      jump\t// in\n    tag_37:\n      mload(0x40)\n      dup1\n      swap2\n      sub\n      swap1\n      return\n        /* \"contracts/RoninP2PFeeAndRewardDistribution.sol\":5845:8600  function distributeRewards(address[] memory topUsers, uint256[] memory rewards) public {... */\n    tag_14:\n        /* \"contracts/RoninP2PFeeAndRewardDistribution.sol\":6220:6229  threshold */\n      sload(0x03)\n        /* \"contracts/RoninP2PFeeAndRewardDistribution.sol\":6206:6216  rewardPool */\n      sload(0x02)\n        /* \"contracts/RoninP2PFeeAndRewardDistribution.sol\":6206:6229  rewardPool >= threshold */\n      lt\n      iszero\n        /* \"contracts/RoninP2PFeeAndRewardDistribution.sol\":6198:6263  require(rewardPool >= threshold, \"Reward pool threshold not met\") */\n      tag_39\n      jumpi\n      mload(0x40)\n      0x08c379a000000000000000000000000000000000000000000000000000000000\n      dup2\n      mstore\n      0x04\n      add\n      tag_40\n      swap1\n      tag_41\n      jump\t// in\n    tag_40:\n      mload(0x40)\n      dup1\n      swap2\n      sub\n      swap1\n      revert\n    tag_39:\n        /* \"contracts/RoninP2PFeeAndRewardDistribution.sol\":6564:6571  rewards */\n      dup1\n        /* \"contracts/RoninP2PFeeAndRewardDistribution.sol\":6564:6578  rewards.length */\n      mload\n        /* \"contracts/RoninP2PFeeAndRewardDistribution.sol\":6545:6553  topUsers */\n      dup3\n        /* \"contracts/RoninP2PFeeAndRewardDistribution.sol\":6545:6560  topUsers.length */\n      mload\n        /* \"contracts/RoninP2PFeeAndRewardDistribution.sol\":6545:6578  topUsers.length == rewards.length */\n      eq\n        /* \"contracts/RoninP2PFeeAndRewardDistribution.sol\":6537:6618  require(topUsers.length == rewards.length, \"Mismatched users and rewards length\") */\n      tag_42\n      jumpi\n      mload(0x40)\n      0x08c379a000000000000000000000000000000000000000000000000000000000\n      dup2\n      mstore\n      0x04\n      add\n      tag_43\n      swap1\n      tag_44\n      jump\t// in\n    tag_43:\n      mload(0x40)\n      dup1\n      swap2\n      sub\n      swap1\n      revert\n    tag_42:\n        /* \"contracts/RoninP2PFeeAndRewardDistribution.sol\":6905:6914  uint256 i */\n      0x00\n        /* \"contracts/RoninP2PFeeAndRewardDistribution.sol\":6900:7584  for (uint256 i = 0; i < topUsers.length; i++) {... */\n    tag_45:\n        /* \"contracts/RoninP2PFeeAndRewardDistribution.sol\":6924:6932  topUsers */\n      dup3\n        /* \"contracts/RoninP2PFeeAndRewardDistribution.sol\":6924:6939  topUsers.length */\n      mload\n        /* \"contracts/RoninP2PFeeAndRewardDistribution.sol\":6920:6921  i */\n      dup2\n        /* \"contracts/RoninP2PFeeAndRewardDistribution.sol\":6920:6939  i < topUsers.length */\n      lt\n        /* \"contracts/RoninP2PFeeAndRewardDistribution.sol\":6900:7584  for (uint256 i = 0; i < topUsers.length; i++) {... */\n      iszero\n      tag_46\n      jumpi\n        /* \"contracts/RoninP2PFeeAndRewardDistribution.sol\":7248:7256  topUsers */\n      dup3\n        /* \"contracts/RoninP2PFeeAndRewardDistribution.sol\":7257:7258  i */\n      dup2\n        /* \"contracts/RoninP2PFeeAndRewardDistribution.sol\":7248:7259  topUsers[i] */\n      dup2\n      mload\n      dup2\n      lt\n      tag_48\n      jumpi\n      tag_49\n      tag_50\n      jump\t// in\n    tag_49:\n    tag_48:\n      0x20\n      mul\n      0x20\n      add\n      add\n      mload\n        /* \"contracts/RoninP2PFeeAndRewardDistribution.sol\":7240:7269  payable(topUsers[i]).transfer */\n      0xffffffffffffffffffffffffffffffffffffffff\n      and\n        /* \"contracts/RoninP2PFeeAndRewardDistribution.sol\":7240:7281  payable(topUsers[i]).transfer(rewards[i]) */\n      0x08fc\n        /* \"contracts/RoninP2PFeeAndRewardDistribution.sol\":7270:7277  rewards */\n      dup4\n        /* \"contracts/RoninP2PFeeAndRewardDistribution.sol\":7278:7279  i */\n      dup4\n        /* \"contracts/RoninP2PFeeAndRewardDistribution.sol\":7270:7280  rewards[i] */\n      dup2\n      mload\n      dup2\n      lt\n      tag_51\n      jumpi\n      tag_52\n      tag_50\n      jump\t// in\n    tag_52:\n    tag_51:\n      0x20\n      mul\n      0x20\n      add\n      add\n      mload\n        /* \"contracts/RoninP2PFeeAndRewardDistribution.sol\":7240:7281  payable(topUsers[i]).transfer(rewards[i]) */\n      swap1\n      dup2\n      iszero\n      mul\n      swap1\n      mload(0x40)\n      0x00\n      mload(0x40)\n      dup1\n      dup4\n      sub\n      dup2\n      dup6\n      dup9\n      dup9\n      call\n      swap4\n      pop\n      pop\n      pop\n      pop\n      iszero\n      dup1\n      iszero\n      tag_54\n      jumpi\n      returndatasize\n      0x00\n      dup1\n      returndatacopy\n      revert(0x00, returndatasize)\n    tag_54:\n      pop\n        /* \"contracts/RoninP2PFeeAndRewardDistribution.sol\":6941:6944  i++ */\n      dup1\n      dup1\n      0x01\n      add\n      swap2\n      pop\n      pop\n        /* \"contracts/RoninP2PFeeAndRewardDistribution.sol\":6900:7584  for (uint256 i = 0; i < topUsers.length; i++) {... */\n      jump(tag_45)\n    tag_46:\n      pop\n        /* \"contracts/RoninP2PFeeAndRewardDistribution.sol\":7908:7917  threshold */\n      sload(0x03)\n        /* \"contracts/RoninP2PFeeAndRewardDistribution.sol\":7894:7904  rewardPool */\n      0x02\n      0x00\n        /* \"contracts/RoninP2PFeeAndRewardDistribution.sol\":7894:7917  rewardPool -= threshold */\n      dup3\n      dup3\n      sload\n      tag_55\n      swap2\n      swap1\n      tag_56\n      jump\t// in\n    tag_55:\n      swap3\n      pop\n      pop\n      dup2\n      swap1\n      sstore\n      pop\n        /* \"contracts/RoninP2PFeeAndRewardDistribution.sol\":8240:8277  RewardsDistributed(topUsers, rewards) */\n      0xe69d325558610ba73c441901deb46d7f251108348dc5dc9447e8866774c12edc\n        /* \"contracts/RoninP2PFeeAndRewardDistribution.sol\":8259:8267  topUsers */\n      dup3\n        /* \"contracts/RoninP2PFeeAndRewardDistribution.sol\":8269:8276  rewards */\n      dup3\n        /* \"contracts/RoninP2PFeeAndRewardDistribution.sol\":8240:8277  RewardsDistributed(topUsers, rewards) */\n      mload(0x40)\n      tag_57\n      swap3\n      swap2\n      swap1\n      tag_58\n      jump\t// in\n    tag_57:\n      mload(0x40)\n      dup1\n      swap2\n      sub\n      swap1\n      log1\n        /* \"contracts/RoninP2PFeeAndRewardDistribution.sol\":5845:8600  function distributeRewards(address[] memory topUsers, uint256[] memory rewards) public {... */\n      pop\n      pop\n      jump\t// out\n        /* \"contracts/RoninP2PFeeAndRewardDistribution.sol\":105:131  address public adminWallet */\n    tag_16:\n      0x00\n      dup1\n      sload\n      swap1\n      0x0100\n      exp\n      swap1\n      div\n      0xffffffffffffffffffffffffffffffffffffffff\n      and\n      dup2\n      jump\t// out\n        /* \"contracts/RoninP2PFeeAndRewardDistribution.sol\":234:271  uint256 public threshold = 0.05 ether */\n    tag_20:\n      sload(0x03)\n      dup2\n      jump\t// out\n        /* \"contracts/RoninP2PFeeAndRewardDistribution.sol\":191:216  uint256 public rewardPool */\n    tag_24:\n      sload(0x02)\n      dup2\n      jump\t// out\n        /* \"contracts/RoninP2PFeeAndRewardDistribution.sol\":3114:5587  function distributeFees(uint256 agreementId, uint256 floorValue, uint8 rarity) public {... */\n    tag_29:\n        /* \"contracts/RoninP2PFeeAndRewardDistribution.sol\":3394:3405  uint256 fee */\n      0x00\n        /* \"contracts/RoninP2PFeeAndRewardDistribution.sol\":3408:3441  calculateFees(floorValue, rarity) */\n      tag_60\n        /* \"contracts/RoninP2PFeeAndRewardDistribution.sol\":3422:3432  floorValue */\n      dup4\n        /* \"contracts/RoninP2PFeeAndRewardDistribution.sol\":3434:3440  rarity */\n      dup4\n        /* \"contracts/RoninP2PFeeAndRewardDistribution.sol\":3408:3421  calculateFees */\n      tag_33\n        /* \"contracts/RoninP2PFeeAndRewardDistribution.sol\":3408:3441  calculateFees(floorValue, rarity) */\n      jump\t// in\n    tag_60:\n        /* \"contracts/RoninP2PFeeAndRewardDistribution.sol\":3394:3441  uint256 fee = calculateFees(floorValue, rarity) */\n      swap1\n      pop\n        /* \"contracts/RoninP2PFeeAndRewardDistribution.sol\":3643:3659  uint256 adminFee */\n      0x00\n        /* \"contracts/RoninP2PFeeAndRewardDistribution.sol\":3676:3680  1000 */\n      0x03e8\n        /* \"contracts/RoninP2PFeeAndRewardDistribution.sol\":3669:3672  475 */\n      0x01db\n        /* \"contracts/RoninP2PFeeAndRewardDistribution.sol\":3663:3666  fee */\n      dup4\n        /* \"contracts/RoninP2PFeeAndRewardDistribution.sol\":3663:3672  fee * 475 */\n      tag_61\n      swap2\n      swap1\n      tag_62\n      jump\t// in\n    tag_61:\n        /* \"contracts/RoninP2PFeeAndRewardDistribution.sol\":3662:3680  (fee * 475) / 1000 */\n      tag_63\n      swap2\n      swap1\n      tag_64\n      jump\t// in\n    tag_63:\n        /* \"contracts/RoninP2PFeeAndRewardDistribution.sol\":3643:3680  uint256 adminFee = (fee * 475) / 1000 */\n      swap1\n      pop\n        /* \"contracts/RoninP2PFeeAndRewardDistribution.sol\":3890:3909  uint256 treasuryFee */\n      0x00\n        /* \"contracts/RoninP2PFeeAndRewardDistribution.sol\":3926:3930  1000 */\n      0x03e8\n        /* \"contracts/RoninP2PFeeAndRewardDistribution.sol\":3919:3922  475 */\n      0x01db\n        /* \"contracts/RoninP2PFeeAndRewardDistribution.sol\":3913:3916  fee */\n      dup5\n        /* \"contracts/RoninP2PFeeAndRewardDistribution.sol\":3913:3922  fee * 475 */\n      tag_65\n      swap2\n      swap1\n      tag_62\n      jump\t// in\n    tag_65:\n        /* \"contracts/RoninP2PFeeAndRewardDistribution.sol\":3912:3930  (fee * 475) / 1000 */\n      tag_66\n      swap2\n      swap1\n      tag_64\n      jump\t// in\n    tag_66:\n        /* \"contracts/RoninP2PFeeAndRewardDistribution.sol\":3890:3930  uint256 treasuryFee = (fee * 475) / 1000 */\n      swap1\n      pop\n        /* \"contracts/RoninP2PFeeAndRewardDistribution.sol\":4148:4169  uint256 rewardPoolFee */\n      0x00\n        /* \"contracts/RoninP2PFeeAndRewardDistribution.sol\":4185:4189  1000 */\n      0x03e8\n        /* \"contracts/RoninP2PFeeAndRewardDistribution.sol\":4179:4181  50 */\n      0x32\n        /* \"contracts/RoninP2PFeeAndRewardDistribution.sol\":4173:4176  fee */\n      dup6\n        /* \"contracts/RoninP2PFeeAndRewardDistribution.sol\":4173:4181  fee * 50 */\n      tag_67\n      swap2\n      swap1\n      tag_62\n      jump\t// in\n    tag_67:\n        /* \"contracts/RoninP2PFeeAndRewardDistribution.sol\":4172:4189  (fee * 50) / 1000 */\n      tag_68\n      swap2\n      swap1\n      tag_64\n      jump\t// in\n    tag_68:\n        /* \"contracts/RoninP2PFeeAndRewardDistribution.sol\":4148:4189  uint256 rewardPoolFee = (fee * 50) / 1000 */\n      swap1\n      pop\n        /* \"contracts/RoninP2PFeeAndRewardDistribution.sol\":4424:4435  adminWallet */\n      0x00\n      dup1\n      sload\n      swap1\n      0x0100\n      exp\n      swap1\n      div\n      0xffffffffffffffffffffffffffffffffffffffff\n      and\n        /* \"contracts/RoninP2PFeeAndRewardDistribution.sol\":4416:4445  payable(adminWallet).transfer */\n      0xffffffffffffffffffffffffffffffffffffffff\n      and\n        /* \"contracts/RoninP2PFeeAndRewardDistribution.sol\":4416:4455  payable(adminWallet).transfer(adminFee) */\n      0x08fc\n        /* \"contracts/RoninP2PFeeAndRewardDistribution.sol\":4446:4454  adminFee */\n      dup5\n        /* \"contracts/RoninP2PFeeAndRewardDistribution.sol\":4416:4455  payable(adminWallet).transfer(adminFee) */\n      swap1\n      dup2\n      iszero\n      mul\n      swap1\n      mload(0x40)\n      0x00\n      mload(0x40)\n      dup1\n      dup4\n      sub\n      dup2\n      dup6\n      dup9\n      dup9\n      call\n      swap4\n      pop\n      pop\n      pop\n      pop\n      iszero\n      dup1\n      iszero\n      tag_70\n      jumpi\n      returndatasize\n      0x00\n      dup1\n      returndatacopy\n      revert(0x00, returndatasize)\n    tag_70:\n      pop\n        /* \"contracts/RoninP2PFeeAndRewardDistribution.sol\":4697:4718  treasuryManagerWallet */\n      0x01\n      0x00\n      swap1\n      sload\n      swap1\n      0x0100\n      exp\n      swap1\n      div\n      0xffffffffffffffffffffffffffffffffffffffff\n      and\n        /* \"contracts/RoninP2PFeeAndRewardDistribution.sol\":4689:4728  payable(treasuryManagerWallet).transfer */\n      0xffffffffffffffffffffffffffffffffffffffff\n      and\n        /* \"contracts/RoninP2PFeeAndRewardDistribution.sol\":4689:4741  payable(treasuryManagerWallet).transfer(treasuryFee) */\n      0x08fc\n        /* \"contracts/RoninP2PFeeAndRewardDistribution.sol\":4729:4740  treasuryFee */\n      dup4\n        /* \"contracts/RoninP2PFeeAndRewardDistribution.sol\":4689:4741  payable(treasuryManagerWallet).transfer(treasuryFee) */\n      swap1\n      dup2\n      iszero\n      mul\n      swap1\n      mload(0x40)\n      0x00\n      mload(0x40)\n      dup1\n      dup4\n      sub\n      dup2\n      dup6\n      dup9\n      dup9\n      call\n      swap4\n      pop\n      pop\n      pop\n      pop\n      iszero\n      dup1\n      iszero\n      tag_72\n      jumpi\n      returndatasize\n      0x00\n      dup1\n      returndatacopy\n      revert(0x00, returndatasize)\n    tag_72:\n      pop\n        /* \"contracts/RoninP2PFeeAndRewardDistribution.sol\":4997:5010  rewardPoolFee */\n      dup1\n        /* \"contracts/RoninP2PFeeAndRewardDistribution.sol\":4983:4993  rewardPool */\n      0x02\n      0x00\n        /* \"contracts/RoninP2PFeeAndRewardDistribution.sol\":4983:5010  rewardPool += rewardPoolFee */\n      dup3\n      dup3\n      sload\n      tag_73\n      swap2\n      swap1\n      tag_74\n      jump\t// in\n    tag_73:\n      swap3\n      pop\n      pop\n      dup2\n      swap1\n      sstore\n      pop\n        /* \"contracts/RoninP2PFeeAndRewardDistribution.sol\":5266:5332  FeesDistributed(agreementId, adminFee, treasuryFee, rewardPoolFee) */\n      0x78490b24a020086d2701460dc169a540280c517bef9cdcd742f751a9099922a3\n        /* \"contracts/RoninP2PFeeAndRewardDistribution.sol\":5282:5293  agreementId */\n      dup8\n        /* \"contracts/RoninP2PFeeAndRewardDistribution.sol\":5295:5303  adminFee */\n      dup5\n        /* \"contracts/RoninP2PFeeAndRewardDistribution.sol\":5305:5316  treasuryFee */\n      dup5\n        /* \"contracts/RoninP2PFeeAndRewardDistribution.sol\":5318:5331  rewardPoolFee */\n      dup5\n        /* \"contracts/RoninP2PFeeAndRewardDistribution.sol\":5266:5332  FeesDistributed(agreementId, adminFee, treasuryFee, rewardPoolFee) */\n      mload(0x40)\n      tag_75\n      swap5\n      swap4\n      swap3\n      swap2\n      swap1\n      tag_76\n      jump\t// in\n    tag_75:\n      mload(0x40)\n      dup1\n      swap2\n      sub\n      swap1\n      log1\n        /* \"contracts/RoninP2PFeeAndRewardDistribution.sol\":3200:5587  {... */\n      pop\n      pop\n      pop\n      pop\n        /* \"contracts/RoninP2PFeeAndRewardDistribution.sol\":3114:5587  function distributeFees(uint256 agreementId, uint256 floorValue, uint8 rarity) public {... */\n      pop\n      pop\n      pop\n      jump\t// out\n        /* \"contracts/RoninP2PFeeAndRewardDistribution.sol\":845:2928  function calculateFees(uint256 floorValue, uint8 rarity) public pure returns (uint256) {... */\n    tag_33:\n        /* \"contracts/RoninP2PFeeAndRewardDistribution.sol\":923:930  uint256 */\n      0x00\n        /* \"contracts/RoninP2PFeeAndRewardDistribution.sol\":994:1015  uint256 feePercentage */\n      dup1\n        /* \"contracts/RoninP2PFeeAndRewardDistribution.sol\":1099:1100  1 */\n      0x01\n        /* \"contracts/RoninP2PFeeAndRewardDistribution.sol\":1089:1095  rarity */\n      dup4\n        /* \"contracts/RoninP2PFeeAndRewardDistribution.sol\":1089:1100  rarity == 1 */\n      0xff\n      and\n      sub\n        /* \"contracts/RoninP2PFeeAndRewardDistribution.sol\":1085:2527  if (rarity == 1) {... */\n      tag_78\n      jumpi\n        /* \"contracts/RoninP2PFeeAndRewardDistribution.sol\":1200:1201  1 */\n      0x01\n        /* \"contracts/RoninP2PFeeAndRewardDistribution.sol\":1184:1201  feePercentage = 1 */\n      swap1\n      pop\n        /* \"contracts/RoninP2PFeeAndRewardDistribution.sol\":1085:2527  if (rarity == 1) {... */\n      jump(tag_79)\n    tag_78:\n        /* \"contracts/RoninP2PFeeAndRewardDistribution.sol\":1312:1313  2 */\n      0x02\n        /* \"contracts/RoninP2PFeeAndRewardDistribution.sol\":1302:1308  rarity */\n      dup4\n        /* \"contracts/RoninP2PFeeAndRewardDistribution.sol\":1302:1313  rarity == 2 */\n      0xff\n      and\n      sub\n        /* \"contracts/RoninP2PFeeAndRewardDistribution.sol\":1298:2527  if (rarity == 2) {... */\n      tag_80\n      jumpi\n        /* \"contracts/RoninP2PFeeAndRewardDistribution.sol\":1433:1434  2 */\n      0x02\n        /* \"contracts/RoninP2PFeeAndRewardDistribution.sol\":1417:1434  feePercentage = 2 */\n      swap1\n      pop\n        /* \"contracts/RoninP2PFeeAndRewardDistribution.sol\":1298:2527  if (rarity == 2) {... */\n      jump(tag_81)\n    tag_80:\n        /* \"contracts/RoninP2PFeeAndRewardDistribution.sol\":1565:1566  3 */\n      0x03\n        /* \"contracts/RoninP2PFeeAndRewardDistribution.sol\":1555:1561  rarity */\n      dup4\n        /* \"contracts/RoninP2PFeeAndRewardDistribution.sol\":1555:1566  rarity == 3 */\n      0xff\n      and\n      sub\n        /* \"contracts/RoninP2PFeeAndRewardDistribution.sol\":1551:2527  if (rarity == 3) {... */\n      tag_82\n      jumpi\n        /* \"contracts/RoninP2PFeeAndRewardDistribution.sol\":1706:1707  3 */\n      0x03\n        /* \"contracts/RoninP2PFeeAndRewardDistribution.sol\":1690:1707  feePercentage = 3 */\n      swap1\n      pop\n        /* \"contracts/RoninP2PFeeAndRewardDistribution.sol\":1551:2527  if (rarity == 3) {... */\n      jump(tag_83)\n    tag_82:\n        /* \"contracts/RoninP2PFeeAndRewardDistribution.sol\":1858:1859  4 */\n      0x04\n        /* \"contracts/RoninP2PFeeAndRewardDistribution.sol\":1848:1854  rarity */\n      dup4\n        /* \"contracts/RoninP2PFeeAndRewardDistribution.sol\":1848:1859  rarity == 4 */\n      0xff\n      and\n      sub\n        /* \"contracts/RoninP2PFeeAndRewardDistribution.sol\":1844:2527  if (rarity == 4) {... */\n      tag_84\n      jumpi\n        /* \"contracts/RoninP2PFeeAndRewardDistribution.sol\":2019:2020  4 */\n      0x04\n        /* \"contracts/RoninP2PFeeAndRewardDistribution.sol\":2003:2020  feePercentage = 4 */\n      swap1\n      pop\n        /* \"contracts/RoninP2PFeeAndRewardDistribution.sol\":1844:2527  if (rarity == 4) {... */\n      jump(tag_85)\n    tag_84:\n        /* \"contracts/RoninP2PFeeAndRewardDistribution.sol\":2355:2356  5 */\n      0x05\n        /* \"contracts/RoninP2PFeeAndRewardDistribution.sol\":2339:2356  feePercentage = 5 */\n      swap1\n      pop\n        /* \"contracts/RoninP2PFeeAndRewardDistribution.sol\":1844:2527  if (rarity == 4) {... */\n    tag_85:\n        /* \"contracts/RoninP2PFeeAndRewardDistribution.sol\":1551:2527  if (rarity == 3) {... */\n    tag_83:\n        /* \"contracts/RoninP2PFeeAndRewardDistribution.sol\":1298:2527  if (rarity == 2) {... */\n    tag_81:\n        /* \"contracts/RoninP2PFeeAndRewardDistribution.sol\":1085:2527  if (rarity == 1) {... */\n    tag_79:\n        /* \"contracts/RoninP2PFeeAndRewardDistribution.sol\":2742:2745  100 */\n      0x64\n        /* \"contracts/RoninP2PFeeAndRewardDistribution.sol\":2725:2738  feePercentage */\n      dup2\n        /* \"contracts/RoninP2PFeeAndRewardDistribution.sol\":2712:2722  floorValue */\n      dup6\n        /* \"contracts/RoninP2PFeeAndRewardDistribution.sol\":2712:2738  floorValue * feePercentage */\n      tag_86\n      swap2\n      swap1\n      tag_62\n      jump\t// in\n    tag_86:\n        /* \"contracts/RoninP2PFeeAndRewardDistribution.sol\":2711:2745  (floorValue * feePercentage) / 100 */\n      tag_87\n      swap2\n      swap1\n      tag_64\n      jump\t// in\n    tag_87:\n        /* \"contracts/RoninP2PFeeAndRewardDistribution.sol\":2704:2745  return (floorValue * feePercentage) / 100 */\n      swap2\n      pop\n      pop\n        /* \"contracts/RoninP2PFeeAndRewardDistribution.sol\":845:2928  function calculateFees(uint256 floorValue, uint8 rarity) public pure returns (uint256) {... */\n      swap3\n      swap2\n      pop\n      pop\n      jump\t// out\n        /* \"contracts/RoninP2PFeeAndRewardDistribution.sol\":141:177  address public treasuryManagerWallet */\n    tag_36:\n      0x01\n      0x00\n      swap1\n      sload\n      swap1\n      0x0100\n      exp\n      swap1\n      div\n      0xffffffffffffffffffffffffffffffffffffffff\n      and\n      dup2\n      jump\t// out\n        /* \"#utility.yul\":7:82   */\n    tag_88:\n        /* \"#utility.yul\":40:46   */\n      0x00\n        /* \"#utility.yul\":73:75   */\n      0x40\n        /* \"#utility.yul\":67:76   */\n      mload\n        /* \"#utility.yul\":57:76   */\n      swap1\n      pop\n        /* \"#utility.yul\":7:82   */\n      swap1\n      jump\t// out\n        /* \"#utility.yul\":88:205   */\n    tag_89:\n        /* \"#utility.yul\":197:198   */\n      0x00\n        /* \"#utility.yul\":194:195   */\n      dup1\n        /* \"#utility.yul\":187:199   */\n      revert\n        /* \"#utility.yul\":211:328   */\n    tag_90:\n        /* \"#utility.yul\":320:321   */\n      0x00\n        /* \"#utility.yul\":317:318   */\n      dup1\n        /* \"#utility.yul\":310:322   */\n      revert\n        /* \"#utility.yul\":334:451   */\n    tag_91:\n        /* \"#utility.yul\":443:444   */\n      0x00\n        /* \"#utility.yul\":440:441   */\n      dup1\n        /* \"#utility.yul\":433:445   */\n      revert\n        /* \"#utility.yul\":457:559   */\n    tag_92:\n        /* \"#utility.yul\":498:504   */\n      0x00\n        /* \"#utility.yul\":549:551   */\n      0x1f\n        /* \"#utility.yul\":545:552   */\n      not\n        /* \"#utility.yul\":540:542   */\n      0x1f\n        /* \"#utility.yul\":533:538   */\n      dup4\n        /* \"#utility.yul\":529:543   */\n      add\n        /* \"#utility.yul\":525:553   */\n      and\n        /* \"#utility.yul\":515:553   */\n      swap1\n      pop\n        /* \"#utility.yul\":457:559   */\n      swap2\n      swap1\n      pop\n      jump\t// out\n        /* \"#utility.yul\":565:745   */\n    tag_93:\n        /* \"#utility.yul\":613:690   */\n      0x4e487b7100000000000000000000000000000000000000000000000000000000\n        /* \"#utility.yul\":610:611   */\n      0x00\n        /* \"#utility.yul\":603:691   */\n      mstore\n        /* \"#utility.yul\":710:714   */\n      0x41\n        /* \"#utility.yul\":707:708   */\n      0x04\n        /* \"#utility.yul\":700:715   */\n      mstore\n        /* \"#utility.yul\":734:738   */\n      0x24\n        /* \"#utility.yul\":731:732   */\n      0x00\n        /* \"#utility.yul\":724:739   */\n      revert\n        /* \"#utility.yul\":751:1032   */\n    tag_94:\n        /* \"#utility.yul\":834:861   */\n      tag_144\n        /* \"#utility.yul\":856:860   */\n      dup3\n        /* \"#utility.yul\":834:861   */\n      tag_92\n      jump\t// in\n    tag_144:\n        /* \"#utility.yul\":826:832   */\n      dup2\n        /* \"#utility.yul\":822:862   */\n      add\n        /* \"#utility.yul\":964:970   */\n      dup2\n        /* \"#utility.yul\":952:962   */\n      dup2\n        /* \"#utility.yul\":949:971   */\n      lt\n        /* \"#utility.yul\":928:946   */\n      0xffffffffffffffff\n        /* \"#utility.yul\":916:926   */\n      dup3\n        /* \"#utility.yul\":913:947   */\n      gt\n        /* \"#utility.yul\":910:972   */\n      or\n        /* \"#utility.yul\":907:995   */\n      iszero\n      tag_145\n      jumpi\n        /* \"#utility.yul\":975:993   */\n      tag_146\n      tag_93\n      jump\t// in\n    tag_146:\n        /* \"#utility.yul\":907:995   */\n    tag_145:\n        /* \"#utility.yul\":1015:1025   */\n      dup1\n        /* \"#utility.yul\":1011:1013   */\n      0x40\n        /* \"#utility.yul\":1004:1026   */\n      mstore\n        /* \"#utility.yul\":794:1032   */\n      pop\n        /* \"#utility.yul\":751:1032   */\n      pop\n      pop\n      jump\t// out\n        /* \"#utility.yul\":1038:1167   */\n    tag_95:\n        /* \"#utility.yul\":1072:1078   */\n      0x00\n        /* \"#utility.yul\":1099:1119   */\n      tag_148\n      tag_88\n      jump\t// in\n    tag_148:\n        /* \"#utility.yul\":1089:1119   */\n      swap1\n      pop\n        /* \"#utility.yul\":1128:1161   */\n      tag_149\n        /* \"#utility.yul\":1156:1160   */\n      dup3\n        /* \"#utility.yul\":1148:1154   */\n      dup3\n        /* \"#utility.yul\":1128:1161   */\n      tag_94\n      jump\t// in\n    tag_149:\n        /* \"#utility.yul\":1038:1167   */\n      swap2\n      swap1\n      pop\n      jump\t// out\n        /* \"#utility.yul\":1173:1484   */\n    tag_96:\n        /* \"#utility.yul\":1250:1254   */\n      0x00\n        /* \"#utility.yul\":1340:1358   */\n      0xffffffffffffffff\n        /* \"#utility.yul\":1332:1338   */\n      dup3\n        /* \"#utility.yul\":1329:1359   */\n      gt\n        /* \"#utility.yul\":1326:1382   */\n      iszero\n      tag_151\n      jumpi\n        /* \"#utility.yul\":1362:1380   */\n      tag_152\n      tag_93\n      jump\t// in\n    tag_152:\n        /* \"#utility.yul\":1326:1382   */\n    tag_151:\n        /* \"#utility.yul\":1412:1416   */\n      0x20\n        /* \"#utility.yul\":1404:1410   */\n      dup3\n        /* \"#utility.yul\":1400:1417   */\n      mul\n        /* \"#utility.yul\":1392:1417   */\n      swap1\n      pop\n        /* \"#utility.yul\":1472:1476   */\n      0x20\n        /* \"#utility.yul\":1466:1470   */\n      dup2\n        /* \"#utility.yul\":1462:1477   */\n      add\n        /* \"#utility.yul\":1454:1477   */\n      swap1\n      pop\n        /* \"#utility.yul\":1173:1484   */\n      swap2\n      swap1\n      pop\n      jump\t// out\n        /* \"#utility.yul\":1490:1607   */\n    tag_97:\n        /* \"#utility.yul\":1599:1600   */\n      0x00\n        /* \"#utility.yul\":1596:1597   */\n      dup1\n        /* \"#utility.yul\":1589:1601   */\n      revert\n        /* \"#utility.yul\":1613:1739   */\n    tag_98:\n        /* \"#utility.yul\":1650:1657   */\n      0x00\n        /* \"#utility.yul\":1690:1732   */\n      0xffffffffffffffffffffffffffffffffffffffff\n        /* \"#utility.yul\":1683:1688   */\n      dup3\n        /* \"#utility.yul\":1679:1733   */\n      and\n        /* \"#utility.yul\":1668:1733   */\n      swap1\n      pop\n        /* \"#utility.yul\":1613:1739   */\n      swap2\n      swap1\n      pop\n      jump\t// out\n        /* \"#utility.yul\":1745:1841   */\n    tag_99:\n        /* \"#utility.yul\":1782:1789   */\n      0x00\n        /* \"#utility.yul\":1811:1835   */\n      tag_156\n        /* \"#utility.yul\":1829:1834   */\n      dup3\n        /* \"#utility.yul\":1811:1835   */\n      tag_98\n      jump\t// in\n    tag_156:\n        /* \"#utility.yul\":1800:1835   */\n      swap1\n      pop\n        /* \"#utility.yul\":1745:1841   */\n      swap2\n      swap1\n      pop\n      jump\t// out\n        /* \"#utility.yul\":1847:1969   */\n    tag_100:\n        /* \"#utility.yul\":1920:1944   */\n      tag_158\n        /* \"#utility.yul\":1938:1943   */\n      dup2\n        /* \"#utility.yul\":1920:1944   */\n      tag_99\n      jump\t// in\n    tag_158:\n        /* \"#utility.yul\":1913:1918   */\n      dup2\n        /* \"#utility.yul\":1910:1945   */\n      eq\n        /* \"#utility.yul\":1900:1963   */\n      tag_159\n      jumpi\n        /* \"#utility.yul\":1959:1960   */\n      0x00\n        /* \"#utility.yul\":1956:1957   */\n      dup1\n        /* \"#utility.yul\":1949:1961   */\n      revert\n        /* \"#utility.yul\":1900:1963   */\n    tag_159:\n        /* \"#utility.yul\":1847:1969   */\n      pop\n      jump\t// out\n        /* \"#utility.yul\":1975:2114   */\n    tag_101:\n        /* \"#utility.yul\":2021:2026   */\n      0x00\n        /* \"#utility.yul\":2059:2065   */\n      dup2\n        /* \"#utility.yul\":2046:2066   */\n      calldataload\n        /* \"#utility.yul\":2037:2066   */\n      swap1\n      pop\n        /* \"#utility.yul\":2075:2108   */\n      tag_161\n        /* \"#utility.yul\":2102:2107   */\n      dup2\n        /* \"#utility.yul\":2075:2108   */\n      tag_100\n      jump\t// in\n    tag_161:\n        /* \"#utility.yul\":1975:2114   */\n      swap3\n      swap2\n      pop\n      pop\n      jump\t// out\n        /* \"#utility.yul\":2137:2847   */\n    tag_102:\n        /* \"#utility.yul\":2233:2238   */\n      0x00\n        /* \"#utility.yul\":2258:2339   */\n      tag_163\n        /* \"#utility.yul\":2274:2338   */\n      tag_164\n        /* \"#utility.yul\":2331:2337   */\n      dup5\n        /* \"#utility.yul\":2274:2338   */\n      tag_96\n      jump\t// in\n    tag_164:\n        /* \"#utility.yul\":2258:2339   */\n      tag_95\n      jump\t// in\n    tag_163:\n        /* \"#utility.yul\":2249:2339   */\n      swap1\n      pop\n        /* \"#utility.yul\":2359:2364   */\n      dup1\n        /* \"#utility.yul\":2388:2394   */\n      dup4\n        /* \"#utility.yul\":2381:2386   */\n      dup3\n        /* \"#utility.yul\":2374:2395   */\n      mstore\n        /* \"#utility.yul\":2422:2426   */\n      0x20\n        /* \"#utility.yul\":2415:2420   */\n      dup3\n        /* \"#utility.yul\":2411:2427   */\n      add\n        /* \"#utility.yul\":2404:2427   */\n      swap1\n      pop\n        /* \"#utility.yul\":2475:2479   */\n      0x20\n        /* \"#utility.yul\":2467:2473   */\n      dup5\n        /* \"#utility.yul\":2463:2480   */\n      mul\n        /* \"#utility.yul\":2455:2461   */\n      dup4\n        /* \"#utility.yul\":2451:2481   */\n      add\n        /* \"#utility.yul\":2504:2507   */\n      dup6\n        /* \"#utility.yul\":2496:2502   */\n      dup2\n        /* \"#utility.yul\":2493:2508   */\n      gt\n        /* \"#utility.yul\":2490:2612   */\n      iszero\n      tag_165\n      jumpi\n        /* \"#utility.yul\":2523:2602   */\n      tag_166\n      tag_97\n      jump\t// in\n    tag_166:\n        /* \"#utility.yul\":2490:2612   */\n    tag_165:\n        /* \"#utility.yul\":2638:2644   */\n      dup4\n        /* \"#utility.yul\":2621:2841   */\n    tag_167:\n        /* \"#utility.yul\":2655:2661   */\n      dup2\n        /* \"#utility.yul\":2650:2653   */\n      dup2\n        /* \"#utility.yul\":2647:2662   */\n      lt\n        /* \"#utility.yul\":2621:2841   */\n      iszero\n      tag_169\n      jumpi\n        /* \"#utility.yul\":2730:2733   */\n      dup1\n        /* \"#utility.yul\":2759:2796   */\n      tag_170\n        /* \"#utility.yul\":2792:2795   */\n      dup9\n        /* \"#utility.yul\":2780:2790   */\n      dup3\n        /* \"#utility.yul\":2759:2796   */\n      tag_101\n      jump\t// in\n    tag_170:\n        /* \"#utility.yul\":2754:2757   */\n      dup5\n        /* \"#utility.yul\":2747:2797   */\n      mstore\n        /* \"#utility.yul\":2826:2830   */\n      0x20\n        /* \"#utility.yul\":2821:2824   */\n      dup5\n        /* \"#utility.yul\":2817:2831   */\n      add\n        /* \"#utility.yul\":2810:2831   */\n      swap4\n      pop\n        /* \"#utility.yul\":2697:2841   */\n      pop\n        /* \"#utility.yul\":2681:2685   */\n      0x20\n        /* \"#utility.yul\":2676:2679   */\n      dup2\n        /* \"#utility.yul\":2672:2686   */\n      add\n        /* \"#utility.yul\":2665:2686   */\n      swap1\n      pop\n        /* \"#utility.yul\":2621:2841   */\n      jump(tag_167)\n    tag_169:\n        /* \"#utility.yul\":2625:2646   */\n      pop\n        /* \"#utility.yul\":2239:2847   */\n      pop\n      pop\n        /* \"#utility.yul\":2137:2847   */\n      swap4\n      swap3\n      pop\n      pop\n      pop\n      jump\t// out\n        /* \"#utility.yul\":2870:3240   */\n    tag_103:\n        /* \"#utility.yul\":2941:2946   */\n      0x00\n        /* \"#utility.yul\":2990:2993   */\n      dup3\n        /* \"#utility.yul\":2983:2987   */\n      0x1f\n        /* \"#utility.yul\":2975:2981   */\n      dup4\n        /* \"#utility.yul\":2971:2988   */\n      add\n        /* \"#utility.yul\":2967:2994   */\n      slt\n        /* \"#utility.yul\":2957:3079   */\n      tag_172\n      jumpi\n        /* \"#utility.yul\":2998:3077   */\n      tag_173\n      tag_91\n      jump\t// in\n    tag_173:\n        /* \"#utility.yul\":2957:3079   */\n    tag_172:\n        /* \"#utility.yul\":3115:3121   */\n      dup2\n        /* \"#utility.yul\":3102:3122   */\n      calldataload\n        /* \"#utility.yul\":3140:3234   */\n      tag_174\n        /* \"#utility.yul\":3230:3233   */\n      dup5\n        /* \"#utility.yul\":3222:3228   */\n      dup3\n        /* \"#utility.yul\":3215:3219   */\n      0x20\n        /* \"#utility.yul\":3207:3213   */\n      dup7\n        /* \"#utility.yul\":3203:3220   */\n      add\n        /* \"#utility.yul\":3140:3234   */\n      tag_102\n      jump\t// in\n    tag_174:\n        /* \"#utility.yul\":3131:3234   */\n      swap2\n      pop\n        /* \"#utility.yul\":2947:3240   */\n      pop\n        /* \"#utility.yul\":2870:3240   */\n      swap3\n      swap2\n      pop\n      pop\n      jump\t// out\n        /* \"#utility.yul\":3246:3557   */\n    tag_104:\n        /* \"#utility.yul\":3323:3327   */\n      0x00\n        /* \"#utility.yul\":3413:3431   */\n      0xffffffffffffffff\n        /* \"#utility.yul\":3405:3411   */\n      dup3\n        /* \"#utility.yul\":3402:3432   */\n      gt\n        /* \"#utility.yul\":3399:3455   */\n      iszero\n      tag_176\n      jumpi\n        /* \"#utility.yul\":3435:3453   */\n      tag_177\n      tag_93\n      jump\t// in\n    tag_177:\n        /* \"#utility.yul\":3399:3455   */\n    tag_176:\n        /* \"#utility.yul\":3485:3489   */\n      0x20\n        /* \"#utility.yul\":3477:3483   */\n      dup3\n        /* \"#utility.yul\":3473:3490   */\n      mul\n        /* \"#utility.yul\":3465:3490   */\n      swap1\n      pop\n        /* \"#utility.yul\":3545:3549   */\n      0x20\n        /* \"#utility.yul\":3539:3543   */\n      dup2\n        /* \"#utility.yul\":3535:3550   */\n      add\n        /* \"#utility.yul\":3527:3550   */\n      swap1\n      pop\n        /* \"#utility.yul\":3246:3557   */\n      swap2\n      swap1\n      pop\n      jump\t// out\n        /* \"#utility.yul\":3563:3640   */\n    tag_105:\n        /* \"#utility.yul\":3600:3607   */\n      0x00\n        /* \"#utility.yul\":3629:3634   */\n      dup2\n        /* \"#utility.yul\":3618:3634   */\n      swap1\n      pop\n        /* \"#utility.yul\":3563:3640   */\n      swap2\n      swap1\n      pop\n      jump\t// out\n        /* \"#utility.yul\":3646:3768   */\n    tag_106:\n        /* \"#utility.yul\":3719:3743   */\n      tag_180\n        /* \"#utility.yul\":3737:3742   */\n      dup2\n        /* \"#utility.yul\":3719:3743   */\n      tag_105\n      jump\t// in\n    tag_180:\n        /* \"#utility.yul\":3712:3717   */\n      dup2\n        /* \"#utility.yul\":3709:3744   */\n      eq\n        /* \"#utility.yul\":3699:3762   */\n      tag_181\n      jumpi\n        /* \"#utility.yul\":3758:3759   */\n      0x00\n        /* \"#utility.yul\":3755:3756   */\n      dup1\n        /* \"#utility.yul\":3748:3760   */\n      revert\n        /* \"#utility.yul\":3699:3762   */\n    tag_181:\n        /* \"#utility.yul\":3646:3768   */\n      pop\n      jump\t// out\n        /* \"#utility.yul\":3774:3913   */\n    tag_107:\n        /* \"#utility.yul\":3820:3825   */\n      0x00\n        /* \"#utility.yul\":3858:3864   */\n      dup2\n        /* \"#utility.yul\":3845:3865   */\n      calldataload\n        /* \"#utility.yul\":3836:3865   */\n      swap1\n      pop\n        /* \"#utility.yul\":3874:3907   */\n      tag_183\n        /* \"#utility.yul\":3901:3906   */\n      dup2\n        /* \"#utility.yul\":3874:3907   */\n      tag_106\n      jump\t// in\n    tag_183:\n        /* \"#utility.yul\":3774:3913   */\n      swap3\n      swap2\n      pop\n      pop\n      jump\t// out\n        /* \"#utility.yul\":3936:4646   */\n    tag_108:\n        /* \"#utility.yul\":4032:4037   */\n      0x00\n        /* \"#utility.yul\":4057:4138   */\n      tag_185\n        /* \"#utility.yul\":4073:4137   */\n      tag_186\n        /* \"#utility.yul\":4130:4136   */\n      dup5\n        /* \"#utility.yul\":4073:4137   */\n      tag_104\n      jump\t// in\n    tag_186:\n        /* \"#utility.yul\":4057:4138   */\n      tag_95\n      jump\t// in\n    tag_185:\n        /* \"#utility.yul\":4048:4138   */\n      swap1\n      pop\n        /* \"#utility.yul\":4158:4163   */\n      dup1\n        /* \"#utility.yul\":4187:4193   */\n      dup4\n        /* \"#utility.yul\":4180:4185   */\n      dup3\n        /* \"#utility.yul\":4173:4194   */\n      mstore\n        /* \"#utility.yul\":4221:4225   */\n      0x20\n        /* \"#utility.yul\":4214:4219   */\n      dup3\n        /* \"#utility.yul\":4210:4226   */\n      add\n        /* \"#utility.yul\":4203:4226   */\n      swap1\n      pop\n        /* \"#utility.yul\":4274:4278   */\n      0x20\n        /* \"#utility.yul\":4266:4272   */\n      dup5\n        /* \"#utility.yul\":4262:4279   */\n      mul\n        /* \"#utility.yul\":4254:4260   */\n      dup4\n        /* \"#utility.yul\":4250:4280   */\n      add\n        /* \"#utility.yul\":4303:4306   */\n      dup6\n        /* \"#utility.yul\":4295:4301   */\n      dup2\n        /* \"#utility.yul\":4292:4307   */\n      gt\n        /* \"#utility.yul\":4289:4411   */\n      iszero\n      tag_187\n      jumpi\n        /* \"#utility.yul\":4322:4401   */\n      tag_188\n      tag_97\n      jump\t// in\n    tag_188:\n        /* \"#utility.yul\":4289:4411   */\n    tag_187:\n        /* \"#utility.yul\":4437:4443   */\n      dup4\n        /* \"#utility.yul\":4420:4640   */\n    tag_189:\n        /* \"#utility.yul\":4454:4460   */\n      dup2\n        /* \"#utility.yul\":4449:4452   */\n      dup2\n        /* \"#utility.yul\":4446:4461   */\n      lt\n        /* \"#utility.yul\":4420:4640   */\n      iszero\n      tag_191\n      jumpi\n        /* \"#utility.yul\":4529:4532   */\n      dup1\n        /* \"#utility.yul\":4558:4595   */\n      tag_192\n        /* \"#utility.yul\":4591:4594   */\n      dup9\n        /* \"#utility.yul\":4579:4589   */\n      dup3\n        /* \"#utility.yul\":4558:4595   */\n      tag_107\n      jump\t// in\n    tag_192:\n        /* \"#utility.yul\":4553:4556   */\n      dup5\n        /* \"#utility.yul\":4546:4596   */\n      mstore\n        /* \"#utility.yul\":4625:4629   */\n      0x20\n        /* \"#utility.yul\":4620:4623   */\n      dup5\n        /* \"#utility.yul\":4616:4630   */\n      add\n        /* \"#utility.yul\":4609:4630   */\n      swap4\n      pop\n        /* \"#utility.yul\":4496:4640   */\n      pop\n        /* \"#utility.yul\":4480:4484   */\n      0x20\n        /* \"#utility.yul\":4475:4478   */\n      dup2\n        /* \"#utility.yul\":4471:4485   */\n      add\n        /* \"#utility.yul\":4464:4485   */\n      swap1\n      pop\n        /* \"#utility.yul\":4420:4640   */\n      jump(tag_189)\n    tag_191:\n        /* \"#utility.yul\":4424:4445   */\n      pop\n        /* \"#utility.yul\":4038:4646   */\n      pop\n      pop\n        /* \"#utility.yul\":3936:4646   */\n      swap4\n      swap3\n      pop\n      pop\n      pop\n      jump\t// out\n        /* \"#utility.yul\":4669:5039   */\n    tag_109:\n        /* \"#utility.yul\":4740:4745   */\n      0x00\n        /* \"#utility.yul\":4789:4792   */\n      dup3\n        /* \"#utility.yul\":4782:4786   */\n      0x1f\n        /* \"#utility.yul\":4774:4780   */\n      dup4\n        /* \"#utility.yul\":4770:4787   */\n      add\n        /* \"#utility.yul\":4766:4793   */\n      slt\n        /* \"#utility.yul\":4756:4878   */\n      tag_194\n      jumpi\n        /* \"#utility.yul\":4797:4876   */\n      tag_195\n      tag_91\n      jump\t// in\n    tag_195:\n        /* \"#utility.yul\":4756:4878   */\n    tag_194:\n        /* \"#utility.yul\":4914:4920   */\n      dup2\n        /* \"#utility.yul\":4901:4921   */\n      calldataload\n        /* \"#utility.yul\":4939:5033   */\n      tag_196\n        /* \"#utility.yul\":5029:5032   */\n      dup5\n        /* \"#utility.yul\":5021:5027   */\n      dup3\n        /* \"#utility.yul\":5014:5018   */\n      0x20\n        /* \"#utility.yul\":5006:5012   */\n      dup7\n        /* \"#utility.yul\":5002:5019   */\n      add\n        /* \"#utility.yul\":4939:5033   */\n      tag_108\n      jump\t// in\n    tag_196:\n        /* \"#utility.yul\":4930:5033   */\n      swap2\n      pop\n        /* \"#utility.yul\":4746:5039   */\n      pop\n        /* \"#utility.yul\":4669:5039   */\n      swap3\n      swap2\n      pop\n      pop\n      jump\t// out\n        /* \"#utility.yul\":5045:5939   */\n    tag_13:\n        /* \"#utility.yul\":5163:5169   */\n      0x00\n        /* \"#utility.yul\":5171:5177   */\n      dup1\n        /* \"#utility.yul\":5220:5222   */\n      0x40\n        /* \"#utility.yul\":5208:5217   */\n      dup4\n        /* \"#utility.yul\":5199:5206   */\n      dup6\n        /* \"#utility.yul\":5195:5218   */\n      sub\n        /* \"#utility.yul\":5191:5223   */\n      slt\n        /* \"#utility.yul\":5188:5307   */\n      iszero\n      tag_198\n      jumpi\n        /* \"#utility.yul\":5226:5305   */\n      tag_199\n      tag_89\n      jump\t// in\n    tag_199:\n        /* \"#utility.yul\":5188:5307   */\n    tag_198:\n        /* \"#utility.yul\":5374:5375   */\n      0x00\n        /* \"#utility.yul\":5363:5372   */\n      dup4\n        /* \"#utility.yul\":5359:5376   */\n      add\n        /* \"#utility.yul\":5346:5377   */\n      calldataload\n        /* \"#utility.yul\":5404:5422   */\n      0xffffffffffffffff\n        /* \"#utility.yul\":5396:5402   */\n      dup2\n        /* \"#utility.yul\":5393:5423   */\n      gt\n        /* \"#utility.yul\":5390:5507   */\n      iszero\n      tag_200\n      jumpi\n        /* \"#utility.yul\":5426:5505   */\n      tag_201\n      tag_90\n      jump\t// in\n    tag_201:\n        /* \"#utility.yul\":5390:5507   */\n    tag_200:\n        /* \"#utility.yul\":5531:5609   */\n      tag_202\n        /* \"#utility.yul\":5601:5608   */\n      dup6\n        /* \"#utility.yul\":5592:5598   */\n      dup3\n        /* \"#utility.yul\":5581:5590   */\n      dup7\n        /* \"#utility.yul\":5577:5599   */\n      add\n        /* \"#utility.yul\":5531:5609   */\n      tag_103\n      jump\t// in\n    tag_202:\n        /* \"#utility.yul\":5521:5609   */\n      swap3\n      pop\n        /* \"#utility.yul\":5317:5619   */\n      pop\n        /* \"#utility.yul\":5686:5688   */\n      0x20\n        /* \"#utility.yul\":5675:5684   */\n      dup4\n        /* \"#utility.yul\":5671:5689   */\n      add\n        /* \"#utility.yul\":5658:5690   */\n      calldataload\n        /* \"#utility.yul\":5717:5735   */\n      0xffffffffffffffff\n        /* \"#utility.yul\":5709:5715   */\n      dup2\n        /* \"#utility.yul\":5706:5736   */\n      gt\n        /* \"#utility.yul\":5703:5820   */\n      iszero\n      tag_203\n      jumpi\n        /* \"#utility.yul\":5739:5818   */\n      tag_204\n      tag_90\n      jump\t// in\n    tag_204:\n        /* \"#utility.yul\":5703:5820   */\n    tag_203:\n        /* \"#utility.yul\":5844:5922   */\n      tag_205\n        /* \"#utility.yul\":5914:5921   */\n      dup6\n        /* \"#utility.yul\":5905:5911   */\n      dup3\n        /* \"#utility.yul\":5894:5903   */\n      dup7\n        /* \"#utility.yul\":5890:5912   */\n      add\n        /* \"#utility.yul\":5844:5922   */\n      tag_109\n      jump\t// in\n    tag_205:\n        /* \"#utility.yul\":5834:5922   */\n      swap2\n      pop\n        /* \"#utility.yul\":5629:5932   */\n      pop\n        /* \"#utility.yul\":5045:5939   */\n      swap3\n      pop\n      swap3\n      swap1\n      pop\n      jump\t// out\n        /* \"#utility.yul\":5945:6063   */\n    tag_110:\n        /* \"#utility.yul\":6032:6056   */\n      tag_207\n        /* \"#utility.yul\":6050:6055   */\n      dup2\n        /* \"#utility.yul\":6032:6056   */\n      tag_99\n      jump\t// in\n    tag_207:\n        /* \"#utility.yul\":6027:6030   */\n      dup3\n        /* \"#utility.yul\":6020:6057   */\n      mstore\n        /* \"#utility.yul\":5945:6063   */\n      pop\n      pop\n      jump\t// out\n        /* \"#utility.yul\":6069:6291   */\n    tag_18:\n        /* \"#utility.yul\":6162:6166   */\n      0x00\n        /* \"#utility.yul\":6200:6202   */\n      0x20\n        /* \"#utility.yul\":6189:6198   */\n      dup3\n        /* \"#utility.yul\":6185:6203   */\n      add\n        /* \"#utility.yul\":6177:6203   */\n      swap1\n      pop\n        /* \"#utility.yul\":6213:6284   */\n      tag_209\n        /* \"#utility.yul\":6281:6282   */\n      0x00\n        /* \"#utility.yul\":6270:6279   */\n      dup4\n        /* \"#utility.yul\":6266:6283   */\n      add\n        /* \"#utility.yul\":6257:6263   */\n      dup5\n        /* \"#utility.yul\":6213:6284   */\n      tag_110\n      jump\t// in\n    tag_209:\n        /* \"#utility.yul\":6069:6291   */\n      swap3\n      swap2\n      pop\n      pop\n      jump\t// out\n        /* \"#utility.yul\":6297:6415   */\n    tag_111:\n        /* \"#utility.yul\":6384:6408   */\n      tag_211\n        /* \"#utility.yul\":6402:6407   */\n      dup2\n        /* \"#utility.yul\":6384:6408   */\n      tag_105\n      jump\t// in\n    tag_211:\n        /* \"#utility.yul\":6379:6382   */\n      dup3\n        /* \"#utility.yul\":6372:6409   */\n      mstore\n        /* \"#utility.yul\":6297:6415   */\n      pop\n      pop\n      jump\t// out\n        /* \"#utility.yul\":6421:6643   */\n    tag_22:\n        /* \"#utility.yul\":6514:6518   */\n      0x00\n        /* \"#utility.yul\":6552:6554   */\n      0x20\n        /* \"#utility.yul\":6541:6550   */\n      dup3\n        /* \"#utility.yul\":6537:6555   */\n      add\n        /* \"#utility.yul\":6529:6555   */\n      swap1\n      pop\n        /* \"#utility.yul\":6565:6636   */\n      tag_213\n        /* \"#utility.yul\":6633:6634   */\n      0x00\n        /* \"#utility.yul\":6622:6631   */\n      dup4\n        /* \"#utility.yul\":6618:6635   */\n      add\n        /* \"#utility.yul\":6609:6615   */\n      dup5\n        /* \"#utility.yul\":6565:6636   */\n      tag_111\n      jump\t// in\n    tag_213:\n        /* \"#utility.yul\":6421:6643   */\n      swap3\n      swap2\n      pop\n      pop\n      jump\t// out\n        /* \"#utility.yul\":6649:6735   */\n    tag_112:\n        /* \"#utility.yul\":6684:6691   */\n      0x00\n        /* \"#utility.yul\":6724:6728   */\n      0xff\n        /* \"#utility.yul\":6717:6722   */\n      dup3\n        /* \"#utility.yul\":6713:6729   */\n      and\n        /* \"#utility.yul\":6702:6729   */\n      swap1\n      pop\n        /* \"#utility.yul\":6649:6735   */\n      swap2\n      swap1\n      pop\n      jump\t// out\n        /* \"#utility.yul\":6741:6859   */\n    tag_113:\n        /* \"#utility.yul\":6812:6834   */\n      tag_216\n        /* \"#utility.yul\":6828:6833   */\n      dup2\n        /* \"#utility.yul\":6812:6834   */\n      tag_112\n      jump\t// in\n    tag_216:\n        /* \"#utility.yul\":6805:6810   */\n      dup2\n        /* \"#utility.yul\":6802:6835   */\n      eq\n        /* \"#utility.yul\":6792:6853   */\n      tag_217\n      jumpi\n        /* \"#utility.yul\":6849:6850   */\n      0x00\n        /* \"#utility.yul\":6846:6847   */\n      dup1\n        /* \"#utility.yul\":6839:6851   */\n      revert\n        /* \"#utility.yul\":6792:6853   */\n    tag_217:\n        /* \"#utility.yul\":6741:6859   */\n      pop\n      jump\t// out\n        /* \"#utility.yul\":6865:7000   */\n    tag_114:\n        /* \"#utility.yul\":6909:6914   */\n      0x00\n        /* \"#utility.yul\":6947:6953   */\n      dup2\n        /* \"#utility.yul\":6934:6954   */\n      calldataload\n        /* \"#utility.yul\":6925:6954   */\n      swap1\n      pop\n        /* \"#utility.yul\":6963:6994   */\n      tag_219\n        /* \"#utility.yul\":6988:6993   */\n      dup2\n        /* \"#utility.yul\":6963:6994   */\n      tag_113\n      jump\t// in\n    tag_219:\n        /* \"#utility.yul\":6865:7000   */\n      swap3\n      swap2\n      pop\n      pop\n      jump\t// out\n        /* \"#utility.yul\":7006:7621   */\n    tag_28:\n        /* \"#utility.yul\":7081:7087   */\n      0x00\n        /* \"#utility.yul\":7089:7095   */\n      dup1\n        /* \"#utility.yul\":7097:7103   */\n      0x00\n        /* \"#utility.yul\":7146:7148   */\n      0x60\n        /* \"#utility.yul\":7134:7143   */\n      dup5\n        /* \"#utility.yul\":7125:7132   */\n      dup7\n        /* \"#utility.yul\":7121:7144   */\n      sub\n        /* \"#utility.yul\":7117:7149   */\n      slt\n        /* \"#utility.yul\":7114:7233   */\n      iszero\n      tag_221\n      jumpi\n        /* \"#utility.yul\":7152:7231   */\n      tag_222\n      tag_89\n      jump\t// in\n    tag_222:\n        /* \"#utility.yul\":7114:7233   */\n    tag_221:\n        /* \"#utility.yul\":7272:7273   */\n      0x00\n        /* \"#utility.yul\":7297:7350   */\n      tag_223\n        /* \"#utility.yul\":7342:7349   */\n      dup7\n        /* \"#utility.yul\":7333:7339   */\n      dup3\n        /* \"#utility.yul\":7322:7331   */\n      dup8\n        /* \"#utility.yul\":7318:7340   */\n      add\n        /* \"#utility.yul\":7297:7350   */\n      tag_107\n      jump\t// in\n    tag_223:\n        /* \"#utility.yul\":7287:7350   */\n      swap4\n      pop\n        /* \"#utility.yul\":7243:7360   */\n      pop\n        /* \"#utility.yul\":7399:7401   */\n      0x20\n        /* \"#utility.yul\":7425:7478   */\n      tag_224\n        /* \"#utility.yul\":7470:7477   */\n      dup7\n        /* \"#utility.yul\":7461:7467   */\n      dup3\n        /* \"#utility.yul\":7450:7459   */\n      dup8\n        /* \"#utility.yul\":7446:7468   */\n      add\n        /* \"#utility.yul\":7425:7478   */\n      tag_107\n      jump\t// in\n    tag_224:\n        /* \"#utility.yul\":7415:7478   */\n      swap3\n      pop\n        /* \"#utility.yul\":7370:7488   */\n      pop\n        /* \"#utility.yul\":7527:7529   */\n      0x40\n        /* \"#utility.yul\":7553:7604   */\n      tag_225\n        /* \"#utility.yul\":7596:7603   */\n      dup7\n        /* \"#utility.yul\":7587:7593   */\n      dup3\n        /* \"#utility.yul\":7576:7585   */\n      dup8\n        /* \"#utility.yul\":7572:7594   */\n      add\n        /* \"#utility.yul\":7553:7604   */\n      tag_114\n      jump\t// in\n    tag_225:\n        /* \"#utility.yul\":7543:7604   */\n      swap2\n      pop\n        /* \"#utility.yul\":7498:7614   */\n      pop\n        /* \"#utility.yul\":7006:7621   */\n      swap3\n      pop\n      swap3\n      pop\n      swap3\n      jump\t// out\n        /* \"#utility.yul\":7627:8097   */\n    tag_32:\n        /* \"#utility.yul\":7693:7699   */\n      0x00\n        /* \"#utility.yul\":7701:7707   */\n      dup1\n        /* \"#utility.yul\":7750:7752   */\n      0x40\n        /* \"#utility.yul\":7738:7747   */\n      dup4\n        /* \"#utility.yul\":7729:7736   */\n      dup6\n        /* \"#utility.yul\":7725:7748   */\n      sub\n        /* \"#utility.yul\":7721:7753   */\n      slt\n        /* \"#utility.yul\":7718:7837   */\n      iszero\n      tag_227\n      jumpi\n        /* \"#utility.yul\":7756:7835   */\n      tag_228\n      tag_89\n      jump\t// in\n    tag_228:\n        /* \"#utility.yul\":7718:7837   */\n    tag_227:\n        /* \"#utility.yul\":7876:7877   */\n      0x00\n        /* \"#utility.yul\":7901:7954   */\n      tag_229\n        /* \"#utility.yul\":7946:7953   */\n      dup6\n        /* \"#utility.yul\":7937:7943   */\n      dup3\n        /* \"#utility.yul\":7926:7935   */\n      dup7\n        /* \"#utility.yul\":7922:7944   */\n      add\n        /* \"#utility.yul\":7901:7954   */\n      tag_107\n      jump\t// in\n    tag_229:\n        /* \"#utility.yul\":7891:7954   */\n      swap3\n      pop\n        /* \"#utility.yul\":7847:7964   */\n      pop\n        /* \"#utility.yul\":8003:8005   */\n      0x20\n        /* \"#utility.yul\":8029:8080   */\n      tag_230\n        /* \"#utility.yul\":8072:8079   */\n      dup6\n        /* \"#utility.yul\":8063:8069   */\n      dup3\n        /* \"#utility.yul\":8052:8061   */\n      dup7\n        /* \"#utility.yul\":8048:8070   */\n      add\n        /* \"#utility.yul\":8029:8080   */\n      tag_114\n      jump\t// in\n    tag_230:\n        /* \"#utility.yul\":8019:8080   */\n      swap2\n      pop\n        /* \"#utility.yul\":7974:8090   */\n      pop\n        /* \"#utility.yul\":7627:8097   */\n      swap3\n      pop\n      swap3\n      swap1\n      pop\n      jump\t// out\n        /* \"#utility.yul\":8103:8272   */\n    tag_115:\n        /* \"#utility.yul\":8187:8198   */\n      0x00\n        /* \"#utility.yul\":8221:8227   */\n      dup3\n        /* \"#utility.yul\":8216:8219   */\n      dup3\n        /* \"#utility.yul\":8209:8228   */\n      mstore\n        /* \"#utility.yul\":8261:8265   */\n      0x20\n        /* \"#utility.yul\":8256:8259   */\n      dup3\n        /* \"#utility.yul\":8252:8266   */\n      add\n        /* \"#utility.yul\":8237:8266   */\n      swap1\n      pop\n        /* \"#utility.yul\":8103:8272   */\n      swap3\n      swap2\n      pop\n      pop\n      jump\t// out\n        /* \"#utility.yul\":8278:8457   */\n    tag_116:\n        /* \"#utility.yul\":8418:8449   */\n      0x52657761726420706f6f6c207468726573686f6c64206e6f74206d6574000000\n        /* \"#utility.yul\":8414:8415   */\n      0x00\n        /* \"#utility.yul\":8406:8412   */\n      dup3\n        /* \"#utility.yul\":8402:8416   */\n      add\n        /* \"#utility.yul\":8395:8450   */\n      mstore\n        /* \"#utility.yul\":8278:8457   */\n      pop\n      jump\t// out\n        /* \"#utility.yul\":8463:8829   */\n    tag_117:\n        /* \"#utility.yul\":8605:8608   */\n      0x00\n        /* \"#utility.yul\":8626:8693   */\n      tag_234\n        /* \"#utility.yul\":8690:8692   */\n      0x1d\n        /* \"#utility.yul\":8685:8688   */\n      dup4\n        /* \"#utility.yul\":8626:8693   */\n      tag_115\n      jump\t// in\n    tag_234:\n        /* \"#utility.yul\":8619:8693   */\n      swap2\n      pop\n        /* \"#utility.yul\":8702:8795   */\n      tag_235\n        /* \"#utility.yul\":8791:8794   */\n      dup3\n        /* \"#utility.yul\":8702:8795   */\n      tag_116\n      jump\t// in\n    tag_235:\n        /* \"#utility.yul\":8820:8822   */\n      0x20\n        /* \"#utility.yul\":8815:8818   */\n      dup3\n        /* \"#utility.yul\":8811:8823   */\n      add\n        /* \"#utility.yul\":8804:8823   */\n      swap1\n      pop\n        /* \"#utility.yul\":8463:8829   */\n      swap2\n      swap1\n      pop\n      jump\t// out\n        /* \"#utility.yul\":8835:9254   */\n    tag_41:\n        /* \"#utility.yul\":9001:9005   */\n      0x00\n        /* \"#utility.yul\":9039:9041   */\n      0x20\n        /* \"#utility.yul\":9028:9037   */\n      dup3\n        /* \"#utility.yul\":9024:9042   */\n      add\n        /* \"#utility.yul\":9016:9042   */\n      swap1\n      pop\n        /* \"#utility.yul\":9088:9097   */\n      dup2\n        /* \"#utility.yul\":9082:9086   */\n      dup2\n        /* \"#utility.yul\":9078:9098   */\n      sub\n        /* \"#utility.yul\":9074:9075   */\n      0x00\n        /* \"#utility.yul\":9063:9072   */\n      dup4\n        /* \"#utility.yul\":9059:9076   */\n      add\n        /* \"#utility.yul\":9052:9099   */\n      mstore\n        /* \"#utility.yul\":9116:9247   */\n      tag_237\n        /* \"#utility.yul\":9242:9246   */\n      dup2\n        /* \"#utility.yul\":9116:9247   */\n      tag_117\n      jump\t// in\n    tag_237:\n        /* \"#utility.yul\":9108:9247   */\n      swap1\n      pop\n        /* \"#utility.yul\":8835:9254   */\n      swap2\n      swap1\n      pop\n      jump\t// out\n        /* \"#utility.yul\":9260:9482   */\n    tag_118:\n        /* \"#utility.yul\":9400:9434   */\n      0x4d69736d61746368656420757365727320616e642072657761726473206c656e\n        /* \"#utility.yul\":9396:9397   */\n      0x00\n        /* \"#utility.yul\":9388:9394   */\n      dup3\n        /* \"#utility.yul\":9384:9398   */\n      add\n        /* \"#utility.yul\":9377:9435   */\n      mstore\n        /* \"#utility.yul\":9469:9474   */\n      0x6774680000000000000000000000000000000000000000000000000000000000\n        /* \"#utility.yul\":9464:9466   */\n      0x20\n        /* \"#utility.yul\":9456:9462   */\n      dup3\n        /* \"#utility.yul\":9452:9467   */\n      add\n        /* \"#utility.yul\":9445:9475   */\n      mstore\n        /* \"#utility.yul\":9260:9482   */\n      pop\n      jump\t// out\n        /* \"#utility.yul\":9488:9854   */\n    tag_119:\n        /* \"#utility.yul\":9630:9633   */\n      0x00\n        /* \"#utility.yul\":9651:9718   */\n      tag_240\n        /* \"#utility.yul\":9715:9717   */\n      0x23\n        /* \"#utility.yul\":9710:9713   */\n      dup4\n        /* \"#utility.yul\":9651:9718   */\n      tag_115\n      jump\t// in\n    tag_240:\n        /* \"#utility.yul\":9644:9718   */\n      swap2\n      pop\n        /* \"#utility.yul\":9727:9820   */\n      tag_241\n        /* \"#utility.yul\":9816:9819   */\n      dup3\n        /* \"#utility.yul\":9727:9820   */\n      tag_118\n      jump\t// in\n    tag_241:\n        /* \"#utility.yul\":9845:9847   */\n      0x40\n        /* \"#utility.yul\":9840:9843   */\n      dup3\n        /* \"#utility.yul\":9836:9848   */\n      add\n        /* \"#utility.yul\":9829:9848   */\n      swap1\n      pop\n        /* \"#utility.yul\":9488:9854   */\n      swap2\n      swap1\n      pop\n      jump\t// out\n        /* \"#utility.yul\":9860:10279   */\n    tag_44:\n        /* \"#utility.yul\":10026:10030   */\n      0x00\n        /* \"#utility.yul\":10064:10066   */\n      0x20\n        /* \"#utility.yul\":10053:10062   */\n      dup3\n        /* \"#utility.yul\":10049:10067   */\n      add\n        /* \"#utility.yul\":10041:10067   */\n      swap1\n      pop\n        /* \"#utility.yul\":10113:10122   */\n      dup2\n        /* \"#utility.yul\":10107:10111   */\n      dup2\n        /* \"#utility.yul\":10103:10123   */\n      sub\n        /* \"#utility.yul\":10099:10100   */\n      0x00\n        /* \"#utility.yul\":10088:10097   */\n      dup4\n        /* \"#utility.yul\":10084:10101   */\n      add\n        /* \"#utility.yul\":10077:10124   */\n      mstore\n        /* \"#utility.yul\":10141:10272   */\n      tag_243\n        /* \"#utility.yul\":10267:10271   */\n      dup2\n        /* \"#utility.yul\":10141:10272   */\n      tag_119\n      jump\t// in\n    tag_243:\n        /* \"#utility.yul\":10133:10272   */\n      swap1\n      pop\n        /* \"#utility.yul\":9860:10279   */\n      swap2\n      swap1\n      pop\n      jump\t// out\n        /* \"#utility.yul\":10285:10465   */\n    tag_50:\n        /* \"#utility.yul\":10333:10410   */\n      0x4e487b7100000000000000000000000000000000000000000000000000000000\n        /* \"#utility.yul\":10330:10331   */\n      0x00\n        /* \"#utility.yul\":10323:10411   */\n      mstore\n        /* \"#utility.yul\":10430:10434   */\n      0x32\n        /* \"#utility.yul\":10427:10428   */\n      0x04\n        /* \"#utility.yul\":10420:10435   */\n      mstore\n        /* \"#utility.yul\":10454:10458   */\n      0x24\n        /* \"#utility.yul\":10451:10452   */\n      0x00\n        /* \"#utility.yul\":10444:10459   */\n      revert\n        /* \"#utility.yul\":10471:10651   */\n    tag_120:\n        /* \"#utility.yul\":10519:10596   */\n      0x4e487b7100000000000000000000000000000000000000000000000000000000\n        /* \"#utility.yul\":10516:10517   */\n      0x00\n        /* \"#utility.yul\":10509:10597   */\n      mstore\n        /* \"#utility.yul\":10616:10620   */\n      0x11\n        /* \"#utility.yul\":10613:10614   */\n      0x04\n        /* \"#utility.yul\":10606:10621   */\n      mstore\n        /* \"#utility.yul\":10640:10644   */\n      0x24\n        /* \"#utility.yul\":10637:10638   */\n      0x00\n        /* \"#utility.yul\":10630:10645   */\n      revert\n        /* \"#utility.yul\":10657:10851   */\n    tag_56:\n        /* \"#utility.yul\":10697:10701   */\n      0x00\n        /* \"#utility.yul\":10717:10737   */\n      tag_247\n        /* \"#utility.yul\":10735:10736   */\n      dup3\n        /* \"#utility.yul\":10717:10737   */\n      tag_105\n      jump\t// in\n    tag_247:\n        /* \"#utility.yul\":10712:10737   */\n      swap2\n      pop\n        /* \"#utility.yul\":10751:10771   */\n      tag_248\n        /* \"#utility.yul\":10769:10770   */\n      dup4\n        /* \"#utility.yul\":10751:10771   */\n      tag_105\n      jump\t// in\n    tag_248:\n        /* \"#utility.yul\":10746:10771   */\n      swap3\n      pop\n        /* \"#utility.yul\":10795:10796   */\n      dup3\n        /* \"#utility.yul\":10792:10793   */\n      dup3\n        /* \"#utility.yul\":10788:10797   */\n      sub\n        /* \"#utility.yul\":10780:10797   */\n      swap1\n      pop\n        /* \"#utility.yul\":10819:10820   */\n      dup2\n        /* \"#utility.yul\":10813:10817   */\n      dup2\n        /* \"#utility.yul\":10810:10821   */\n      gt\n        /* \"#utility.yul\":10807:10844   */\n      iszero\n      tag_249\n      jumpi\n        /* \"#utility.yul\":10824:10842   */\n      tag_250\n      tag_120\n      jump\t// in\n    tag_250:\n        /* \"#utility.yul\":10807:10844   */\n    tag_249:\n        /* \"#utility.yul\":10657:10851   */\n      swap3\n      swap2\n      pop\n      pop\n      jump\t// out\n        /* \"#utility.yul\":10857:10971   */\n    tag_121:\n        /* \"#utility.yul\":10924:10930   */\n      0x00\n        /* \"#utility.yul\":10958:10963   */\n      dup2\n        /* \"#utility.yul\":10952:10964   */\n      mload\n        /* \"#utility.yul\":10942:10964   */\n      swap1\n      pop\n        /* \"#utility.yul\":10857:10971   */\n      swap2\n      swap1\n      pop\n      jump\t// out\n        /* \"#utility.yul\":10977:11161   */\n    tag_122:\n        /* \"#utility.yul\":11076:11087   */\n      0x00\n        /* \"#utility.yul\":11110:11116   */\n      dup3\n        /* \"#utility.yul\":11105:11108   */\n      dup3\n        /* \"#utility.yul\":11098:11117   */\n      mstore\n        /* \"#utility.yul\":11150:11154   */\n      0x20\n        /* \"#utility.yul\":11145:11148   */\n      dup3\n        /* \"#utility.yul\":11141:11155   */\n      add\n        /* \"#utility.yul\":11126:11155   */\n      swap1\n      pop\n        /* \"#utility.yul\":10977:11161   */\n      swap3\n      swap2\n      pop\n      pop\n      jump\t// out\n        /* \"#utility.yul\":11167:11299   */\n    tag_123:\n        /* \"#utility.yul\":11234:11238   */\n      0x00\n        /* \"#utility.yul\":11257:11260   */\n      dup2\n        /* \"#utility.yul\":11249:11260   */\n      swap1\n      pop\n        /* \"#utility.yul\":11287:11291   */\n      0x20\n        /* \"#utility.yul\":11282:11285   */\n      dup3\n        /* \"#utility.yul\":11278:11292   */\n      add\n        /* \"#utility.yul\":11270:11292   */\n      swap1\n      pop\n        /* \"#utility.yul\":11167:11299   */\n      swap2\n      swap1\n      pop\n      jump\t// out\n        /* \"#utility.yul\":11305:11413   */\n    tag_124:\n        /* \"#utility.yul\":11382:11406   */\n      tag_255\n        /* \"#utility.yul\":11400:11405   */\n      dup2\n        /* \"#utility.yul\":11382:11406   */\n      tag_99\n      jump\t// in\n    tag_255:\n        /* \"#utility.yul\":11377:11380   */\n      dup3\n        /* \"#utility.yul\":11370:11407   */\n      mstore\n        /* \"#utility.yul\":11305:11413   */\n      pop\n      pop\n      jump\t// out\n        /* \"#utility.yul\":11419:11598   */\n    tag_125:\n        /* \"#utility.yul\":11488:11498   */\n      0x00\n        /* \"#utility.yul\":11509:11555   */\n      tag_257\n        /* \"#utility.yul\":11551:11554   */\n      dup4\n        /* \"#utility.yul\":11543:11549   */\n      dup4\n        /* \"#utility.yul\":11509:11555   */\n      tag_124\n      jump\t// in\n    tag_257:\n        /* \"#utility.yul\":11587:11591   */\n      0x20\n        /* \"#utility.yul\":11582:11585   */\n      dup4\n        /* \"#utility.yul\":11578:11592   */\n      add\n        /* \"#utility.yul\":11564:11592   */\n      swap1\n      pop\n        /* \"#utility.yul\":11419:11598   */\n      swap3\n      swap2\n      pop\n      pop\n      jump\t// out\n        /* \"#utility.yul\":11604:11717   */\n    tag_126:\n        /* \"#utility.yul\":11674:11678   */\n      0x00\n        /* \"#utility.yul\":11706:11710   */\n      0x20\n        /* \"#utility.yul\":11701:11704   */\n      dup3\n        /* \"#utility.yul\":11697:11711   */\n      add\n        /* \"#utility.yul\":11689:11711   */\n      swap1\n      pop\n        /* \"#utility.yul\":11604:11717   */\n      swap2\n      swap1\n      pop\n      jump\t// out\n        /* \"#utility.yul\":11753:12485   */\n    tag_127:\n        /* \"#utility.yul\":11872:11875   */\n      0x00\n        /* \"#utility.yul\":11901:11955   */\n      tag_260\n        /* \"#utility.yul\":11949:11954   */\n      dup3\n        /* \"#utility.yul\":11901:11955   */\n      tag_121\n      jump\t// in\n    tag_260:\n        /* \"#utility.yul\":11971:12057   */\n      tag_261\n        /* \"#utility.yul\":12050:12056   */\n      dup2\n        /* \"#utility.yul\":12045:12048   */\n      dup6\n        /* \"#utility.yul\":11971:12057   */\n      tag_122\n      jump\t// in\n    tag_261:\n        /* \"#utility.yul\":11964:12057   */\n      swap4\n      pop\n        /* \"#utility.yul\":12081:12137   */\n      tag_262\n        /* \"#utility.yul\":12131:12136   */\n      dup4\n        /* \"#utility.yul\":12081:12137   */\n      tag_123\n      jump\t// in\n    tag_262:\n        /* \"#utility.yul\":12160:12167   */\n      dup1\n        /* \"#utility.yul\":12191:12192   */\n      0x00\n        /* \"#utility.yul\":12176:12460   */\n    tag_263:\n        /* \"#utility.yul\":12201:12207   */\n      dup4\n        /* \"#utility.yul\":12198:12199   */\n      dup2\n        /* \"#utility.yul\":12195:12208   */\n      lt\n        /* \"#utility.yul\":12176:12460   */\n      iszero\n      tag_265\n      jumpi\n        /* \"#utility.yul\":12277:12283   */\n      dup2\n        /* \"#utility.yul\":12271:12284   */\n      mload\n        /* \"#utility.yul\":12304:12367   */\n      tag_266\n        /* \"#utility.yul\":12363:12366   */\n      dup9\n        /* \"#utility.yul\":12348:12361   */\n      dup3\n        /* \"#utility.yul\":12304:12367   */\n      tag_125\n      jump\t// in\n    tag_266:\n        /* \"#utility.yul\":12297:12367   */\n      swap8\n      pop\n        /* \"#utility.yul\":12390:12450   */\n      tag_267\n        /* \"#utility.yul\":12443:12449   */\n      dup4\n        /* \"#utility.yul\":12390:12450   */\n      tag_126\n      jump\t// in\n    tag_267:\n        /* \"#utility.yul\":12380:12450   */\n      swap3\n      pop\n        /* \"#utility.yul\":12236:12460   */\n      pop\n        /* \"#utility.yul\":12223:12224   */\n      0x01\n        /* \"#utility.yul\":12220:12221   */\n      dup2\n        /* \"#utility.yul\":12216:12225   */\n      add\n        /* \"#utility.yul\":12211:12225   */\n      swap1\n      pop\n        /* \"#utility.yul\":12176:12460   */\n      jump(tag_263)\n    tag_265:\n        /* \"#utility.yul\":12180:12194   */\n      pop\n        /* \"#utility.yul\":12476:12479   */\n      dup6\n        /* \"#utility.yul\":12469:12479   */\n      swap4\n      pop\n        /* \"#utility.yul\":11877:12485   */\n      pop\n      pop\n      pop\n        /* \"#utility.yul\":11753:12485   */\n      swap3\n      swap2\n      pop\n      pop\n      jump\t// out\n        /* \"#utility.yul\":12491:12605   */\n    tag_128:\n        /* \"#utility.yul\":12558:12564   */\n      0x00\n        /* \"#utility.yul\":12592:12597   */\n      dup2\n        /* \"#utility.yul\":12586:12598   */\n      mload\n        /* \"#utility.yul\":12576:12598   */\n      swap1\n      pop\n        /* \"#utility.yul\":12491:12605   */\n      swap2\n      swap1\n      pop\n      jump\t// out\n        /* \"#utility.yul\":12611:12795   */\n    tag_129:\n        /* \"#utility.yul\":12710:12721   */\n      0x00\n        /* \"#utility.yul\":12744:12750   */\n      dup3\n        /* \"#utility.yul\":12739:12742   */\n      dup3\n        /* \"#utility.yul\":12732:12751   */\n      mstore\n        /* \"#utility.yul\":12784:12788   */\n      0x20\n        /* \"#utility.yul\":12779:12782   */\n      dup3\n        /* \"#utility.yul\":12775:12789   */\n      add\n        /* \"#utility.yul\":12760:12789   */\n      swap1\n      pop\n        /* \"#utility.yul\":12611:12795   */\n      swap3\n      swap2\n      pop\n      pop\n      jump\t// out\n        /* \"#utility.yul\":12801:12933   */\n    tag_130:\n        /* \"#utility.yul\":12868:12872   */\n      0x00\n        /* \"#utility.yul\":12891:12894   */\n      dup2\n        /* \"#utility.yul\":12883:12894   */\n      swap1\n      pop\n        /* \"#utility.yul\":12921:12925   */\n      0x20\n        /* \"#utility.yul\":12916:12919   */\n      dup3\n        /* \"#utility.yul\":12912:12926   */\n      add\n        /* \"#utility.yul\":12904:12926   */\n      swap1\n      pop\n        /* \"#utility.yul\":12801:12933   */\n      swap2\n      swap1\n      pop\n      jump\t// out\n        /* \"#utility.yul\":12939:13047   */\n    tag_131:\n        /* \"#utility.yul\":13016:13040   */\n      tag_272\n        /* \"#utility.yul\":13034:13039   */\n      dup2\n        /* \"#utility.yul\":13016:13040   */\n      tag_105\n      jump\t// in\n    tag_272:\n        /* \"#utility.yul\":13011:13014   */\n      dup3\n        /* \"#utility.yul\":13004:13041   */\n      mstore\n        /* \"#utility.yul\":12939:13047   */\n      pop\n      pop\n      jump\t// out\n        /* \"#utility.yul\":13053:13232   */\n    tag_132:\n        /* \"#utility.yul\":13122:13132   */\n      0x00\n        /* \"#utility.yul\":13143:13189   */\n      tag_274\n        /* \"#utility.yul\":13185:13188   */\n      dup4\n        /* \"#utility.yul\":13177:13183   */\n      dup4\n        /* \"#utility.yul\":13143:13189   */\n      tag_131\n      jump\t// in\n    tag_274:\n        /* \"#utility.yul\":13221:13225   */\n      0x20\n        /* \"#utility.yul\":13216:13219   */\n      dup4\n        /* \"#utility.yul\":13212:13226   */\n      add\n        /* \"#utility.yul\":13198:13226   */\n      swap1\n      pop\n        /* \"#utility.yul\":13053:13232   */\n      swap3\n      swap2\n      pop\n      pop\n      jump\t// out\n        /* \"#utility.yul\":13238:13351   */\n    tag_133:\n        /* \"#utility.yul\":13308:13312   */\n      0x00\n        /* \"#utility.yul\":13340:13344   */\n      0x20\n        /* \"#utility.yul\":13335:13338   */\n      dup3\n        /* \"#utility.yul\":13331:13345   */\n      add\n        /* \"#utility.yul\":13323:13345   */\n      swap1\n      pop\n        /* \"#utility.yul\":13238:13351   */\n      swap2\n      swap1\n      pop\n      jump\t// out\n        /* \"#utility.yul\":13387:14119   */\n    tag_134:\n        /* \"#utility.yul\":13506:13509   */\n      0x00\n        /* \"#utility.yul\":13535:13589   */\n      tag_277\n        /* \"#utility.yul\":13583:13588   */\n      dup3\n        /* \"#utility.yul\":13535:13589   */\n      tag_128\n      jump\t// in\n    tag_277:\n        /* \"#utility.yul\":13605:13691   */\n      tag_278\n        /* \"#utility.yul\":13684:13690   */\n      dup2\n        /* \"#utility.yul\":13679:13682   */\n      dup6\n        /* \"#utility.yul\":13605:13691   */\n      tag_129\n      jump\t// in\n    tag_278:\n        /* \"#utility.yul\":13598:13691   */\n      swap4\n      pop\n        /* \"#utility.yul\":13715:13771   */\n      tag_279\n        /* \"#utility.yul\":13765:13770   */\n      dup4\n        /* \"#utility.yul\":13715:13771   */\n      tag_130\n      jump\t// in\n    tag_279:\n        /* \"#utility.yul\":13794:13801   */\n      dup1\n        /* \"#utility.yul\":13825:13826   */\n      0x00\n        /* \"#utility.yul\":13810:14094   */\n    tag_280:\n        /* \"#utility.yul\":13835:13841   */\n      dup4\n        /* \"#utility.yul\":13832:13833   */\n      dup2\n        /* \"#utility.yul\":13829:13842   */\n      lt\n        /* \"#utility.yul\":13810:14094   */\n      iszero\n      tag_282\n      jumpi\n        /* \"#utility.yul\":13911:13917   */\n      dup2\n        /* \"#utility.yul\":13905:13918   */\n      mload\n        /* \"#utility.yul\":13938:14001   */\n      tag_283\n        /* \"#utility.yul\":13997:14000   */\n      dup9\n        /* \"#utility.yul\":13982:13995   */\n      dup3\n        /* \"#utility.yul\":13938:14001   */\n      tag_132\n      jump\t// in\n    tag_283:\n        /* \"#utility.yul\":13931:14001   */\n      swap8\n      pop\n        /* \"#utility.yul\":14024:14084   */\n      tag_284\n        /* \"#utility.yul\":14077:14083   */\n      dup4\n        /* \"#utility.yul\":14024:14084   */\n      tag_133\n      jump\t// in\n    tag_284:\n        /* \"#utility.yul\":14014:14084   */\n      swap3\n      pop\n        /* \"#utility.yul\":13870:14094   */\n      pop\n        /* \"#utility.yul\":13857:13858   */\n      0x01\n        /* \"#utility.yul\":13854:13855   */\n      dup2\n        /* \"#utility.yul\":13850:13859   */\n      add\n        /* \"#utility.yul\":13845:13859   */\n      swap1\n      pop\n        /* \"#utility.yul\":13810:14094   */\n      jump(tag_280)\n    tag_282:\n        /* \"#utility.yul\":13814:13828   */\n      pop\n        /* \"#utility.yul\":14110:14113   */\n      dup6\n        /* \"#utility.yul\":14103:14113   */\n      swap4\n      pop\n        /* \"#utility.yul\":13511:14119   */\n      pop\n      pop\n      pop\n        /* \"#utility.yul\":13387:14119   */\n      swap3\n      swap2\n      pop\n      pop\n      jump\t// out\n        /* \"#utility.yul\":14125:14759   */\n    tag_58:\n        /* \"#utility.yul\":14346:14350   */\n      0x00\n        /* \"#utility.yul\":14384:14386   */\n      0x40\n        /* \"#utility.yul\":14373:14382   */\n      dup3\n        /* \"#utility.yul\":14369:14387   */\n      add\n        /* \"#utility.yul\":14361:14387   */\n      swap1\n      pop\n        /* \"#utility.yul\":14433:14442   */\n      dup2\n        /* \"#utility.yul\":14427:14431   */\n      dup2\n        /* \"#utility.yul\":14423:14443   */\n      sub\n        /* \"#utility.yul\":14419:14420   */\n      0x00\n        /* \"#utility.yul\":14408:14417   */\n      dup4\n        /* \"#utility.yul\":14404:14421   */\n      add\n        /* \"#utility.yul\":14397:14444   */\n      mstore\n        /* \"#utility.yul\":14461:14569   */\n      tag_286\n        /* \"#utility.yul\":14564:14568   */\n      dup2\n        /* \"#utility.yul\":14555:14561   */\n      dup6\n        /* \"#utility.yul\":14461:14569   */\n      tag_127\n      jump\t// in\n    tag_286:\n        /* \"#utility.yul\":14453:14569   */\n      swap1\n      pop\n        /* \"#utility.yul\":14616:14625   */\n      dup2\n        /* \"#utility.yul\":14610:14614   */\n      dup2\n        /* \"#utility.yul\":14606:14626   */\n      sub\n        /* \"#utility.yul\":14601:14603   */\n      0x20\n        /* \"#utility.yul\":14590:14599   */\n      dup4\n        /* \"#utility.yul\":14586:14604   */\n      add\n        /* \"#utility.yul\":14579:14627   */\n      mstore\n        /* \"#utility.yul\":14644:14752   */\n      tag_287\n        /* \"#utility.yul\":14747:14751   */\n      dup2\n        /* \"#utility.yul\":14738:14744   */\n      dup5\n        /* \"#utility.yul\":14644:14752   */\n      tag_134\n      jump\t// in\n    tag_287:\n        /* \"#utility.yul\":14636:14752   */\n      swap1\n      pop\n        /* \"#utility.yul\":14125:14759   */\n      swap4\n      swap3\n      pop\n      pop\n      pop\n      jump\t// out\n        /* \"#utility.yul\":14765:15175   */\n    tag_62:\n        /* \"#utility.yul\":14805:14812   */\n      0x00\n        /* \"#utility.yul\":14828:14848   */\n      tag_289\n        /* \"#utility.yul\":14846:14847   */\n      dup3\n        /* \"#utility.yul\":14828:14848   */\n      tag_105\n      jump\t// in\n    tag_289:\n        /* \"#utility.yul\":14823:14848   */\n      swap2\n      pop\n        /* \"#utility.yul\":14862:14882   */\n      tag_290\n        /* \"#utility.yul\":14880:14881   */\n      dup4\n        /* \"#utility.yul\":14862:14882   */\n      tag_105\n      jump\t// in\n    tag_290:\n        /* \"#utility.yul\":14857:14882   */\n      swap3\n      pop\n        /* \"#utility.yul\":14917:14918   */\n      dup3\n        /* \"#utility.yul\":14914:14915   */\n      dup3\n        /* \"#utility.yul\":14910:14919   */\n      mul\n        /* \"#utility.yul\":14939:14969   */\n      tag_291\n        /* \"#utility.yul\":14957:14968   */\n      dup2\n        /* \"#utility.yul\":14939:14969   */\n      tag_105\n      jump\t// in\n    tag_291:\n        /* \"#utility.yul\":14928:14969   */\n      swap2\n      pop\n        /* \"#utility.yul\":15118:15119   */\n      dup3\n        /* \"#utility.yul\":15109:15116   */\n      dup3\n        /* \"#utility.yul\":15105:15120   */\n      div\n        /* \"#utility.yul\":15102:15103   */\n      dup5\n        /* \"#utility.yul\":15099:15121   */\n      eq\n        /* \"#utility.yul\":15079:15080   */\n      dup4\n        /* \"#utility.yul\":15072:15081   */\n      iszero\n        /* \"#utility.yul\":15052:15135   */\n      or\n        /* \"#utility.yul\":15029:15168   */\n      tag_292\n      jumpi\n        /* \"#utility.yul\":15148:15166   */\n      tag_293\n      tag_120\n      jump\t// in\n    tag_293:\n        /* \"#utility.yul\":15029:15168   */\n    tag_292:\n        /* \"#utility.yul\":14813:15175   */\n      pop\n        /* \"#utility.yul\":14765:15175   */\n      swap3\n      swap2\n      pop\n      pop\n      jump\t// out\n        /* \"#utility.yul\":15181:15361   */\n    tag_135:\n        /* \"#utility.yul\":15229:15306   */\n      0x4e487b7100000000000000000000000000000000000000000000000000000000\n        /* \"#utility.yul\":15226:15227   */\n      0x00\n        /* \"#utility.yul\":15219:15307   */\n      mstore\n        /* \"#utility.yul\":15326:15330   */\n      0x12\n        /* \"#utility.yul\":15323:15324   */\n      0x04\n        /* \"#utility.yul\":15316:15331   */\n      mstore\n        /* \"#utility.yul\":15350:15354   */\n      0x24\n        /* \"#utility.yul\":15347:15348   */\n      0x00\n        /* \"#utility.yul\":15340:15355   */\n      revert\n        /* \"#utility.yul\":15367:15552   */\n    tag_64:\n        /* \"#utility.yul\":15407:15408   */\n      0x00\n        /* \"#utility.yul\":15424:15444   */\n      tag_296\n        /* \"#utility.yul\":15442:15443   */\n      dup3\n        /* \"#utility.yul\":15424:15444   */\n      tag_105\n      jump\t// in\n    tag_296:\n        /* \"#utility.yul\":15419:15444   */\n      swap2\n      pop\n        /* \"#utility.yul\":15458:15478   */\n      tag_297\n        /* \"#utility.yul\":15476:15477   */\n      dup4\n        /* \"#utility.yul\":15458:15478   */\n      tag_105\n      jump\t// in\n    tag_297:\n        /* \"#utility.yul\":15453:15478   */\n      swap3\n      pop\n        /* \"#utility.yul\":15497:15498   */\n      dup3\n        /* \"#utility.yul\":15487:15522   */\n      tag_298\n      jumpi\n        /* \"#utility.yul\":15502:15520   */\n      tag_299\n      tag_135\n      jump\t// in\n    tag_299:\n        /* \"#utility.yul\":15487:15522   */\n    tag_298:\n        /* \"#utility.yul\":15544:15545   */\n      dup3\n        /* \"#utility.yul\":15541:15542   */\n      dup3\n        /* \"#utility.yul\":15537:15546   */\n      div\n        /* \"#utility.yul\":15532:15546   */\n      swap1\n      pop\n        /* \"#utility.yul\":15367:15552   */\n      swap3\n      swap2\n      pop\n      pop\n      jump\t// out\n        /* \"#utility.yul\":15558:15749   */\n    tag_74:\n        /* \"#utility.yul\":15598:15601   */\n      0x00\n        /* \"#utility.yul\":15617:15637   */\n      tag_301\n        /* \"#utility.yul\":15635:15636   */\n      dup3\n        /* \"#utility.yul\":15617:15637   */\n      tag_105\n      jump\t// in\n    tag_301:\n        /* \"#utility.yul\":15612:15637   */\n      swap2\n      pop\n        /* \"#utility.yul\":15651:15671   */\n      tag_302\n        /* \"#utility.yul\":15669:15670   */\n      dup4\n        /* \"#utility.yul\":15651:15671   */\n      tag_105\n      jump\t// in\n    tag_302:\n        /* \"#utility.yul\":15646:15671   */\n      swap3\n      pop\n        /* \"#utility.yul\":15694:15695   */\n      dup3\n        /* \"#utility.yul\":15691:15692   */\n      dup3\n        /* \"#utility.yul\":15687:15696   */\n      add\n        /* \"#utility.yul\":15680:15696   */\n      swap1\n      pop\n        /* \"#utility.yul\":15715:15718   */\n      dup1\n        /* \"#utility.yul\":15712:15713   */\n      dup3\n        /* \"#utility.yul\":15709:15719   */\n      gt\n        /* \"#utility.yul\":15706:15742   */\n      iszero\n      tag_303\n      jumpi\n        /* \"#utility.yul\":15722:15740   */\n      tag_304\n      tag_120\n      jump\t// in\n    tag_304:\n        /* \"#utility.yul\":15706:15742   */\n    tag_303:\n        /* \"#utility.yul\":15558:15749   */\n      swap3\n      swap2\n      pop\n      pop\n      jump\t// out\n        /* \"#utility.yul\":15755:16308   */\n    tag_76:\n        /* \"#utility.yul\":15932:15936   */\n      0x00\n        /* \"#utility.yul\":15970:15973   */\n      0x80\n        /* \"#utility.yul\":15959:15968   */\n      dup3\n        /* \"#utility.yul\":15955:15974   */\n      add\n        /* \"#utility.yul\":15947:15974   */\n      swap1\n      pop\n        /* \"#utility.yul\":15984:16055   */\n      tag_306\n        /* \"#utility.yul\":16052:16053   */\n      0x00\n        /* \"#utility.yul\":16041:16050   */\n      dup4\n        /* \"#utility.yul\":16037:16054   */\n      add\n        /* \"#utility.yul\":16028:16034   */\n      dup8\n        /* \"#utility.yul\":15984:16055   */\n      tag_111\n      jump\t// in\n    tag_306:\n        /* \"#utility.yul\":16065:16137   */\n      tag_307\n        /* \"#utility.yul\":16133:16135   */\n      0x20\n        /* \"#utility.yul\":16122:16131   */\n      dup4\n        /* \"#utility.yul\":16118:16136   */\n      add\n        /* \"#utility.yul\":16109:16115   */\n      dup7\n        /* \"#utility.yul\":16065:16137   */\n      tag_111\n      jump\t// in\n    tag_307:\n        /* \"#utility.yul\":16147:16219   */\n      tag_308\n        /* \"#utility.yul\":16215:16217   */\n      0x40\n        /* \"#utility.yul\":16204:16213   */\n      dup4\n        /* \"#utility.yul\":16200:16218   */\n      add\n        /* \"#utility.yul\":16191:16197   */\n      dup6\n        /* \"#utility.yul\":16147:16219   */\n      tag_111\n      jump\t// in\n    tag_308:\n        /* \"#utility.yul\":16229:16301   */\n      tag_309\n        /* \"#utility.yul\":16297:16299   */\n      0x60\n        /* \"#utility.yul\":16286:16295   */\n      dup4\n        /* \"#utility.yul\":16282:16300   */\n      add\n        /* \"#utility.yul\":16273:16279   */\n      dup5\n        /* \"#utility.yul\":16229:16301   */\n      tag_111\n      jump\t// in\n    tag_309:\n        /* \"#utility.yul\":15755:16308   */\n      swap6\n      swap5\n      pop\n      pop\n      pop\n      pop\n      pop\n      jump\t// out\n\n    auxdata: 0xa2646970667358221220b7d859381f1867ad9d586fbca17e7f92c2576e939436c4a3782c093c37c0fb2564736f6c634300081a0033\n}\n",
				"bytecode": {
					"linkReferences": {},
					"object": "608060405266b1a2bc2ec5000060035534801561001a575f80fd5b50604051610f50380380610f50833981810160405281019061003c9190610120565b815f806101000a81548173ffffffffffffffffffffffffffffffffffffffff021916908373ffffffffffffffffffffffffffffffffffffffff1602179055508060015f6101000a81548173ffffffffffffffffffffffffffffffffffffffff021916908373ffffffffffffffffffffffffffffffffffffffff160217905550505061015e565b5f80fd5b5f73ffffffffffffffffffffffffffffffffffffffff82169050919050565b5f6100ef826100c6565b9050919050565b6100ff816100e5565b8114610109575f80fd5b50565b5f8151905061011a816100f6565b92915050565b5f8060408385031215610136576101356100c2565b5b5f6101438582860161010c565b92505060206101548582860161010c565b9150509250929050565b610de58061016b5f395ff3fe608060405234801561000f575f80fd5b506004361061007b575f3560e01c806366666aa91161005957806366666aa9146100d75780637cc2a0a7146100f5578063dc03d93214610111578063ffe9573a146101415761007b565b8063143ba4f31461007f57806336b19cd71461009b57806342cde4e8146100b9575b5f80fd5b610099600480360381019061009491906107db565b61015f565b005b6100a36102d2565b6040516100b09190610860565b60405180910390f35b6100c16102f5565b6040516100ce9190610888565b60405180910390f35b6100df6102fb565b6040516100ec9190610888565b60405180910390f35b61010f600480360381019061010a91906108d7565b610301565b005b61012b60048036038101906101269190610927565b61048d565b6040516101389190610888565b60405180910390f35b610149610508565b6040516101569190610860565b60405180910390f35b60035460025410156101a6576040517f08c379a000000000000000000000000000000000000000000000000000000000815260040161019d906109bf565b60405180910390fd5b80518251146101ea576040517f08c379a00000000000000000000000000000000000000000000000000000000081526004016101e190610a4d565b60405180910390fd5b5f5b825181101561027a5782818151811061020857610207610a6b565b5b602002602001015173ffffffffffffffffffffffffffffffffffffffff166108fc83838151811061023c5761023b610a6b565b5b602002602001015190811502906040515f60405180830381858888f1935050505015801561026c573d5f803e3d5ffd5b5080806001019150506101ec565b5060035460025f82825461028e9190610ac5565b925050819055507fe69d325558610ba73c441901deb46d7f251108348dc5dc9447e8866774c12edc82826040516102c6929190610c66565b60405180910390a15050565b5f8054906101000a900473ffffffffffffffffffffffffffffffffffffffff1681565b60035481565b60025481565b5f61030c838361048d565b90505f6103e86101db836103209190610c9b565b61032a9190610d09565b90505f6103e86101db8461033e9190610c9b565b6103489190610d09565b90505f6103e860328561035b9190610c9b565b6103659190610d09565b90505f8054906101000a900473ffffffffffffffffffffffffffffffffffffffff1673ffffffffffffffffffffffffffffffffffffffff166108fc8490811502906040515f60405180830381858888f193505050501580156103c9573d5f803e3d5ffd5b5060015f9054906101000a900473ffffffffffffffffffffffffffffffffffffffff1673ffffffffffffffffffffffffffffffffffffffff166108fc8390811502906040515f60405180830381858888f1935050505015801561042e573d5f803e3d5ffd5b508060025f8282546104409190610d39565b925050819055507f78490b24a020086d2701460dc169a540280c517bef9cdcd742f751a9099922a38784848460405161047c9493929190610d6c565b60405180910390a150505050505050565b5f8060018360ff16036104a357600190506104e7565b60028360ff16036104b757600290506104e6565b60038360ff16036104cb57600390506104e5565b60048360ff16036104df57600490506104e4565b600590505b5b5b5b606481856104f59190610c9b565b6104ff9190610d09565b91505092915050565b60015f9054906101000a900473ffffffffffffffffffffffffffffffffffffffff1681565b5f604051905090565b5f80fd5b5f80fd5b5f80fd5b5f601f19601f8301169050919050565b7f4e487b71000000000000000000000000000000000000000000000000000000005f52604160045260245ffd5b61058882610542565b810181811067ffffffffffffffff821117156105a7576105a6610552565b5b80604052505050565b5f6105b961052d565b90506105c5828261057f565b919050565b5f67ffffffffffffffff8211156105e4576105e3610552565b5b602082029050602081019050919050565b5f80fd5b5f73ffffffffffffffffffffffffffffffffffffffff82169050919050565b5f610622826105f9565b9050919050565b61063281610618565b811461063c575f80fd5b50565b5f8135905061064d81610629565b92915050565b5f610665610660846105ca565b6105b0565b90508083825260208201905060208402830185811115610688576106876105f5565b5b835b818110156106b1578061069d888261063f565b84526020840193505060208101905061068a565b5050509392505050565b5f82601f8301126106cf576106ce61053e565b5b81356106df848260208601610653565b91505092915050565b5f67ffffffffffffffff82111561070257610701610552565b5b602082029050602081019050919050565b5f819050919050565b61072581610713565b811461072f575f80fd5b50565b5f813590506107408161071c565b92915050565b5f610758610753846106e8565b6105b0565b9050808382526020820190506020840283018581111561077b5761077a6105f5565b5b835b818110156107a457806107908882610732565b84526020840193505060208101905061077d565b5050509392505050565b5f82601f8301126107c2576107c161053e565b5b81356107d2848260208601610746565b91505092915050565b5f80604083850312156107f1576107f0610536565b5b5f83013567ffffffffffffffff81111561080e5761080d61053a565b5b61081a858286016106bb565b925050602083013567ffffffffffffffff81111561083b5761083a61053a565b5b610847858286016107ae565b9150509250929050565b61085a81610618565b82525050565b5f6020820190506108735f830184610851565b92915050565b61088281610713565b82525050565b5f60208201905061089b5f830184610879565b92915050565b5f60ff82169050919050565b6108b6816108a1565b81146108c0575f80fd5b50565b5f813590506108d1816108ad565b92915050565b5f805f606084860312156108ee576108ed610536565b5b5f6108fb86828701610732565b935050602061090c86828701610732565b925050604061091d868287016108c3565b9150509250925092565b5f806040838503121561093d5761093c610536565b5b5f61094a85828601610732565b925050602061095b858286016108c3565b9150509250929050565b5f82825260208201905092915050565b7f52657761726420706f6f6c207468726573686f6c64206e6f74206d65740000005f82015250565b5f6109a9601d83610965565b91506109b482610975565b602082019050919050565b5f6020820190508181035f8301526109d68161099d565b9050919050565b7f4d69736d61746368656420757365727320616e642072657761726473206c656e5f8201527f6774680000000000000000000000000000000000000000000000000000000000602082015250565b5f610a37602383610965565b9150610a42826109dd565b604082019050919050565b5f6020820190508181035f830152610a6481610a2b565b9050919050565b7f4e487b71000000000000000000000000000000000000000000000000000000005f52603260045260245ffd5b7f4e487b71000000000000000000000000000000000000000000000000000000005f52601160045260245ffd5b5f610acf82610713565b9150610ada83610713565b9250828203905081811115610af257610af1610a98565b5b92915050565b5f81519050919050565b5f82825260208201905092915050565b5f819050602082019050919050565b610b2a81610618565b82525050565b5f610b3b8383610b21565b60208301905092915050565b5f602082019050919050565b5f610b5d82610af8565b610b678185610b02565b9350610b7283610b12565b805f5b83811015610ba2578151610b898882610b30565b9750610b9483610b47565b925050600181019050610b75565b5085935050505092915050565b5f81519050919050565b5f82825260208201905092915050565b5f819050602082019050919050565b610be181610713565b82525050565b5f610bf28383610bd8565b60208301905092915050565b5f602082019050919050565b5f610c1482610baf565b610c1e8185610bb9565b9350610c2983610bc9565b805f5b83811015610c59578151610c408882610be7565b9750610c4b83610bfe565b925050600181019050610c2c565b5085935050505092915050565b5f6040820190508181035f830152610c7e8185610b53565b90508181036020830152610c928184610c0a565b90509392505050565b5f610ca582610713565b9150610cb083610713565b9250828202610cbe81610713565b91508282048414831517610cd557610cd4610a98565b5b5092915050565b7f4e487b71000000000000000000000000000000000000000000000000000000005f52601260045260245ffd5b5f610d1382610713565b9150610d1e83610713565b925082610d2e57610d2d610cdc565b5b828204905092915050565b5f610d4382610713565b9150610d4e83610713565b9250828201905080821115610d6657610d65610a98565b5b92915050565b5f608082019050610d7f5f830187610879565b610d8c6020830186610879565b610d996040830185610879565b610da66060830184610879565b9594505050505056fea2646970667358221220b7d859381f1867ad9d586fbca17e7f92c2576e939436c4a3782c093c37c0fb2564736f6c634300081a0033",
					"opcodes": "PUSH1 0x80 PUSH1 0x40 MSTORE PUSH7 0xB1A2BC2EC50000 PUSH1 0x3 SSTORE CALLVALUE DUP1 ISZERO PUSH2 0x1A JUMPI PUSH0 DUP1 REVERT JUMPDEST POP PUSH1 0x40 MLOAD PUSH2 0xF50 CODESIZE SUB DUP1 PUSH2 0xF50 DUP4 CODECOPY DUP2 DUP2 ADD PUSH1 0x40 MSTORE DUP2 ADD SWAP1 PUSH2 0x3C SWAP2 SWAP1 PUSH2 0x120 JUMP JUMPDEST DUP2 PUSH0 DUP1 PUSH2 0x100 EXP DUP2 SLOAD DUP2 PUSH20 0xFFFFFFFFFFFFFFFFFFFFFFFFFFFFFFFFFFFFFFFF MUL NOT AND SWAP1 DUP4 PUSH20 0xFFFFFFFFFFFFFFFFFFFFFFFFFFFFFFFFFFFFFFFF AND MUL OR SWAP1 SSTORE POP DUP1 PUSH1 0x1 PUSH0 PUSH2 0x100 EXP DUP2 SLOAD DUP2 PUSH20 0xFFFFFFFFFFFFFFFFFFFFFFFFFFFFFFFFFFFFFFFF MUL NOT AND SWAP1 DUP4 PUSH20 0xFFFFFFFFFFFFFFFFFFFFFFFFFFFFFFFFFFFFFFFF AND MUL OR SWAP1 SSTORE POP POP POP PUSH2 0x15E JUMP JUMPDEST PUSH0 DUP1 REVERT JUMPDEST PUSH0 PUSH20 0xFFFFFFFFFFFFFFFFFFFFFFFFFFFFFFFFFFFFFFFF DUP3 AND SWAP1 POP SWAP2 SWAP1 POP JUMP JUMPDEST PUSH0 PUSH2 0xEF DUP3 PUSH2 0xC6 JUMP JUMPDEST SWAP1 POP SWAP2 SWAP1 POP JUMP JUMPDEST PUSH2 0xFF DUP2 PUSH2 0xE5 JUMP JUMPDEST DUP2 EQ PUSH2 0x109 JUMPI PUSH0 DUP1 REVERT JUMPDEST POP JUMP JUMPDEST PUSH0 DUP2 MLOAD SWAP1 POP PUSH2 0x11A DUP2 PUSH2 0xF6 JUMP JUMPDEST SWAP3 SWAP2 POP POP JUMP JUMPDEST PUSH0 DUP1 PUSH1 0x40 DUP4 DUP6 SUB SLT ISZERO PUSH2 0x136 JUMPI PUSH2 0x135 PUSH2 0xC2 JUMP JUMPDEST JUMPDEST PUSH0 PUSH2 0x143 DUP6 DUP3 DUP7 ADD PUSH2 0x10C JUMP JUMPDEST SWAP3 POP POP PUSH1 0x20 PUSH2 0x154 DUP6 DUP3 DUP7 ADD PUSH2 0x10C JUMP JUMPDEST SWAP2 POP POP SWAP3 POP SWAP3 SWAP1 POP JUMP JUMPDEST PUSH2 0xDE5 DUP1 PUSH2 0x16B PUSH0 CODECOPY PUSH0 RETURN INVALID PUSH1 0x80 PUSH1 0x40 MSTORE CALLVALUE DUP1 ISZERO PUSH2 0xF JUMPI PUSH0 DUP1 REVERT JUMPDEST POP PUSH1 0x4 CALLDATASIZE LT PUSH2 0x7B JUMPI PUSH0 CALLDATALOAD PUSH1 0xE0 SHR DUP1 PUSH4 0x66666AA9 GT PUSH2 0x59 JUMPI DUP1 PUSH4 0x66666AA9 EQ PUSH2 0xD7 JUMPI DUP1 PUSH4 0x7CC2A0A7 EQ PUSH2 0xF5 JUMPI DUP1 PUSH4 0xDC03D932 EQ PUSH2 0x111 JUMPI DUP1 PUSH4 0xFFE9573A EQ PUSH2 0x141 JUMPI PUSH2 0x7B JUMP JUMPDEST DUP1 PUSH4 0x143BA4F3 EQ PUSH2 0x7F JUMPI DUP1 PUSH4 0x36B19CD7 EQ PUSH2 0x9B JUMPI DUP1 PUSH4 0x42CDE4E8 EQ PUSH2 0xB9 JUMPI JUMPDEST PUSH0 DUP1 REVERT JUMPDEST PUSH2 0x99 PUSH1 0x4 DUP1 CALLDATASIZE SUB DUP2 ADD SWAP1 PUSH2 0x94 SWAP2 SWAP1 PUSH2 0x7DB JUMP JUMPDEST PUSH2 0x15F JUMP JUMPDEST STOP JUMPDEST PUSH2 0xA3 PUSH2 0x2D2 JUMP JUMPDEST PUSH1 0x40 MLOAD PUSH2 0xB0 SWAP2 SWAP1 PUSH2 0x860 JUMP JUMPDEST PUSH1 0x40 MLOAD DUP1 SWAP2 SUB SWAP1 RETURN JUMPDEST PUSH2 0xC1 PUSH2 0x2F5 JUMP JUMPDEST PUSH1 0x40 MLOAD PUSH2 0xCE SWAP2 SWAP1 PUSH2 0x888 JUMP JUMPDEST PUSH1 0x40 MLOAD DUP1 SWAP2 SUB SWAP1 RETURN JUMPDEST PUSH2 0xDF PUSH2 0x2FB JUMP JUMPDEST PUSH1 0x40 MLOAD PUSH2 0xEC SWAP2 SWAP1 PUSH2 0x888 JUMP JUMPDEST PUSH1 0x40 MLOAD DUP1 SWAP2 SUB SWAP1 RETURN JUMPDEST PUSH2 0x10F PUSH1 0x4 DUP1 CALLDATASIZE SUB DUP2 ADD SWAP1 PUSH2 0x10A SWAP2 SWAP1 PUSH2 0x8D7 JUMP JUMPDEST PUSH2 0x301 JUMP JUMPDEST STOP JUMPDEST PUSH2 0x12B PUSH1 0x4 DUP1 CALLDATASIZE SUB DUP2 ADD SWAP1 PUSH2 0x126 SWAP2 SWAP1 PUSH2 0x927 JUMP JUMPDEST PUSH2 0x48D JUMP JUMPDEST PUSH1 0x40 MLOAD PUSH2 0x138 SWAP2 SWAP1 PUSH2 0x888 JUMP JUMPDEST PUSH1 0x40 MLOAD DUP1 SWAP2 SUB SWAP1 RETURN JUMPDEST PUSH2 0x149 PUSH2 0x508 JUMP JUMPDEST PUSH1 0x40 MLOAD PUSH2 0x156 SWAP2 SWAP1 PUSH2 0x860 JUMP JUMPDEST PUSH1 0x40 MLOAD DUP1 SWAP2 SUB SWAP1 RETURN JUMPDEST PUSH1 0x3 SLOAD PUSH1 0x2 SLOAD LT ISZERO PUSH2 0x1A6 JUMPI PUSH1 0x40 MLOAD PUSH32 0x8C379A000000000000000000000000000000000000000000000000000000000 DUP2 MSTORE PUSH1 0x4 ADD PUSH2 0x19D SWAP1 PUSH2 0x9BF JUMP JUMPDEST PUSH1 0x40 MLOAD DUP1 SWAP2 SUB SWAP1 REVERT JUMPDEST DUP1 MLOAD DUP3 MLOAD EQ PUSH2 0x1EA JUMPI PUSH1 0x40 MLOAD PUSH32 0x8C379A000000000000000000000000000000000000000000000000000000000 DUP2 MSTORE PUSH1 0x4 ADD PUSH2 0x1E1 SWAP1 PUSH2 0xA4D JUMP JUMPDEST PUSH1 0x40 MLOAD DUP1 SWAP2 SUB SWAP1 REVERT JUMPDEST PUSH0 JUMPDEST DUP3 MLOAD DUP2 LT ISZERO PUSH2 0x27A JUMPI DUP3 DUP2 DUP2 MLOAD DUP2 LT PUSH2 0x208 JUMPI PUSH2 0x207 PUSH2 0xA6B JUMP JUMPDEST JUMPDEST PUSH1 0x20 MUL PUSH1 0x20 ADD ADD MLOAD PUSH20 0xFFFFFFFFFFFFFFFFFFFFFFFFFFFFFFFFFFFFFFFF AND PUSH2 0x8FC DUP4 DUP4 DUP2 MLOAD DUP2 LT PUSH2 0x23C JUMPI PUSH2 0x23B PUSH2 0xA6B JUMP JUMPDEST JUMPDEST PUSH1 0x20 MUL PUSH1 0x20 ADD ADD MLOAD SWAP1 DUP2 ISZERO MUL SWAP1 PUSH1 0x40 MLOAD PUSH0 PUSH1 0x40 MLOAD DUP1 DUP4 SUB DUP2 DUP6 DUP9 DUP9 CALL SWAP4 POP POP POP POP ISZERO DUP1 ISZERO PUSH2 0x26C JUMPI RETURNDATASIZE PUSH0 DUP1 RETURNDATACOPY RETURNDATASIZE PUSH0 REVERT JUMPDEST POP DUP1 DUP1 PUSH1 0x1 ADD SWAP2 POP POP PUSH2 0x1EC JUMP JUMPDEST POP PUSH1 0x3 SLOAD PUSH1 0x2 PUSH0 DUP3 DUP3 SLOAD PUSH2 0x28E SWAP2 SWAP1 PUSH2 0xAC5 JUMP JUMPDEST SWAP3 POP POP DUP2 SWAP1 SSTORE POP PUSH32 0xE69D325558610BA73C441901DEB46D7F251108348DC5DC9447E8866774C12EDC DUP3 DUP3 PUSH1 0x40 MLOAD PUSH2 0x2C6 SWAP3 SWAP2 SWAP1 PUSH2 0xC66 JUMP JUMPDEST PUSH1 0x40 MLOAD DUP1 SWAP2 SUB SWAP1 LOG1 POP POP JUMP JUMPDEST PUSH0 DUP1 SLOAD SWAP1 PUSH2 0x100 EXP SWAP1 DIV PUSH20 0xFFFFFFFFFFFFFFFFFFFFFFFFFFFFFFFFFFFFFFFF AND DUP2 JUMP JUMPDEST PUSH1 0x3 SLOAD DUP2 JUMP JUMPDEST PUSH1 0x2 SLOAD DUP2 JUMP JUMPDEST PUSH0 PUSH2 0x30C DUP4 DUP4 PUSH2 0x48D JUMP JUMPDEST SWAP1 POP PUSH0 PUSH2 0x3E8 PUSH2 0x1DB DUP4 PUSH2 0x320 SWAP2 SWAP1 PUSH2 0xC9B JUMP JUMPDEST PUSH2 0x32A SWAP2 SWAP1 PUSH2 0xD09 JUMP JUMPDEST SWAP1 POP PUSH0 PUSH2 0x3E8 PUSH2 0x1DB DUP5 PUSH2 0x33E SWAP2 SWAP1 PUSH2 0xC9B JUMP JUMPDEST PUSH2 0x348 SWAP2 SWAP1 PUSH2 0xD09 JUMP JUMPDEST SWAP1 POP PUSH0 PUSH2 0x3E8 PUSH1 0x32 DUP6 PUSH2 0x35B SWAP2 SWAP1 PUSH2 0xC9B JUMP JUMPDEST PUSH2 0x365 SWAP2 SWAP1 PUSH2 0xD09 JUMP JUMPDEST SWAP1 POP PUSH0 DUP1 SLOAD SWAP1 PUSH2 0x100 EXP SWAP1 DIV PUSH20 0xFFFFFFFFFFFFFFFFFFFFFFFFFFFFFFFFFFFFFFFF AND PUSH20 0xFFFFFFFFFFFFFFFFFFFFFFFFFFFFFFFFFFFFFFFF AND PUSH2 0x8FC DUP5 SWAP1 DUP2 ISZERO MUL SWAP1 PUSH1 0x40 MLOAD PUSH0 PUSH1 0x40 MLOAD DUP1 DUP4 SUB DUP2 DUP6 DUP9 DUP9 CALL SWAP4 POP POP POP POP ISZERO DUP1 ISZERO PUSH2 0x3C9 JUMPI RETURNDATASIZE PUSH0 DUP1 RETURNDATACOPY RETURNDATASIZE PUSH0 REVERT JUMPDEST POP PUSH1 0x1 PUSH0 SWAP1 SLOAD SWAP1 PUSH2 0x100 EXP SWAP1 DIV PUSH20 0xFFFFFFFFFFFFFFFFFFFFFFFFFFFFFFFFFFFFFFFF AND PUSH20 0xFFFFFFFFFFFFFFFFFFFFFFFFFFFFFFFFFFFFFFFF AND PUSH2 0x8FC DUP4 SWAP1 DUP2 ISZERO MUL SWAP1 PUSH1 0x40 MLOAD PUSH0 PUSH1 0x40 MLOAD DUP1 DUP4 SUB DUP2 DUP6 DUP9 DUP9 CALL SWAP4 POP POP POP POP ISZERO DUP1 ISZERO PUSH2 0x42E JUMPI RETURNDATASIZE PUSH0 DUP1 RETURNDATACOPY RETURNDATASIZE PUSH0 REVERT JUMPDEST POP DUP1 PUSH1 0x2 PUSH0 DUP3 DUP3 SLOAD PUSH2 0x440 SWAP2 SWAP1 PUSH2 0xD39 JUMP JUMPDEST SWAP3 POP POP DUP2 SWAP1 SSTORE POP PUSH32 0x78490B24A020086D2701460DC169A540280C517BEF9CDCD742F751A9099922A3 DUP8 DUP5 DUP5 DUP5 PUSH1 0x40 MLOAD PUSH2 0x47C SWAP5 SWAP4 SWAP3 SWAP2 SWAP1 PUSH2 0xD6C JUMP JUMPDEST PUSH1 0x40 MLOAD DUP1 SWAP2 SUB SWAP1 LOG1 POP POP POP POP POP POP POP JUMP JUMPDEST PUSH0 DUP1 PUSH1 0x1 DUP4 PUSH1 0xFF AND SUB PUSH2 0x4A3 JUMPI PUSH1 0x1 SWAP1 POP PUSH2 0x4E7 JUMP JUMPDEST PUSH1 0x2 DUP4 PUSH1 0xFF AND SUB PUSH2 0x4B7 JUMPI PUSH1 0x2 SWAP1 POP PUSH2 0x4E6 JUMP JUMPDEST PUSH1 0x3 DUP4 PUSH1 0xFF AND SUB PUSH2 0x4CB JUMPI PUSH1 0x3 SWAP1 POP PUSH2 0x4E5 JUMP JUMPDEST PUSH1 0x4 DUP4 PUSH1 0xFF AND SUB PUSH2 0x4DF JUMPI PUSH1 0x4 SWAP1 POP PUSH2 0x4E4 JUMP JUMPDEST PUSH1 0x5 SWAP1 POP JUMPDEST JUMPDEST JUMPDEST JUMPDEST PUSH1 0x64 DUP2 DUP6 PUSH2 0x4F5 SWAP2 SWAP1 PUSH2 0xC9B JUMP JUMPDEST PUSH2 0x4FF SWAP2 SWAP1 PUSH2 0xD09 JUMP JUMPDEST SWAP2 POP POP SWAP3 SWAP2 POP POP JUMP JUMPDEST PUSH1 0x1 PUSH0 SWAP1 SLOAD SWAP1 PUSH2 0x100 EXP SWAP1 DIV PUSH20 0xFFFFFFFFFFFFFFFFFFFFFFFFFFFFFFFFFFFFFFFF AND DUP2 JUMP JUMPDEST PUSH0 PUSH1 0x40 MLOAD SWAP1 POP SWAP1 JUMP JUMPDEST PUSH0 DUP1 REVERT JUMPDEST PUSH0 DUP1 REVERT JUMPDEST PUSH0 DUP1 REVERT JUMPDEST PUSH0 PUSH1 0x1F NOT PUSH1 0x1F DUP4 ADD AND SWAP1 POP SWAP2 SWAP1 POP JUMP JUMPDEST PUSH32 0x4E487B7100000000000000000000000000000000000000000000000000000000 PUSH0 MSTORE PUSH1 0x41 PUSH1 0x4 MSTORE PUSH1 0x24 PUSH0 REVERT JUMPDEST PUSH2 0x588 DUP3 PUSH2 0x542 JUMP JUMPDEST DUP2 ADD DUP2 DUP2 LT PUSH8 0xFFFFFFFFFFFFFFFF DUP3 GT OR ISZERO PUSH2 0x5A7 JUMPI PUSH2 0x5A6 PUSH2 0x552 JUMP JUMPDEST JUMPDEST DUP1 PUSH1 0x40 MSTORE POP POP POP JUMP JUMPDEST PUSH0 PUSH2 0x5B9 PUSH2 0x52D JUMP JUMPDEST SWAP1 POP PUSH2 0x5C5 DUP3 DUP3 PUSH2 0x57F JUMP JUMPDEST SWAP2 SWAP1 POP JUMP JUMPDEST PUSH0 PUSH8 0xFFFFFFFFFFFFFFFF DUP3 GT ISZERO PUSH2 0x5E4 JUMPI PUSH2 0x5E3 PUSH2 0x552 JUMP JUMPDEST JUMPDEST PUSH1 0x20 DUP3 MUL SWAP1 POP PUSH1 0x20 DUP2 ADD SWAP1 POP SWAP2 SWAP1 POP JUMP JUMPDEST PUSH0 DUP1 REVERT JUMPDEST PUSH0 PUSH20 0xFFFFFFFFFFFFFFFFFFFFFFFFFFFFFFFFFFFFFFFF DUP3 AND SWAP1 POP SWAP2 SWAP1 POP JUMP JUMPDEST PUSH0 PUSH2 0x622 DUP3 PUSH2 0x5F9 JUMP JUMPDEST SWAP1 POP SWAP2 SWAP1 POP JUMP JUMPDEST PUSH2 0x632 DUP2 PUSH2 0x618 JUMP JUMPDEST DUP2 EQ PUSH2 0x63C JUMPI PUSH0 DUP1 REVERT JUMPDEST POP JUMP JUMPDEST PUSH0 DUP2 CALLDATALOAD SWAP1 POP PUSH2 0x64D DUP2 PUSH2 0x629 JUMP JUMPDEST SWAP3 SWAP2 POP POP JUMP JUMPDEST PUSH0 PUSH2 0x665 PUSH2 0x660 DUP5 PUSH2 0x5CA JUMP JUMPDEST PUSH2 0x5B0 JUMP JUMPDEST SWAP1 POP DUP1 DUP4 DUP3 MSTORE PUSH1 0x20 DUP3 ADD SWAP1 POP PUSH1 0x20 DUP5 MUL DUP4 ADD DUP6 DUP2 GT ISZERO PUSH2 0x688 JUMPI PUSH2 0x687 PUSH2 0x5F5 JUMP JUMPDEST JUMPDEST DUP4 JUMPDEST DUP2 DUP2 LT ISZERO PUSH2 0x6B1 JUMPI DUP1 PUSH2 0x69D DUP9 DUP3 PUSH2 0x63F JUMP JUMPDEST DUP5 MSTORE PUSH1 0x20 DUP5 ADD SWAP4 POP POP PUSH1 0x20 DUP2 ADD SWAP1 POP PUSH2 0x68A JUMP JUMPDEST POP POP POP SWAP4 SWAP3 POP POP POP JUMP JUMPDEST PUSH0 DUP3 PUSH1 0x1F DUP4 ADD SLT PUSH2 0x6CF JUMPI PUSH2 0x6CE PUSH2 0x53E JUMP JUMPDEST JUMPDEST DUP2 CALLDATALOAD PUSH2 0x6DF DUP5 DUP3 PUSH1 0x20 DUP7 ADD PUSH2 0x653 JUMP JUMPDEST SWAP2 POP POP SWAP3 SWAP2 POP POP JUMP JUMPDEST PUSH0 PUSH8 0xFFFFFFFFFFFFFFFF DUP3 GT ISZERO PUSH2 0x702 JUMPI PUSH2 0x701 PUSH2 0x552 JUMP JUMPDEST JUMPDEST PUSH1 0x20 DUP3 MUL SWAP1 POP PUSH1 0x20 DUP2 ADD SWAP1 POP SWAP2 SWAP1 POP JUMP JUMPDEST PUSH0 DUP2 SWAP1 POP SWAP2 SWAP1 POP JUMP JUMPDEST PUSH2 0x725 DUP2 PUSH2 0x713 JUMP JUMPDEST DUP2 EQ PUSH2 0x72F JUMPI PUSH0 DUP1 REVERT JUMPDEST POP JUMP JUMPDEST PUSH0 DUP2 CALLDATALOAD SWAP1 POP PUSH2 0x740 DUP2 PUSH2 0x71C JUMP JUMPDEST SWAP3 SWAP2 POP POP JUMP JUMPDEST PUSH0 PUSH2 0x758 PUSH2 0x753 DUP5 PUSH2 0x6E8 JUMP JUMPDEST PUSH2 0x5B0 JUMP JUMPDEST SWAP1 POP DUP1 DUP4 DUP3 MSTORE PUSH1 0x20 DUP3 ADD SWAP1 POP PUSH1 0x20 DUP5 MUL DUP4 ADD DUP6 DUP2 GT ISZERO PUSH2 0x77B JUMPI PUSH2 0x77A PUSH2 0x5F5 JUMP JUMPDEST JUMPDEST DUP4 JUMPDEST DUP2 DUP2 LT ISZERO PUSH2 0x7A4 JUMPI DUP1 PUSH2 0x790 DUP9 DUP3 PUSH2 0x732 JUMP JUMPDEST DUP5 MSTORE PUSH1 0x20 DUP5 ADD SWAP4 POP POP PUSH1 0x20 DUP2 ADD SWAP1 POP PUSH2 0x77D JUMP JUMPDEST POP POP POP SWAP4 SWAP3 POP POP POP JUMP JUMPDEST PUSH0 DUP3 PUSH1 0x1F DUP4 ADD SLT PUSH2 0x7C2 JUMPI PUSH2 0x7C1 PUSH2 0x53E JUMP JUMPDEST JUMPDEST DUP2 CALLDATALOAD PUSH2 0x7D2 DUP5 DUP3 PUSH1 0x20 DUP7 ADD PUSH2 0x746 JUMP JUMPDEST SWAP2 POP POP SWAP3 SWAP2 POP POP JUMP JUMPDEST PUSH0 DUP1 PUSH1 0x40 DUP4 DUP6 SUB SLT ISZERO PUSH2 0x7F1 JUMPI PUSH2 0x7F0 PUSH2 0x536 JUMP JUMPDEST JUMPDEST PUSH0 DUP4 ADD CALLDATALOAD PUSH8 0xFFFFFFFFFFFFFFFF DUP2 GT ISZERO PUSH2 0x80E JUMPI PUSH2 0x80D PUSH2 0x53A JUMP JUMPDEST JUMPDEST PUSH2 0x81A DUP6 DUP3 DUP7 ADD PUSH2 0x6BB JUMP JUMPDEST SWAP3 POP POP PUSH1 0x20 DUP4 ADD CALLDATALOAD PUSH8 0xFFFFFFFFFFFFFFFF DUP2 GT ISZERO PUSH2 0x83B JUMPI PUSH2 0x83A PUSH2 0x53A JUMP JUMPDEST JUMPDEST PUSH2 0x847 DUP6 DUP3 DUP7 ADD PUSH2 0x7AE JUMP JUMPDEST SWAP2 POP POP SWAP3 POP SWAP3 SWAP1 POP JUMP JUMPDEST PUSH2 0x85A DUP2 PUSH2 0x618 JUMP JUMPDEST DUP3 MSTORE POP POP JUMP JUMPDEST PUSH0 PUSH1 0x20 DUP3 ADD SWAP1 POP PUSH2 0x873 PUSH0 DUP4 ADD DUP5 PUSH2 0x851 JUMP JUMPDEST SWAP3 SWAP2 POP POP JUMP JUMPDEST PUSH2 0x882 DUP2 PUSH2 0x713 JUMP JUMPDEST DUP3 MSTORE POP POP JUMP JUMPDEST PUSH0 PUSH1 0x20 DUP3 ADD SWAP1 POP PUSH2 0x89B PUSH0 DUP4 ADD DUP5 PUSH2 0x879 JUMP JUMPDEST SWAP3 SWAP2 POP POP JUMP JUMPDEST PUSH0 PUSH1 0xFF DUP3 AND SWAP1 POP SWAP2 SWAP1 POP JUMP JUMPDEST PUSH2 0x8B6 DUP2 PUSH2 0x8A1 JUMP JUMPDEST DUP2 EQ PUSH2 0x8C0 JUMPI PUSH0 DUP1 REVERT JUMPDEST POP JUMP JUMPDEST PUSH0 DUP2 CALLDATALOAD SWAP1 POP PUSH2 0x8D1 DUP2 PUSH2 0x8AD JUMP JUMPDEST SWAP3 SWAP2 POP POP JUMP JUMPDEST PUSH0 DUP1 PUSH0 PUSH1 0x60 DUP5 DUP7 SUB SLT ISZERO PUSH2 0x8EE JUMPI PUSH2 0x8ED PUSH2 0x536 JUMP JUMPDEST JUMPDEST PUSH0 PUSH2 0x8FB DUP7 DUP3 DUP8 ADD PUSH2 0x732 JUMP JUMPDEST SWAP4 POP POP PUSH1 0x20 PUSH2 0x90C DUP7 DUP3 DUP8 ADD PUSH2 0x732 JUMP JUMPDEST SWAP3 POP POP PUSH1 0x40 PUSH2 0x91D DUP7 DUP3 DUP8 ADD PUSH2 0x8C3 JUMP JUMPDEST SWAP2 POP POP SWAP3 POP SWAP3 POP SWAP3 JUMP JUMPDEST PUSH0 DUP1 PUSH1 0x40 DUP4 DUP6 SUB SLT ISZERO PUSH2 0x93D JUMPI PUSH2 0x93C PUSH2 0x536 JUMP JUMPDEST JUMPDEST PUSH0 PUSH2 0x94A DUP6 DUP3 DUP7 ADD PUSH2 0x732 JUMP JUMPDEST SWAP3 POP POP PUSH1 0x20 PUSH2 0x95B DUP6 DUP3 DUP7 ADD PUSH2 0x8C3 JUMP JUMPDEST SWAP2 POP POP SWAP3 POP SWAP3 SWAP1 POP JUMP JUMPDEST PUSH0 DUP3 DUP3 MSTORE PUSH1 0x20 DUP3 ADD SWAP1 POP SWAP3 SWAP2 POP POP JUMP JUMPDEST PUSH32 0x52657761726420706F6F6C207468726573686F6C64206E6F74206D6574000000 PUSH0 DUP3 ADD MSTORE POP JUMP JUMPDEST PUSH0 PUSH2 0x9A9 PUSH1 0x1D DUP4 PUSH2 0x965 JUMP JUMPDEST SWAP2 POP PUSH2 0x9B4 DUP3 PUSH2 0x975 JUMP JUMPDEST PUSH1 0x20 DUP3 ADD SWAP1 POP SWAP2 SWAP1 POP JUMP JUMPDEST PUSH0 PUSH1 0x20 DUP3 ADD SWAP1 POP DUP2 DUP2 SUB PUSH0 DUP4 ADD MSTORE PUSH2 0x9D6 DUP2 PUSH2 0x99D JUMP JUMPDEST SWAP1 POP SWAP2 SWAP1 POP JUMP JUMPDEST PUSH32 0x4D69736D61746368656420757365727320616E642072657761726473206C656E PUSH0 DUP3 ADD MSTORE PUSH32 0x6774680000000000000000000000000000000000000000000000000000000000 PUSH1 0x20 DUP3 ADD MSTORE POP JUMP JUMPDEST PUSH0 PUSH2 0xA37 PUSH1 0x23 DUP4 PUSH2 0x965 JUMP JUMPDEST SWAP2 POP PUSH2 0xA42 DUP3 PUSH2 0x9DD JUMP JUMPDEST PUSH1 0x40 DUP3 ADD SWAP1 POP SWAP2 SWAP1 POP JUMP JUMPDEST PUSH0 PUSH1 0x20 DUP3 ADD SWAP1 POP DUP2 DUP2 SUB PUSH0 DUP4 ADD MSTORE PUSH2 0xA64 DUP2 PUSH2 0xA2B JUMP JUMPDEST SWAP1 POP SWAP2 SWAP1 POP JUMP JUMPDEST PUSH32 0x4E487B7100000000000000000000000000000000000000000000000000000000 PUSH0 MSTORE PUSH1 0x32 PUSH1 0x4 MSTORE PUSH1 0x24 PUSH0 REVERT JUMPDEST PUSH32 0x4E487B7100000000000000000000000000000000000000000000000000000000 PUSH0 MSTORE PUSH1 0x11 PUSH1 0x4 MSTORE PUSH1 0x24 PUSH0 REVERT JUMPDEST PUSH0 PUSH2 0xACF DUP3 PUSH2 0x713 JUMP JUMPDEST SWAP2 POP PUSH2 0xADA DUP4 PUSH2 0x713 JUMP JUMPDEST SWAP3 POP DUP3 DUP3 SUB SWAP1 POP DUP2 DUP2 GT ISZERO PUSH2 0xAF2 JUMPI PUSH2 0xAF1 PUSH2 0xA98 JUMP JUMPDEST JUMPDEST SWAP3 SWAP2 POP POP JUMP JUMPDEST PUSH0 DUP2 MLOAD SWAP1 POP SWAP2 SWAP1 POP JUMP JUMPDEST PUSH0 DUP3 DUP3 MSTORE PUSH1 0x20 DUP3 ADD SWAP1 POP SWAP3 SWAP2 POP POP JUMP JUMPDEST PUSH0 DUP2 SWAP1 POP PUSH1 0x20 DUP3 ADD SWAP1 POP SWAP2 SWAP1 POP JUMP JUMPDEST PUSH2 0xB2A DUP2 PUSH2 0x618 JUMP JUMPDEST DUP3 MSTORE POP POP JUMP JUMPDEST PUSH0 PUSH2 0xB3B DUP4 DUP4 PUSH2 0xB21 JUMP JUMPDEST PUSH1 0x20 DUP4 ADD SWAP1 POP SWAP3 SWAP2 POP POP JUMP JUMPDEST PUSH0 PUSH1 0x20 DUP3 ADD SWAP1 POP SWAP2 SWAP1 POP JUMP JUMPDEST PUSH0 PUSH2 0xB5D DUP3 PUSH2 0xAF8 JUMP JUMPDEST PUSH2 0xB67 DUP2 DUP6 PUSH2 0xB02 JUMP JUMPDEST SWAP4 POP PUSH2 0xB72 DUP4 PUSH2 0xB12 JUMP JUMPDEST DUP1 PUSH0 JUMPDEST DUP4 DUP2 LT ISZERO PUSH2 0xBA2 JUMPI DUP2 MLOAD PUSH2 0xB89 DUP9 DUP3 PUSH2 0xB30 JUMP JUMPDEST SWAP8 POP PUSH2 0xB94 DUP4 PUSH2 0xB47 JUMP JUMPDEST SWAP3 POP POP PUSH1 0x1 DUP2 ADD SWAP1 POP PUSH2 0xB75 JUMP JUMPDEST POP DUP6 SWAP4 POP POP POP POP SWAP3 SWAP2 POP POP JUMP JUMPDEST PUSH0 DUP2 MLOAD SWAP1 POP SWAP2 SWAP1 POP JUMP JUMPDEST PUSH0 DUP3 DUP3 MSTORE PUSH1 0x20 DUP3 ADD SWAP1 POP SWAP3 SWAP2 POP POP JUMP JUMPDEST PUSH0 DUP2 SWAP1 POP PUSH1 0x20 DUP3 ADD SWAP1 POP SWAP2 SWAP1 POP JUMP JUMPDEST PUSH2 0xBE1 DUP2 PUSH2 0x713 JUMP JUMPDEST DUP3 MSTORE POP POP JUMP JUMPDEST PUSH0 PUSH2 0xBF2 DUP4 DUP4 PUSH2 0xBD8 JUMP JUMPDEST PUSH1 0x20 DUP4 ADD SWAP1 POP SWAP3 SWAP2 POP POP JUMP JUMPDEST PUSH0 PUSH1 0x20 DUP3 ADD SWAP1 POP SWAP2 SWAP1 POP JUMP JUMPDEST PUSH0 PUSH2 0xC14 DUP3 PUSH2 0xBAF JUMP JUMPDEST PUSH2 0xC1E DUP2 DUP6 PUSH2 0xBB9 JUMP JUMPDEST SWAP4 POP PUSH2 0xC29 DUP4 PUSH2 0xBC9 JUMP JUMPDEST DUP1 PUSH0 JUMPDEST DUP4 DUP2 LT ISZERO PUSH2 0xC59 JUMPI DUP2 MLOAD PUSH2 0xC40 DUP9 DUP3 PUSH2 0xBE7 JUMP JUMPDEST SWAP8 POP PUSH2 0xC4B DUP4 PUSH2 0xBFE JUMP JUMPDEST SWAP3 POP POP PUSH1 0x1 DUP2 ADD SWAP1 POP PUSH2 0xC2C JUMP JUMPDEST POP DUP6 SWAP4 POP POP POP POP SWAP3 SWAP2 POP POP JUMP JUMPDEST PUSH0 PUSH1 0x40 DUP3 ADD SWAP1 POP DUP2 DUP2 SUB PUSH0 DUP4 ADD MSTORE PUSH2 0xC7E DUP2 DUP6 PUSH2 0xB53 JUMP JUMPDEST SWAP1 POP DUP2 DUP2 SUB PUSH1 0x20 DUP4 ADD MSTORE PUSH2 0xC92 DUP2 DUP5 PUSH2 0xC0A JUMP JUMPDEST SWAP1 POP SWAP4 SWAP3 POP POP POP JUMP JUMPDEST PUSH0 PUSH2 0xCA5 DUP3 PUSH2 0x713 JUMP JUMPDEST SWAP2 POP PUSH2 0xCB0 DUP4 PUSH2 0x713 JUMP JUMPDEST SWAP3 POP DUP3 DUP3 MUL PUSH2 0xCBE DUP2 PUSH2 0x713 JUMP JUMPDEST SWAP2 POP DUP3 DUP3 DIV DUP5 EQ DUP4 ISZERO OR PUSH2 0xCD5 JUMPI PUSH2 0xCD4 PUSH2 0xA98 JUMP JUMPDEST JUMPDEST POP SWAP3 SWAP2 POP POP JUMP JUMPDEST PUSH32 0x4E487B7100000000000000000000000000000000000000000000000000000000 PUSH0 MSTORE PUSH1 0x12 PUSH1 0x4 MSTORE PUSH1 0x24 PUSH0 REVERT JUMPDEST PUSH0 PUSH2 0xD13 DUP3 PUSH2 0x713 JUMP JUMPDEST SWAP2 POP PUSH2 0xD1E DUP4 PUSH2 0x713 JUMP JUMPDEST SWAP3 POP DUP3 PUSH2 0xD2E JUMPI PUSH2 0xD2D PUSH2 0xCDC JUMP JUMPDEST JUMPDEST DUP3 DUP3 DIV SWAP1 POP SWAP3 SWAP2 POP POP JUMP JUMPDEST PUSH0 PUSH2 0xD43 DUP3 PUSH2 0x713 JUMP JUMPDEST SWAP2 POP PUSH2 0xD4E DUP4 PUSH2 0x713 JUMP JUMPDEST SWAP3 POP DUP3 DUP3 ADD SWAP1 POP DUP1 DUP3 GT ISZERO PUSH2 0xD66 JUMPI PUSH2 0xD65 PUSH2 0xA98 JUMP JUMPDEST JUMPDEST SWAP3 SWAP2 POP POP JUMP JUMPDEST PUSH0 PUSH1 0x80 DUP3 ADD SWAP1 POP PUSH2 0xD7F PUSH0 DUP4 ADD DUP8 PUSH2 0x879 JUMP JUMPDEST PUSH2 0xD8C PUSH1 0x20 DUP4 ADD DUP7 PUSH2 0x879 JUMP JUMPDEST PUSH2 0xD99 PUSH1 0x40 DUP4 ADD DUP6 PUSH2 0x879 JUMP JUMPDEST PUSH2 0xDA6 PUSH1 0x60 DUP4 ADD DUP5 PUSH2 0x879 JUMP JUMPDEST SWAP6 SWAP5 POP POP POP POP POP JUMP INVALID LOG2 PUSH5 0x6970667358 0x22 SLT KECCAK256 0xB7 0xD8 MSIZE CODESIZE 0x1F XOR PUSH8 0xAD9D586FBCA17E7F SWAP3 0xC2 JUMPI PUSH15 0x939436C4A3782C093C37C0FB256473 PUSH16 0x6C634300081A00330000000000000000 "
				},
				"gasEstimates": {
					"creation": {
						"codeDepositCost": "711400",
						"executionCost": "infinite",
						"totalCost": "infinite"
					},
					"external": {
						"adminWallet()": "2528",
						"calculateFees(uint256,uint8)": "infinite",
						"distributeFees(uint256,uint256,uint8)": "infinite",
						"distributeRewards(address[],uint256[])": "infinite",
						"rewardPool()": "2425",
						"threshold()": "2470",
						"treasuryManagerWallet()": "2574"
					}
				},
				"methodIdentifiers": {
					"adminWallet()": "36b19cd7",
					"calculateFees(uint256,uint8)": "dc03d932",
					"distributeFees(uint256,uint256,uint8)": "7cc2a0a7",
					"distributeRewards(address[],uint256[])": "143ba4f3",
					"rewardPool()": "66666aa9",
					"threshold()": "42cde4e8",
					"treasuryManagerWallet()": "ffe9573a"
				}
			},
			"storageLayout": {
				"storage": [
					{
						"astId": 210,
						"contract": "contracts/RoninP2PFeeAndRewardDistribution.sol:RoninP2PFeeAndRewardDistribution",
						"label": "adminWallet",
						"offset": 0,
						"slot": "0",
						"type": "t_address"
					},
					{
						"astId": 212,
						"contract": "contracts/RoninP2PFeeAndRewardDistribution.sol:RoninP2PFeeAndRewardDistribution",
						"label": "treasuryManagerWallet",
						"offset": 0,
						"slot": "1",
						"type": "t_address"
					},
					{
						"astId": 214,
						"contract": "contracts/RoninP2PFeeAndRewardDistribution.sol:RoninP2PFeeAndRewardDistribution",
						"label": "rewardPool",
						"offset": 0,
						"slot": "2",
						"type": "t_uint256"
					},
					{
						"astId": 217,
						"contract": "contracts/RoninP2PFeeAndRewardDistribution.sol:RoninP2PFeeAndRewardDistribution",
						"label": "threshold",
						"offset": 0,
						"slot": "3",
						"type": "t_uint256"
					}
				],
				"types": {
					"t_address": {
						"encoding": "inplace",
						"label": "address",
						"numberOfBytes": "20"
					},
					"t_uint256": {
						"encoding": "inplace",
						"label": "uint256",
						"numberOfBytes": "32"
					}
				}
			},
			"userdoc": {
				"kind": "user",
				"methods": {},
				"version": 1
			}
		}
	}
}