{
	"contracts/RoninP2PTradeAgreement.sol": {
		"RoninP2PTradeAgreement": {
			"abi": [
				{
					"inputs": [
						{
							"internalType": "address",
							"name": "offerContract",
							"type": "address"
						},
						{
							"internalType": "address",
							"name": "feeAndRewardContract",
							"type": "address"
						}
					],
					"stateMutability": "nonpayable",
					"type": "constructor"
				},
				{
					"anonymous": false,
					"inputs": [
						{
							"indexed": false,
							"internalType": "uint256",
							"name": "agreementId",
							"type": "uint256"
						},
						{
							"indexed": false,
							"internalType": "address",
							"name": "accepter",
							"type": "address"
						}
					],
					"name": "AgreementAccepted",
					"type": "event"
				},
				{
					"anonymous": false,
					"inputs": [
						{
							"indexed": false,
							"internalType": "uint256",
							"name": "agreementId",
							"type": "uint256"
						},
						{
							"indexed": false,
							"internalType": "address",
							"name": "creator",
							"type": "address"
						}
					],
					"name": "AgreementCreated",
					"type": "event"
				},
				{
					"anonymous": false,
					"inputs": [
						{
							"indexed": false,
							"internalType": "uint256",
							"name": "agreementId",
							"type": "uint256"
						},
						{
							"indexed": false,
							"internalType": "address",
							"name": "counterparty",
							"type": "address"
						}
					],
					"name": "AgreementModified",
					"type": "event"
				},
				{
					"anonymous": false,
					"inputs": [
						{
							"indexed": false,
							"internalType": "uint256",
							"name": "agreementId",
							"type": "uint256"
						},
						{
							"indexed": false,
							"internalType": "address",
							"name": "rejecter",
							"type": "address"
						}
					],
					"name": "AgreementRejected",
					"type": "event"
				},
				{
					"anonymous": false,
					"inputs": [
						{
							"indexed": false,
							"internalType": "address[]",
							"name": "recipients",
							"type": "address[]"
						},
						{
							"indexed": false,
							"internalType": "uint256[]",
							"name": "amounts",
							"type": "uint256[]"
						}
					],
					"name": "BatchTransfer",
					"type": "event"
				},
				{
					"anonymous": false,
					"inputs": [
						{
							"indexed": false,
							"internalType": "address",
							"name": "user",
							"type": "address"
						},
						{
							"indexed": false,
							"internalType": "uint256",
							"name": "amount",
							"type": "uint256"
						}
					],
					"name": "UserTransactionLogged",
					"type": "event"
				},
				{
					"inputs": [
						{
							"internalType": "uint256",
							"name": "agreementId",
							"type": "uint256"
						},
						{
							"internalType": "uint256",
							"name": "offerId",
							"type": "uint256"
						}
					],
					"name": "acceptTradeAgreement",
					"outputs": [],
					"stateMutability": "nonpayable",
					"type": "function"
				},
				{
					"inputs": [],
					"name": "agreementCounter",
					"outputs": [
						{
							"internalType": "uint256",
							"name": "",
							"type": "uint256"
						}
					],
					"stateMutability": "view",
					"type": "function"
				},
				{
					"inputs": [
						{
							"internalType": "uint256",
							"name": "",
							"type": "uint256"
						}
					],
					"name": "agreements",
					"outputs": [
						{
							"internalType": "address",
							"name": "creator",
							"type": "address"
						},
						{
							"internalType": "address",
							"name": "counterparty",
							"type": "address"
						},
						{
							"internalType": "uint256",
							"name": "modificationCount",
							"type": "uint256"
						},
						{
							"internalType": "bool",
							"name": "isActive",
							"type": "bool"
						}
					],
					"stateMutability": "view",
					"type": "function"
				},
				{
					"inputs": [
						{
							"internalType": "address[]",
							"name": "nfts",
							"type": "address[]"
						},
						{
							"internalType": "address[]",
							"name": "tokens",
							"type": "address[]"
						},
						{
							"internalType": "uint256[]",
							"name": "tokenAmounts",
							"type": "uint256[]"
						},
						{
							"internalType": "address",
							"name": "counterparty",
							"type": "address"
						}
					],
					"name": "createTradeAgreement",
					"outputs": [],
					"stateMutability": "nonpayable",
					"type": "function"
				},
				{
					"inputs": [
						{
							"internalType": "uint256",
							"name": "agreementId",
							"type": "uint256"
						},
						{
							"internalType": "address[]",
							"name": "newNfts",
							"type": "address[]"
						},
						{
							"internalType": "address[]",
							"name": "newTokens",
							"type": "address[]"
						},
						{
							"internalType": "uint256[]",
							"name": "newTokenAmounts",
							"type": "uint256[]"
						}
					],
					"name": "modifyTradeAgreement",
					"outputs": [],
					"stateMutability": "nonpayable",
					"type": "function"
				},
				{
					"inputs": [
						{
							"internalType": "uint256",
							"name": "agreementId",
							"type": "uint256"
						}
					],
					"name": "rejectTradeAgreement",
					"outputs": [],
					"stateMutability": "nonpayable",
					"type": "function"
				},
				{
					"inputs": [],
					"name": "roninP2PFeeAndRewardDistribution",
					"outputs": [
						{
							"internalType": "contract RoninP2PFeeAndRewardDistribution",
							"name": "",
							"type": "address"
						}
					],
					"stateMutability": "view",
					"type": "function"
				},
				{
					"inputs": [],
					"name": "roninP2POffer",
					"outputs": [
						{
							"internalType": "contract RoninP2POffer",
							"name": "",
							"type": "address"
						}
					],
					"stateMutability": "view",
					"type": "function"
				},
				{
					"inputs": [
						{
							"internalType": "address",
							"name": "",
							"type": "address"
						}
					],
					"name": "userTransactions",
					"outputs": [
						{
							"internalType": "uint256",
							"name": "totalAmount",
							"type": "uint256"
						},
						{
							"internalType": "uint256",
							"name": "transactionCount",
							"type": "uint256"
						}
					],
					"stateMutability": "view",
					"type": "function"
				},
				{
					"inputs": [
						{
							"internalType": "uint256",
							"name": "agreementId",
							"type": "uint256"
						}
					],
					"name": "viewTradeAgreement",
					"outputs": [
						{
							"components": [
								{
									"internalType": "address",
									"name": "creator",
									"type": "address"
								},
								{
									"internalType": "address",
									"name": "counterparty",
									"type": "address"
								},
								{
									"internalType": "address[]",
									"name": "nfts",
									"type": "address[]"
								},
								{
									"internalType": "address[]",
									"name": "tokens",
									"type": "address[]"
								},
								{
									"internalType": "uint256[]",
									"name": "tokenAmounts",
									"type": "uint256[]"
								},
								{
									"internalType": "uint256",
									"name": "modificationCount",
									"type": "uint256"
								},
								{
									"internalType": "bool",
									"name": "isActive",
									"type": "bool"
								}
							],
							"internalType": "struct RoninP2PTradeAgreement.Agreement",
							"name": "",
							"type": "tuple"
						}
					],
					"stateMutability": "view",
					"type": "function"
				},
				{
					"inputs": [
						{
							"internalType": "address",
							"name": "user",
							"type": "address"
						}
					],
					"name": "viewUserTransactions",
					"outputs": [
						{
							"components": [
								{
									"internalType": "uint256",
									"name": "totalAmount",
									"type": "uint256"
								},
								{
									"internalType": "uint256",
									"name": "transactionCount",
									"type": "uint256"
								}
							],
							"internalType": "struct RoninP2PTradeAgreement.UserTransaction",
							"name": "",
							"type": "tuple"
						}
					],
					"stateMutability": "view",
					"type": "function"
				}
			],
			"devdoc": {
				"kind": "dev",
				"methods": {},
				"version": 1
			},
			"evm": {
				"assembly": "    /* \"contracts/RoninP2PTradeAgreement.sol\":318:40713  contract RoninP2PTradeAgreement {... */\n  mstore(0x40, 0x80)\n    /* \"contracts/RoninP2PTradeAgreement.sol\":3303:3960  constructor(address offerContract, address feeAndRewardContract) {... */\n  callvalue\n  dup1\n  iszero\n  tag_1\n  jumpi\n  0x00\n  dup1\n  revert\ntag_1:\n  pop\n  mload(0x40)\n  sub(codesize, bytecodeSize)\n  dup1\n  bytecodeSize\n  dup4\n  codecopy\n  dup2\n  dup2\n  add\n  0x40\n  mstore\n  dup2\n  add\n  swap1\n  tag_2\n  swap2\n  swap1\n  tag_3\n  jump\t// in\ntag_2:\n    /* \"contracts/RoninP2PTradeAgreement.sol\":3544:3557  offerContract */\n  dup2\n    /* \"contracts/RoninP2PTradeAgreement.sol\":3514:3527  roninP2POffer */\n  0x03\n  0x00\n    /* \"contracts/RoninP2PTradeAgreement.sol\":3514:3558  roninP2POffer = RoninP2POffer(offerContract) */\n  0x0100\n  exp\n  dup2\n  sload\n  dup2\n  0xffffffffffffffffffffffffffffffffffffffff\n  mul\n  not\n  and\n  swap1\n  dup4\n  0xffffffffffffffffffffffffffffffffffffffff\n  and\n  mul\n  or\n  swap1\n  sstore\n  pop\n    /* \"contracts/RoninP2PTradeAgreement.sol\":3780:3800  feeAndRewardContract */\n  dup1\n    /* \"contracts/RoninP2PTradeAgreement.sol\":3712:3744  roninP2PFeeAndRewardDistribution */\n  0x04\n  0x00\n    /* \"contracts/RoninP2PTradeAgreement.sol\":3712:3801  roninP2PFeeAndRewardDistribution = RoninP2PFeeAndRewardDistribution(feeAndRewardContract) */\n  0x0100\n  exp\n  dup2\n  sload\n  dup2\n  0xffffffffffffffffffffffffffffffffffffffff\n  mul\n  not\n  and\n  swap1\n  dup4\n  0xffffffffffffffffffffffffffffffffffffffff\n  and\n  mul\n  or\n  swap1\n  sstore\n  pop\n    /* \"contracts/RoninP2PTradeAgreement.sol\":3303:3960  constructor(address offerContract, address feeAndRewardContract) {... */\n  pop\n  pop\n    /* \"contracts/RoninP2PTradeAgreement.sol\":318:40713  contract RoninP2PTradeAgreement {... */\n  jump(tag_6)\n    /* \"#utility.yul\":88:205   */\ntag_8:\n    /* \"#utility.yul\":197:198   */\n  0x00\n    /* \"#utility.yul\":194:195   */\n  dup1\n    /* \"#utility.yul\":187:199   */\n  revert\n    /* \"#utility.yul\":334:460   */\ntag_10:\n    /* \"#utility.yul\":371:378   */\n  0x00\n    /* \"#utility.yul\":411:453   */\n  0xffffffffffffffffffffffffffffffffffffffff\n    /* \"#utility.yul\":404:409   */\n  dup3\n    /* \"#utility.yul\":400:454   */\n  and\n    /* \"#utility.yul\":389:454   */\n  swap1\n  pop\n    /* \"#utility.yul\":334:460   */\n  swap2\n  swap1\n  pop\n  jump\t// out\n    /* \"#utility.yul\":466:562   */\ntag_11:\n    /* \"#utility.yul\":503:510   */\n  0x00\n    /* \"#utility.yul\":532:556   */\n  tag_20\n    /* \"#utility.yul\":550:555   */\n  dup3\n    /* \"#utility.yul\":532:556   */\n  tag_10\n  jump\t// in\ntag_20:\n    /* \"#utility.yul\":521:556   */\n  swap1\n  pop\n    /* \"#utility.yul\":466:562   */\n  swap2\n  swap1\n  pop\n  jump\t// out\n    /* \"#utility.yul\":568:690   */\ntag_12:\n    /* \"#utility.yul\":641:665   */\n  tag_22\n    /* \"#utility.yul\":659:664   */\n  dup2\n    /* \"#utility.yul\":641:665   */\n  tag_11\n  jump\t// in\ntag_22:\n    /* \"#utility.yul\":634:639   */\n  dup2\n    /* \"#utility.yul\":631:666   */\n  eq\n    /* \"#utility.yul\":621:684   */\n  tag_23\n  jumpi\n    /* \"#utility.yul\":680:681   */\n  0x00\n    /* \"#utility.yul\":677:678   */\n  dup1\n    /* \"#utility.yul\":670:682   */\n  revert\n    /* \"#utility.yul\":621:684   */\ntag_23:\n    /* \"#utility.yul\":568:690   */\n  pop\n  jump\t// out\n    /* \"#utility.yul\":696:839   */\ntag_13:\n    /* \"#utility.yul\":753:758   */\n  0x00\n    /* \"#utility.yul\":784:790   */\n  dup2\n    /* \"#utility.yul\":778:791   */\n  mload\n    /* \"#utility.yul\":769:791   */\n  swap1\n  pop\n    /* \"#utility.yul\":800:833   */\n  tag_25\n    /* \"#utility.yul\":827:832   */\n  dup2\n    /* \"#utility.yul\":800:833   */\n  tag_12\n  jump\t// in\ntag_25:\n    /* \"#utility.yul\":696:839   */\n  swap3\n  swap2\n  pop\n  pop\n  jump\t// out\n    /* \"#utility.yul\":845:1352   */\ntag_3:\n    /* \"#utility.yul\":924:930   */\n  0x00\n    /* \"#utility.yul\":932:938   */\n  dup1\n    /* \"#utility.yul\":981:983   */\n  0x40\n    /* \"#utility.yul\":969:978   */\n  dup4\n    /* \"#utility.yul\":960:967   */\n  dup6\n    /* \"#utility.yul\":956:979   */\n  sub\n    /* \"#utility.yul\":952:984   */\n  slt\n    /* \"#utility.yul\":949:1068   */\n  iszero\n  tag_27\n  jumpi\n    /* \"#utility.yul\":987:1066   */\n  tag_28\n  tag_8\n  jump\t// in\ntag_28:\n    /* \"#utility.yul\":949:1068   */\ntag_27:\n    /* \"#utility.yul\":1107:1108   */\n  0x00\n    /* \"#utility.yul\":1132:1196   */\n  tag_29\n    /* \"#utility.yul\":1188:1195   */\n  dup6\n    /* \"#utility.yul\":1179:1185   */\n  dup3\n    /* \"#utility.yul\":1168:1177   */\n  dup7\n    /* \"#utility.yul\":1164:1186   */\n  add\n    /* \"#utility.yul\":1132:1196   */\n  tag_13\n  jump\t// in\ntag_29:\n    /* \"#utility.yul\":1122:1196   */\n  swap3\n  pop\n    /* \"#utility.yul\":1078:1206   */\n  pop\n    /* \"#utility.yul\":1245:1247   */\n  0x20\n    /* \"#utility.yul\":1271:1335   */\n  tag_30\n    /* \"#utility.yul\":1327:1334   */\n  dup6\n    /* \"#utility.yul\":1318:1324   */\n  dup3\n    /* \"#utility.yul\":1307:1316   */\n  dup7\n    /* \"#utility.yul\":1303:1325   */\n  add\n    /* \"#utility.yul\":1271:1335   */\n  tag_13\n  jump\t// in\ntag_30:\n    /* \"#utility.yul\":1261:1335   */\n  swap2\n  pop\n    /* \"#utility.yul\":1216:1345   */\n  pop\n    /* \"#utility.yul\":845:1352   */\n  swap3\n  pop\n  swap3\n  swap1\n  pop\n  jump\t// out\n    /* \"contracts/RoninP2PTradeAgreement.sol\":318:40713  contract RoninP2PTradeAgreement {... */\ntag_6:\n  dataSize(sub_0)\n  dup1\n  dataOffset(sub_0)\n  0x00\n  codecopy\n  0x00\n  return\nstop\n\nsub_0: assembly {\n        /* \"contracts/RoninP2PTradeAgreement.sol\":318:40713  contract RoninP2PTradeAgreement {... */\n      mstore(0x40, 0x80)\n      callvalue\n      dup1\n      iszero\n      tag_1\n      jumpi\n      0x00\n      dup1\n      revert\n    tag_1:\n      pop\n      jumpi(tag_2, lt(calldatasize, 0x04))\n      shr(0xe0, calldataload(0x00))\n      dup1\n      0xaa334404\n      gt\n      tag_14\n      jumpi\n      dup1\n      0xaa334404\n      eq\n      tag_8\n      jumpi\n      dup1\n      0xb7f5e4f6\n      eq\n      tag_9\n      jumpi\n      dup1\n      0xb9e2a5e3\n      eq\n      tag_10\n      jumpi\n      dup1\n      0xbd14de96\n      eq\n      tag_11\n      jumpi\n      dup1\n      0xcb7273a8\n      eq\n      tag_12\n      jumpi\n      dup1\n      0xfba833f4\n      eq\n      tag_13\n      jumpi\n      jump(tag_2)\n    tag_14:\n      dup1\n      0x14f79af7\n      eq\n      tag_3\n      jumpi\n      dup1\n      0x44df770a\n      eq\n      tag_4\n      jumpi\n      dup1\n      0x59d71914\n      eq\n      tag_5\n      jumpi\n      dup1\n      0x633772ac\n      eq\n      tag_6\n      jumpi\n      dup1\n      0x97465fa8\n      eq\n      tag_7\n      jumpi\n    tag_2:\n      0x00\n      dup1\n      revert\n        /* \"contracts/RoninP2PTradeAgreement.sol\":1665:1696  uint256 public agreementCounter */\n    tag_3:\n      tag_15\n      tag_16\n      jump\t// in\n    tag_15:\n      mload(0x40)\n      tag_17\n      swap2\n      swap1\n      tag_18\n      jump\t// in\n    tag_17:\n      mload(0x40)\n      dup1\n      swap2\n      sub\n      swap1\n      return\n        /* \"contracts/RoninP2PTradeAgreement.sol\":4122:8669  function createTradeAgreement(address[] memory nfts, address[] memory tokens, uint256[] memory tokenAmounts, address counterparty) public {... */\n    tag_4:\n      tag_19\n      0x04\n      dup1\n      calldatasize\n      sub\n      dup2\n      add\n      swap1\n      tag_20\n      swap2\n      swap1\n      tag_21\n      jump\t// in\n    tag_20:\n      tag_22\n      jump\t// in\n    tag_19:\n      stop\n        /* \"contracts/RoninP2PTradeAgreement.sol\":1504:1563  mapping(address => UserTransaction) public userTransactions */\n    tag_5:\n      tag_23\n      0x04\n      dup1\n      calldatasize\n      sub\n      dup2\n      add\n      swap1\n      tag_24\n      swap2\n      swap1\n      tag_25\n      jump\t// in\n    tag_24:\n      tag_26\n      jump\t// in\n    tag_23:\n      mload(0x40)\n      tag_27\n      swap3\n      swap2\n      swap1\n      tag_28\n      jump\t// in\n    tag_27:\n      mload(0x40)\n      dup1\n      swap2\n      sub\n      swap1\n      return\n        /* \"contracts/RoninP2PTradeAgreement.sol\":1803:1837  RoninP2POffer public roninP2POffer */\n    tag_6:\n      tag_29\n      tag_30\n      jump\t// in\n    tag_29:\n      mload(0x40)\n      tag_31\n      swap2\n      swap1\n      tag_32\n      jump\t// in\n    tag_31:\n      mload(0x40)\n      dup1\n      swap2\n      sub\n      swap1\n      return\n        /* \"contracts/RoninP2PTradeAgreement.sol\":8987:9762  function viewTradeAgreement(uint256 agreementId) public view returns (Agreement memory) {... */\n    tag_7:\n      tag_33\n      0x04\n      dup1\n      calldatasize\n      sub\n      dup2\n      add\n      swap1\n      tag_34\n      swap2\n      swap1\n      tag_35\n      jump\t// in\n    tag_34:\n      tag_36\n      jump\t// in\n    tag_33:\n      mload(0x40)\n      tag_37\n      swap2\n      swap1\n      tag_38\n      jump\t// in\n    tag_37:\n      mload(0x40)\n      dup1\n      swap2\n      sub\n      swap1\n      return\n        /* \"contracts/RoninP2PTradeAgreement.sol\":38360:39967  function viewUserTransactions(address user) public view returns (UserTransaction memory) {... */\n    tag_8:\n      tag_39\n      0x04\n      dup1\n      calldatasize\n      sub\n      dup2\n      add\n      swap1\n      tag_40\n      swap2\n      swap1\n      tag_25\n      jump\t// in\n    tag_40:\n      tag_41\n      jump\t// in\n    tag_39:\n      mload(0x40)\n      tag_42\n      swap2\n      swap1\n      tag_43\n      jump\t// in\n    tag_42:\n      mload(0x40)\n      dup1\n      swap2\n      sub\n      swap1\n      return\n        /* \"contracts/RoninP2PTradeAgreement.sol\":33800:37626  function rejectTradeAgreement(uint256 agreementId) public {... */\n    tag_9:\n      tag_44\n      0x04\n      dup1\n      calldatasize\n      sub\n      dup2\n      add\n      swap1\n      tag_45\n      swap2\n      swap1\n      tag_35\n      jump\t// in\n    tag_45:\n      tag_46\n      jump\t// in\n    tag_44:\n      stop\n        /* \"contracts/RoninP2PTradeAgreement.sol\":15953:33106  function acceptTradeAgreement(uint256 agreementId, uint256 offerId) public {... */\n    tag_10:\n      tag_47\n      0x04\n      dup1\n      calldatasize\n      sub\n      dup2\n      add\n      swap1\n      tag_48\n      swap2\n      swap1\n      tag_49\n      jump\t// in\n    tag_48:\n      tag_50\n      jump\t// in\n    tag_47:\n      stop\n        /* \"contracts/RoninP2PTradeAgreement.sol\":1359:1406  mapping(uint256 => Agreement) public agreements */\n    tag_11:\n      tag_51\n      0x04\n      dup1\n      calldatasize\n      sub\n      dup2\n      add\n      swap1\n      tag_52\n      swap2\n      swap1\n      tag_35\n      jump\t// in\n    tag_52:\n      tag_53\n      jump\t// in\n    tag_51:\n      mload(0x40)\n      tag_54\n      swap5\n      swap4\n      swap3\n      swap2\n      swap1\n      tag_55\n      jump\t// in\n    tag_54:\n      mload(0x40)\n      dup1\n      swap2\n      sub\n      swap1\n      return\n        /* \"contracts/RoninP2PTradeAgreement.sol\":1947:2019  RoninP2PFeeAndRewardDistribution public roninP2PFeeAndRewardDistribution */\n    tag_12:\n      tag_56\n      tag_57\n      jump\t// in\n    tag_56:\n      mload(0x40)\n      tag_58\n      swap2\n      swap1\n      tag_59\n      jump\t// in\n    tag_58:\n      mload(0x40)\n      dup1\n      swap2\n      sub\n      swap1\n      return\n        /* \"contracts/RoninP2PTradeAgreement.sol\":10096:15523  function modifyTradeAgreement(uint256 agreementId, address[] memory newNfts, address[] memory newTokens, uint256[] memory newTokenAmounts) public {... */\n    tag_13:\n      tag_60\n      0x04\n      dup1\n      calldatasize\n      sub\n      dup2\n      add\n      swap1\n      tag_61\n      swap2\n      swap1\n      tag_62\n      jump\t// in\n    tag_61:\n      tag_63\n      jump\t// in\n    tag_60:\n      stop\n        /* \"contracts/RoninP2PTradeAgreement.sol\":1665:1696  uint256 public agreementCounter */\n    tag_16:\n      sload(0x02)\n      dup2\n      jump\t// out\n        /* \"contracts/RoninP2PTradeAgreement.sol\":4122:8669  function createTradeAgreement(address[] memory nfts, address[] memory tokens, uint256[] memory tokenAmounts, address counterparty) public {... */\n    tag_22:\n        /* \"contracts/RoninP2PTradeAgreement.sol\":4453:4454  5 */\n      0x05\n        /* \"contracts/RoninP2PTradeAgreement.sol\":4438:4442  nfts */\n      dup5\n        /* \"contracts/RoninP2PTradeAgreement.sol\":4438:4449  nfts.length */\n      mload\n        /* \"contracts/RoninP2PTradeAgreement.sol\":4438:4454  nfts.length <= 5 */\n      gt\n      iszero\n        /* \"contracts/RoninP2PTradeAgreement.sol\":4430:4481  require(nfts.length <= 5, \"Maximum 5 NFTs allowed\") */\n      tag_65\n      jumpi\n      mload(0x40)\n      0x08c379a000000000000000000000000000000000000000000000000000000000\n      dup2\n      mstore\n      0x04\n      add\n      tag_66\n      swap1\n      tag_67\n      jump\t// in\n    tag_66:\n      mload(0x40)\n      dup1\n      swap2\n      sub\n      swap1\n      revert\n    tag_65:\n        /* \"contracts/RoninP2PTradeAgreement.sol\":4684:4685  5 */\n      0x05\n        /* \"contracts/RoninP2PTradeAgreement.sol\":4667:4673  tokens */\n      dup4\n        /* \"contracts/RoninP2PTradeAgreement.sol\":4667:4680  tokens.length */\n      mload\n        /* \"contracts/RoninP2PTradeAgreement.sol\":4667:4685  tokens.length <= 5 */\n      gt\n      iszero\n        /* \"contracts/RoninP2PTradeAgreement.sol\":4659:4714  require(tokens.length <= 5, \"Maximum 5 tokens allowed\") */\n      tag_68\n      jumpi\n      mload(0x40)\n      0x08c379a000000000000000000000000000000000000000000000000000000000\n      dup2\n      mstore\n      0x04\n      add\n      tag_69\n      swap1\n      tag_70\n      jump\t// in\n    tag_69:\n      mload(0x40)\n      dup1\n      swap2\n      sub\n      swap1\n      revert\n    tag_68:\n        /* \"contracts/RoninP2PTradeAgreement.sol\":4925:4937  tokenAmounts */\n      dup2\n        /* \"contracts/RoninP2PTradeAgreement.sol\":4925:4944  tokenAmounts.length */\n      mload\n        /* \"contracts/RoninP2PTradeAgreement.sol\":4908:4914  tokens */\n      dup4\n        /* \"contracts/RoninP2PTradeAgreement.sol\":4908:4921  tokens.length */\n      mload\n        /* \"contracts/RoninP2PTradeAgreement.sol\":4908:4944  tokens.length == tokenAmounts.length */\n      eq\n        /* \"contracts/RoninP2PTradeAgreement.sol\":4900:4988  require(tokens.length == tokenAmounts.length, \"Tokens and tokenAmounts length mismatch\") */\n      tag_71\n      jumpi\n      mload(0x40)\n      0x08c379a000000000000000000000000000000000000000000000000000000000\n      dup2\n      mstore\n      0x04\n      add\n      tag_72\n      swap1\n      tag_73\n      jump\t// in\n    tag_72:\n      mload(0x40)\n      dup1\n      swap2\n      sub\n      swap1\n      revert\n    tag_71:\n        /* \"contracts/RoninP2PTradeAgreement.sol\":5183:5212  Agreement memory newAgreement */\n      0x00\n        /* \"contracts/RoninP2PTradeAgreement.sol\":5215:7335  Agreement({... */\n      mload(0x40)\n      dup1\n      0xe0\n      add\n      0x40\n      mstore\n      dup1\n        /* \"contracts/RoninP2PTradeAgreement.sol\":5440:5450  msg.sender */\n      caller\n        /* \"contracts/RoninP2PTradeAgreement.sol\":5215:7335  Agreement({... */\n      0xffffffffffffffffffffffffffffffffffffffff\n      and\n      dup2\n      mstore\n      0x20\n      add\n        /* \"contracts/RoninP2PTradeAgreement.sol\":5682:5694  counterparty */\n      dup4\n        /* \"contracts/RoninP2PTradeAgreement.sol\":5215:7335  Agreement({... */\n      0xffffffffffffffffffffffffffffffffffffffff\n      and\n      dup2\n      mstore\n      0x20\n      add\n        /* \"contracts/RoninP2PTradeAgreement.sol\":5930:5934  nfts */\n      dup7\n        /* \"contracts/RoninP2PTradeAgreement.sol\":5215:7335  Agreement({... */\n      dup2\n      mstore\n      0x20\n      add\n        /* \"contracts/RoninP2PTradeAgreement.sol\":6184:6190  tokens */\n      dup6\n        /* \"contracts/RoninP2PTradeAgreement.sol\":5215:7335  Agreement({... */\n      dup2\n      mstore\n      0x20\n      add\n        /* \"contracts/RoninP2PTradeAgreement.sol\":6458:6470  tokenAmounts */\n      dup5\n        /* \"contracts/RoninP2PTradeAgreement.sol\":5215:7335  Agreement({... */\n      dup2\n      mstore\n      0x20\n      add\n        /* \"contracts/RoninP2PTradeAgreement.sol\":6755:6756  0 */\n      0x00\n        /* \"contracts/RoninP2PTradeAgreement.sol\":5215:7335  Agreement({... */\n      dup2\n      mstore\n      0x20\n      add\n        /* \"contracts/RoninP2PTradeAgreement.sol\":7044:7048  true */\n      0x01\n        /* \"contracts/RoninP2PTradeAgreement.sol\":5215:7335  Agreement({... */\n      iszero\n      iszero\n      dup2\n      mstore\n      pop\n        /* \"contracts/RoninP2PTradeAgreement.sol\":5183:7335  Agreement memory newAgreement = Agreement({... */\n      swap1\n      pop\n        /* \"contracts/RoninP2PTradeAgreement.sol\":7661:7673  newAgreement */\n      dup1\n        /* \"contracts/RoninP2PTradeAgreement.sol\":7630:7640  agreements */\n      0x00\n        /* \"contracts/RoninP2PTradeAgreement.sol\":7630:7658  agreements[agreementCounter] */\n      dup1\n        /* \"contracts/RoninP2PTradeAgreement.sol\":7641:7657  agreementCounter */\n      sload(0x02)\n        /* \"contracts/RoninP2PTradeAgreement.sol\":7630:7658  agreements[agreementCounter] */\n      dup2\n      mstore\n      0x20\n      add\n      swap1\n      dup2\n      mstore\n      0x20\n      add\n      0x00\n      keccak256\n        /* \"contracts/RoninP2PTradeAgreement.sol\":7630:7673  agreements[agreementCounter] = newAgreement */\n      0x00\n      dup3\n      add\n      mload\n      dup2\n      0x00\n      add\n      exp(0x0100, 0x00)\n      dup2\n      sload\n      dup2\n      0xffffffffffffffffffffffffffffffffffffffff\n      mul\n      not\n      and\n      swap1\n      dup4\n      0xffffffffffffffffffffffffffffffffffffffff\n      and\n      mul\n      or\n      swap1\n      sstore\n      pop\n      0x20\n      dup3\n      add\n      mload\n      dup2\n      0x01\n      add\n      exp(0x0100, 0x00)\n      dup2\n      sload\n      dup2\n      0xffffffffffffffffffffffffffffffffffffffff\n      mul\n      not\n      and\n      swap1\n      dup4\n      0xffffffffffffffffffffffffffffffffffffffff\n      and\n      mul\n      or\n      swap1\n      sstore\n      pop\n      0x40\n      dup3\n      add\n      mload\n      dup2\n      0x02\n      add\n      swap1\n      dup1\n      mload\n      swap1\n      0x20\n      add\n      swap1\n      tag_74\n      swap3\n      swap2\n      swap1\n      tag_75\n      jump\t// in\n    tag_74:\n      pop\n      0x60\n      dup3\n      add\n      mload\n      dup2\n      0x03\n      add\n      swap1\n      dup1\n      mload\n      swap1\n      0x20\n      add\n      swap1\n      tag_76\n      swap3\n      swap2\n      swap1\n      tag_75\n      jump\t// in\n    tag_76:\n      pop\n      0x80\n      dup3\n      add\n      mload\n      dup2\n      0x04\n      add\n      swap1\n      dup1\n      mload\n      swap1\n      0x20\n      add\n      swap1\n      tag_77\n      swap3\n      swap2\n      swap1\n      tag_78\n      jump\t// in\n    tag_77:\n      pop\n      0xa0\n      dup3\n      add\n      mload\n      dup2\n      0x05\n      add\n      sstore\n      0xc0\n      dup3\n      add\n      mload\n      dup2\n      0x06\n      add\n      exp(0x0100, 0x00)\n      dup2\n      sload\n      dup2\n      0xff\n      mul\n      not\n      and\n      swap1\n      dup4\n      iszero\n      iszero\n      mul\n      or\n      swap1\n      sstore\n      pop\n      swap1\n      pop\n      pop\n        /* \"contracts/RoninP2PTradeAgreement.sol\":7980:8026  AgreementCreated(agreementCounter, msg.sender) */\n      0x9d0109af3593c414edfa74aa36ce36b7b0c4e261998d858618c7a982b423939a\n        /* \"contracts/RoninP2PTradeAgreement.sol\":7997:8013  agreementCounter */\n      sload(0x02)\n        /* \"contracts/RoninP2PTradeAgreement.sol\":8015:8025  msg.sender */\n      caller\n        /* \"contracts/RoninP2PTradeAgreement.sol\":7980:8026  AgreementCreated(agreementCounter, msg.sender) */\n      mload(0x40)\n      tag_79\n      swap3\n      swap2\n      swap1\n      tag_80\n      jump\t// in\n    tag_79:\n      mload(0x40)\n      dup1\n      swap2\n      sub\n      swap1\n      log1\n        /* \"contracts/RoninP2PTradeAgreement.sol\":8336:8352  agreementCounter */\n      0x02\n      0x00\n        /* \"contracts/RoninP2PTradeAgreement.sol\":8336:8354  agreementCounter++ */\n      dup2\n      sload\n      dup1\n      swap3\n      swap2\n      swap1\n      tag_81\n      swap1\n      tag_82\n      jump\t// in\n    tag_81:\n      swap2\n      swap1\n      pop\n      sstore\n      pop\n        /* \"contracts/RoninP2PTradeAgreement.sol\":4260:8669  {... */\n      pop\n        /* \"contracts/RoninP2PTradeAgreement.sol\":4122:8669  function createTradeAgreement(address[] memory nfts, address[] memory tokens, uint256[] memory tokenAmounts, address counterparty) public {... */\n      pop\n      pop\n      pop\n      pop\n      jump\t// out\n        /* \"contracts/RoninP2PTradeAgreement.sol\":1504:1563  mapping(address => UserTransaction) public userTransactions */\n    tag_26:\n      mstore(0x20, 0x01)\n      dup1\n      0x00\n      mstore\n      keccak256(0x00, 0x40)\n      0x00\n      swap2\n      pop\n      swap1\n      pop\n      dup1\n      0x00\n      add\n      sload\n      swap1\n      dup1\n      0x01\n      add\n      sload\n      swap1\n      pop\n      dup3\n      jump\t// out\n        /* \"contracts/RoninP2PTradeAgreement.sol\":1803:1837  RoninP2POffer public roninP2POffer */\n    tag_30:\n      0x03\n      0x00\n      swap1\n      sload\n      swap1\n      0x0100\n      exp\n      swap1\n      div\n      0xffffffffffffffffffffffffffffffffffffffff\n      and\n      dup2\n      jump\t// out\n        /* \"contracts/RoninP2PTradeAgreement.sol\":8987:9762  function viewTradeAgreement(uint256 agreementId) public view returns (Agreement memory) {... */\n    tag_36:\n        /* \"contracts/RoninP2PTradeAgreement.sol\":9057:9073  Agreement memory */\n      tag_83\n      tag_84\n      jump\t// in\n    tag_83:\n        /* \"contracts/RoninP2PTradeAgreement.sol\":9408:9418  agreements */\n      0x00\n        /* \"contracts/RoninP2PTradeAgreement.sol\":9408:9431  agreements[agreementId] */\n      dup1\n        /* \"contracts/RoninP2PTradeAgreement.sol\":9419:9430  agreementId */\n      dup4\n        /* \"contracts/RoninP2PTradeAgreement.sol\":9408:9431  agreements[agreementId] */\n      dup2\n      mstore\n      0x20\n      add\n      swap1\n      dup2\n      mstore\n      0x20\n      add\n      0x00\n      keccak256\n        /* \"contracts/RoninP2PTradeAgreement.sol\":9401:9431  return agreements[agreementId] */\n      mload(0x40)\n      dup1\n      0xe0\n      add\n      0x40\n      mstore\n      swap1\n      dup2\n      0x00\n      dup3\n      add\n      0x00\n      swap1\n      sload\n      swap1\n      0x0100\n      exp\n      swap1\n      div\n      0xffffffffffffffffffffffffffffffffffffffff\n      and\n      0xffffffffffffffffffffffffffffffffffffffff\n      and\n      0xffffffffffffffffffffffffffffffffffffffff\n      and\n      dup2\n      mstore\n      0x20\n      add\n      0x01\n      dup3\n      add\n      0x00\n      swap1\n      sload\n      swap1\n      0x0100\n      exp\n      swap1\n      div\n      0xffffffffffffffffffffffffffffffffffffffff\n      and\n      0xffffffffffffffffffffffffffffffffffffffff\n      and\n      0xffffffffffffffffffffffffffffffffffffffff\n      and\n      dup2\n      mstore\n      0x20\n      add\n      0x02\n      dup3\n      add\n      dup1\n      sload\n      dup1\n      0x20\n      mul\n      0x20\n      add\n      mload(0x40)\n      swap1\n      dup2\n      add\n      0x40\n      mstore\n      dup1\n      swap3\n      swap2\n      swap1\n      dup2\n      dup2\n      mstore\n      0x20\n      add\n      dup3\n      dup1\n      sload\n      dup1\n      iszero\n      tag_86\n      jumpi\n      0x20\n      mul\n      dup3\n      add\n      swap2\n      swap1\n      0x00\n      mstore\n      keccak256(0x00, 0x20)\n      swap1\n    tag_87:\n      dup2\n      0x00\n      swap1\n      sload\n      swap1\n      0x0100\n      exp\n      swap1\n      div\n      0xffffffffffffffffffffffffffffffffffffffff\n      and\n      0xffffffffffffffffffffffffffffffffffffffff\n      and\n      dup2\n      mstore\n      0x20\n      add\n      swap1\n      0x01\n      add\n      swap1\n      dup1\n      dup4\n      gt\n      tag_87\n      jumpi\n    tag_86:\n      pop\n      pop\n      pop\n      pop\n      pop\n      dup2\n      mstore\n      0x20\n      add\n      0x03\n      dup3\n      add\n      dup1\n      sload\n      dup1\n      0x20\n      mul\n      0x20\n      add\n      mload(0x40)\n      swap1\n      dup2\n      add\n      0x40\n      mstore\n      dup1\n      swap3\n      swap2\n      swap1\n      dup2\n      dup2\n      mstore\n      0x20\n      add\n      dup3\n      dup1\n      sload\n      dup1\n      iszero\n      tag_88\n      jumpi\n      0x20\n      mul\n      dup3\n      add\n      swap2\n      swap1\n      0x00\n      mstore\n      keccak256(0x00, 0x20)\n      swap1\n    tag_89:\n      dup2\n      0x00\n      swap1\n      sload\n      swap1\n      0x0100\n      exp\n      swap1\n      div\n      0xffffffffffffffffffffffffffffffffffffffff\n      and\n      0xffffffffffffffffffffffffffffffffffffffff\n      and\n      dup2\n      mstore\n      0x20\n      add\n      swap1\n      0x01\n      add\n      swap1\n      dup1\n      dup4\n      gt\n      tag_89\n      jumpi\n    tag_88:\n      pop\n      pop\n      pop\n      pop\n      pop\n      dup2\n      mstore\n      0x20\n      add\n      0x04\n      dup3\n      add\n      dup1\n      sload\n      dup1\n      0x20\n      mul\n      0x20\n      add\n      mload(0x40)\n      swap1\n      dup2\n      add\n      0x40\n      mstore\n      dup1\n      swap3\n      swap2\n      swap1\n      dup2\n      dup2\n      mstore\n      0x20\n      add\n      dup3\n      dup1\n      sload\n      dup1\n      iszero\n      tag_90\n      jumpi\n      0x20\n      mul\n      dup3\n      add\n      swap2\n      swap1\n      0x00\n      mstore\n      keccak256(0x00, 0x20)\n      swap1\n    tag_91:\n      dup2\n      sload\n      dup2\n      mstore\n      0x20\n      add\n      swap1\n      0x01\n      add\n      swap1\n      dup1\n      dup4\n      gt\n      tag_91\n      jumpi\n    tag_90:\n      pop\n      pop\n      pop\n      pop\n      pop\n      dup2\n      mstore\n      0x20\n      add\n      0x05\n      dup3\n      add\n      sload\n      dup2\n      mstore\n      0x20\n      add\n      0x06\n      dup3\n      add\n      0x00\n      swap1\n      sload\n      swap1\n      0x0100\n      exp\n      swap1\n      div\n      0xff\n      and\n      iszero\n      iszero\n      iszero\n      iszero\n      dup2\n      mstore\n      pop\n      pop\n      swap1\n      pop\n        /* \"contracts/RoninP2PTradeAgreement.sol\":8987:9762  function viewTradeAgreement(uint256 agreementId) public view returns (Agreement memory) {... */\n      swap2\n      swap1\n      pop\n      jump\t// out\n        /* \"contracts/RoninP2PTradeAgreement.sol\":38360:39967  function viewUserTransactions(address user) public view returns (UserTransaction memory) {... */\n    tag_41:\n        /* \"contracts/RoninP2PTradeAgreement.sol\":38425:38447  UserTransaction memory */\n      tag_92\n      tag_93\n      jump\t// in\n    tag_92:\n        /* \"contracts/RoninP2PTradeAgreement.sol\":39198:39214  userTransactions */\n      0x01\n        /* \"contracts/RoninP2PTradeAgreement.sol\":39198:39220  userTransactions[user] */\n      0x00\n        /* \"contracts/RoninP2PTradeAgreement.sol\":39215:39219  user */\n      dup4\n        /* \"contracts/RoninP2PTradeAgreement.sol\":39198:39220  userTransactions[user] */\n      0xffffffffffffffffffffffffffffffffffffffff\n      and\n      0xffffffffffffffffffffffffffffffffffffffff\n      and\n      dup2\n      mstore\n      0x20\n      add\n      swap1\n      dup2\n      mstore\n      0x20\n      add\n      0x00\n      keccak256\n        /* \"contracts/RoninP2PTradeAgreement.sol\":39191:39220  return userTransactions[user] */\n      mload(0x40)\n      dup1\n      0x40\n      add\n      0x40\n      mstore\n      swap1\n      dup2\n      0x00\n      dup3\n      add\n      sload\n      dup2\n      mstore\n      0x20\n      add\n      0x01\n      dup3\n      add\n      sload\n      dup2\n      mstore\n      pop\n      pop\n      swap1\n      pop\n        /* \"contracts/RoninP2PTradeAgreement.sol\":38360:39967  function viewUserTransactions(address user) public view returns (UserTransaction memory) {... */\n      swap2\n      swap1\n      pop\n      jump\t// out\n        /* \"contracts/RoninP2PTradeAgreement.sol\":33800:37626  function rejectTradeAgreement(uint256 agreementId) public {... */\n    tag_46:\n        /* \"contracts/RoninP2PTradeAgreement.sol\":34560:34587  Agreement storage agreement */\n      0x00\n        /* \"contracts/RoninP2PTradeAgreement.sol\":34590:34600  agreements */\n      dup1\n        /* \"contracts/RoninP2PTradeAgreement.sol\":34590:34613  agreements[agreementId] */\n      0x00\n        /* \"contracts/RoninP2PTradeAgreement.sol\":34601:34612  agreementId */\n      dup4\n        /* \"contracts/RoninP2PTradeAgreement.sol\":34590:34613  agreements[agreementId] */\n      dup2\n      mstore\n      0x20\n      add\n      swap1\n      dup2\n      mstore\n      0x20\n      add\n      0x00\n      keccak256\n        /* \"contracts/RoninP2PTradeAgreement.sol\":34560:34613  Agreement storage agreement = agreements[agreementId] */\n      swap1\n      pop\n        /* \"contracts/RoninP2PTradeAgreement.sol\":35331:35340  agreement */\n      dup1\n        /* \"contracts/RoninP2PTradeAgreement.sol\":35331:35349  agreement.isActive */\n      0x06\n      add\n      0x00\n      swap1\n      sload\n      swap1\n      0x0100\n      exp\n      swap1\n      div\n      0xff\n      and\n        /* \"contracts/RoninP2PTradeAgreement.sol\":35323:35377  require(agreement.isActive, \"Agreement is not active\") */\n      tag_96\n      jumpi\n      mload(0x40)\n      0x08c379a000000000000000000000000000000000000000000000000000000000\n      dup2\n      mstore\n      0x04\n      add\n      tag_97\n      swap1\n      tag_98\n      jump\t// in\n    tag_97:\n      mload(0x40)\n      dup1\n      swap2\n      sub\n      swap1\n      revert\n    tag_96:\n        /* \"contracts/RoninP2PTradeAgreement.sol\":36117:36122  false */\n      0x00\n        /* \"contracts/RoninP2PTradeAgreement.sol\":36096:36105  agreement */\n      dup2\n        /* \"contracts/RoninP2PTradeAgreement.sol\":36096:36114  agreement.isActive */\n      0x06\n      add\n      0x00\n        /* \"contracts/RoninP2PTradeAgreement.sol\":36096:36122  agreement.isActive = false */\n      0x0100\n      exp\n      dup2\n      sload\n      dup2\n      0xff\n      mul\n      not\n      and\n      swap1\n      dup4\n      iszero\n      iszero\n      mul\n      or\n      swap1\n      sstore\n      pop\n        /* \"contracts/RoninP2PTradeAgreement.sol\":36853:36895  AgreementRejected(agreementId, msg.sender) */\n      0x7afd8b4605290f0a5d60377a975d9372f863e39456013aed50642b4c6343b473\n        /* \"contracts/RoninP2PTradeAgreement.sol\":36871:36882  agreementId */\n      dup3\n        /* \"contracts/RoninP2PTradeAgreement.sol\":36884:36894  msg.sender */\n      caller\n        /* \"contracts/RoninP2PTradeAgreement.sol\":36853:36895  AgreementRejected(agreementId, msg.sender) */\n      mload(0x40)\n      tag_99\n      swap3\n      swap2\n      swap1\n      tag_80\n      jump\t// in\n    tag_99:\n      mload(0x40)\n      dup1\n      swap2\n      sub\n      swap1\n      log1\n        /* \"contracts/RoninP2PTradeAgreement.sol\":33858:37626  {... */\n      pop\n        /* \"contracts/RoninP2PTradeAgreement.sol\":33800:37626  function rejectTradeAgreement(uint256 agreementId) public {... */\n      pop\n      jump\t// out\n        /* \"contracts/RoninP2PTradeAgreement.sol\":15953:33106  function acceptTradeAgreement(uint256 agreementId, uint256 offerId) public {... */\n    tag_50:\n        /* \"contracts/RoninP2PTradeAgreement.sol\":16466:16493  Agreement storage agreement */\n      0x00\n        /* \"contracts/RoninP2PTradeAgreement.sol\":16496:16506  agreements */\n      dup1\n        /* \"contracts/RoninP2PTradeAgreement.sol\":16496:16519  agreements[agreementId] */\n      0x00\n        /* \"contracts/RoninP2PTradeAgreement.sol\":16507:16518  agreementId */\n      dup5\n        /* \"contracts/RoninP2PTradeAgreement.sol\":16496:16519  agreements[agreementId] */\n      dup2\n      mstore\n      0x20\n      add\n      swap1\n      dup2\n      mstore\n      0x20\n      add\n      0x00\n      keccak256\n        /* \"contracts/RoninP2PTradeAgreement.sol\":16466:16519  Agreement storage agreement = agreements[agreementId] */\n      swap1\n      pop\n        /* \"contracts/RoninP2PTradeAgreement.sol\":16973:16982  agreement */\n      dup1\n        /* \"contracts/RoninP2PTradeAgreement.sol\":16973:16991  agreement.isActive */\n      0x06\n      add\n      0x00\n      swap1\n      sload\n      swap1\n      0x0100\n      exp\n      swap1\n      div\n      0xff\n      and\n        /* \"contracts/RoninP2PTradeAgreement.sol\":16965:17019  require(agreement.isActive, \"Agreement is not active\") */\n      tag_101\n      jumpi\n      mload(0x40)\n      0x08c379a000000000000000000000000000000000000000000000000000000000\n      dup2\n      mstore\n      0x04\n      add\n      tag_102\n      swap1\n      tag_98\n      jump\t// in\n    tag_102:\n      mload(0x40)\n      dup1\n      swap2\n      sub\n      swap1\n      revert\n    tag_101:\n        /* \"contracts/RoninP2PTradeAgreement.sol\":17474:17513  RoninP2POffer.OfferDetails memory offer */\n      0x00\n        /* \"contracts/RoninP2PTradeAgreement.sol\":17516:17529  roninP2POffer */\n      0x03\n      0x00\n      swap1\n      sload\n      swap1\n      0x0100\n      exp\n      swap1\n      div\n      0xffffffffffffffffffffffffffffffffffffffff\n      and\n        /* \"contracts/RoninP2PTradeAgreement.sol\":17516:17539  roninP2POffer.viewOffer */\n      0xffffffffffffffffffffffffffffffffffffffff\n      and\n      0x9b55e638\n        /* \"contracts/RoninP2PTradeAgreement.sol\":17540:17547  offerId */\n      dup5\n        /* \"contracts/RoninP2PTradeAgreement.sol\":17516:17548  roninP2POffer.viewOffer(offerId) */\n      mload(0x40)\n      dup3\n      0xffffffff\n      and\n      0xe0\n      shl\n      dup2\n      mstore\n      0x04\n      add\n      tag_103\n      swap2\n      swap1\n      tag_18\n      jump\t// in\n    tag_103:\n      0x00\n      mload(0x40)\n      dup1\n      dup4\n      sub\n      dup2\n      dup7\n      gas\n      staticcall\n      iszero\n      dup1\n      iszero\n      tag_105\n      jumpi\n      returndatasize\n      0x00\n      dup1\n      returndatacopy\n      revert(0x00, returndatasize)\n    tag_105:\n      pop\n      pop\n      pop\n      pop\n      mload(0x40)\n      returndatasize\n      0x00\n      dup3\n      returndatacopy\n      returndatasize\n      not(0x1f)\n      0x1f\n      dup3\n      add\n      and\n      dup3\n      add\n      dup1\n      0x40\n      mstore\n      pop\n      dup2\n      add\n      swap1\n      tag_106\n      swap2\n      swap1\n      tag_107\n      jump\t// in\n    tag_106:\n        /* \"contracts/RoninP2PTradeAgreement.sol\":17474:17548  RoninP2POffer.OfferDetails memory offer = roninP2POffer.viewOffer(offerId) */\n      swap1\n      pop\n        /* \"contracts/RoninP2PTradeAgreement.sol\":18039:18050  agreementId */\n      dup4\n        /* \"contracts/RoninP2PTradeAgreement.sol\":18018:18023  offer */\n      dup2\n        /* \"contracts/RoninP2PTradeAgreement.sol\":18018:18035  offer.agreementId */\n      0x20\n      add\n      mload\n        /* \"contracts/RoninP2PTradeAgreement.sol\":18018:18050  offer.agreementId == agreementId */\n      eq\n        /* \"contracts/RoninP2PTradeAgreement.sol\":18010:18087  require(offer.agreementId == agreementId, \"Invalid offer for this agreement\") */\n      tag_108\n      jumpi\n      mload(0x40)\n      0x08c379a000000000000000000000000000000000000000000000000000000000\n      dup2\n      mstore\n      0x04\n      add\n      tag_109\n      swap1\n      tag_110\n      jump\t// in\n    tag_109:\n      mload(0x40)\n      dup1\n      swap2\n      sub\n      swap1\n      revert\n    tag_108:\n        /* \"contracts/RoninP2PTradeAgreement.sol\":18579:18584  false */\n      0x00\n        /* \"contracts/RoninP2PTradeAgreement.sol\":18558:18567  agreement */\n      dup3\n        /* \"contracts/RoninP2PTradeAgreement.sol\":18558:18576  agreement.isActive */\n      0x06\n      add\n      0x00\n        /* \"contracts/RoninP2PTradeAgreement.sol\":18558:18584  agreement.isActive = false */\n      0x0100\n      exp\n      dup2\n      sload\n      dup2\n      0xff\n      mul\n      not\n      and\n      swap1\n      dup4\n      iszero\n      iszero\n      mul\n      or\n      swap1\n      sstore\n      pop\n        /* \"contracts/RoninP2PTradeAgreement.sol\":19586:19595  uint256 i */\n      0x00\n        /* \"contracts/RoninP2PTradeAgreement.sol\":19581:21257  for (uint256 i = 0; i < agreement.nfts.length; i++) {... */\n    tag_111:\n        /* \"contracts/RoninP2PTradeAgreement.sol\":19605:19614  agreement */\n      dup3\n        /* \"contracts/RoninP2PTradeAgreement.sol\":19605:19619  agreement.nfts */\n      0x02\n      add\n        /* \"contracts/RoninP2PTradeAgreement.sol\":19605:19626  agreement.nfts.length */\n      dup1\n      sload\n      swap1\n      pop\n        /* \"contracts/RoninP2PTradeAgreement.sol\":19601:19602  i */\n      dup2\n        /* \"contracts/RoninP2PTradeAgreement.sol\":19601:19626  i < agreement.nfts.length */\n      lt\n        /* \"contracts/RoninP2PTradeAgreement.sol\":19581:21257  for (uint256 i = 0; i < agreement.nfts.length; i++) {... */\n      iszero\n      tag_112\n      jumpi\n        /* \"contracts/RoninP2PTradeAgreement.sol\":20131:20142  IERC721 nft */\n      0x00\n        /* \"contracts/RoninP2PTradeAgreement.sol\":20153:20162  agreement */\n      dup4\n        /* \"contracts/RoninP2PTradeAgreement.sol\":20153:20167  agreement.nfts */\n      0x02\n      add\n        /* \"contracts/RoninP2PTradeAgreement.sol\":20168:20169  i */\n      dup3\n        /* \"contracts/RoninP2PTradeAgreement.sol\":20153:20170  agreement.nfts[i] */\n      dup2\n      sload\n      dup2\n      lt\n      tag_114\n      jumpi\n      tag_115\n      tag_116\n      jump\t// in\n    tag_115:\n    tag_114:\n      swap1\n      0x00\n      mstore\n      keccak256(0x00, 0x20)\n      add\n      0x00\n      swap1\n      sload\n      swap1\n      0x0100\n      exp\n      swap1\n      div\n      0xffffffffffffffffffffffffffffffffffffffff\n      and\n        /* \"contracts/RoninP2PTradeAgreement.sol\":20131:20171  IERC721 nft = IERC721(agreement.nfts[i]) */\n      swap1\n      pop\n        /* \"contracts/RoninP2PTradeAgreement.sol\":20681:20684  nft */\n      dup1\n        /* \"contracts/RoninP2PTradeAgreement.sol\":20681:20701  nft.safeTransferFrom */\n      0xffffffffffffffffffffffffffffffffffffffff\n      and\n      0x42842e0e\n        /* \"contracts/RoninP2PTradeAgreement.sol\":20702:20711  agreement */\n      dup6\n        /* \"contracts/RoninP2PTradeAgreement.sol\":20702:20719  agreement.creator */\n      0x00\n      add\n      0x00\n      swap1\n      sload\n      swap1\n      0x0100\n      exp\n      swap1\n      div\n      0xffffffffffffffffffffffffffffffffffffffff\n      and\n        /* \"contracts/RoninP2PTradeAgreement.sol\":20721:20726  offer */\n      dup6\n        /* \"contracts/RoninP2PTradeAgreement.sol\":20721:20734  offer.offerer */\n      0x00\n      add\n      mload\n        /* \"contracts/RoninP2PTradeAgreement.sol\":20736:20737  i */\n      dup6\n        /* \"contracts/RoninP2PTradeAgreement.sol\":20681:20738  nft.safeTransferFrom(agreement.creator, offer.offerer, i) */\n      mload(0x40)\n      dup5\n      0xffffffff\n      and\n      0xe0\n      shl\n      dup2\n      mstore\n      0x04\n      add\n      tag_118\n      swap4\n      swap3\n      swap2\n      swap1\n      tag_119\n      jump\t// in\n    tag_118:\n      0x00\n      mload(0x40)\n      dup1\n      dup4\n      sub\n      dup2\n      0x00\n      dup8\n      dup1\n      extcodesize\n      iszero\n      dup1\n      iszero\n      tag_120\n      jumpi\n      0x00\n      dup1\n      revert\n    tag_120:\n      pop\n      gas\n      call\n      iszero\n      dup1\n      iszero\n      tag_122\n      jumpi\n      returndatasize\n      0x00\n      dup1\n      returndatacopy\n      revert(0x00, returndatasize)\n    tag_122:\n      pop\n      pop\n      pop\n      pop\n        /* \"contracts/RoninP2PTradeAgreement.sol\":19633:21257  {... */\n      pop\n        /* \"contracts/RoninP2PTradeAgreement.sol\":19628:19631  i++ */\n      dup1\n      dup1\n      0x01\n      add\n      swap2\n      pop\n      pop\n        /* \"contracts/RoninP2PTradeAgreement.sol\":19581:21257  for (uint256 i = 0; i < agreement.nfts.length; i++) {... */\n      jump(tag_111)\n    tag_112:\n      pop\n        /* \"contracts/RoninP2PTradeAgreement.sol\":22356:22365  uint256 i */\n      0x00\n        /* \"contracts/RoninP2PTradeAgreement.sol\":22351:24812  for (uint256 i = 0; i < agreement.tokens.length; i++) {... */\n    tag_123:\n        /* \"contracts/RoninP2PTradeAgreement.sol\":22375:22384  agreement */\n      dup3\n        /* \"contracts/RoninP2PTradeAgreement.sol\":22375:22391  agreement.tokens */\n      0x03\n      add\n        /* \"contracts/RoninP2PTradeAgreement.sol\":22375:22398  agreement.tokens.length */\n      dup1\n      sload\n      swap1\n      pop\n        /* \"contracts/RoninP2PTradeAgreement.sol\":22371:22372  i */\n      dup2\n        /* \"contracts/RoninP2PTradeAgreement.sol\":22371:22398  i < agreement.tokens.length */\n      lt\n        /* \"contracts/RoninP2PTradeAgreement.sol\":22351:24812  for (uint256 i = 0; i < agreement.tokens.length; i++) {... */\n      iszero\n      tag_124\n      jumpi\n        /* \"contracts/RoninP2PTradeAgreement.sol\":22951:22963  IERC20 token */\n      0x00\n        /* \"contracts/RoninP2PTradeAgreement.sol\":22973:22982  agreement */\n      dup4\n        /* \"contracts/RoninP2PTradeAgreement.sol\":22973:22989  agreement.tokens */\n      0x03\n      add\n        /* \"contracts/RoninP2PTradeAgreement.sol\":22990:22991  i */\n      dup3\n        /* \"contracts/RoninP2PTradeAgreement.sol\":22973:22992  agreement.tokens[i] */\n      dup2\n      sload\n      dup2\n      lt\n      tag_126\n      jumpi\n      tag_127\n      tag_116\n      jump\t// in\n    tag_127:\n    tag_126:\n      swap1\n      0x00\n      mstore\n      keccak256(0x00, 0x20)\n      add\n      0x00\n      swap1\n      sload\n      swap1\n      0x0100\n      exp\n      swap1\n      div\n      0xffffffffffffffffffffffffffffffffffffffff\n      and\n        /* \"contracts/RoninP2PTradeAgreement.sol\":22951:22993  IERC20 token = IERC20(agreement.tokens[i]) */\n      swap1\n      pop\n        /* \"contracts/RoninP2PTradeAgreement.sol\":23551:23570  uint256 tokenAmount */\n      0x00\n        /* \"contracts/RoninP2PTradeAgreement.sol\":23573:23582  agreement */\n      dup5\n        /* \"contracts/RoninP2PTradeAgreement.sol\":23573:23595  agreement.tokenAmounts */\n      0x04\n      add\n        /* \"contracts/RoninP2PTradeAgreement.sol\":23596:23597  i */\n      dup4\n        /* \"contracts/RoninP2PTradeAgreement.sol\":23573:23598  agreement.tokenAmounts[i] */\n      dup2\n      sload\n      dup2\n      lt\n      tag_129\n      jumpi\n      tag_130\n      tag_116\n      jump\t// in\n    tag_130:\n    tag_129:\n      swap1\n      0x00\n      mstore\n      keccak256(0x00, 0x20)\n      add\n      sload\n        /* \"contracts/RoninP2PTradeAgreement.sol\":23551:23598  uint256 tokenAmount = agreement.tokenAmounts[i] */\n      swap1\n      pop\n        /* \"contracts/RoninP2PTradeAgreement.sol\":24168:24173  token */\n      dup2\n        /* \"contracts/RoninP2PTradeAgreement.sol\":24168:24186  token.transferFrom */\n      0xffffffffffffffffffffffffffffffffffffffff\n      and\n      0x23b872dd\n        /* \"contracts/RoninP2PTradeAgreement.sol\":24187:24192  offer */\n      dup6\n        /* \"contracts/RoninP2PTradeAgreement.sol\":24187:24200  offer.offerer */\n      0x00\n      add\n      mload\n        /* \"contracts/RoninP2PTradeAgreement.sol\":24202:24211  agreement */\n      dup8\n        /* \"contracts/RoninP2PTradeAgreement.sol\":24202:24219  agreement.creator */\n      0x00\n      add\n      0x00\n      swap1\n      sload\n      swap1\n      0x0100\n      exp\n      swap1\n      div\n      0xffffffffffffffffffffffffffffffffffffffff\n      and\n        /* \"contracts/RoninP2PTradeAgreement.sol\":24221:24232  tokenAmount */\n      dup5\n        /* \"contracts/RoninP2PTradeAgreement.sol\":24168:24233  token.transferFrom(offer.offerer, agreement.creator, tokenAmount) */\n      mload(0x40)\n      dup5\n      0xffffffff\n      and\n      0xe0\n      shl\n      dup2\n      mstore\n      0x04\n      add\n      tag_132\n      swap4\n      swap3\n      swap2\n      swap1\n      tag_119\n      jump\t// in\n    tag_132:\n      0x20\n      mload(0x40)\n      dup1\n      dup4\n      sub\n      dup2\n      0x00\n      dup8\n      gas\n      call\n      iszero\n      dup1\n      iszero\n      tag_134\n      jumpi\n      returndatasize\n      0x00\n      dup1\n      returndatacopy\n      revert(0x00, returndatasize)\n    tag_134:\n      pop\n      pop\n      pop\n      pop\n      mload(0x40)\n      returndatasize\n      not(0x1f)\n      0x1f\n      dup3\n      add\n      and\n      dup3\n      add\n      dup1\n      0x40\n      mstore\n      pop\n      dup2\n      add\n      swap1\n      tag_135\n      swap2\n      swap1\n      tag_136\n      jump\t// in\n    tag_135:\n      pop\n        /* \"contracts/RoninP2PTradeAgreement.sol\":22405:24812  {... */\n      pop\n      pop\n        /* \"contracts/RoninP2PTradeAgreement.sol\":22400:22403  i++ */\n      dup1\n      dup1\n      0x01\n      add\n      swap2\n      pop\n      pop\n        /* \"contracts/RoninP2PTradeAgreement.sol\":22351:24812  for (uint256 i = 0; i < agreement.tokens.length; i++) {... */\n      jump(tag_123)\n    tag_124:\n      pop\n        /* \"contracts/RoninP2PTradeAgreement.sol\":26020:26029  uint256 i */\n      0x00\n        /* \"contracts/RoninP2PTradeAgreement.sol\":26015:30159  for (uint256 i = 0; i < agreement.tokens.length; i++) {... */\n    tag_137:\n        /* \"contracts/RoninP2PTradeAgreement.sol\":26039:26048  agreement */\n      dup3\n        /* \"contracts/RoninP2PTradeAgreement.sol\":26039:26055  agreement.tokens */\n      0x03\n      add\n        /* \"contracts/RoninP2PTradeAgreement.sol\":26039:26062  agreement.tokens.length */\n      dup1\n      sload\n      swap1\n      pop\n        /* \"contracts/RoninP2PTradeAgreement.sol\":26035:26036  i */\n      dup2\n        /* \"contracts/RoninP2PTradeAgreement.sol\":26035:26062  i < agreement.tokens.length */\n      lt\n        /* \"contracts/RoninP2PTradeAgreement.sol\":26015:30159  for (uint256 i = 0; i < agreement.tokens.length; i++) {... */\n      iszero\n      tag_138\n      jumpi\n        /* \"contracts/RoninP2PTradeAgreement.sol\":26675:26694  uint256 tokenAmount */\n      0x00\n        /* \"contracts/RoninP2PTradeAgreement.sol\":26697:26706  agreement */\n      dup4\n        /* \"contracts/RoninP2PTradeAgreement.sol\":26697:26719  agreement.tokenAmounts */\n      0x04\n      add\n        /* \"contracts/RoninP2PTradeAgreement.sol\":26720:26721  i */\n      dup3\n        /* \"contracts/RoninP2PTradeAgreement.sol\":26697:26722  agreement.tokenAmounts[i] */\n      dup2\n      sload\n      dup2\n      lt\n      tag_140\n      jumpi\n      tag_141\n      tag_116\n      jump\t// in\n    tag_141:\n    tag_140:\n      swap1\n      0x00\n      mstore\n      keccak256(0x00, 0x20)\n      add\n      sload\n        /* \"contracts/RoninP2PTradeAgreement.sol\":26675:26722  uint256 tokenAmount = agreement.tokenAmounts[i] */\n      swap1\n      pop\n        /* \"contracts/RoninP2PTradeAgreement.sol\":27391:27402  tokenAmount */\n      dup1\n        /* \"contracts/RoninP2PTradeAgreement.sol\":27340:27356  userTransactions */\n      0x01\n        /* \"contracts/RoninP2PTradeAgreement.sol\":27340:27375  userTransactions[agreement.creator] */\n      0x00\n        /* \"contracts/RoninP2PTradeAgreement.sol\":27357:27366  agreement */\n      dup7\n        /* \"contracts/RoninP2PTradeAgreement.sol\":27357:27374  agreement.creator */\n      0x00\n      add\n      0x00\n      swap1\n      sload\n      swap1\n      0x0100\n      exp\n      swap1\n      div\n      0xffffffffffffffffffffffffffffffffffffffff\n      and\n        /* \"contracts/RoninP2PTradeAgreement.sol\":27340:27375  userTransactions[agreement.creator] */\n      0xffffffffffffffffffffffffffffffffffffffff\n      and\n      0xffffffffffffffffffffffffffffffffffffffff\n      and\n      dup2\n      mstore\n      0x20\n      add\n      swap1\n      dup2\n      mstore\n      0x20\n      add\n      0x00\n      keccak256\n        /* \"contracts/RoninP2PTradeAgreement.sol\":27340:27387  userTransactions[agreement.creator].totalAmount */\n      0x00\n      add\n      0x00\n        /* \"contracts/RoninP2PTradeAgreement.sol\":27340:27402  userTransactions[agreement.creator].totalAmount += tokenAmount */\n      dup3\n      dup3\n      sload\n      tag_143\n      swap2\n      swap1\n      tag_144\n      jump\t// in\n    tag_143:\n      swap3\n      pop\n      pop\n      dup2\n      swap1\n      sstore\n      pop\n        /* \"contracts/RoninP2PTradeAgreement.sol\":28088:28089  1 */\n      0x01\n        /* \"contracts/RoninP2PTradeAgreement.sol\":28032:28048  userTransactions */\n      dup1\n        /* \"contracts/RoninP2PTradeAgreement.sol\":28032:28067  userTransactions[agreement.creator] */\n      0x00\n        /* \"contracts/RoninP2PTradeAgreement.sol\":28049:28058  agreement */\n      dup7\n        /* \"contracts/RoninP2PTradeAgreement.sol\":28049:28066  agreement.creator */\n      0x00\n      add\n      0x00\n      swap1\n      sload\n      swap1\n      0x0100\n      exp\n      swap1\n      div\n      0xffffffffffffffffffffffffffffffffffffffff\n      and\n        /* \"contracts/RoninP2PTradeAgreement.sol\":28032:28067  userTransactions[agreement.creator] */\n      0xffffffffffffffffffffffffffffffffffffffff\n      and\n      0xffffffffffffffffffffffffffffffffffffffff\n      and\n      dup2\n      mstore\n      0x20\n      add\n      swap1\n      dup2\n      mstore\n      0x20\n      add\n      0x00\n      keccak256\n        /* \"contracts/RoninP2PTradeAgreement.sol\":28032:28084  userTransactions[agreement.creator].transactionCount */\n      0x01\n      add\n      0x00\n        /* \"contracts/RoninP2PTradeAgreement.sol\":28032:28089  userTransactions[agreement.creator].transactionCount += 1 */\n      dup3\n      dup3\n      sload\n      tag_145\n      swap2\n      swap1\n      tag_144\n      jump\t// in\n    tag_145:\n      swap3\n      pop\n      pop\n      dup2\n      swap1\n      sstore\n      pop\n        /* \"contracts/RoninP2PTradeAgreement.sol\":28778:28789  tokenAmount */\n      dup1\n        /* \"contracts/RoninP2PTradeAgreement.sol\":28731:28747  userTransactions */\n      0x01\n        /* \"contracts/RoninP2PTradeAgreement.sol\":28731:28762  userTransactions[offer.offerer] */\n      0x00\n        /* \"contracts/RoninP2PTradeAgreement.sol\":28748:28753  offer */\n      dup6\n        /* \"contracts/RoninP2PTradeAgreement.sol\":28748:28761  offer.offerer */\n      0x00\n      add\n      mload\n        /* \"contracts/RoninP2PTradeAgreement.sol\":28731:28762  userTransactions[offer.offerer] */\n      0xffffffffffffffffffffffffffffffffffffffff\n      and\n      0xffffffffffffffffffffffffffffffffffffffff\n      and\n      dup2\n      mstore\n      0x20\n      add\n      swap1\n      dup2\n      mstore\n      0x20\n      add\n      0x00\n      keccak256\n        /* \"contracts/RoninP2PTradeAgreement.sol\":28731:28774  userTransactions[offer.offerer].totalAmount */\n      0x00\n      add\n      0x00\n        /* \"contracts/RoninP2PTradeAgreement.sol\":28731:28789  userTransactions[offer.offerer].totalAmount += tokenAmount */\n      dup3\n      dup3\n      sload\n      tag_146\n      swap2\n      swap1\n      tag_144\n      jump\t// in\n    tag_146:\n      swap3\n      pop\n      pop\n      dup2\n      swap1\n      sstore\n      pop\n        /* \"contracts/RoninP2PTradeAgreement.sol\":29495:29496  1 */\n      0x01\n        /* \"contracts/RoninP2PTradeAgreement.sol\":29443:29459  userTransactions */\n      dup1\n        /* \"contracts/RoninP2PTradeAgreement.sol\":29443:29474  userTransactions[offer.offerer] */\n      0x00\n        /* \"contracts/RoninP2PTradeAgreement.sol\":29460:29465  offer */\n      dup6\n        /* \"contracts/RoninP2PTradeAgreement.sol\":29460:29473  offer.offerer */\n      0x00\n      add\n      mload\n        /* \"contracts/RoninP2PTradeAgreement.sol\":29443:29474  userTransactions[offer.offerer] */\n      0xffffffffffffffffffffffffffffffffffffffff\n      and\n      0xffffffffffffffffffffffffffffffffffffffff\n      and\n      dup2\n      mstore\n      0x20\n      add\n      swap1\n      dup2\n      mstore\n      0x20\n      add\n      0x00\n      keccak256\n        /* \"contracts/RoninP2PTradeAgreement.sol\":29443:29491  userTransactions[offer.offerer].transactionCount */\n      0x01\n      add\n      0x00\n        /* \"contracts/RoninP2PTradeAgreement.sol\":29443:29496  userTransactions[offer.offerer].transactionCount += 1 */\n      dup3\n      dup3\n      sload\n      tag_147\n      swap2\n      swap1\n      tag_144\n      jump\t// in\n    tag_147:\n      swap3\n      pop\n      pop\n      dup2\n      swap1\n      sstore\n      pop\n        /* \"contracts/RoninP2PTradeAgreement.sol\":26069:30159  {... */\n      pop\n        /* \"contracts/RoninP2PTradeAgreement.sol\":26064:26067  i++ */\n      dup1\n      dup1\n      0x01\n      add\n      swap2\n      pop\n      pop\n        /* \"contracts/RoninP2PTradeAgreement.sol\":26015:30159  for (uint256 i = 0; i < agreement.tokens.length; i++) {... */\n      jump(tag_137)\n    tag_138:\n      pop\n        /* \"contracts/RoninP2PTradeAgreement.sol\":30834:30886  UserTransactionLogged(agreement.creator, 1 * 10**18) */\n      0xd9b0ce8f98a79881ceac32107fbd8ea4033cbd5b62f2f41b562867d1c35e5b17\n        /* \"contracts/RoninP2PTradeAgreement.sol\":30856:30865  agreement */\n      dup3\n        /* \"contracts/RoninP2PTradeAgreement.sol\":30856:30873  agreement.creator */\n      0x00\n      add\n      0x00\n      swap1\n      sload\n      swap1\n      0x0100\n      exp\n      swap1\n      div\n      0xffffffffffffffffffffffffffffffffffffffff\n      and\n        /* \"contracts/RoninP2PTradeAgreement.sol\":30875:30885  1 * 10**18 */\n      0x0de0b6b3a7640000\n        /* \"contracts/RoninP2PTradeAgreement.sol\":30834:30886  UserTransactionLogged(agreement.creator, 1 * 10**18) */\n      mload(0x40)\n      tag_148\n      swap3\n      swap2\n      swap1\n      tag_149\n      jump\t// in\n    tag_148:\n      mload(0x40)\n      dup1\n      swap2\n      sub\n      swap1\n      log1\n        /* \"contracts/RoninP2PTradeAgreement.sol\":31601:31649  UserTransactionLogged(offer.offerer, 1 * 10**18) */\n      0xd9b0ce8f98a79881ceac32107fbd8ea4033cbd5b62f2f41b562867d1c35e5b17\n        /* \"contracts/RoninP2PTradeAgreement.sol\":31623:31628  offer */\n      dup2\n        /* \"contracts/RoninP2PTradeAgreement.sol\":31623:31636  offer.offerer */\n      0x00\n      add\n      mload\n        /* \"contracts/RoninP2PTradeAgreement.sol\":31638:31648  1 * 10**18 */\n      0x0de0b6b3a7640000\n        /* \"contracts/RoninP2PTradeAgreement.sol\":31601:31649  UserTransactionLogged(offer.offerer, 1 * 10**18) */\n      mload(0x40)\n      tag_150\n      swap3\n      swap2\n      swap1\n      tag_149\n      jump\t// in\n    tag_150:\n      mload(0x40)\n      dup1\n      swap2\n      sub\n      swap1\n      log1\n        /* \"contracts/RoninP2PTradeAgreement.sol\":32373:32415  AgreementAccepted(agreementId, msg.sender) */\n      0xf224101ad9200623928d9e682ba2635e7cc131c0927bce7b9c0ae8a8cb218793\n        /* \"contracts/RoninP2PTradeAgreement.sol\":32391:32402  agreementId */\n      dup5\n        /* \"contracts/RoninP2PTradeAgreement.sol\":32404:32414  msg.sender */\n      caller\n        /* \"contracts/RoninP2PTradeAgreement.sol\":32373:32415  AgreementAccepted(agreementId, msg.sender) */\n      mload(0x40)\n      tag_151\n      swap3\n      swap2\n      swap1\n      tag_80\n      jump\t// in\n    tag_151:\n      mload(0x40)\n      dup1\n      swap2\n      sub\n      swap1\n      log1\n        /* \"contracts/RoninP2PTradeAgreement.sol\":16028:33106  {... */\n      pop\n      pop\n        /* \"contracts/RoninP2PTradeAgreement.sol\":15953:33106  function acceptTradeAgreement(uint256 agreementId, uint256 offerId) public {... */\n      pop\n      pop\n      jump\t// out\n        /* \"contracts/RoninP2PTradeAgreement.sol\":1359:1406  mapping(uint256 => Agreement) public agreements */\n    tag_53:\n      mstore(0x20, 0x00)\n      dup1\n      0x00\n      mstore\n      keccak256(0x00, 0x40)\n      0x00\n      swap2\n      pop\n      swap1\n      pop\n      dup1\n      0x00\n      add\n      0x00\n      swap1\n      sload\n      swap1\n      0x0100\n      exp\n      swap1\n      div\n      0xffffffffffffffffffffffffffffffffffffffff\n      and\n      swap1\n      dup1\n      0x01\n      add\n      0x00\n      swap1\n      sload\n      swap1\n      0x0100\n      exp\n      swap1\n      div\n      0xffffffffffffffffffffffffffffffffffffffff\n      and\n      swap1\n      dup1\n      0x05\n      add\n      sload\n      swap1\n      dup1\n      0x06\n      add\n      0x00\n      swap1\n      sload\n      swap1\n      0x0100\n      exp\n      swap1\n      div\n      0xff\n      and\n      swap1\n      pop\n      dup5\n      jump\t// out\n        /* \"contracts/RoninP2PTradeAgreement.sol\":1947:2019  RoninP2PFeeAndRewardDistribution public roninP2PFeeAndRewardDistribution */\n    tag_57:\n      0x04\n      0x00\n      swap1\n      sload\n      swap1\n      0x0100\n      exp\n      swap1\n      div\n      0xffffffffffffffffffffffffffffffffffffffff\n      and\n      dup2\n      jump\t// out\n        /* \"contracts/RoninP2PTradeAgreement.sol\":10096:15523  function modifyTradeAgreement(uint256 agreementId, address[] memory newNfts, address[] memory newTokens, uint256[] memory newTokenAmounts) public {... */\n    tag_63:\n        /* \"contracts/RoninP2PTradeAgreement.sol\":10584:10611  Agreement storage agreement */\n      0x00\n        /* \"contracts/RoninP2PTradeAgreement.sol\":10614:10624  agreements */\n      dup1\n        /* \"contracts/RoninP2PTradeAgreement.sol\":10614:10637  agreements[agreementId] */\n      0x00\n        /* \"contracts/RoninP2PTradeAgreement.sol\":10625:10636  agreementId */\n      dup7\n        /* \"contracts/RoninP2PTradeAgreement.sol\":10614:10637  agreements[agreementId] */\n      dup2\n      mstore\n      0x20\n      add\n      swap1\n      dup2\n      mstore\n      0x20\n      add\n      0x00\n      keccak256\n        /* \"contracts/RoninP2PTradeAgreement.sol\":10584:10637  Agreement storage agreement = agreements[agreementId] */\n      swap1\n      pop\n        /* \"contracts/RoninP2PTradeAgreement.sol\":11009:11018  agreement */\n      dup1\n        /* \"contracts/RoninP2PTradeAgreement.sol\":11009:11026  agreement.creator */\n      0x00\n      add\n      0x00\n      swap1\n      sload\n      swap1\n      0x0100\n      exp\n      swap1\n      div\n      0xffffffffffffffffffffffffffffffffffffffff\n      and\n        /* \"contracts/RoninP2PTradeAgreement.sol\":10995:11026  msg.sender == agreement.creator */\n      0xffffffffffffffffffffffffffffffffffffffff\n      and\n        /* \"contracts/RoninP2PTradeAgreement.sol\":10995:11005  msg.sender */\n      caller\n        /* \"contracts/RoninP2PTradeAgreement.sol\":10995:11026  msg.sender == agreement.creator */\n      0xffffffffffffffffffffffffffffffffffffffff\n      and\n      eq\n        /* \"contracts/RoninP2PTradeAgreement.sol\":10995:11066  msg.sender == agreement.creator || msg.sender == agreement.counterparty */\n      dup1\n      tag_153\n      jumpi\n      pop\n        /* \"contracts/RoninP2PTradeAgreement.sol\":11044:11053  agreement */\n      dup1\n        /* \"contracts/RoninP2PTradeAgreement.sol\":11044:11066  agreement.counterparty */\n      0x01\n      add\n      0x00\n      swap1\n      sload\n      swap1\n      0x0100\n      exp\n      swap1\n      div\n      0xffffffffffffffffffffffffffffffffffffffff\n      and\n        /* \"contracts/RoninP2PTradeAgreement.sol\":11030:11066  msg.sender == agreement.counterparty */\n      0xffffffffffffffffffffffffffffffffffffffff\n      and\n        /* \"contracts/RoninP2PTradeAgreement.sol\":11030:11040  msg.sender */\n      caller\n        /* \"contracts/RoninP2PTradeAgreement.sol\":11030:11066  msg.sender == agreement.counterparty */\n      0xffffffffffffffffffffffffffffffffffffffff\n      and\n      eq\n        /* \"contracts/RoninP2PTradeAgreement.sol\":10995:11066  msg.sender == agreement.creator || msg.sender == agreement.counterparty */\n    tag_153:\n        /* \"contracts/RoninP2PTradeAgreement.sol\":10987:11110  require(msg.sender == agreement.creator || msg.sender == agreement.counterparty, \"Only creator or counterparty can modify\") */\n      tag_154\n      jumpi\n      mload(0x40)\n      0x08c379a000000000000000000000000000000000000000000000000000000000\n      dup2\n      mstore\n      0x04\n      add\n      tag_155\n      swap1\n      tag_156\n      jump\t// in\n    tag_155:\n      mload(0x40)\n      dup1\n      swap2\n      sub\n      swap1\n      revert\n    tag_154:\n        /* \"contracts/RoninP2PTradeAgreement.sol\":11506:11507  3 */\n      0x03\n        /* \"contracts/RoninP2PTradeAgreement.sol\":11476:11485  agreement */\n      dup2\n        /* \"contracts/RoninP2PTradeAgreement.sol\":11476:11503  agreement.modificationCount */\n      0x05\n      add\n      sload\n        /* \"contracts/RoninP2PTradeAgreement.sol\":11476:11507  agreement.modificationCount < 3 */\n      lt\n        /* \"contracts/RoninP2PTradeAgreement.sol\":11468:11538  require(agreement.modificationCount < 3, \"Modification limit reached\") */\n      tag_157\n      jumpi\n      mload(0x40)\n      0x08c379a000000000000000000000000000000000000000000000000000000000\n      dup2\n      mstore\n      0x04\n      add\n      tag_158\n      swap1\n      tag_159\n      jump\t// in\n    tag_158:\n      mload(0x40)\n      dup1\n      swap2\n      sub\n      swap1\n      revert\n    tag_157:\n        /* \"contracts/RoninP2PTradeAgreement.sol\":11930:11931  5 */\n      0x05\n        /* \"contracts/RoninP2PTradeAgreement.sol\":11912:11919  newNfts */\n      dup5\n        /* \"contracts/RoninP2PTradeAgreement.sol\":11912:11926  newNfts.length */\n      mload\n        /* \"contracts/RoninP2PTradeAgreement.sol\":11912:11931  newNfts.length <= 5 */\n      gt\n      iszero\n        /* \"contracts/RoninP2PTradeAgreement.sol\":11904:11958  require(newNfts.length <= 5, \"Maximum 5 NFTs allowed\") */\n      tag_160\n      jumpi\n      mload(0x40)\n      0x08c379a000000000000000000000000000000000000000000000000000000000\n      dup2\n      mstore\n      0x04\n      add\n      tag_161\n      swap1\n      tag_67\n      jump\t// in\n    tag_161:\n      mload(0x40)\n      dup1\n      swap2\n      sub\n      swap1\n      revert\n    tag_160:\n        /* \"contracts/RoninP2PTradeAgreement.sol\":12360:12361  5 */\n      0x05\n        /* \"contracts/RoninP2PTradeAgreement.sol\":12340:12349  newTokens */\n      dup4\n        /* \"contracts/RoninP2PTradeAgreement.sol\":12340:12356  newTokens.length */\n      mload\n        /* \"contracts/RoninP2PTradeAgreement.sol\":12340:12361  newTokens.length <= 5 */\n      gt\n      iszero\n        /* \"contracts/RoninP2PTradeAgreement.sol\":12332:12390  require(newTokens.length <= 5, \"Maximum 5 tokens allowed\") */\n      tag_162\n      jumpi\n      mload(0x40)\n      0x08c379a000000000000000000000000000000000000000000000000000000000\n      dup2\n      mstore\n      0x04\n      add\n      tag_163\n      swap1\n      tag_70\n      jump\t// in\n    tag_163:\n      mload(0x40)\n      dup1\n      swap2\n      sub\n      swap1\n      revert\n    tag_162:\n        /* \"contracts/RoninP2PTradeAgreement.sol\":12800:12815  newTokenAmounts */\n      dup2\n        /* \"contracts/RoninP2PTradeAgreement.sol\":12800:12822  newTokenAmounts.length */\n      mload\n        /* \"contracts/RoninP2PTradeAgreement.sol\":12780:12789  newTokens */\n      dup4\n        /* \"contracts/RoninP2PTradeAgreement.sol\":12780:12796  newTokens.length */\n      mload\n        /* \"contracts/RoninP2PTradeAgreement.sol\":12780:12822  newTokens.length == newTokenAmounts.length */\n      eq\n        /* \"contracts/RoninP2PTradeAgreement.sol\":12772:12866  require(newTokens.length == newTokenAmounts.length, \"Tokens and tokenAmounts length mismatch\") */\n      tag_164\n      jumpi\n      mload(0x40)\n      0x08c379a000000000000000000000000000000000000000000000000000000000\n      dup2\n      mstore\n      0x04\n      add\n      tag_165\n      swap1\n      tag_73\n      jump\t// in\n    tag_165:\n      mload(0x40)\n      dup1\n      swap2\n      sub\n      swap1\n      revert\n    tag_164:\n        /* \"contracts/RoninP2PTradeAgreement.sol\":13274:13281  newNfts */\n      dup4\n        /* \"contracts/RoninP2PTradeAgreement.sol\":13257:13266  agreement */\n      dup2\n        /* \"contracts/RoninP2PTradeAgreement.sol\":13257:13271  agreement.nfts */\n      0x02\n      add\n        /* \"contracts/RoninP2PTradeAgreement.sol\":13257:13281  agreement.nfts = newNfts */\n      swap1\n      dup1\n      mload\n      swap1\n      0x20\n      add\n      swap1\n      tag_166\n      swap3\n      swap2\n      swap1\n      tag_75\n      jump\t// in\n    tag_166:\n      pop\n        /* \"contracts/RoninP2PTradeAgreement.sol\":13698:13707  newTokens */\n      dup3\n        /* \"contracts/RoninP2PTradeAgreement.sol\":13679:13688  agreement */\n      dup2\n        /* \"contracts/RoninP2PTradeAgreement.sol\":13679:13695  agreement.tokens */\n      0x03\n      add\n        /* \"contracts/RoninP2PTradeAgreement.sol\":13679:13707  agreement.tokens = newTokens */\n      swap1\n      dup1\n      mload\n      swap1\n      0x20\n      add\n      swap1\n      tag_167\n      swap3\n      swap2\n      swap1\n      tag_75\n      jump\t// in\n    tag_167:\n      pop\n        /* \"contracts/RoninP2PTradeAgreement.sol\":14138:14153  newTokenAmounts */\n      dup2\n        /* \"contracts/RoninP2PTradeAgreement.sol\":14113:14122  agreement */\n      dup2\n        /* \"contracts/RoninP2PTradeAgreement.sol\":14113:14135  agreement.tokenAmounts */\n      0x04\n      add\n        /* \"contracts/RoninP2PTradeAgreement.sol\":14113:14153  agreement.tokenAmounts = newTokenAmounts */\n      swap1\n      dup1\n      mload\n      swap1\n      0x20\n      add\n      swap1\n      tag_168\n      swap3\n      swap2\n      swap1\n      tag_78\n      jump\t// in\n    tag_168:\n      pop\n        /* \"contracts/RoninP2PTradeAgreement.sol\":14567:14576  agreement */\n      dup1\n        /* \"contracts/RoninP2PTradeAgreement.sol\":14567:14594  agreement.modificationCount */\n      0x05\n      add\n      0x00\n        /* \"contracts/RoninP2PTradeAgreement.sol\":14567:14596  agreement.modificationCount++ */\n      dup2\n      sload\n      dup1\n      swap3\n      swap2\n      swap1\n      tag_169\n      swap1\n      tag_82\n      jump\t// in\n    tag_169:\n      swap2\n      swap1\n      pop\n      sstore\n      pop\n        /* \"contracts/RoninP2PTradeAgreement.sol\":15023:15065  AgreementModified(agreementId, msg.sender) */\n      0x4c361a31ca057741d142cc29a91921ca2650cf4cde46ce70dacaade3fbc06cba\n        /* \"contracts/RoninP2PTradeAgreement.sol\":15041:15052  agreementId */\n      dup6\n        /* \"contracts/RoninP2PTradeAgreement.sol\":15054:15064  msg.sender */\n      caller\n        /* \"contracts/RoninP2PTradeAgreement.sol\":15023:15065  AgreementModified(agreementId, msg.sender) */\n      mload(0x40)\n      tag_170\n      swap3\n      swap2\n      swap1\n      tag_80\n      jump\t// in\n    tag_170:\n      mload(0x40)\n      dup1\n      swap2\n      sub\n      swap1\n      log1\n        /* \"contracts/RoninP2PTradeAgreement.sol\":10242:15523  {... */\n      pop\n        /* \"contracts/RoninP2PTradeAgreement.sol\":10096:15523  function modifyTradeAgreement(uint256 agreementId, address[] memory newNfts, address[] memory newTokens, uint256[] memory newTokenAmounts) public {... */\n      pop\n      pop\n      pop\n      pop\n      jump\t// out\n    tag_75:\n      dup3\n      dup1\n      sload\n      dup3\n      dup3\n      sstore\n      swap1\n      0x00\n      mstore\n      keccak256(0x00, 0x20)\n      swap1\n      dup2\n      add\n      swap3\n      dup3\n      iszero\n      tag_171\n      jumpi\n      swap2\n      0x20\n      mul\n      dup3\n      add\n    tag_172:\n      dup3\n      dup2\n      gt\n      iszero\n      tag_173\n      jumpi\n      dup3\n      mload\n      dup3\n      exp(0x0100, 0x00)\n      dup2\n      sload\n      dup2\n      0xffffffffffffffffffffffffffffffffffffffff\n      mul\n      not\n      and\n      swap1\n      dup4\n      0xffffffffffffffffffffffffffffffffffffffff\n      and\n      mul\n      or\n      swap1\n      sstore\n      pop\n      swap2\n      0x20\n      add\n      swap2\n      swap1\n      0x01\n      add\n      swap1\n      jump(tag_172)\n    tag_173:\n    tag_171:\n      pop\n      swap1\n      pop\n      tag_174\n      swap2\n      swap1\n      tag_175\n      jump\t// in\n    tag_174:\n      pop\n      swap1\n      jump\t// out\n    tag_78:\n      dup3\n      dup1\n      sload\n      dup3\n      dup3\n      sstore\n      swap1\n      0x00\n      mstore\n      keccak256(0x00, 0x20)\n      swap1\n      dup2\n      add\n      swap3\n      dup3\n      iszero\n      tag_176\n      jumpi\n      swap2\n      0x20\n      mul\n      dup3\n      add\n    tag_177:\n      dup3\n      dup2\n      gt\n      iszero\n      tag_178\n      jumpi\n      dup3\n      mload\n      dup3\n      sstore\n      swap2\n      0x20\n      add\n      swap2\n      swap1\n      0x01\n      add\n      swap1\n      jump(tag_177)\n    tag_178:\n    tag_176:\n      pop\n      swap1\n      pop\n      tag_179\n      swap2\n      swap1\n      tag_175\n      jump\t// in\n    tag_179:\n      pop\n      swap1\n      jump\t// out\n    tag_84:\n      mload(0x40)\n      dup1\n      0xe0\n      add\n      0x40\n      mstore\n      dup1\n      and(0xffffffffffffffffffffffffffffffffffffffff, 0x00)\n      dup2\n      mstore\n      0x20\n      add\n      and(0xffffffffffffffffffffffffffffffffffffffff, 0x00)\n      dup2\n      mstore\n      0x20\n      add\n      0x60\n      dup2\n      mstore\n      0x20\n      add\n      0x60\n      dup2\n      mstore\n      0x20\n      add\n      0x60\n      dup2\n      mstore\n      0x20\n      add\n      0x00\n      dup2\n      mstore\n      0x20\n      add\n      iszero(iszero(0x00))\n      dup2\n      mstore\n      pop\n      swap1\n      jump\t// out\n    tag_93:\n      mload(0x40)\n      dup1\n      0x40\n      add\n      0x40\n      mstore\n      dup1\n      0x00\n      dup2\n      mstore\n      0x20\n      add\n      0x00\n      dup2\n      mstore\n      pop\n      swap1\n      jump\t// out\n    tag_175:\n    tag_180:\n      dup1\n      dup3\n      gt\n      iszero\n      tag_181\n      jumpi\n      0x00\n      dup2\n      0x00\n      swap1\n      sstore\n      pop\n      0x01\n      add\n      jump(tag_180)\n    tag_181:\n      pop\n      swap1\n      jump\t// out\n        /* \"#utility.yul\":7:84   */\n    tag_182:\n        /* \"#utility.yul\":44:51   */\n      0x00\n        /* \"#utility.yul\":73:78   */\n      dup2\n        /* \"#utility.yul\":62:78   */\n      swap1\n      pop\n        /* \"#utility.yul\":7:84   */\n      swap2\n      swap1\n      pop\n      jump\t// out\n        /* \"#utility.yul\":90:208   */\n    tag_183:\n        /* \"#utility.yul\":177:201   */\n      tag_263\n        /* \"#utility.yul\":195:200   */\n      dup2\n        /* \"#utility.yul\":177:201   */\n      tag_182\n      jump\t// in\n    tag_263:\n        /* \"#utility.yul\":172:175   */\n      dup3\n        /* \"#utility.yul\":165:202   */\n      mstore\n        /* \"#utility.yul\":90:208   */\n      pop\n      pop\n      jump\t// out\n        /* \"#utility.yul\":214:436   */\n    tag_18:\n        /* \"#utility.yul\":307:311   */\n      0x00\n        /* \"#utility.yul\":345:347   */\n      0x20\n        /* \"#utility.yul\":334:343   */\n      dup3\n        /* \"#utility.yul\":330:348   */\n      add\n        /* \"#utility.yul\":322:348   */\n      swap1\n      pop\n        /* \"#utility.yul\":358:429   */\n      tag_265\n        /* \"#utility.yul\":426:427   */\n      0x00\n        /* \"#utility.yul\":415:424   */\n      dup4\n        /* \"#utility.yul\":411:428   */\n      add\n        /* \"#utility.yul\":402:408   */\n      dup5\n        /* \"#utility.yul\":358:429   */\n      tag_183\n      jump\t// in\n    tag_265:\n        /* \"#utility.yul\":214:436   */\n      swap3\n      swap2\n      pop\n      pop\n      jump\t// out\n        /* \"#utility.yul\":442:517   */\n    tag_184:\n        /* \"#utility.yul\":475:481   */\n      0x00\n        /* \"#utility.yul\":508:510   */\n      0x40\n        /* \"#utility.yul\":502:511   */\n      mload\n        /* \"#utility.yul\":492:511   */\n      swap1\n      pop\n        /* \"#utility.yul\":442:517   */\n      swap1\n      jump\t// out\n        /* \"#utility.yul\":523:640   */\n    tag_185:\n        /* \"#utility.yul\":632:633   */\n      0x00\n        /* \"#utility.yul\":629:630   */\n      dup1\n        /* \"#utility.yul\":622:634   */\n      revert\n        /* \"#utility.yul\":646:763   */\n    tag_186:\n        /* \"#utility.yul\":755:756   */\n      0x00\n        /* \"#utility.yul\":752:753   */\n      dup1\n        /* \"#utility.yul\":745:757   */\n      revert\n        /* \"#utility.yul\":769:886   */\n    tag_187:\n        /* \"#utility.yul\":878:879   */\n      0x00\n        /* \"#utility.yul\":875:876   */\n      dup1\n        /* \"#utility.yul\":868:880   */\n      revert\n        /* \"#utility.yul\":892:994   */\n    tag_188:\n        /* \"#utility.yul\":933:939   */\n      0x00\n        /* \"#utility.yul\":984:986   */\n      0x1f\n        /* \"#utility.yul\":980:987   */\n      not\n        /* \"#utility.yul\":975:977   */\n      0x1f\n        /* \"#utility.yul\":968:973   */\n      dup4\n        /* \"#utility.yul\":964:978   */\n      add\n        /* \"#utility.yul\":960:988   */\n      and\n        /* \"#utility.yul\":950:988   */\n      swap1\n      pop\n        /* \"#utility.yul\":892:994   */\n      swap2\n      swap1\n      pop\n      jump\t// out\n        /* \"#utility.yul\":1000:1180   */\n    tag_189:\n        /* \"#utility.yul\":1048:1125   */\n      0x4e487b7100000000000000000000000000000000000000000000000000000000\n        /* \"#utility.yul\":1045:1046   */\n      0x00\n        /* \"#utility.yul\":1038:1126   */\n      mstore\n        /* \"#utility.yul\":1145:1149   */\n      0x41\n        /* \"#utility.yul\":1142:1143   */\n      0x04\n        /* \"#utility.yul\":1135:1150   */\n      mstore\n        /* \"#utility.yul\":1169:1173   */\n      0x24\n        /* \"#utility.yul\":1166:1167   */\n      0x00\n        /* \"#utility.yul\":1159:1174   */\n      revert\n        /* \"#utility.yul\":1186:1467   */\n    tag_190:\n        /* \"#utility.yul\":1269:1296   */\n      tag_273\n        /* \"#utility.yul\":1291:1295   */\n      dup3\n        /* \"#utility.yul\":1269:1296   */\n      tag_188\n      jump\t// in\n    tag_273:\n        /* \"#utility.yul\":1261:1267   */\n      dup2\n        /* \"#utility.yul\":1257:1297   */\n      add\n        /* \"#utility.yul\":1399:1405   */\n      dup2\n        /* \"#utility.yul\":1387:1397   */\n      dup2\n        /* \"#utility.yul\":1384:1406   */\n      lt\n        /* \"#utility.yul\":1363:1381   */\n      0xffffffffffffffff\n        /* \"#utility.yul\":1351:1361   */\n      dup3\n        /* \"#utility.yul\":1348:1382   */\n      gt\n        /* \"#utility.yul\":1345:1407   */\n      or\n        /* \"#utility.yul\":1342:1430   */\n      iszero\n      tag_274\n      jumpi\n        /* \"#utility.yul\":1410:1428   */\n      tag_275\n      tag_189\n      jump\t// in\n    tag_275:\n        /* \"#utility.yul\":1342:1430   */\n    tag_274:\n        /* \"#utility.yul\":1450:1460   */\n      dup1\n        /* \"#utility.yul\":1446:1448   */\n      0x40\n        /* \"#utility.yul\":1439:1461   */\n      mstore\n        /* \"#utility.yul\":1229:1467   */\n      pop\n        /* \"#utility.yul\":1186:1467   */\n      pop\n      pop\n      jump\t// out\n        /* \"#utility.yul\":1473:1602   */\n    tag_191:\n        /* \"#utility.yul\":1507:1513   */\n      0x00\n        /* \"#utility.yul\":1534:1554   */\n      tag_277\n      tag_184\n      jump\t// in\n    tag_277:\n        /* \"#utility.yul\":1524:1554   */\n      swap1\n      pop\n        /* \"#utility.yul\":1563:1596   */\n      tag_278\n        /* \"#utility.yul\":1591:1595   */\n      dup3\n        /* \"#utility.yul\":1583:1589   */\n      dup3\n        /* \"#utility.yul\":1563:1596   */\n      tag_190\n      jump\t// in\n    tag_278:\n        /* \"#utility.yul\":1473:1602   */\n      swap2\n      swap1\n      pop\n      jump\t// out\n        /* \"#utility.yul\":1608:1919   */\n    tag_192:\n        /* \"#utility.yul\":1685:1689   */\n      0x00\n        /* \"#utility.yul\":1775:1793   */\n      0xffffffffffffffff\n        /* \"#utility.yul\":1767:1773   */\n      dup3\n        /* \"#utility.yul\":1764:1794   */\n      gt\n        /* \"#utility.yul\":1761:1817   */\n      iszero\n      tag_280\n      jumpi\n        /* \"#utility.yul\":1797:1815   */\n      tag_281\n      tag_189\n      jump\t// in\n    tag_281:\n        /* \"#utility.yul\":1761:1817   */\n    tag_280:\n        /* \"#utility.yul\":1847:1851   */\n      0x20\n        /* \"#utility.yul\":1839:1845   */\n      dup3\n        /* \"#utility.yul\":1835:1852   */\n      mul\n        /* \"#utility.yul\":1827:1852   */\n      swap1\n      pop\n        /* \"#utility.yul\":1907:1911   */\n      0x20\n        /* \"#utility.yul\":1901:1905   */\n      dup2\n        /* \"#utility.yul\":1897:1912   */\n      add\n        /* \"#utility.yul\":1889:1912   */\n      swap1\n      pop\n        /* \"#utility.yul\":1608:1919   */\n      swap2\n      swap1\n      pop\n      jump\t// out\n        /* \"#utility.yul\":1925:2042   */\n    tag_193:\n        /* \"#utility.yul\":2034:2035   */\n      0x00\n        /* \"#utility.yul\":2031:2032   */\n      dup1\n        /* \"#utility.yul\":2024:2036   */\n      revert\n        /* \"#utility.yul\":2048:2174   */\n    tag_194:\n        /* \"#utility.yul\":2085:2092   */\n      0x00\n        /* \"#utility.yul\":2125:2167   */\n      0xffffffffffffffffffffffffffffffffffffffff\n        /* \"#utility.yul\":2118:2123   */\n      dup3\n        /* \"#utility.yul\":2114:2168   */\n      and\n        /* \"#utility.yul\":2103:2168   */\n      swap1\n      pop\n        /* \"#utility.yul\":2048:2174   */\n      swap2\n      swap1\n      pop\n      jump\t// out\n        /* \"#utility.yul\":2180:2276   */\n    tag_195:\n        /* \"#utility.yul\":2217:2224   */\n      0x00\n        /* \"#utility.yul\":2246:2270   */\n      tag_285\n        /* \"#utility.yul\":2264:2269   */\n      dup3\n        /* \"#utility.yul\":2246:2270   */\n      tag_194\n      jump\t// in\n    tag_285:\n        /* \"#utility.yul\":2235:2270   */\n      swap1\n      pop\n        /* \"#utility.yul\":2180:2276   */\n      swap2\n      swap1\n      pop\n      jump\t// out\n        /* \"#utility.yul\":2282:2404   */\n    tag_196:\n        /* \"#utility.yul\":2355:2379   */\n      tag_287\n        /* \"#utility.yul\":2373:2378   */\n      dup2\n        /* \"#utility.yul\":2355:2379   */\n      tag_195\n      jump\t// in\n    tag_287:\n        /* \"#utility.yul\":2348:2353   */\n      dup2\n        /* \"#utility.yul\":2345:2380   */\n      eq\n        /* \"#utility.yul\":2335:2398   */\n      tag_288\n      jumpi\n        /* \"#utility.yul\":2394:2395   */\n      0x00\n        /* \"#utility.yul\":2391:2392   */\n      dup1\n        /* \"#utility.yul\":2384:2396   */\n      revert\n        /* \"#utility.yul\":2335:2398   */\n    tag_288:\n        /* \"#utility.yul\":2282:2404   */\n      pop\n      jump\t// out\n        /* \"#utility.yul\":2410:2549   */\n    tag_197:\n        /* \"#utility.yul\":2456:2461   */\n      0x00\n        /* \"#utility.yul\":2494:2500   */\n      dup2\n        /* \"#utility.yul\":2481:2501   */\n      calldataload\n        /* \"#utility.yul\":2472:2501   */\n      swap1\n      pop\n        /* \"#utility.yul\":2510:2543   */\n      tag_290\n        /* \"#utility.yul\":2537:2542   */\n      dup2\n        /* \"#utility.yul\":2510:2543   */\n      tag_196\n      jump\t// in\n    tag_290:\n        /* \"#utility.yul\":2410:2549   */\n      swap3\n      swap2\n      pop\n      pop\n      jump\t// out\n        /* \"#utility.yul\":2572:3282   */\n    tag_198:\n        /* \"#utility.yul\":2668:2673   */\n      0x00\n        /* \"#utility.yul\":2693:2774   */\n      tag_292\n        /* \"#utility.yul\":2709:2773   */\n      tag_293\n        /* \"#utility.yul\":2766:2772   */\n      dup5\n        /* \"#utility.yul\":2709:2773   */\n      tag_192\n      jump\t// in\n    tag_293:\n        /* \"#utility.yul\":2693:2774   */\n      tag_191\n      jump\t// in\n    tag_292:\n        /* \"#utility.yul\":2684:2774   */\n      swap1\n      pop\n        /* \"#utility.yul\":2794:2799   */\n      dup1\n        /* \"#utility.yul\":2823:2829   */\n      dup4\n        /* \"#utility.yul\":2816:2821   */\n      dup3\n        /* \"#utility.yul\":2809:2830   */\n      mstore\n        /* \"#utility.yul\":2857:2861   */\n      0x20\n        /* \"#utility.yul\":2850:2855   */\n      dup3\n        /* \"#utility.yul\":2846:2862   */\n      add\n        /* \"#utility.yul\":2839:2862   */\n      swap1\n      pop\n        /* \"#utility.yul\":2910:2914   */\n      0x20\n        /* \"#utility.yul\":2902:2908   */\n      dup5\n        /* \"#utility.yul\":2898:2915   */\n      mul\n        /* \"#utility.yul\":2890:2896   */\n      dup4\n        /* \"#utility.yul\":2886:2916   */\n      add\n        /* \"#utility.yul\":2939:2942   */\n      dup6\n        /* \"#utility.yul\":2931:2937   */\n      dup2\n        /* \"#utility.yul\":2928:2943   */\n      gt\n        /* \"#utility.yul\":2925:3047   */\n      iszero\n      tag_294\n      jumpi\n        /* \"#utility.yul\":2958:3037   */\n      tag_295\n      tag_193\n      jump\t// in\n    tag_295:\n        /* \"#utility.yul\":2925:3047   */\n    tag_294:\n        /* \"#utility.yul\":3073:3079   */\n      dup4\n        /* \"#utility.yul\":3056:3276   */\n    tag_296:\n        /* \"#utility.yul\":3090:3096   */\n      dup2\n        /* \"#utility.yul\":3085:3088   */\n      dup2\n        /* \"#utility.yul\":3082:3097   */\n      lt\n        /* \"#utility.yul\":3056:3276   */\n      iszero\n      tag_298\n      jumpi\n        /* \"#utility.yul\":3165:3168   */\n      dup1\n        /* \"#utility.yul\":3194:3231   */\n      tag_299\n        /* \"#utility.yul\":3227:3230   */\n      dup9\n        /* \"#utility.yul\":3215:3225   */\n      dup3\n        /* \"#utility.yul\":3194:3231   */\n      tag_197\n      jump\t// in\n    tag_299:\n        /* \"#utility.yul\":3189:3192   */\n      dup5\n        /* \"#utility.yul\":3182:3232   */\n      mstore\n        /* \"#utility.yul\":3261:3265   */\n      0x20\n        /* \"#utility.yul\":3256:3259   */\n      dup5\n        /* \"#utility.yul\":3252:3266   */\n      add\n        /* \"#utility.yul\":3245:3266   */\n      swap4\n      pop\n        /* \"#utility.yul\":3132:3276   */\n      pop\n        /* \"#utility.yul\":3116:3120   */\n      0x20\n        /* \"#utility.yul\":3111:3114   */\n      dup2\n        /* \"#utility.yul\":3107:3121   */\n      add\n        /* \"#utility.yul\":3100:3121   */\n      swap1\n      pop\n        /* \"#utility.yul\":3056:3276   */\n      jump(tag_296)\n    tag_298:\n        /* \"#utility.yul\":3060:3081   */\n      pop\n        /* \"#utility.yul\":2674:3282   */\n      pop\n      pop\n        /* \"#utility.yul\":2572:3282   */\n      swap4\n      swap3\n      pop\n      pop\n      pop\n      jump\t// out\n        /* \"#utility.yul\":3305:3675   */\n    tag_199:\n        /* \"#utility.yul\":3376:3381   */\n      0x00\n        /* \"#utility.yul\":3425:3428   */\n      dup3\n        /* \"#utility.yul\":3418:3422   */\n      0x1f\n        /* \"#utility.yul\":3410:3416   */\n      dup4\n        /* \"#utility.yul\":3406:3423   */\n      add\n        /* \"#utility.yul\":3402:3429   */\n      slt\n        /* \"#utility.yul\":3392:3514   */\n      tag_301\n      jumpi\n        /* \"#utility.yul\":3433:3512   */\n      tag_302\n      tag_187\n      jump\t// in\n    tag_302:\n        /* \"#utility.yul\":3392:3514   */\n    tag_301:\n        /* \"#utility.yul\":3550:3556   */\n      dup2\n        /* \"#utility.yul\":3537:3557   */\n      calldataload\n        /* \"#utility.yul\":3575:3669   */\n      tag_303\n        /* \"#utility.yul\":3665:3668   */\n      dup5\n        /* \"#utility.yul\":3657:3663   */\n      dup3\n        /* \"#utility.yul\":3650:3654   */\n      0x20\n        /* \"#utility.yul\":3642:3648   */\n      dup7\n        /* \"#utility.yul\":3638:3655   */\n      add\n        /* \"#utility.yul\":3575:3669   */\n      tag_198\n      jump\t// in\n    tag_303:\n        /* \"#utility.yul\":3566:3669   */\n      swap2\n      pop\n        /* \"#utility.yul\":3382:3675   */\n      pop\n        /* \"#utility.yul\":3305:3675   */\n      swap3\n      swap2\n      pop\n      pop\n      jump\t// out\n        /* \"#utility.yul\":3681:3992   */\n    tag_200:\n        /* \"#utility.yul\":3758:3762   */\n      0x00\n        /* \"#utility.yul\":3848:3866   */\n      0xffffffffffffffff\n        /* \"#utility.yul\":3840:3846   */\n      dup3\n        /* \"#utility.yul\":3837:3867   */\n      gt\n        /* \"#utility.yul\":3834:3890   */\n      iszero\n      tag_305\n      jumpi\n        /* \"#utility.yul\":3870:3888   */\n      tag_306\n      tag_189\n      jump\t// in\n    tag_306:\n        /* \"#utility.yul\":3834:3890   */\n    tag_305:\n        /* \"#utility.yul\":3920:3924   */\n      0x20\n        /* \"#utility.yul\":3912:3918   */\n      dup3\n        /* \"#utility.yul\":3908:3925   */\n      mul\n        /* \"#utility.yul\":3900:3925   */\n      swap1\n      pop\n        /* \"#utility.yul\":3980:3984   */\n      0x20\n        /* \"#utility.yul\":3974:3978   */\n      dup2\n        /* \"#utility.yul\":3970:3985   */\n      add\n        /* \"#utility.yul\":3962:3985   */\n      swap1\n      pop\n        /* \"#utility.yul\":3681:3992   */\n      swap2\n      swap1\n      pop\n      jump\t// out\n        /* \"#utility.yul\":3998:4120   */\n    tag_201:\n        /* \"#utility.yul\":4071:4095   */\n      tag_308\n        /* \"#utility.yul\":4089:4094   */\n      dup2\n        /* \"#utility.yul\":4071:4095   */\n      tag_182\n      jump\t// in\n    tag_308:\n        /* \"#utility.yul\":4064:4069   */\n      dup2\n        /* \"#utility.yul\":4061:4096   */\n      eq\n        /* \"#utility.yul\":4051:4114   */\n      tag_309\n      jumpi\n        /* \"#utility.yul\":4110:4111   */\n      0x00\n        /* \"#utility.yul\":4107:4108   */\n      dup1\n        /* \"#utility.yul\":4100:4112   */\n      revert\n        /* \"#utility.yul\":4051:4114   */\n    tag_309:\n        /* \"#utility.yul\":3998:4120   */\n      pop\n      jump\t// out\n        /* \"#utility.yul\":4126:4265   */\n    tag_202:\n        /* \"#utility.yul\":4172:4177   */\n      0x00\n        /* \"#utility.yul\":4210:4216   */\n      dup2\n        /* \"#utility.yul\":4197:4217   */\n      calldataload\n        /* \"#utility.yul\":4188:4217   */\n      swap1\n      pop\n        /* \"#utility.yul\":4226:4259   */\n      tag_311\n        /* \"#utility.yul\":4253:4258   */\n      dup2\n        /* \"#utility.yul\":4226:4259   */\n      tag_201\n      jump\t// in\n    tag_311:\n        /* \"#utility.yul\":4126:4265   */\n      swap3\n      swap2\n      pop\n      pop\n      jump\t// out\n        /* \"#utility.yul\":4288:4998   */\n    tag_203:\n        /* \"#utility.yul\":4384:4389   */\n      0x00\n        /* \"#utility.yul\":4409:4490   */\n      tag_313\n        /* \"#utility.yul\":4425:4489   */\n      tag_314\n        /* \"#utility.yul\":4482:4488   */\n      dup5\n        /* \"#utility.yul\":4425:4489   */\n      tag_200\n      jump\t// in\n    tag_314:\n        /* \"#utility.yul\":4409:4490   */\n      tag_191\n      jump\t// in\n    tag_313:\n        /* \"#utility.yul\":4400:4490   */\n      swap1\n      pop\n        /* \"#utility.yul\":4510:4515   */\n      dup1\n        /* \"#utility.yul\":4539:4545   */\n      dup4\n        /* \"#utility.yul\":4532:4537   */\n      dup3\n        /* \"#utility.yul\":4525:4546   */\n      mstore\n        /* \"#utility.yul\":4573:4577   */\n      0x20\n        /* \"#utility.yul\":4566:4571   */\n      dup3\n        /* \"#utility.yul\":4562:4578   */\n      add\n        /* \"#utility.yul\":4555:4578   */\n      swap1\n      pop\n        /* \"#utility.yul\":4626:4630   */\n      0x20\n        /* \"#utility.yul\":4618:4624   */\n      dup5\n        /* \"#utility.yul\":4614:4631   */\n      mul\n        /* \"#utility.yul\":4606:4612   */\n      dup4\n        /* \"#utility.yul\":4602:4632   */\n      add\n        /* \"#utility.yul\":4655:4658   */\n      dup6\n        /* \"#utility.yul\":4647:4653   */\n      dup2\n        /* \"#utility.yul\":4644:4659   */\n      gt\n        /* \"#utility.yul\":4641:4763   */\n      iszero\n      tag_315\n      jumpi\n        /* \"#utility.yul\":4674:4753   */\n      tag_316\n      tag_193\n      jump\t// in\n    tag_316:\n        /* \"#utility.yul\":4641:4763   */\n    tag_315:\n        /* \"#utility.yul\":4789:4795   */\n      dup4\n        /* \"#utility.yul\":4772:4992   */\n    tag_317:\n        /* \"#utility.yul\":4806:4812   */\n      dup2\n        /* \"#utility.yul\":4801:4804   */\n      dup2\n        /* \"#utility.yul\":4798:4813   */\n      lt\n        /* \"#utility.yul\":4772:4992   */\n      iszero\n      tag_319\n      jumpi\n        /* \"#utility.yul\":4881:4884   */\n      dup1\n        /* \"#utility.yul\":4910:4947   */\n      tag_320\n        /* \"#utility.yul\":4943:4946   */\n      dup9\n        /* \"#utility.yul\":4931:4941   */\n      dup3\n        /* \"#utility.yul\":4910:4947   */\n      tag_202\n      jump\t// in\n    tag_320:\n        /* \"#utility.yul\":4905:4908   */\n      dup5\n        /* \"#utility.yul\":4898:4948   */\n      mstore\n        /* \"#utility.yul\":4977:4981   */\n      0x20\n        /* \"#utility.yul\":4972:4975   */\n      dup5\n        /* \"#utility.yul\":4968:4982   */\n      add\n        /* \"#utility.yul\":4961:4982   */\n      swap4\n      pop\n        /* \"#utility.yul\":4848:4992   */\n      pop\n        /* \"#utility.yul\":4832:4836   */\n      0x20\n        /* \"#utility.yul\":4827:4830   */\n      dup2\n        /* \"#utility.yul\":4823:4837   */\n      add\n        /* \"#utility.yul\":4816:4837   */\n      swap1\n      pop\n        /* \"#utility.yul\":4772:4992   */\n      jump(tag_317)\n    tag_319:\n        /* \"#utility.yul\":4776:4797   */\n      pop\n        /* \"#utility.yul\":4390:4998   */\n      pop\n      pop\n        /* \"#utility.yul\":4288:4998   */\n      swap4\n      swap3\n      pop\n      pop\n      pop\n      jump\t// out\n        /* \"#utility.yul\":5021:5391   */\n    tag_204:\n        /* \"#utility.yul\":5092:5097   */\n      0x00\n        /* \"#utility.yul\":5141:5144   */\n      dup3\n        /* \"#utility.yul\":5134:5138   */\n      0x1f\n        /* \"#utility.yul\":5126:5132   */\n      dup4\n        /* \"#utility.yul\":5122:5139   */\n      add\n        /* \"#utility.yul\":5118:5145   */\n      slt\n        /* \"#utility.yul\":5108:5230   */\n      tag_322\n      jumpi\n        /* \"#utility.yul\":5149:5228   */\n      tag_323\n      tag_187\n      jump\t// in\n    tag_323:\n        /* \"#utility.yul\":5108:5230   */\n    tag_322:\n        /* \"#utility.yul\":5266:5272   */\n      dup2\n        /* \"#utility.yul\":5253:5273   */\n      calldataload\n        /* \"#utility.yul\":5291:5385   */\n      tag_324\n        /* \"#utility.yul\":5381:5384   */\n      dup5\n        /* \"#utility.yul\":5373:5379   */\n      dup3\n        /* \"#utility.yul\":5366:5370   */\n      0x20\n        /* \"#utility.yul\":5358:5364   */\n      dup7\n        /* \"#utility.yul\":5354:5371   */\n      add\n        /* \"#utility.yul\":5291:5385   */\n      tag_203\n      jump\t// in\n    tag_324:\n        /* \"#utility.yul\":5282:5385   */\n      swap2\n      pop\n        /* \"#utility.yul\":5098:5391   */\n      pop\n        /* \"#utility.yul\":5021:5391   */\n      swap3\n      swap2\n      pop\n      pop\n      jump\t// out\n        /* \"#utility.yul\":5397:6792   */\n    tag_21:\n        /* \"#utility.yul\":5558:5564   */\n      0x00\n        /* \"#utility.yul\":5566:5572   */\n      dup1\n        /* \"#utility.yul\":5574:5580   */\n      0x00\n        /* \"#utility.yul\":5582:5588   */\n      dup1\n        /* \"#utility.yul\":5631:5634   */\n      0x80\n        /* \"#utility.yul\":5619:5628   */\n      dup6\n        /* \"#utility.yul\":5610:5617   */\n      dup8\n        /* \"#utility.yul\":5606:5629   */\n      sub\n        /* \"#utility.yul\":5602:5635   */\n      slt\n        /* \"#utility.yul\":5599:5719   */\n      iszero\n      tag_326\n      jumpi\n        /* \"#utility.yul\":5638:5717   */\n      tag_327\n      tag_185\n      jump\t// in\n    tag_327:\n        /* \"#utility.yul\":5599:5719   */\n    tag_326:\n        /* \"#utility.yul\":5786:5787   */\n      0x00\n        /* \"#utility.yul\":5775:5784   */\n      dup6\n        /* \"#utility.yul\":5771:5788   */\n      add\n        /* \"#utility.yul\":5758:5789   */\n      calldataload\n        /* \"#utility.yul\":5816:5834   */\n      0xffffffffffffffff\n        /* \"#utility.yul\":5808:5814   */\n      dup2\n        /* \"#utility.yul\":5805:5835   */\n      gt\n        /* \"#utility.yul\":5802:5919   */\n      iszero\n      tag_328\n      jumpi\n        /* \"#utility.yul\":5838:5917   */\n      tag_329\n      tag_186\n      jump\t// in\n    tag_329:\n        /* \"#utility.yul\":5802:5919   */\n    tag_328:\n        /* \"#utility.yul\":5943:6021   */\n      tag_330\n        /* \"#utility.yul\":6013:6020   */\n      dup8\n        /* \"#utility.yul\":6004:6010   */\n      dup3\n        /* \"#utility.yul\":5993:6002   */\n      dup9\n        /* \"#utility.yul\":5989:6011   */\n      add\n        /* \"#utility.yul\":5943:6021   */\n      tag_199\n      jump\t// in\n    tag_330:\n        /* \"#utility.yul\":5933:6021   */\n      swap5\n      pop\n        /* \"#utility.yul\":5729:6031   */\n      pop\n        /* \"#utility.yul\":6098:6100   */\n      0x20\n        /* \"#utility.yul\":6087:6096   */\n      dup6\n        /* \"#utility.yul\":6083:6101   */\n      add\n        /* \"#utility.yul\":6070:6102   */\n      calldataload\n        /* \"#utility.yul\":6129:6147   */\n      0xffffffffffffffff\n        /* \"#utility.yul\":6121:6127   */\n      dup2\n        /* \"#utility.yul\":6118:6148   */\n      gt\n        /* \"#utility.yul\":6115:6232   */\n      iszero\n      tag_331\n      jumpi\n        /* \"#utility.yul\":6151:6230   */\n      tag_332\n      tag_186\n      jump\t// in\n    tag_332:\n        /* \"#utility.yul\":6115:6232   */\n    tag_331:\n        /* \"#utility.yul\":6256:6334   */\n      tag_333\n        /* \"#utility.yul\":6326:6333   */\n      dup8\n        /* \"#utility.yul\":6317:6323   */\n      dup3\n        /* \"#utility.yul\":6306:6315   */\n      dup9\n        /* \"#utility.yul\":6302:6324   */\n      add\n        /* \"#utility.yul\":6256:6334   */\n      tag_199\n      jump\t// in\n    tag_333:\n        /* \"#utility.yul\":6246:6334   */\n      swap4\n      pop\n        /* \"#utility.yul\":6041:6344   */\n      pop\n        /* \"#utility.yul\":6411:6413   */\n      0x40\n        /* \"#utility.yul\":6400:6409   */\n      dup6\n        /* \"#utility.yul\":6396:6414   */\n      add\n        /* \"#utility.yul\":6383:6415   */\n      calldataload\n        /* \"#utility.yul\":6442:6460   */\n      0xffffffffffffffff\n        /* \"#utility.yul\":6434:6440   */\n      dup2\n        /* \"#utility.yul\":6431:6461   */\n      gt\n        /* \"#utility.yul\":6428:6545   */\n      iszero\n      tag_334\n      jumpi\n        /* \"#utility.yul\":6464:6543   */\n      tag_335\n      tag_186\n      jump\t// in\n    tag_335:\n        /* \"#utility.yul\":6428:6545   */\n    tag_334:\n        /* \"#utility.yul\":6569:6647   */\n      tag_336\n        /* \"#utility.yul\":6639:6646   */\n      dup8\n        /* \"#utility.yul\":6630:6636   */\n      dup3\n        /* \"#utility.yul\":6619:6628   */\n      dup9\n        /* \"#utility.yul\":6615:6637   */\n      add\n        /* \"#utility.yul\":6569:6647   */\n      tag_204\n      jump\t// in\n    tag_336:\n        /* \"#utility.yul\":6559:6647   */\n      swap3\n      pop\n        /* \"#utility.yul\":6354:6657   */\n      pop\n        /* \"#utility.yul\":6696:6698   */\n      0x60\n        /* \"#utility.yul\":6722:6775   */\n      tag_337\n        /* \"#utility.yul\":6767:6774   */\n      dup8\n        /* \"#utility.yul\":6758:6764   */\n      dup3\n        /* \"#utility.yul\":6747:6756   */\n      dup9\n        /* \"#utility.yul\":6743:6765   */\n      add\n        /* \"#utility.yul\":6722:6775   */\n      tag_197\n      jump\t// in\n    tag_337:\n        /* \"#utility.yul\":6712:6775   */\n      swap2\n      pop\n        /* \"#utility.yul\":6667:6785   */\n      pop\n        /* \"#utility.yul\":5397:6792   */\n      swap3\n      swap6\n      swap2\n      swap5\n      pop\n      swap3\n      pop\n      jump\t// out\n        /* \"#utility.yul\":6798:7127   */\n    tag_25:\n        /* \"#utility.yul\":6857:6863   */\n      0x00\n        /* \"#utility.yul\":6906:6908   */\n      0x20\n        /* \"#utility.yul\":6894:6903   */\n      dup3\n        /* \"#utility.yul\":6885:6892   */\n      dup5\n        /* \"#utility.yul\":6881:6904   */\n      sub\n        /* \"#utility.yul\":6877:6909   */\n      slt\n        /* \"#utility.yul\":6874:6993   */\n      iszero\n      tag_339\n      jumpi\n        /* \"#utility.yul\":6912:6991   */\n      tag_340\n      tag_185\n      jump\t// in\n    tag_340:\n        /* \"#utility.yul\":6874:6993   */\n    tag_339:\n        /* \"#utility.yul\":7032:7033   */\n      0x00\n        /* \"#utility.yul\":7057:7110   */\n      tag_341\n        /* \"#utility.yul\":7102:7109   */\n      dup5\n        /* \"#utility.yul\":7093:7099   */\n      dup3\n        /* \"#utility.yul\":7082:7091   */\n      dup6\n        /* \"#utility.yul\":7078:7100   */\n      add\n        /* \"#utility.yul\":7057:7110   */\n      tag_197\n      jump\t// in\n    tag_341:\n        /* \"#utility.yul\":7047:7110   */\n      swap2\n      pop\n        /* \"#utility.yul\":7003:7120   */\n      pop\n        /* \"#utility.yul\":6798:7127   */\n      swap3\n      swap2\n      pop\n      pop\n      jump\t// out\n        /* \"#utility.yul\":7133:7465   */\n    tag_28:\n        /* \"#utility.yul\":7254:7258   */\n      0x00\n        /* \"#utility.yul\":7292:7294   */\n      0x40\n        /* \"#utility.yul\":7281:7290   */\n      dup3\n        /* \"#utility.yul\":7277:7295   */\n      add\n        /* \"#utility.yul\":7269:7295   */\n      swap1\n      pop\n        /* \"#utility.yul\":7305:7376   */\n      tag_343\n        /* \"#utility.yul\":7373:7374   */\n      0x00\n        /* \"#utility.yul\":7362:7371   */\n      dup4\n        /* \"#utility.yul\":7358:7375   */\n      add\n        /* \"#utility.yul\":7349:7355   */\n      dup6\n        /* \"#utility.yul\":7305:7376   */\n      tag_183\n      jump\t// in\n    tag_343:\n        /* \"#utility.yul\":7386:7458   */\n      tag_344\n        /* \"#utility.yul\":7454:7456   */\n      0x20\n        /* \"#utility.yul\":7443:7452   */\n      dup4\n        /* \"#utility.yul\":7439:7457   */\n      add\n        /* \"#utility.yul\":7430:7436   */\n      dup5\n        /* \"#utility.yul\":7386:7458   */\n      tag_183\n      jump\t// in\n    tag_344:\n        /* \"#utility.yul\":7133:7465   */\n      swap4\n      swap3\n      pop\n      pop\n      pop\n      jump\t// out\n        /* \"#utility.yul\":7471:7531   */\n    tag_205:\n        /* \"#utility.yul\":7499:7502   */\n      0x00\n        /* \"#utility.yul\":7520:7525   */\n      dup2\n        /* \"#utility.yul\":7513:7525   */\n      swap1\n      pop\n        /* \"#utility.yul\":7471:7531   */\n      swap2\n      swap1\n      pop\n      jump\t// out\n        /* \"#utility.yul\":7537:7679   */\n    tag_206:\n        /* \"#utility.yul\":7587:7596   */\n      0x00\n        /* \"#utility.yul\":7620:7673   */\n      tag_347\n        /* \"#utility.yul\":7638:7672   */\n      tag_348\n        /* \"#utility.yul\":7647:7671   */\n      tag_349\n        /* \"#utility.yul\":7665:7670   */\n      dup5\n        /* \"#utility.yul\":7647:7671   */\n      tag_194\n      jump\t// in\n    tag_349:\n        /* \"#utility.yul\":7638:7672   */\n      tag_205\n      jump\t// in\n    tag_348:\n        /* \"#utility.yul\":7620:7673   */\n      tag_194\n      jump\t// in\n    tag_347:\n        /* \"#utility.yul\":7607:7673   */\n      swap1\n      pop\n        /* \"#utility.yul\":7537:7679   */\n      swap2\n      swap1\n      pop\n      jump\t// out\n        /* \"#utility.yul\":7685:7811   */\n    tag_207:\n        /* \"#utility.yul\":7735:7744   */\n      0x00\n        /* \"#utility.yul\":7768:7805   */\n      tag_351\n        /* \"#utility.yul\":7799:7804   */\n      dup3\n        /* \"#utility.yul\":7768:7805   */\n      tag_206\n      jump\t// in\n    tag_351:\n        /* \"#utility.yul\":7755:7805   */\n      swap1\n      pop\n        /* \"#utility.yul\":7685:7811   */\n      swap2\n      swap1\n      pop\n      jump\t// out\n        /* \"#utility.yul\":7817:7964   */\n    tag_208:\n        /* \"#utility.yul\":7888:7897   */\n      0x00\n        /* \"#utility.yul\":7921:7958   */\n      tag_353\n        /* \"#utility.yul\":7952:7957   */\n      dup3\n        /* \"#utility.yul\":7921:7958   */\n      tag_207\n      jump\t// in\n    tag_353:\n        /* \"#utility.yul\":7908:7958   */\n      swap1\n      pop\n        /* \"#utility.yul\":7817:7964   */\n      swap2\n      swap1\n      pop\n      jump\t// out\n        /* \"#utility.yul\":7970:8143   */\n    tag_209:\n        /* \"#utility.yul\":8078:8136   */\n      tag_355\n        /* \"#utility.yul\":8130:8135   */\n      dup2\n        /* \"#utility.yul\":8078:8136   */\n      tag_208\n      jump\t// in\n    tag_355:\n        /* \"#utility.yul\":8073:8076   */\n      dup3\n        /* \"#utility.yul\":8066:8137   */\n      mstore\n        /* \"#utility.yul\":7970:8143   */\n      pop\n      pop\n      jump\t// out\n        /* \"#utility.yul\":8149:8413   */\n    tag_32:\n        /* \"#utility.yul\":8263:8267   */\n      0x00\n        /* \"#utility.yul\":8301:8303   */\n      0x20\n        /* \"#utility.yul\":8290:8299   */\n      dup3\n        /* \"#utility.yul\":8286:8304   */\n      add\n        /* \"#utility.yul\":8278:8304   */\n      swap1\n      pop\n        /* \"#utility.yul\":8314:8406   */\n      tag_357\n        /* \"#utility.yul\":8403:8404   */\n      0x00\n        /* \"#utility.yul\":8392:8401   */\n      dup4\n        /* \"#utility.yul\":8388:8405   */\n      add\n        /* \"#utility.yul\":8379:8385   */\n      dup5\n        /* \"#utility.yul\":8314:8406   */\n      tag_209\n      jump\t// in\n    tag_357:\n        /* \"#utility.yul\":8149:8413   */\n      swap3\n      swap2\n      pop\n      pop\n      jump\t// out\n        /* \"#utility.yul\":8419:8748   */\n    tag_35:\n        /* \"#utility.yul\":8478:8484   */\n      0x00\n        /* \"#utility.yul\":8527:8529   */\n      0x20\n        /* \"#utility.yul\":8515:8524   */\n      dup3\n        /* \"#utility.yul\":8506:8513   */\n      dup5\n        /* \"#utility.yul\":8502:8525   */\n      sub\n        /* \"#utility.yul\":8498:8530   */\n      slt\n        /* \"#utility.yul\":8495:8614   */\n      iszero\n      tag_359\n      jumpi\n        /* \"#utility.yul\":8533:8612   */\n      tag_360\n      tag_185\n      jump\t// in\n    tag_360:\n        /* \"#utility.yul\":8495:8614   */\n    tag_359:\n        /* \"#utility.yul\":8653:8654   */\n      0x00\n        /* \"#utility.yul\":8678:8731   */\n      tag_361\n        /* \"#utility.yul\":8723:8730   */\n      dup5\n        /* \"#utility.yul\":8714:8720   */\n      dup3\n        /* \"#utility.yul\":8703:8712   */\n      dup6\n        /* \"#utility.yul\":8699:8721   */\n      add\n        /* \"#utility.yul\":8678:8731   */\n      tag_202\n      jump\t// in\n    tag_361:\n        /* \"#utility.yul\":8668:8731   */\n      swap2\n      pop\n        /* \"#utility.yul\":8624:8741   */\n      pop\n        /* \"#utility.yul\":8419:8748   */\n      swap3\n      swap2\n      pop\n      pop\n      jump\t// out\n        /* \"#utility.yul\":8754:8862   */\n    tag_210:\n        /* \"#utility.yul\":8831:8855   */\n      tag_363\n        /* \"#utility.yul\":8849:8854   */\n      dup2\n        /* \"#utility.yul\":8831:8855   */\n      tag_195\n      jump\t// in\n    tag_363:\n        /* \"#utility.yul\":8826:8829   */\n      dup3\n        /* \"#utility.yul\":8819:8856   */\n      mstore\n        /* \"#utility.yul\":8754:8862   */\n      pop\n      pop\n      jump\t// out\n        /* \"#utility.yul\":8868:8982   */\n    tag_211:\n        /* \"#utility.yul\":8935:8941   */\n      0x00\n        /* \"#utility.yul\":8969:8974   */\n      dup2\n        /* \"#utility.yul\":8963:8975   */\n      mload\n        /* \"#utility.yul\":8953:8975   */\n      swap1\n      pop\n        /* \"#utility.yul\":8868:8982   */\n      swap2\n      swap1\n      pop\n      jump\t// out\n        /* \"#utility.yul\":8988:9162   */\n    tag_212:\n        /* \"#utility.yul\":9077:9088   */\n      0x00\n        /* \"#utility.yul\":9111:9117   */\n      dup3\n        /* \"#utility.yul\":9106:9109   */\n      dup3\n        /* \"#utility.yul\":9099:9118   */\n      mstore\n        /* \"#utility.yul\":9151:9155   */\n      0x20\n        /* \"#utility.yul\":9146:9149   */\n      dup3\n        /* \"#utility.yul\":9142:9156   */\n      add\n        /* \"#utility.yul\":9127:9156   */\n      swap1\n      pop\n        /* \"#utility.yul\":8988:9162   */\n      swap3\n      swap2\n      pop\n      pop\n      jump\t// out\n        /* \"#utility.yul\":9168:9300   */\n    tag_213:\n        /* \"#utility.yul\":9235:9239   */\n      0x00\n        /* \"#utility.yul\":9258:9261   */\n      dup2\n        /* \"#utility.yul\":9250:9261   */\n      swap1\n      pop\n        /* \"#utility.yul\":9288:9292   */\n      0x20\n        /* \"#utility.yul\":9283:9286   */\n      dup3\n        /* \"#utility.yul\":9279:9293   */\n      add\n        /* \"#utility.yul\":9271:9293   */\n      swap1\n      pop\n        /* \"#utility.yul\":9168:9300   */\n      swap2\n      swap1\n      pop\n      jump\t// out\n        /* \"#utility.yul\":9306:9485   */\n    tag_214:\n        /* \"#utility.yul\":9375:9385   */\n      0x00\n        /* \"#utility.yul\":9396:9442   */\n      tag_368\n        /* \"#utility.yul\":9438:9441   */\n      dup4\n        /* \"#utility.yul\":9430:9436   */\n      dup4\n        /* \"#utility.yul\":9396:9442   */\n      tag_210\n      jump\t// in\n    tag_368:\n        /* \"#utility.yul\":9474:9478   */\n      0x20\n        /* \"#utility.yul\":9469:9472   */\n      dup4\n        /* \"#utility.yul\":9465:9479   */\n      add\n        /* \"#utility.yul\":9451:9479   */\n      swap1\n      pop\n        /* \"#utility.yul\":9306:9485   */\n      swap3\n      swap2\n      pop\n      pop\n      jump\t// out\n        /* \"#utility.yul\":9491:9604   */\n    tag_215:\n        /* \"#utility.yul\":9561:9565   */\n      0x00\n        /* \"#utility.yul\":9593:9597   */\n      0x20\n        /* \"#utility.yul\":9588:9591   */\n      dup3\n        /* \"#utility.yul\":9584:9598   */\n      add\n        /* \"#utility.yul\":9576:9598   */\n      swap1\n      pop\n        /* \"#utility.yul\":9491:9604   */\n      swap2\n      swap1\n      pop\n      jump\t// out\n        /* \"#utility.yul\":9640:10352   */\n    tag_216:\n        /* \"#utility.yul\":9749:9752   */\n      0x00\n        /* \"#utility.yul\":9778:9832   */\n      tag_371\n        /* \"#utility.yul\":9826:9831   */\n      dup3\n        /* \"#utility.yul\":9778:9832   */\n      tag_211\n      jump\t// in\n    tag_371:\n        /* \"#utility.yul\":9848:9924   */\n      tag_372\n        /* \"#utility.yul\":9917:9923   */\n      dup2\n        /* \"#utility.yul\":9912:9915   */\n      dup6\n        /* \"#utility.yul\":9848:9924   */\n      tag_212\n      jump\t// in\n    tag_372:\n        /* \"#utility.yul\":9841:9924   */\n      swap4\n      pop\n        /* \"#utility.yul\":9948:10004   */\n      tag_373\n        /* \"#utility.yul\":9998:10003   */\n      dup4\n        /* \"#utility.yul\":9948:10004   */\n      tag_213\n      jump\t// in\n    tag_373:\n        /* \"#utility.yul\":10027:10034   */\n      dup1\n        /* \"#utility.yul\":10058:10059   */\n      0x00\n        /* \"#utility.yul\":10043:10327   */\n    tag_374:\n        /* \"#utility.yul\":10068:10074   */\n      dup4\n        /* \"#utility.yul\":10065:10066   */\n      dup2\n        /* \"#utility.yul\":10062:10075   */\n      lt\n        /* \"#utility.yul\":10043:10327   */\n      iszero\n      tag_376\n      jumpi\n        /* \"#utility.yul\":10144:10150   */\n      dup2\n        /* \"#utility.yul\":10138:10151   */\n      mload\n        /* \"#utility.yul\":10171:10234   */\n      tag_377\n        /* \"#utility.yul\":10230:10233   */\n      dup9\n        /* \"#utility.yul\":10215:10228   */\n      dup3\n        /* \"#utility.yul\":10171:10234   */\n      tag_214\n      jump\t// in\n    tag_377:\n        /* \"#utility.yul\":10164:10234   */\n      swap8\n      pop\n        /* \"#utility.yul\":10257:10317   */\n      tag_378\n        /* \"#utility.yul\":10310:10316   */\n      dup4\n        /* \"#utility.yul\":10257:10317   */\n      tag_215\n      jump\t// in\n    tag_378:\n        /* \"#utility.yul\":10247:10317   */\n      swap3\n      pop\n        /* \"#utility.yul\":10103:10327   */\n      pop\n        /* \"#utility.yul\":10090:10091   */\n      0x01\n        /* \"#utility.yul\":10087:10088   */\n      dup2\n        /* \"#utility.yul\":10083:10092   */\n      add\n        /* \"#utility.yul\":10078:10092   */\n      swap1\n      pop\n        /* \"#utility.yul\":10043:10327   */\n      jump(tag_374)\n    tag_376:\n        /* \"#utility.yul\":10047:10061   */\n      pop\n        /* \"#utility.yul\":10343:10346   */\n      dup6\n        /* \"#utility.yul\":10336:10346   */\n      swap4\n      pop\n        /* \"#utility.yul\":9754:10352   */\n      pop\n      pop\n      pop\n        /* \"#utility.yul\":9640:10352   */\n      swap3\n      swap2\n      pop\n      pop\n      jump\t// out\n        /* \"#utility.yul\":10358:10472   */\n    tag_217:\n        /* \"#utility.yul\":10425:10431   */\n      0x00\n        /* \"#utility.yul\":10459:10464   */\n      dup2\n        /* \"#utility.yul\":10453:10465   */\n      mload\n        /* \"#utility.yul\":10443:10465   */\n      swap1\n      pop\n        /* \"#utility.yul\":10358:10472   */\n      swap2\n      swap1\n      pop\n      jump\t// out\n        /* \"#utility.yul\":10478:10652   */\n    tag_218:\n        /* \"#utility.yul\":10567:10578   */\n      0x00\n        /* \"#utility.yul\":10601:10607   */\n      dup3\n        /* \"#utility.yul\":10596:10599   */\n      dup3\n        /* \"#utility.yul\":10589:10608   */\n      mstore\n        /* \"#utility.yul\":10641:10645   */\n      0x20\n        /* \"#utility.yul\":10636:10639   */\n      dup3\n        /* \"#utility.yul\":10632:10646   */\n      add\n        /* \"#utility.yul\":10617:10646   */\n      swap1\n      pop\n        /* \"#utility.yul\":10478:10652   */\n      swap3\n      swap2\n      pop\n      pop\n      jump\t// out\n        /* \"#utility.yul\":10658:10790   */\n    tag_219:\n        /* \"#utility.yul\":10725:10729   */\n      0x00\n        /* \"#utility.yul\":10748:10751   */\n      dup2\n        /* \"#utility.yul\":10740:10751   */\n      swap1\n      pop\n        /* \"#utility.yul\":10778:10782   */\n      0x20\n        /* \"#utility.yul\":10773:10776   */\n      dup3\n        /* \"#utility.yul\":10769:10783   */\n      add\n        /* \"#utility.yul\":10761:10783   */\n      swap1\n      pop\n        /* \"#utility.yul\":10658:10790   */\n      swap2\n      swap1\n      pop\n      jump\t// out\n        /* \"#utility.yul\":10796:10904   */\n    tag_220:\n        /* \"#utility.yul\":10873:10897   */\n      tag_383\n        /* \"#utility.yul\":10891:10896   */\n      dup2\n        /* \"#utility.yul\":10873:10897   */\n      tag_182\n      jump\t// in\n    tag_383:\n        /* \"#utility.yul\":10868:10871   */\n      dup3\n        /* \"#utility.yul\":10861:10898   */\n      mstore\n        /* \"#utility.yul\":10796:10904   */\n      pop\n      pop\n      jump\t// out\n        /* \"#utility.yul\":10910:11089   */\n    tag_221:\n        /* \"#utility.yul\":10979:10989   */\n      0x00\n        /* \"#utility.yul\":11000:11046   */\n      tag_385\n        /* \"#utility.yul\":11042:11045   */\n      dup4\n        /* \"#utility.yul\":11034:11040   */\n      dup4\n        /* \"#utility.yul\":11000:11046   */\n      tag_220\n      jump\t// in\n    tag_385:\n        /* \"#utility.yul\":11078:11082   */\n      0x20\n        /* \"#utility.yul\":11073:11076   */\n      dup4\n        /* \"#utility.yul\":11069:11083   */\n      add\n        /* \"#utility.yul\":11055:11083   */\n      swap1\n      pop\n        /* \"#utility.yul\":10910:11089   */\n      swap3\n      swap2\n      pop\n      pop\n      jump\t// out\n        /* \"#utility.yul\":11095:11208   */\n    tag_222:\n        /* \"#utility.yul\":11165:11169   */\n      0x00\n        /* \"#utility.yul\":11197:11201   */\n      0x20\n        /* \"#utility.yul\":11192:11195   */\n      dup3\n        /* \"#utility.yul\":11188:11202   */\n      add\n        /* \"#utility.yul\":11180:11202   */\n      swap1\n      pop\n        /* \"#utility.yul\":11095:11208   */\n      swap2\n      swap1\n      pop\n      jump\t// out\n        /* \"#utility.yul\":11244:11956   */\n    tag_223:\n        /* \"#utility.yul\":11353:11356   */\n      0x00\n        /* \"#utility.yul\":11382:11436   */\n      tag_388\n        /* \"#utility.yul\":11430:11435   */\n      dup3\n        /* \"#utility.yul\":11382:11436   */\n      tag_217\n      jump\t// in\n    tag_388:\n        /* \"#utility.yul\":11452:11528   */\n      tag_389\n        /* \"#utility.yul\":11521:11527   */\n      dup2\n        /* \"#utility.yul\":11516:11519   */\n      dup6\n        /* \"#utility.yul\":11452:11528   */\n      tag_218\n      jump\t// in\n    tag_389:\n        /* \"#utility.yul\":11445:11528   */\n      swap4\n      pop\n        /* \"#utility.yul\":11552:11608   */\n      tag_390\n        /* \"#utility.yul\":11602:11607   */\n      dup4\n        /* \"#utility.yul\":11552:11608   */\n      tag_219\n      jump\t// in\n    tag_390:\n        /* \"#utility.yul\":11631:11638   */\n      dup1\n        /* \"#utility.yul\":11662:11663   */\n      0x00\n        /* \"#utility.yul\":11647:11931   */\n    tag_391:\n        /* \"#utility.yul\":11672:11678   */\n      dup4\n        /* \"#utility.yul\":11669:11670   */\n      dup2\n        /* \"#utility.yul\":11666:11679   */\n      lt\n        /* \"#utility.yul\":11647:11931   */\n      iszero\n      tag_393\n      jumpi\n        /* \"#utility.yul\":11748:11754   */\n      dup2\n        /* \"#utility.yul\":11742:11755   */\n      mload\n        /* \"#utility.yul\":11775:11838   */\n      tag_394\n        /* \"#utility.yul\":11834:11837   */\n      dup9\n        /* \"#utility.yul\":11819:11832   */\n      dup3\n        /* \"#utility.yul\":11775:11838   */\n      tag_221\n      jump\t// in\n    tag_394:\n        /* \"#utility.yul\":11768:11838   */\n      swap8\n      pop\n        /* \"#utility.yul\":11861:11921   */\n      tag_395\n        /* \"#utility.yul\":11914:11920   */\n      dup4\n        /* \"#utility.yul\":11861:11921   */\n      tag_222\n      jump\t// in\n    tag_395:\n        /* \"#utility.yul\":11851:11921   */\n      swap3\n      pop\n        /* \"#utility.yul\":11707:11931   */\n      pop\n        /* \"#utility.yul\":11694:11695   */\n      0x01\n        /* \"#utility.yul\":11691:11692   */\n      dup2\n        /* \"#utility.yul\":11687:11696   */\n      add\n        /* \"#utility.yul\":11682:11696   */\n      swap1\n      pop\n        /* \"#utility.yul\":11647:11931   */\n      jump(tag_391)\n    tag_393:\n        /* \"#utility.yul\":11651:11665   */\n      pop\n        /* \"#utility.yul\":11947:11950   */\n      dup6\n        /* \"#utility.yul\":11940:11950   */\n      swap4\n      pop\n        /* \"#utility.yul\":11358:11956   */\n      pop\n      pop\n      pop\n        /* \"#utility.yul\":11244:11956   */\n      swap3\n      swap2\n      pop\n      pop\n      jump\t// out\n        /* \"#utility.yul\":11962:12052   */\n    tag_224:\n        /* \"#utility.yul\":11996:12003   */\n      0x00\n        /* \"#utility.yul\":12039:12044   */\n      dup2\n        /* \"#utility.yul\":12032:12045   */\n      iszero\n        /* \"#utility.yul\":12025:12046   */\n      iszero\n        /* \"#utility.yul\":12014:12046   */\n      swap1\n      pop\n        /* \"#utility.yul\":11962:12052   */\n      swap2\n      swap1\n      pop\n      jump\t// out\n        /* \"#utility.yul\":12058:12157   */\n    tag_225:\n        /* \"#utility.yul\":12129:12150   */\n      tag_398\n        /* \"#utility.yul\":12144:12149   */\n      dup2\n        /* \"#utility.yul\":12129:12150   */\n      tag_224\n      jump\t// in\n    tag_398:\n        /* \"#utility.yul\":12124:12127   */\n      dup3\n        /* \"#utility.yul\":12117:12151   */\n      mstore\n        /* \"#utility.yul\":12058:12157   */\n      pop\n      pop\n      jump\t// out\n        /* \"#utility.yul\":12253:13995   */\n    tag_226:\n        /* \"#utility.yul\":12374:12377   */\n      0x00\n        /* \"#utility.yul\":12410:12414   */\n      0xe0\n        /* \"#utility.yul\":12405:12408   */\n      dup4\n        /* \"#utility.yul\":12401:12415   */\n      add\n        /* \"#utility.yul\":12500:12504   */\n      0x00\n        /* \"#utility.yul\":12493:12498   */\n      dup4\n        /* \"#utility.yul\":12489:12505   */\n      add\n        /* \"#utility.yul\":12483:12506   */\n      mload\n        /* \"#utility.yul\":12519:12582   */\n      tag_400\n        /* \"#utility.yul\":12576:12580   */\n      0x00\n        /* \"#utility.yul\":12571:12574   */\n      dup7\n        /* \"#utility.yul\":12567:12581   */\n      add\n        /* \"#utility.yul\":12553:12565   */\n      dup3\n        /* \"#utility.yul\":12519:12582   */\n      tag_210\n      jump\t// in\n    tag_400:\n        /* \"#utility.yul\":12425:12592   */\n      pop\n        /* \"#utility.yul\":12682:12686   */\n      0x20\n        /* \"#utility.yul\":12675:12680   */\n      dup4\n        /* \"#utility.yul\":12671:12687   */\n      add\n        /* \"#utility.yul\":12665:12688   */\n      mload\n        /* \"#utility.yul\":12701:12764   */\n      tag_401\n        /* \"#utility.yul\":12758:12762   */\n      0x20\n        /* \"#utility.yul\":12753:12756   */\n      dup7\n        /* \"#utility.yul\":12749:12763   */\n      add\n        /* \"#utility.yul\":12735:12747   */\n      dup3\n        /* \"#utility.yul\":12701:12764   */\n      tag_210\n      jump\t// in\n    tag_401:\n        /* \"#utility.yul\":12602:12774   */\n      pop\n        /* \"#utility.yul\":12856:12860   */\n      0x40\n        /* \"#utility.yul\":12849:12854   */\n      dup4\n        /* \"#utility.yul\":12845:12861   */\n      add\n        /* \"#utility.yul\":12839:12862   */\n      mload\n        /* \"#utility.yul\":12909:12912   */\n      dup5\n        /* \"#utility.yul\":12903:12907   */\n      dup3\n        /* \"#utility.yul\":12899:12913   */\n      sub\n        /* \"#utility.yul\":12892:12896   */\n      0x40\n        /* \"#utility.yul\":12887:12890   */\n      dup7\n        /* \"#utility.yul\":12883:12897   */\n      add\n        /* \"#utility.yul\":12876:12914   */\n      mstore\n        /* \"#utility.yul\":12935:13038   */\n      tag_402\n        /* \"#utility.yul\":13033:13037   */\n      dup3\n        /* \"#utility.yul\":13019:13031   */\n      dup3\n        /* \"#utility.yul\":12935:13038   */\n      tag_216\n      jump\t// in\n    tag_402:\n        /* \"#utility.yul\":12927:13038   */\n      swap2\n      pop\n        /* \"#utility.yul\":12784:13049   */\n      pop\n        /* \"#utility.yul\":13133:13137   */\n      0x60\n        /* \"#utility.yul\":13126:13131   */\n      dup4\n        /* \"#utility.yul\":13122:13138   */\n      add\n        /* \"#utility.yul\":13116:13139   */\n      mload\n        /* \"#utility.yul\":13186:13189   */\n      dup5\n        /* \"#utility.yul\":13180:13184   */\n      dup3\n        /* \"#utility.yul\":13176:13190   */\n      sub\n        /* \"#utility.yul\":13169:13173   */\n      0x60\n        /* \"#utility.yul\":13164:13167   */\n      dup7\n        /* \"#utility.yul\":13160:13174   */\n      add\n        /* \"#utility.yul\":13153:13191   */\n      mstore\n        /* \"#utility.yul\":13212:13315   */\n      tag_403\n        /* \"#utility.yul\":13310:13314   */\n      dup3\n        /* \"#utility.yul\":13296:13308   */\n      dup3\n        /* \"#utility.yul\":13212:13315   */\n      tag_216\n      jump\t// in\n    tag_403:\n        /* \"#utility.yul\":13204:13315   */\n      swap2\n      pop\n        /* \"#utility.yul\":13059:13326   */\n      pop\n        /* \"#utility.yul\":13416:13420   */\n      0x80\n        /* \"#utility.yul\":13409:13414   */\n      dup4\n        /* \"#utility.yul\":13405:13421   */\n      add\n        /* \"#utility.yul\":13399:13422   */\n      mload\n        /* \"#utility.yul\":13469:13472   */\n      dup5\n        /* \"#utility.yul\":13463:13467   */\n      dup3\n        /* \"#utility.yul\":13459:13473   */\n      sub\n        /* \"#utility.yul\":13452:13456   */\n      0x80\n        /* \"#utility.yul\":13447:13450   */\n      dup7\n        /* \"#utility.yul\":13443:13457   */\n      add\n        /* \"#utility.yul\":13436:13474   */\n      mstore\n        /* \"#utility.yul\":13495:13598   */\n      tag_404\n        /* \"#utility.yul\":13593:13597   */\n      dup3\n        /* \"#utility.yul\":13579:13591   */\n      dup3\n        /* \"#utility.yul\":13495:13598   */\n      tag_223\n      jump\t// in\n    tag_404:\n        /* \"#utility.yul\":13487:13598   */\n      swap2\n      pop\n        /* \"#utility.yul\":13336:13609   */\n      pop\n        /* \"#utility.yul\":13704:13708   */\n      0xa0\n        /* \"#utility.yul\":13697:13702   */\n      dup4\n        /* \"#utility.yul\":13693:13709   */\n      add\n        /* \"#utility.yul\":13687:13710   */\n      mload\n        /* \"#utility.yul\":13723:13786   */\n      tag_405\n        /* \"#utility.yul\":13780:13784   */\n      0xa0\n        /* \"#utility.yul\":13775:13778   */\n      dup7\n        /* \"#utility.yul\":13771:13785   */\n      add\n        /* \"#utility.yul\":13757:13769   */\n      dup3\n        /* \"#utility.yul\":13723:13786   */\n      tag_220\n      jump\t// in\n    tag_405:\n        /* \"#utility.yul\":13619:13796   */\n      pop\n        /* \"#utility.yul\":13882:13886   */\n      0xc0\n        /* \"#utility.yul\":13875:13880   */\n      dup4\n        /* \"#utility.yul\":13871:13887   */\n      add\n        /* \"#utility.yul\":13865:13888   */\n      mload\n        /* \"#utility.yul\":13901:13958   */\n      tag_406\n        /* \"#utility.yul\":13952:13956   */\n      0xc0\n        /* \"#utility.yul\":13947:13950   */\n      dup7\n        /* \"#utility.yul\":13943:13957   */\n      add\n        /* \"#utility.yul\":13929:13941   */\n      dup3\n        /* \"#utility.yul\":13901:13958   */\n      tag_225\n      jump\t// in\n    tag_406:\n        /* \"#utility.yul\":13806:13968   */\n      pop\n        /* \"#utility.yul\":13985:13989   */\n      dup1\n        /* \"#utility.yul\":13978:13989   */\n      swap2\n      pop\n        /* \"#utility.yul\":12379:13995   */\n      pop\n        /* \"#utility.yul\":12253:13995   */\n      swap3\n      swap2\n      pop\n      pop\n      jump\t// out\n        /* \"#utility.yul\":14001:14378   */\n    tag_38:\n        /* \"#utility.yul\":14146:14150   */\n      0x00\n        /* \"#utility.yul\":14184:14186   */\n      0x20\n        /* \"#utility.yul\":14173:14182   */\n      dup3\n        /* \"#utility.yul\":14169:14187   */\n      add\n        /* \"#utility.yul\":14161:14187   */\n      swap1\n      pop\n        /* \"#utility.yul\":14233:14242   */\n      dup2\n        /* \"#utility.yul\":14227:14231   */\n      dup2\n        /* \"#utility.yul\":14223:14243   */\n      sub\n        /* \"#utility.yul\":14219:14220   */\n      0x00\n        /* \"#utility.yul\":14208:14217   */\n      dup4\n        /* \"#utility.yul\":14204:14221   */\n      add\n        /* \"#utility.yul\":14197:14244   */\n      mstore\n        /* \"#utility.yul\":14261:14371   */\n      tag_408\n        /* \"#utility.yul\":14366:14370   */\n      dup2\n        /* \"#utility.yul\":14357:14363   */\n      dup5\n        /* \"#utility.yul\":14261:14371   */\n      tag_226\n      jump\t// in\n    tag_408:\n        /* \"#utility.yul\":14253:14371   */\n      swap1\n      pop\n        /* \"#utility.yul\":14001:14378   */\n      swap3\n      swap2\n      pop\n      pop\n      jump\t// out\n        /* \"#utility.yul\":14486:15026   */\n    tag_227:\n        /* \"#utility.yul\":14647:14651   */\n      0x40\n        /* \"#utility.yul\":14642:14645   */\n      dup3\n        /* \"#utility.yul\":14638:14652   */\n      add\n        /* \"#utility.yul\":14741:14745   */\n      0x00\n        /* \"#utility.yul\":14734:14739   */\n      dup3\n        /* \"#utility.yul\":14730:14746   */\n      add\n        /* \"#utility.yul\":14724:14747   */\n      mload\n        /* \"#utility.yul\":14760:14823   */\n      tag_410\n        /* \"#utility.yul\":14817:14821   */\n      0x00\n        /* \"#utility.yul\":14812:14815   */\n      dup6\n        /* \"#utility.yul\":14808:14822   */\n      add\n        /* \"#utility.yul\":14794:14806   */\n      dup3\n        /* \"#utility.yul\":14760:14823   */\n      tag_220\n      jump\t// in\n    tag_410:\n        /* \"#utility.yul\":14662:14833   */\n      pop\n        /* \"#utility.yul\":14927:14931   */\n      0x20\n        /* \"#utility.yul\":14920:14925   */\n      dup3\n        /* \"#utility.yul\":14916:14932   */\n      add\n        /* \"#utility.yul\":14910:14933   */\n      mload\n        /* \"#utility.yul\":14946:15009   */\n      tag_411\n        /* \"#utility.yul\":15003:15007   */\n      0x20\n        /* \"#utility.yul\":14998:15001   */\n      dup6\n        /* \"#utility.yul\":14994:15008   */\n      add\n        /* \"#utility.yul\":14980:14992   */\n      dup3\n        /* \"#utility.yul\":14946:15009   */\n      tag_220\n      jump\t// in\n    tag_411:\n        /* \"#utility.yul\":14843:15019   */\n      pop\n        /* \"#utility.yul\":14616:15026   */\n      pop\n        /* \"#utility.yul\":14486:15026   */\n      pop\n      pop\n      jump\t// out\n        /* \"#utility.yul\":15032:15382   */\n    tag_43:\n        /* \"#utility.yul\":15189:15193   */\n      0x00\n        /* \"#utility.yul\":15227:15229   */\n      0x40\n        /* \"#utility.yul\":15216:15225   */\n      dup3\n        /* \"#utility.yul\":15212:15230   */\n      add\n        /* \"#utility.yul\":15204:15230   */\n      swap1\n      pop\n        /* \"#utility.yul\":15240:15375   */\n      tag_413\n        /* \"#utility.yul\":15372:15373   */\n      0x00\n        /* \"#utility.yul\":15361:15370   */\n      dup4\n        /* \"#utility.yul\":15357:15374   */\n      add\n        /* \"#utility.yul\":15348:15354   */\n      dup5\n        /* \"#utility.yul\":15240:15375   */\n      tag_227\n      jump\t// in\n    tag_413:\n        /* \"#utility.yul\":15032:15382   */\n      swap3\n      swap2\n      pop\n      pop\n      jump\t// out\n        /* \"#utility.yul\":15388:15862   */\n    tag_49:\n        /* \"#utility.yul\":15456:15462   */\n      0x00\n        /* \"#utility.yul\":15464:15470   */\n      dup1\n        /* \"#utility.yul\":15513:15515   */\n      0x40\n        /* \"#utility.yul\":15501:15510   */\n      dup4\n        /* \"#utility.yul\":15492:15499   */\n      dup6\n        /* \"#utility.yul\":15488:15511   */\n      sub\n        /* \"#utility.yul\":15484:15516   */\n      slt\n        /* \"#utility.yul\":15481:15600   */\n      iszero\n      tag_415\n      jumpi\n        /* \"#utility.yul\":15519:15598   */\n      tag_416\n      tag_185\n      jump\t// in\n    tag_416:\n        /* \"#utility.yul\":15481:15600   */\n    tag_415:\n        /* \"#utility.yul\":15639:15640   */\n      0x00\n        /* \"#utility.yul\":15664:15717   */\n      tag_417\n        /* \"#utility.yul\":15709:15716   */\n      dup6\n        /* \"#utility.yul\":15700:15706   */\n      dup3\n        /* \"#utility.yul\":15689:15698   */\n      dup7\n        /* \"#utility.yul\":15685:15707   */\n      add\n        /* \"#utility.yul\":15664:15717   */\n      tag_202\n      jump\t// in\n    tag_417:\n        /* \"#utility.yul\":15654:15717   */\n      swap3\n      pop\n        /* \"#utility.yul\":15610:15727   */\n      pop\n        /* \"#utility.yul\":15766:15768   */\n      0x20\n        /* \"#utility.yul\":15792:15845   */\n      tag_418\n        /* \"#utility.yul\":15837:15844   */\n      dup6\n        /* \"#utility.yul\":15828:15834   */\n      dup3\n        /* \"#utility.yul\":15817:15826   */\n      dup7\n        /* \"#utility.yul\":15813:15835   */\n      add\n        /* \"#utility.yul\":15792:15845   */\n      tag_202\n      jump\t// in\n    tag_418:\n        /* \"#utility.yul\":15782:15845   */\n      swap2\n      pop\n        /* \"#utility.yul\":15737:15855   */\n      pop\n        /* \"#utility.yul\":15388:15862   */\n      swap3\n      pop\n      swap3\n      swap1\n      pop\n      jump\t// out\n        /* \"#utility.yul\":15868:15986   */\n    tag_228:\n        /* \"#utility.yul\":15955:15979   */\n      tag_420\n        /* \"#utility.yul\":15973:15978   */\n      dup2\n        /* \"#utility.yul\":15955:15979   */\n      tag_195\n      jump\t// in\n    tag_420:\n        /* \"#utility.yul\":15950:15953   */\n      dup3\n        /* \"#utility.yul\":15943:15980   */\n      mstore\n        /* \"#utility.yul\":15868:15986   */\n      pop\n      pop\n      jump\t// out\n        /* \"#utility.yul\":15992:16101   */\n    tag_229:\n        /* \"#utility.yul\":16073:16094   */\n      tag_422\n        /* \"#utility.yul\":16088:16093   */\n      dup2\n        /* \"#utility.yul\":16073:16094   */\n      tag_224\n      jump\t// in\n    tag_422:\n        /* \"#utility.yul\":16068:16071   */\n      dup3\n        /* \"#utility.yul\":16061:16095   */\n      mstore\n        /* \"#utility.yul\":15992:16101   */\n      pop\n      pop\n      jump\t// out\n        /* \"#utility.yul\":16107:16648   */\n    tag_55:\n        /* \"#utility.yul\":16278:16282   */\n      0x00\n        /* \"#utility.yul\":16316:16319   */\n      0x80\n        /* \"#utility.yul\":16305:16314   */\n      dup3\n        /* \"#utility.yul\":16301:16320   */\n      add\n        /* \"#utility.yul\":16293:16320   */\n      swap1\n      pop\n        /* \"#utility.yul\":16330:16401   */\n      tag_424\n        /* \"#utility.yul\":16398:16399   */\n      0x00\n        /* \"#utility.yul\":16387:16396   */\n      dup4\n        /* \"#utility.yul\":16383:16400   */\n      add\n        /* \"#utility.yul\":16374:16380   */\n      dup8\n        /* \"#utility.yul\":16330:16401   */\n      tag_228\n      jump\t// in\n    tag_424:\n        /* \"#utility.yul\":16411:16483   */\n      tag_425\n        /* \"#utility.yul\":16479:16481   */\n      0x20\n        /* \"#utility.yul\":16468:16477   */\n      dup4\n        /* \"#utility.yul\":16464:16482   */\n      add\n        /* \"#utility.yul\":16455:16461   */\n      dup7\n        /* \"#utility.yul\":16411:16483   */\n      tag_228\n      jump\t// in\n    tag_425:\n        /* \"#utility.yul\":16493:16565   */\n      tag_426\n        /* \"#utility.yul\":16561:16563   */\n      0x40\n        /* \"#utility.yul\":16550:16559   */\n      dup4\n        /* \"#utility.yul\":16546:16564   */\n      add\n        /* \"#utility.yul\":16537:16543   */\n      dup6\n        /* \"#utility.yul\":16493:16565   */\n      tag_183\n      jump\t// in\n    tag_426:\n        /* \"#utility.yul\":16575:16641   */\n      tag_427\n        /* \"#utility.yul\":16637:16639   */\n      0x60\n        /* \"#utility.yul\":16626:16635   */\n      dup4\n        /* \"#utility.yul\":16622:16640   */\n      add\n        /* \"#utility.yul\":16613:16619   */\n      dup5\n        /* \"#utility.yul\":16575:16641   */\n      tag_229\n      jump\t// in\n    tag_427:\n        /* \"#utility.yul\":16107:16648   */\n      swap6\n      swap5\n      pop\n      pop\n      pop\n      pop\n      pop\n      jump\t// out\n        /* \"#utility.yul\":16654:16820   */\n    tag_230:\n        /* \"#utility.yul\":16744:16753   */\n      0x00\n        /* \"#utility.yul\":16777:16814   */\n      tag_429\n        /* \"#utility.yul\":16808:16813   */\n      dup3\n        /* \"#utility.yul\":16777:16814   */\n      tag_207\n      jump\t// in\n    tag_429:\n        /* \"#utility.yul\":16764:16814   */\n      swap1\n      pop\n        /* \"#utility.yul\":16654:16820   */\n      swap2\n      swap1\n      pop\n      jump\t// out\n        /* \"#utility.yul\":16826:17037   */\n    tag_231:\n        /* \"#utility.yul\":16953:17030   */\n      tag_431\n        /* \"#utility.yul\":17024:17029   */\n      dup2\n        /* \"#utility.yul\":16953:17030   */\n      tag_230\n      jump\t// in\n    tag_431:\n        /* \"#utility.yul\":16948:16951   */\n      dup3\n        /* \"#utility.yul\":16941:17031   */\n      mstore\n        /* \"#utility.yul\":16826:17037   */\n      pop\n      pop\n      jump\t// out\n        /* \"#utility.yul\":17043:17345   */\n    tag_59:\n        /* \"#utility.yul\":17176:17180   */\n      0x00\n        /* \"#utility.yul\":17214:17216   */\n      0x20\n        /* \"#utility.yul\":17203:17212   */\n      dup3\n        /* \"#utility.yul\":17199:17217   */\n      add\n        /* \"#utility.yul\":17191:17217   */\n      swap1\n      pop\n        /* \"#utility.yul\":17227:17338   */\n      tag_433\n        /* \"#utility.yul\":17335:17336   */\n      0x00\n        /* \"#utility.yul\":17324:17333   */\n      dup4\n        /* \"#utility.yul\":17320:17337   */\n      add\n        /* \"#utility.yul\":17311:17317   */\n      dup5\n        /* \"#utility.yul\":17227:17338   */\n      tag_231\n      jump\t// in\n    tag_433:\n        /* \"#utility.yul\":17043:17345   */\n      swap3\n      swap2\n      pop\n      pop\n      jump\t// out\n        /* \"#utility.yul\":17351:18746   */\n    tag_62:\n        /* \"#utility.yul\":17512:17518   */\n      0x00\n        /* \"#utility.yul\":17520:17526   */\n      dup1\n        /* \"#utility.yul\":17528:17534   */\n      0x00\n        /* \"#utility.yul\":17536:17542   */\n      dup1\n        /* \"#utility.yul\":17585:17588   */\n      0x80\n        /* \"#utility.yul\":17573:17582   */\n      dup6\n        /* \"#utility.yul\":17564:17571   */\n      dup8\n        /* \"#utility.yul\":17560:17583   */\n      sub\n        /* \"#utility.yul\":17556:17589   */\n      slt\n        /* \"#utility.yul\":17553:17673   */\n      iszero\n      tag_435\n      jumpi\n        /* \"#utility.yul\":17592:17671   */\n      tag_436\n      tag_185\n      jump\t// in\n    tag_436:\n        /* \"#utility.yul\":17553:17673   */\n    tag_435:\n        /* \"#utility.yul\":17712:17713   */\n      0x00\n        /* \"#utility.yul\":17737:17790   */\n      tag_437\n        /* \"#utility.yul\":17782:17789   */\n      dup8\n        /* \"#utility.yul\":17773:17779   */\n      dup3\n        /* \"#utility.yul\":17762:17771   */\n      dup9\n        /* \"#utility.yul\":17758:17780   */\n      add\n        /* \"#utility.yul\":17737:17790   */\n      tag_202\n      jump\t// in\n    tag_437:\n        /* \"#utility.yul\":17727:17790   */\n      swap5\n      pop\n        /* \"#utility.yul\":17683:17800   */\n      pop\n        /* \"#utility.yul\":17867:17869   */\n      0x20\n        /* \"#utility.yul\":17856:17865   */\n      dup6\n        /* \"#utility.yul\":17852:17870   */\n      add\n        /* \"#utility.yul\":17839:17871   */\n      calldataload\n        /* \"#utility.yul\":17898:17916   */\n      0xffffffffffffffff\n        /* \"#utility.yul\":17890:17896   */\n      dup2\n        /* \"#utility.yul\":17887:17917   */\n      gt\n        /* \"#utility.yul\":17884:18001   */\n      iszero\n      tag_438\n      jumpi\n        /* \"#utility.yul\":17920:17999   */\n      tag_439\n      tag_186\n      jump\t// in\n    tag_439:\n        /* \"#utility.yul\":17884:18001   */\n    tag_438:\n        /* \"#utility.yul\":18025:18103   */\n      tag_440\n        /* \"#utility.yul\":18095:18102   */\n      dup8\n        /* \"#utility.yul\":18086:18092   */\n      dup3\n        /* \"#utility.yul\":18075:18084   */\n      dup9\n        /* \"#utility.yul\":18071:18093   */\n      add\n        /* \"#utility.yul\":18025:18103   */\n      tag_199\n      jump\t// in\n    tag_440:\n        /* \"#utility.yul\":18015:18103   */\n      swap4\n      pop\n        /* \"#utility.yul\":17810:18113   */\n      pop\n        /* \"#utility.yul\":18180:18182   */\n      0x40\n        /* \"#utility.yul\":18169:18178   */\n      dup6\n        /* \"#utility.yul\":18165:18183   */\n      add\n        /* \"#utility.yul\":18152:18184   */\n      calldataload\n        /* \"#utility.yul\":18211:18229   */\n      0xffffffffffffffff\n        /* \"#utility.yul\":18203:18209   */\n      dup2\n        /* \"#utility.yul\":18200:18230   */\n      gt\n        /* \"#utility.yul\":18197:18314   */\n      iszero\n      tag_441\n      jumpi\n        /* \"#utility.yul\":18233:18312   */\n      tag_442\n      tag_186\n      jump\t// in\n    tag_442:\n        /* \"#utility.yul\":18197:18314   */\n    tag_441:\n        /* \"#utility.yul\":18338:18416   */\n      tag_443\n        /* \"#utility.yul\":18408:18415   */\n      dup8\n        /* \"#utility.yul\":18399:18405   */\n      dup3\n        /* \"#utility.yul\":18388:18397   */\n      dup9\n        /* \"#utility.yul\":18384:18406   */\n      add\n        /* \"#utility.yul\":18338:18416   */\n      tag_199\n      jump\t// in\n    tag_443:\n        /* \"#utility.yul\":18328:18416   */\n      swap3\n      pop\n        /* \"#utility.yul\":18123:18426   */\n      pop\n        /* \"#utility.yul\":18493:18495   */\n      0x60\n        /* \"#utility.yul\":18482:18491   */\n      dup6\n        /* \"#utility.yul\":18478:18496   */\n      add\n        /* \"#utility.yul\":18465:18497   */\n      calldataload\n        /* \"#utility.yul\":18524:18542   */\n      0xffffffffffffffff\n        /* \"#utility.yul\":18516:18522   */\n      dup2\n        /* \"#utility.yul\":18513:18543   */\n      gt\n        /* \"#utility.yul\":18510:18627   */\n      iszero\n      tag_444\n      jumpi\n        /* \"#utility.yul\":18546:18625   */\n      tag_445\n      tag_186\n      jump\t// in\n    tag_445:\n        /* \"#utility.yul\":18510:18627   */\n    tag_444:\n        /* \"#utility.yul\":18651:18729   */\n      tag_446\n        /* \"#utility.yul\":18721:18728   */\n      dup8\n        /* \"#utility.yul\":18712:18718   */\n      dup3\n        /* \"#utility.yul\":18701:18710   */\n      dup9\n        /* \"#utility.yul\":18697:18719   */\n      add\n        /* \"#utility.yul\":18651:18729   */\n      tag_204\n      jump\t// in\n    tag_446:\n        /* \"#utility.yul\":18641:18729   */\n      swap2\n      pop\n        /* \"#utility.yul\":18436:18739   */\n      pop\n        /* \"#utility.yul\":17351:18746   */\n      swap3\n      swap6\n      swap2\n      swap5\n      pop\n      swap3\n      pop\n      jump\t// out\n        /* \"#utility.yul\":18752:18921   */\n    tag_232:\n        /* \"#utility.yul\":18836:18847   */\n      0x00\n        /* \"#utility.yul\":18870:18876   */\n      dup3\n        /* \"#utility.yul\":18865:18868   */\n      dup3\n        /* \"#utility.yul\":18858:18877   */\n      mstore\n        /* \"#utility.yul\":18910:18914   */\n      0x20\n        /* \"#utility.yul\":18905:18908   */\n      dup3\n        /* \"#utility.yul\":18901:18915   */\n      add\n        /* \"#utility.yul\":18886:18915   */\n      swap1\n      pop\n        /* \"#utility.yul\":18752:18921   */\n      swap3\n      swap2\n      pop\n      pop\n      jump\t// out\n        /* \"#utility.yul\":18927:19099   */\n    tag_233:\n        /* \"#utility.yul\":19067:19091   */\n      0x4d6178696d756d2035204e46547320616c6c6f77656400000000000000000000\n        /* \"#utility.yul\":19063:19064   */\n      0x00\n        /* \"#utility.yul\":19055:19061   */\n      dup3\n        /* \"#utility.yul\":19051:19065   */\n      add\n        /* \"#utility.yul\":19044:19092   */\n      mstore\n        /* \"#utility.yul\":18927:19099   */\n      pop\n      jump\t// out\n        /* \"#utility.yul\":19105:19471   */\n    tag_234:\n        /* \"#utility.yul\":19247:19250   */\n      0x00\n        /* \"#utility.yul\":19268:19335   */\n      tag_450\n        /* \"#utility.yul\":19332:19334   */\n      0x16\n        /* \"#utility.yul\":19327:19330   */\n      dup4\n        /* \"#utility.yul\":19268:19335   */\n      tag_232\n      jump\t// in\n    tag_450:\n        /* \"#utility.yul\":19261:19335   */\n      swap2\n      pop\n        /* \"#utility.yul\":19344:19437   */\n      tag_451\n        /* \"#utility.yul\":19433:19436   */\n      dup3\n        /* \"#utility.yul\":19344:19437   */\n      tag_233\n      jump\t// in\n    tag_451:\n        /* \"#utility.yul\":19462:19464   */\n      0x20\n        /* \"#utility.yul\":19457:19460   */\n      dup3\n        /* \"#utility.yul\":19453:19465   */\n      add\n        /* \"#utility.yul\":19446:19465   */\n      swap1\n      pop\n        /* \"#utility.yul\":19105:19471   */\n      swap2\n      swap1\n      pop\n      jump\t// out\n        /* \"#utility.yul\":19477:19896   */\n    tag_67:\n        /* \"#utility.yul\":19643:19647   */\n      0x00\n        /* \"#utility.yul\":19681:19683   */\n      0x20\n        /* \"#utility.yul\":19670:19679   */\n      dup3\n        /* \"#utility.yul\":19666:19684   */\n      add\n        /* \"#utility.yul\":19658:19684   */\n      swap1\n      pop\n        /* \"#utility.yul\":19730:19739   */\n      dup2\n        /* \"#utility.yul\":19724:19728   */\n      dup2\n        /* \"#utility.yul\":19720:19740   */\n      sub\n        /* \"#utility.yul\":19716:19717   */\n      0x00\n        /* \"#utility.yul\":19705:19714   */\n      dup4\n        /* \"#utility.yul\":19701:19718   */\n      add\n        /* \"#utility.yul\":19694:19741   */\n      mstore\n        /* \"#utility.yul\":19758:19889   */\n      tag_453\n        /* \"#utility.yul\":19884:19888   */\n      dup2\n        /* \"#utility.yul\":19758:19889   */\n      tag_234\n      jump\t// in\n    tag_453:\n        /* \"#utility.yul\":19750:19889   */\n      swap1\n      pop\n        /* \"#utility.yul\":19477:19896   */\n      swap2\n      swap1\n      pop\n      jump\t// out\n        /* \"#utility.yul\":19902:20076   */\n    tag_235:\n        /* \"#utility.yul\":20042:20068   */\n      0x4d6178696d756d203520746f6b656e7320616c6c6f7765640000000000000000\n        /* \"#utility.yul\":20038:20039   */\n      0x00\n        /* \"#utility.yul\":20030:20036   */\n      dup3\n        /* \"#utility.yul\":20026:20040   */\n      add\n        /* \"#utility.yul\":20019:20069   */\n      mstore\n        /* \"#utility.yul\":19902:20076   */\n      pop\n      jump\t// out\n        /* \"#utility.yul\":20082:20448   */\n    tag_236:\n        /* \"#utility.yul\":20224:20227   */\n      0x00\n        /* \"#utility.yul\":20245:20312   */\n      tag_456\n        /* \"#utility.yul\":20309:20311   */\n      0x18\n        /* \"#utility.yul\":20304:20307   */\n      dup4\n        /* \"#utility.yul\":20245:20312   */\n      tag_232\n      jump\t// in\n    tag_456:\n        /* \"#utility.yul\":20238:20312   */\n      swap2\n      pop\n        /* \"#utility.yul\":20321:20414   */\n      tag_457\n        /* \"#utility.yul\":20410:20413   */\n      dup3\n        /* \"#utility.yul\":20321:20414   */\n      tag_235\n      jump\t// in\n    tag_457:\n        /* \"#utility.yul\":20439:20441   */\n      0x20\n        /* \"#utility.yul\":20434:20437   */\n      dup3\n        /* \"#utility.yul\":20430:20442   */\n      add\n        /* \"#utility.yul\":20423:20442   */\n      swap1\n      pop\n        /* \"#utility.yul\":20082:20448   */\n      swap2\n      swap1\n      pop\n      jump\t// out\n        /* \"#utility.yul\":20454:20873   */\n    tag_70:\n        /* \"#utility.yul\":20620:20624   */\n      0x00\n        /* \"#utility.yul\":20658:20660   */\n      0x20\n        /* \"#utility.yul\":20647:20656   */\n      dup3\n        /* \"#utility.yul\":20643:20661   */\n      add\n        /* \"#utility.yul\":20635:20661   */\n      swap1\n      pop\n        /* \"#utility.yul\":20707:20716   */\n      dup2\n        /* \"#utility.yul\":20701:20705   */\n      dup2\n        /* \"#utility.yul\":20697:20717   */\n      sub\n        /* \"#utility.yul\":20693:20694   */\n      0x00\n        /* \"#utility.yul\":20682:20691   */\n      dup4\n        /* \"#utility.yul\":20678:20695   */\n      add\n        /* \"#utility.yul\":20671:20718   */\n      mstore\n        /* \"#utility.yul\":20735:20866   */\n      tag_459\n        /* \"#utility.yul\":20861:20865   */\n      dup2\n        /* \"#utility.yul\":20735:20866   */\n      tag_236\n      jump\t// in\n    tag_459:\n        /* \"#utility.yul\":20727:20866   */\n      swap1\n      pop\n        /* \"#utility.yul\":20454:20873   */\n      swap2\n      swap1\n      pop\n      jump\t// out\n        /* \"#utility.yul\":20879:21105   */\n    tag_237:\n        /* \"#utility.yul\":21019:21053   */\n      0x546f6b656e7320616e6420746f6b656e416d6f756e7473206c656e677468206d\n        /* \"#utility.yul\":21015:21016   */\n      0x00\n        /* \"#utility.yul\":21007:21013   */\n      dup3\n        /* \"#utility.yul\":21003:21017   */\n      add\n        /* \"#utility.yul\":20996:21054   */\n      mstore\n        /* \"#utility.yul\":21088:21097   */\n      0x69736d6174636800000000000000000000000000000000000000000000000000\n        /* \"#utility.yul\":21083:21085   */\n      0x20\n        /* \"#utility.yul\":21075:21081   */\n      dup3\n        /* \"#utility.yul\":21071:21086   */\n      add\n        /* \"#utility.yul\":21064:21098   */\n      mstore\n        /* \"#utility.yul\":20879:21105   */\n      pop\n      jump\t// out\n        /* \"#utility.yul\":21111:21477   */\n    tag_238:\n        /* \"#utility.yul\":21253:21256   */\n      0x00\n        /* \"#utility.yul\":21274:21341   */\n      tag_462\n        /* \"#utility.yul\":21338:21340   */\n      0x27\n        /* \"#utility.yul\":21333:21336   */\n      dup4\n        /* \"#utility.yul\":21274:21341   */\n      tag_232\n      jump\t// in\n    tag_462:\n        /* \"#utility.yul\":21267:21341   */\n      swap2\n      pop\n        /* \"#utility.yul\":21350:21443   */\n      tag_463\n        /* \"#utility.yul\":21439:21442   */\n      dup3\n        /* \"#utility.yul\":21350:21443   */\n      tag_237\n      jump\t// in\n    tag_463:\n        /* \"#utility.yul\":21468:21470   */\n      0x40\n        /* \"#utility.yul\":21463:21466   */\n      dup3\n        /* \"#utility.yul\":21459:21471   */\n      add\n        /* \"#utility.yul\":21452:21471   */\n      swap1\n      pop\n        /* \"#utility.yul\":21111:21477   */\n      swap2\n      swap1\n      pop\n      jump\t// out\n        /* \"#utility.yul\":21483:21902   */\n    tag_73:\n        /* \"#utility.yul\":21649:21653   */\n      0x00\n        /* \"#utility.yul\":21687:21689   */\n      0x20\n        /* \"#utility.yul\":21676:21685   */\n      dup3\n        /* \"#utility.yul\":21672:21690   */\n      add\n        /* \"#utility.yul\":21664:21690   */\n      swap1\n      pop\n        /* \"#utility.yul\":21736:21745   */\n      dup2\n        /* \"#utility.yul\":21730:21734   */\n      dup2\n        /* \"#utility.yul\":21726:21746   */\n      sub\n        /* \"#utility.yul\":21722:21723   */\n      0x00\n        /* \"#utility.yul\":21711:21720   */\n      dup4\n        /* \"#utility.yul\":21707:21724   */\n      add\n        /* \"#utility.yul\":21700:21747   */\n      mstore\n        /* \"#utility.yul\":21764:21895   */\n      tag_465\n        /* \"#utility.yul\":21890:21894   */\n      dup2\n        /* \"#utility.yul\":21764:21895   */\n      tag_238\n      jump\t// in\n    tag_465:\n        /* \"#utility.yul\":21756:21895   */\n      swap1\n      pop\n        /* \"#utility.yul\":21483:21902   */\n      swap2\n      swap1\n      pop\n      jump\t// out\n        /* \"#utility.yul\":21908:22240   */\n    tag_80:\n        /* \"#utility.yul\":22029:22033   */\n      0x00\n        /* \"#utility.yul\":22067:22069   */\n      0x40\n        /* \"#utility.yul\":22056:22065   */\n      dup3\n        /* \"#utility.yul\":22052:22070   */\n      add\n        /* \"#utility.yul\":22044:22070   */\n      swap1\n      pop\n        /* \"#utility.yul\":22080:22151   */\n      tag_467\n        /* \"#utility.yul\":22148:22149   */\n      0x00\n        /* \"#utility.yul\":22137:22146   */\n      dup4\n        /* \"#utility.yul\":22133:22150   */\n      add\n        /* \"#utility.yul\":22124:22130   */\n      dup6\n        /* \"#utility.yul\":22080:22151   */\n      tag_183\n      jump\t// in\n    tag_467:\n        /* \"#utility.yul\":22161:22233   */\n      tag_468\n        /* \"#utility.yul\":22229:22231   */\n      0x20\n        /* \"#utility.yul\":22218:22227   */\n      dup4\n        /* \"#utility.yul\":22214:22232   */\n      add\n        /* \"#utility.yul\":22205:22211   */\n      dup5\n        /* \"#utility.yul\":22161:22233   */\n      tag_228\n      jump\t// in\n    tag_468:\n        /* \"#utility.yul\":21908:22240   */\n      swap4\n      swap3\n      pop\n      pop\n      pop\n      jump\t// out\n        /* \"#utility.yul\":22246:22426   */\n    tag_239:\n        /* \"#utility.yul\":22294:22371   */\n      0x4e487b7100000000000000000000000000000000000000000000000000000000\n        /* \"#utility.yul\":22291:22292   */\n      0x00\n        /* \"#utility.yul\":22284:22372   */\n      mstore\n        /* \"#utility.yul\":22391:22395   */\n      0x11\n        /* \"#utility.yul\":22388:22389   */\n      0x04\n        /* \"#utility.yul\":22381:22396   */\n      mstore\n        /* \"#utility.yul\":22415:22419   */\n      0x24\n        /* \"#utility.yul\":22412:22413   */\n      0x00\n        /* \"#utility.yul\":22405:22420   */\n      revert\n        /* \"#utility.yul\":22432:22665   */\n    tag_82:\n        /* \"#utility.yul\":22471:22474   */\n      0x00\n        /* \"#utility.yul\":22494:22518   */\n      tag_471\n        /* \"#utility.yul\":22512:22517   */\n      dup3\n        /* \"#utility.yul\":22494:22518   */\n      tag_182\n      jump\t// in\n    tag_471:\n        /* \"#utility.yul\":22485:22518   */\n      swap2\n      pop\n        /* \"#utility.yul\":22540:22606   */\n      0xffffffffffffffffffffffffffffffffffffffffffffffffffffffffffffffff\n        /* \"#utility.yul\":22533:22538   */\n      dup3\n        /* \"#utility.yul\":22530:22607   */\n      sub\n        /* \"#utility.yul\":22527:22630   */\n      tag_472\n      jumpi\n        /* \"#utility.yul\":22610:22628   */\n      tag_473\n      tag_239\n      jump\t// in\n    tag_473:\n        /* \"#utility.yul\":22527:22630   */\n    tag_472:\n        /* \"#utility.yul\":22657:22658   */\n      0x01\n        /* \"#utility.yul\":22650:22655   */\n      dup3\n        /* \"#utility.yul\":22646:22659   */\n      add\n        /* \"#utility.yul\":22639:22659   */\n      swap1\n      pop\n        /* \"#utility.yul\":22432:22665   */\n      swap2\n      swap1\n      pop\n      jump\t// out\n        /* \"#utility.yul\":22671:22844   */\n    tag_240:\n        /* \"#utility.yul\":22811:22836   */\n      0x41677265656d656e74206973206e6f7420616374697665000000000000000000\n        /* \"#utility.yul\":22807:22808   */\n      0x00\n        /* \"#utility.yul\":22799:22805   */\n      dup3\n        /* \"#utility.yul\":22795:22809   */\n      add\n        /* \"#utility.yul\":22788:22837   */\n      mstore\n        /* \"#utility.yul\":22671:22844   */\n      pop\n      jump\t// out\n        /* \"#utility.yul\":22850:23216   */\n    tag_241:\n        /* \"#utility.yul\":22992:22995   */\n      0x00\n        /* \"#utility.yul\":23013:23080   */\n      tag_476\n        /* \"#utility.yul\":23077:23079   */\n      0x17\n        /* \"#utility.yul\":23072:23075   */\n      dup4\n        /* \"#utility.yul\":23013:23080   */\n      tag_232\n      jump\t// in\n    tag_476:\n        /* \"#utility.yul\":23006:23080   */\n      swap2\n      pop\n        /* \"#utility.yul\":23089:23182   */\n      tag_477\n        /* \"#utility.yul\":23178:23181   */\n      dup3\n        /* \"#utility.yul\":23089:23182   */\n      tag_240\n      jump\t// in\n    tag_477:\n        /* \"#utility.yul\":23207:23209   */\n      0x20\n        /* \"#utility.yul\":23202:23205   */\n      dup3\n        /* \"#utility.yul\":23198:23210   */\n      add\n        /* \"#utility.yul\":23191:23210   */\n      swap1\n      pop\n        /* \"#utility.yul\":22850:23216   */\n      swap2\n      swap1\n      pop\n      jump\t// out\n        /* \"#utility.yul\":23222:23641   */\n    tag_98:\n        /* \"#utility.yul\":23388:23392   */\n      0x00\n        /* \"#utility.yul\":23426:23428   */\n      0x20\n        /* \"#utility.yul\":23415:23424   */\n      dup3\n        /* \"#utility.yul\":23411:23429   */\n      add\n        /* \"#utility.yul\":23403:23429   */\n      swap1\n      pop\n        /* \"#utility.yul\":23475:23484   */\n      dup2\n        /* \"#utility.yul\":23469:23473   */\n      dup2\n        /* \"#utility.yul\":23465:23485   */\n      sub\n        /* \"#utility.yul\":23461:23462   */\n      0x00\n        /* \"#utility.yul\":23450:23459   */\n      dup4\n        /* \"#utility.yul\":23446:23463   */\n      add\n        /* \"#utility.yul\":23439:23486   */\n      mstore\n        /* \"#utility.yul\":23503:23634   */\n      tag_479\n        /* \"#utility.yul\":23629:23633   */\n      dup2\n        /* \"#utility.yul\":23503:23634   */\n      tag_241\n      jump\t// in\n    tag_479:\n        /* \"#utility.yul\":23495:23634   */\n      swap1\n      pop\n        /* \"#utility.yul\":23222:23641   */\n      swap2\n      swap1\n      pop\n      jump\t// out\n        /* \"#utility.yul\":23647:23764   */\n    tag_242:\n        /* \"#utility.yul\":23756:23757   */\n      0x00\n        /* \"#utility.yul\":23753:23754   */\n      dup1\n        /* \"#utility.yul\":23746:23758   */\n      revert\n        /* \"#utility.yul\":23770:23887   */\n    tag_243:\n        /* \"#utility.yul\":23879:23880   */\n      0x00\n        /* \"#utility.yul\":23876:23877   */\n      dup1\n        /* \"#utility.yul\":23869:23881   */\n      revert\n        /* \"#utility.yul\":23893:24036   */\n    tag_244:\n        /* \"#utility.yul\":23950:23955   */\n      0x00\n        /* \"#utility.yul\":23981:23987   */\n      dup2\n        /* \"#utility.yul\":23975:23988   */\n      mload\n        /* \"#utility.yul\":23966:23988   */\n      swap1\n      pop\n        /* \"#utility.yul\":23997:24030   */\n      tag_483\n        /* \"#utility.yul\":24024:24029   */\n      dup2\n        /* \"#utility.yul\":23997:24030   */\n      tag_196\n      jump\t// in\n    tag_483:\n        /* \"#utility.yul\":23893:24036   */\n      swap3\n      swap2\n      pop\n      pop\n      jump\t// out\n        /* \"#utility.yul\":24042:24185   */\n    tag_245:\n        /* \"#utility.yul\":24099:24104   */\n      0x00\n        /* \"#utility.yul\":24130:24136   */\n      dup2\n        /* \"#utility.yul\":24124:24137   */\n      mload\n        /* \"#utility.yul\":24115:24137   */\n      swap1\n      pop\n        /* \"#utility.yul\":24146:24179   */\n      tag_485\n        /* \"#utility.yul\":24173:24178   */\n      dup2\n        /* \"#utility.yul\":24146:24179   */\n      tag_201\n      jump\t// in\n    tag_485:\n        /* \"#utility.yul\":24042:24185   */\n      swap3\n      swap2\n      pop\n      pop\n      jump\t// out\n        /* \"#utility.yul\":24208:24940   */\n    tag_246:\n        /* \"#utility.yul\":24315:24320   */\n      0x00\n        /* \"#utility.yul\":24340:24421   */\n      tag_487\n        /* \"#utility.yul\":24356:24420   */\n      tag_488\n        /* \"#utility.yul\":24413:24419   */\n      dup5\n        /* \"#utility.yul\":24356:24420   */\n      tag_192\n      jump\t// in\n    tag_488:\n        /* \"#utility.yul\":24340:24421   */\n      tag_191\n      jump\t// in\n    tag_487:\n        /* \"#utility.yul\":24331:24421   */\n      swap1\n      pop\n        /* \"#utility.yul\":24441:24446   */\n      dup1\n        /* \"#utility.yul\":24470:24476   */\n      dup4\n        /* \"#utility.yul\":24463:24468   */\n      dup3\n        /* \"#utility.yul\":24456:24477   */\n      mstore\n        /* \"#utility.yul\":24504:24508   */\n      0x20\n        /* \"#utility.yul\":24497:24502   */\n      dup3\n        /* \"#utility.yul\":24493:24509   */\n      add\n        /* \"#utility.yul\":24486:24509   */\n      swap1\n      pop\n        /* \"#utility.yul\":24557:24561   */\n      0x20\n        /* \"#utility.yul\":24549:24555   */\n      dup5\n        /* \"#utility.yul\":24545:24562   */\n      mul\n        /* \"#utility.yul\":24537:24543   */\n      dup4\n        /* \"#utility.yul\":24533:24563   */\n      add\n        /* \"#utility.yul\":24586:24589   */\n      dup6\n        /* \"#utility.yul\":24578:24584   */\n      dup2\n        /* \"#utility.yul\":24575:24590   */\n      gt\n        /* \"#utility.yul\":24572:24694   */\n      iszero\n      tag_489\n      jumpi\n        /* \"#utility.yul\":24605:24684   */\n      tag_490\n      tag_193\n      jump\t// in\n    tag_490:\n        /* \"#utility.yul\":24572:24694   */\n    tag_489:\n        /* \"#utility.yul\":24720:24726   */\n      dup4\n        /* \"#utility.yul\":24703:24934   */\n    tag_491:\n        /* \"#utility.yul\":24737:24743   */\n      dup2\n        /* \"#utility.yul\":24732:24735   */\n      dup2\n        /* \"#utility.yul\":24729:24744   */\n      lt\n        /* \"#utility.yul\":24703:24934   */\n      iszero\n      tag_493\n      jumpi\n        /* \"#utility.yul\":24812:24815   */\n      dup1\n        /* \"#utility.yul\":24841:24889   */\n      tag_494\n        /* \"#utility.yul\":24885:24888   */\n      dup9\n        /* \"#utility.yul\":24873:24883   */\n      dup3\n        /* \"#utility.yul\":24841:24889   */\n      tag_244\n      jump\t// in\n    tag_494:\n        /* \"#utility.yul\":24836:24839   */\n      dup5\n        /* \"#utility.yul\":24829:24890   */\n      mstore\n        /* \"#utility.yul\":24919:24923   */\n      0x20\n        /* \"#utility.yul\":24914:24917   */\n      dup5\n        /* \"#utility.yul\":24910:24924   */\n      add\n        /* \"#utility.yul\":24903:24924   */\n      swap4\n      pop\n        /* \"#utility.yul\":24779:24934   */\n      pop\n        /* \"#utility.yul\":24763:24767   */\n      0x20\n        /* \"#utility.yul\":24758:24761   */\n      dup2\n        /* \"#utility.yul\":24754:24768   */\n      add\n        /* \"#utility.yul\":24747:24768   */\n      swap1\n      pop\n        /* \"#utility.yul\":24703:24934   */\n      jump(tag_491)\n    tag_493:\n        /* \"#utility.yul\":24707:24728   */\n      pop\n        /* \"#utility.yul\":24321:24940   */\n      pop\n      pop\n        /* \"#utility.yul\":24208:24940   */\n      swap4\n      swap3\n      pop\n      pop\n      pop\n      jump\t// out\n        /* \"#utility.yul\":24963:25348   */\n    tag_247:\n        /* \"#utility.yul\":25045:25050   */\n      0x00\n        /* \"#utility.yul\":25094:25097   */\n      dup3\n        /* \"#utility.yul\":25087:25091   */\n      0x1f\n        /* \"#utility.yul\":25079:25085   */\n      dup4\n        /* \"#utility.yul\":25075:25092   */\n      add\n        /* \"#utility.yul\":25071:25098   */\n      slt\n        /* \"#utility.yul\":25061:25183   */\n      tag_496\n      jumpi\n        /* \"#utility.yul\":25102:25181   */\n      tag_497\n      tag_187\n      jump\t// in\n    tag_497:\n        /* \"#utility.yul\":25061:25183   */\n    tag_496:\n        /* \"#utility.yul\":25212:25218   */\n      dup2\n        /* \"#utility.yul\":25206:25219   */\n      mload\n        /* \"#utility.yul\":25237:25342   */\n      tag_498\n        /* \"#utility.yul\":25338:25341   */\n      dup5\n        /* \"#utility.yul\":25330:25336   */\n      dup3\n        /* \"#utility.yul\":25323:25327   */\n      0x20\n        /* \"#utility.yul\":25315:25321   */\n      dup7\n        /* \"#utility.yul\":25311:25328   */\n      add\n        /* \"#utility.yul\":25237:25342   */\n      tag_246\n      jump\t// in\n    tag_498:\n        /* \"#utility.yul\":25228:25342   */\n      swap2\n      pop\n        /* \"#utility.yul\":25051:25348   */\n      pop\n        /* \"#utility.yul\":24963:25348   */\n      swap3\n      swap2\n      pop\n      pop\n      jump\t// out\n        /* \"#utility.yul\":25354:25470   */\n    tag_248:\n        /* \"#utility.yul\":25424:25445   */\n      tag_500\n        /* \"#utility.yul\":25439:25444   */\n      dup2\n        /* \"#utility.yul\":25424:25445   */\n      tag_224\n      jump\t// in\n    tag_500:\n        /* \"#utility.yul\":25417:25422   */\n      dup2\n        /* \"#utility.yul\":25414:25446   */\n      eq\n        /* \"#utility.yul\":25404:25464   */\n      tag_501\n      jumpi\n        /* \"#utility.yul\":25460:25461   */\n      0x00\n        /* \"#utility.yul\":25457:25458   */\n      dup1\n        /* \"#utility.yul\":25450:25462   */\n      revert\n        /* \"#utility.yul\":25404:25464   */\n    tag_501:\n        /* \"#utility.yul\":25354:25470   */\n      pop\n      jump\t// out\n        /* \"#utility.yul\":25476:25613   */\n    tag_249:\n        /* \"#utility.yul\":25530:25535   */\n      0x00\n        /* \"#utility.yul\":25561:25567   */\n      dup2\n        /* \"#utility.yul\":25555:25568   */\n      mload\n        /* \"#utility.yul\":25546:25568   */\n      swap1\n      pop\n        /* \"#utility.yul\":25577:25607   */\n      tag_503\n        /* \"#utility.yul\":25601:25606   */\n      dup2\n        /* \"#utility.yul\":25577:25607   */\n      tag_248\n      jump\t// in\n    tag_503:\n        /* \"#utility.yul\":25476:25613   */\n      swap3\n      swap2\n      pop\n      pop\n      jump\t// out\n        /* \"#utility.yul\":25660:26990   */\n    tag_250:\n        /* \"#utility.yul\":25749:25754   */\n      0x00\n        /* \"#utility.yul\":25793:25797   */\n      0xa0\n        /* \"#utility.yul\":25781:25790   */\n      dup3\n        /* \"#utility.yul\":25776:25779   */\n      dup5\n        /* \"#utility.yul\":25772:25791   */\n      sub\n        /* \"#utility.yul\":25768:25798   */\n      slt\n        /* \"#utility.yul\":25765:25882   */\n      iszero\n      tag_505\n      jumpi\n        /* \"#utility.yul\":25801:25880   */\n      tag_506\n      tag_242\n      jump\t// in\n    tag_506:\n        /* \"#utility.yul\":25765:25882   */\n    tag_505:\n        /* \"#utility.yul\":25900:25921   */\n      tag_507\n        /* \"#utility.yul\":25916:25920   */\n      0xa0\n        /* \"#utility.yul\":25900:25921   */\n      tag_191\n      jump\t// in\n    tag_507:\n        /* \"#utility.yul\":25891:25921   */\n      swap1\n      pop\n        /* \"#utility.yul\":25983:25984   */\n      0x00\n        /* \"#utility.yul\":26023:26083   */\n      tag_508\n        /* \"#utility.yul\":26079:26082   */\n      dup5\n        /* \"#utility.yul\":26070:26076   */\n      dup3\n        /* \"#utility.yul\":26059:26068   */\n      dup6\n        /* \"#utility.yul\":26055:26077   */\n      add\n        /* \"#utility.yul\":26023:26083   */\n      tag_244\n      jump\t// in\n    tag_508:\n        /* \"#utility.yul\":26016:26020   */\n      0x00\n        /* \"#utility.yul\":26009:26014   */\n      dup4\n        /* \"#utility.yul\":26005:26021   */\n      add\n        /* \"#utility.yul\":25998:26084   */\n      mstore\n        /* \"#utility.yul\":25931:26095   */\n      pop\n        /* \"#utility.yul\":26161:26163   */\n      0x20\n        /* \"#utility.yul\":26202:26262   */\n      tag_509\n        /* \"#utility.yul\":26258:26261   */\n      dup5\n        /* \"#utility.yul\":26249:26255   */\n      dup3\n        /* \"#utility.yul\":26238:26247   */\n      dup6\n        /* \"#utility.yul\":26234:26256   */\n      add\n        /* \"#utility.yul\":26202:26262   */\n      tag_245\n      jump\t// in\n    tag_509:\n        /* \"#utility.yul\":26195:26199   */\n      0x20\n        /* \"#utility.yul\":26188:26193   */\n      dup4\n        /* \"#utility.yul\":26184:26200   */\n      add\n        /* \"#utility.yul\":26177:26263   */\n      mstore\n        /* \"#utility.yul\":26105:26274   */\n      pop\n        /* \"#utility.yul\":26354:26356   */\n      0x40\n        /* \"#utility.yul\":26343:26352   */\n      dup3\n        /* \"#utility.yul\":26339:26357   */\n      add\n        /* \"#utility.yul\":26333:26358   */\n      mload\n        /* \"#utility.yul\":26385:26403   */\n      0xffffffffffffffff\n        /* \"#utility.yul\":26377:26383   */\n      dup2\n        /* \"#utility.yul\":26374:26404   */\n      gt\n        /* \"#utility.yul\":26371:26488   */\n      iszero\n      tag_510\n      jumpi\n        /* \"#utility.yul\":26407:26486   */\n      tag_511\n      tag_243\n      jump\t// in\n    tag_511:\n        /* \"#utility.yul\":26371:26488   */\n    tag_510:\n        /* \"#utility.yul\":26527:26612   */\n      tag_512\n        /* \"#utility.yul\":26608:26611   */\n      dup5\n        /* \"#utility.yul\":26599:26605   */\n      dup3\n        /* \"#utility.yul\":26588:26597   */\n      dup6\n        /* \"#utility.yul\":26584:26606   */\n      add\n        /* \"#utility.yul\":26527:26612   */\n      tag_247\n      jump\t// in\n    tag_512:\n        /* \"#utility.yul\":26520:26524   */\n      0x40\n        /* \"#utility.yul\":26513:26518   */\n      dup4\n        /* \"#utility.yul\":26509:26525   */\n      add\n        /* \"#utility.yul\":26502:26613   */\n      mstore\n        /* \"#utility.yul\":26284:26624   */\n      pop\n        /* \"#utility.yul\":26696:26698   */\n      0x60\n        /* \"#utility.yul\":26737:26797   */\n      tag_513\n        /* \"#utility.yul\":26793:26796   */\n      dup5\n        /* \"#utility.yul\":26784:26790   */\n      dup3\n        /* \"#utility.yul\":26773:26782   */\n      dup6\n        /* \"#utility.yul\":26769:26791   */\n      add\n        /* \"#utility.yul\":26737:26797   */\n      tag_245\n      jump\t// in\n    tag_513:\n        /* \"#utility.yul\":26730:26734   */\n      0x60\n        /* \"#utility.yul\":26723:26728   */\n      dup4\n        /* \"#utility.yul\":26719:26735   */\n      add\n        /* \"#utility.yul\":26712:26798   */\n      mstore\n        /* \"#utility.yul\":26634:26809   */\n      pop\n        /* \"#utility.yul\":26872:26875   */\n      0x80\n        /* \"#utility.yul\":26914:26971   */\n      tag_514\n        /* \"#utility.yul\":26967:26970   */\n      dup5\n        /* \"#utility.yul\":26958:26964   */\n      dup3\n        /* \"#utility.yul\":26947:26956   */\n      dup6\n        /* \"#utility.yul\":26943:26965   */\n      add\n        /* \"#utility.yul\":26914:26971   */\n      tag_249\n      jump\t// in\n    tag_514:\n        /* \"#utility.yul\":26907:26911   */\n      0x80\n        /* \"#utility.yul\":26900:26905   */\n      dup4\n        /* \"#utility.yul\":26896:26912   */\n      add\n        /* \"#utility.yul\":26889:26972   */\n      mstore\n        /* \"#utility.yul\":26819:26983   */\n      pop\n        /* \"#utility.yul\":25660:26990   */\n      swap3\n      swap2\n      pop\n      pop\n      jump\t// out\n        /* \"#utility.yul\":26996:27558   */\n    tag_107:\n        /* \"#utility.yul\":27095:27101   */\n      0x00\n        /* \"#utility.yul\":27144:27146   */\n      0x20\n        /* \"#utility.yul\":27132:27141   */\n      dup3\n        /* \"#utility.yul\":27123:27130   */\n      dup5\n        /* \"#utility.yul\":27119:27142   */\n      sub\n        /* \"#utility.yul\":27115:27147   */\n      slt\n        /* \"#utility.yul\":27112:27231   */\n      iszero\n      tag_516\n      jumpi\n        /* \"#utility.yul\":27150:27229   */\n      tag_517\n      tag_185\n      jump\t// in\n    tag_517:\n        /* \"#utility.yul\":27112:27231   */\n    tag_516:\n        /* \"#utility.yul\":27291:27292   */\n      0x00\n        /* \"#utility.yul\":27280:27289   */\n      dup3\n        /* \"#utility.yul\":27276:27293   */\n      add\n        /* \"#utility.yul\":27270:27294   */\n      mload\n        /* \"#utility.yul\":27321:27339   */\n      0xffffffffffffffff\n        /* \"#utility.yul\":27313:27319   */\n      dup2\n        /* \"#utility.yul\":27310:27340   */\n      gt\n        /* \"#utility.yul\":27307:27424   */\n      iszero\n      tag_518\n      jumpi\n        /* \"#utility.yul\":27343:27422   */\n      tag_519\n      tag_186\n      jump\t// in\n    tag_519:\n        /* \"#utility.yul\":27307:27424   */\n    tag_518:\n        /* \"#utility.yul\":27448:27541   */\n      tag_520\n        /* \"#utility.yul\":27533:27540   */\n      dup5\n        /* \"#utility.yul\":27524:27530   */\n      dup3\n        /* \"#utility.yul\":27513:27522   */\n      dup6\n        /* \"#utility.yul\":27509:27531   */\n      add\n        /* \"#utility.yul\":27448:27541   */\n      tag_250\n      jump\t// in\n    tag_520:\n        /* \"#utility.yul\":27438:27541   */\n      swap2\n      pop\n        /* \"#utility.yul\":27241:27551   */\n      pop\n        /* \"#utility.yul\":26996:27558   */\n      swap3\n      swap2\n      pop\n      pop\n      jump\t// out\n        /* \"#utility.yul\":27564:27746   */\n    tag_251:\n        /* \"#utility.yul\":27704:27738   */\n      0x496e76616c6964206f6666657220666f7220746869732061677265656d656e74\n        /* \"#utility.yul\":27700:27701   */\n      0x00\n        /* \"#utility.yul\":27692:27698   */\n      dup3\n        /* \"#utility.yul\":27688:27702   */\n      add\n        /* \"#utility.yul\":27681:27739   */\n      mstore\n        /* \"#utility.yul\":27564:27746   */\n      pop\n      jump\t// out\n        /* \"#utility.yul\":27752:28118   */\n    tag_252:\n        /* \"#utility.yul\":27894:27897   */\n      0x00\n        /* \"#utility.yul\":27915:27982   */\n      tag_523\n        /* \"#utility.yul\":27979:27981   */\n      0x20\n        /* \"#utility.yul\":27974:27977   */\n      dup4\n        /* \"#utility.yul\":27915:27982   */\n      tag_232\n      jump\t// in\n    tag_523:\n        /* \"#utility.yul\":27908:27982   */\n      swap2\n      pop\n        /* \"#utility.yul\":27991:28084   */\n      tag_524\n        /* \"#utility.yul\":28080:28083   */\n      dup3\n        /* \"#utility.yul\":27991:28084   */\n      tag_251\n      jump\t// in\n    tag_524:\n        /* \"#utility.yul\":28109:28111   */\n      0x20\n        /* \"#utility.yul\":28104:28107   */\n      dup3\n        /* \"#utility.yul\":28100:28112   */\n      add\n        /* \"#utility.yul\":28093:28112   */\n      swap1\n      pop\n        /* \"#utility.yul\":27752:28118   */\n      swap2\n      swap1\n      pop\n      jump\t// out\n        /* \"#utility.yul\":28124:28543   */\n    tag_110:\n        /* \"#utility.yul\":28290:28294   */\n      0x00\n        /* \"#utility.yul\":28328:28330   */\n      0x20\n        /* \"#utility.yul\":28317:28326   */\n      dup3\n        /* \"#utility.yul\":28313:28331   */\n      add\n        /* \"#utility.yul\":28305:28331   */\n      swap1\n      pop\n        /* \"#utility.yul\":28377:28386   */\n      dup2\n        /* \"#utility.yul\":28371:28375   */\n      dup2\n        /* \"#utility.yul\":28367:28387   */\n      sub\n        /* \"#utility.yul\":28363:28364   */\n      0x00\n        /* \"#utility.yul\":28352:28361   */\n      dup4\n        /* \"#utility.yul\":28348:28365   */\n      add\n        /* \"#utility.yul\":28341:28388   */\n      mstore\n        /* \"#utility.yul\":28405:28536   */\n      tag_526\n        /* \"#utility.yul\":28531:28535   */\n      dup2\n        /* \"#utility.yul\":28405:28536   */\n      tag_252\n      jump\t// in\n    tag_526:\n        /* \"#utility.yul\":28397:28536   */\n      swap1\n      pop\n        /* \"#utility.yul\":28124:28543   */\n      swap2\n      swap1\n      pop\n      jump\t// out\n        /* \"#utility.yul\":28549:28729   */\n    tag_116:\n        /* \"#utility.yul\":28597:28674   */\n      0x4e487b7100000000000000000000000000000000000000000000000000000000\n        /* \"#utility.yul\":28594:28595   */\n      0x00\n        /* \"#utility.yul\":28587:28675   */\n      mstore\n        /* \"#utility.yul\":28694:28698   */\n      0x32\n        /* \"#utility.yul\":28691:28692   */\n      0x04\n        /* \"#utility.yul\":28684:28699   */\n      mstore\n        /* \"#utility.yul\":28718:28722   */\n      0x24\n        /* \"#utility.yul\":28715:28716   */\n      0x00\n        /* \"#utility.yul\":28708:28723   */\n      revert\n        /* \"#utility.yul\":28735:29177   */\n    tag_119:\n        /* \"#utility.yul\":28884:28888   */\n      0x00\n        /* \"#utility.yul\":28922:28924   */\n      0x60\n        /* \"#utility.yul\":28911:28920   */\n      dup3\n        /* \"#utility.yul\":28907:28925   */\n      add\n        /* \"#utility.yul\":28899:28925   */\n      swap1\n      pop\n        /* \"#utility.yul\":28935:29006   */\n      tag_529\n        /* \"#utility.yul\":29003:29004   */\n      0x00\n        /* \"#utility.yul\":28992:29001   */\n      dup4\n        /* \"#utility.yul\":28988:29005   */\n      add\n        /* \"#utility.yul\":28979:28985   */\n      dup7\n        /* \"#utility.yul\":28935:29006   */\n      tag_228\n      jump\t// in\n    tag_529:\n        /* \"#utility.yul\":29016:29088   */\n      tag_530\n        /* \"#utility.yul\":29084:29086   */\n      0x20\n        /* \"#utility.yul\":29073:29082   */\n      dup4\n        /* \"#utility.yul\":29069:29087   */\n      add\n        /* \"#utility.yul\":29060:29066   */\n      dup6\n        /* \"#utility.yul\":29016:29088   */\n      tag_228\n      jump\t// in\n    tag_530:\n        /* \"#utility.yul\":29098:29170   */\n      tag_531\n        /* \"#utility.yul\":29166:29168   */\n      0x40\n        /* \"#utility.yul\":29155:29164   */\n      dup4\n        /* \"#utility.yul\":29151:29169   */\n      add\n        /* \"#utility.yul\":29142:29148   */\n      dup5\n        /* \"#utility.yul\":29098:29170   */\n      tag_183\n      jump\t// in\n    tag_531:\n        /* \"#utility.yul\":28735:29177   */\n      swap5\n      swap4\n      pop\n      pop\n      pop\n      pop\n      jump\t// out\n        /* \"#utility.yul\":29183:29528   */\n    tag_136:\n        /* \"#utility.yul\":29250:29256   */\n      0x00\n        /* \"#utility.yul\":29299:29301   */\n      0x20\n        /* \"#utility.yul\":29287:29296   */\n      dup3\n        /* \"#utility.yul\":29278:29285   */\n      dup5\n        /* \"#utility.yul\":29274:29297   */\n      sub\n        /* \"#utility.yul\":29270:29302   */\n      slt\n        /* \"#utility.yul\":29267:29386   */\n      iszero\n      tag_533\n      jumpi\n        /* \"#utility.yul\":29305:29384   */\n      tag_534\n      tag_185\n      jump\t// in\n    tag_534:\n        /* \"#utility.yul\":29267:29386   */\n    tag_533:\n        /* \"#utility.yul\":29425:29426   */\n      0x00\n        /* \"#utility.yul\":29450:29511   */\n      tag_535\n        /* \"#utility.yul\":29503:29510   */\n      dup5\n        /* \"#utility.yul\":29494:29500   */\n      dup3\n        /* \"#utility.yul\":29483:29492   */\n      dup6\n        /* \"#utility.yul\":29479:29501   */\n      add\n        /* \"#utility.yul\":29450:29511   */\n      tag_249\n      jump\t// in\n    tag_535:\n        /* \"#utility.yul\":29440:29511   */\n      swap2\n      pop\n        /* \"#utility.yul\":29396:29521   */\n      pop\n        /* \"#utility.yul\":29183:29528   */\n      swap3\n      swap2\n      pop\n      pop\n      jump\t// out\n        /* \"#utility.yul\":29534:29725   */\n    tag_144:\n        /* \"#utility.yul\":29574:29577   */\n      0x00\n        /* \"#utility.yul\":29593:29613   */\n      tag_537\n        /* \"#utility.yul\":29611:29612   */\n      dup3\n        /* \"#utility.yul\":29593:29613   */\n      tag_182\n      jump\t// in\n    tag_537:\n        /* \"#utility.yul\":29588:29613   */\n      swap2\n      pop\n        /* \"#utility.yul\":29627:29647   */\n      tag_538\n        /* \"#utility.yul\":29645:29646   */\n      dup4\n        /* \"#utility.yul\":29627:29647   */\n      tag_182\n      jump\t// in\n    tag_538:\n        /* \"#utility.yul\":29622:29647   */\n      swap3\n      pop\n        /* \"#utility.yul\":29670:29671   */\n      dup3\n        /* \"#utility.yul\":29667:29668   */\n      dup3\n        /* \"#utility.yul\":29663:29672   */\n      add\n        /* \"#utility.yul\":29656:29672   */\n      swap1\n      pop\n        /* \"#utility.yul\":29691:29694   */\n      dup1\n        /* \"#utility.yul\":29688:29689   */\n      dup3\n        /* \"#utility.yul\":29685:29695   */\n      gt\n        /* \"#utility.yul\":29682:29718   */\n      iszero\n      tag_539\n      jumpi\n        /* \"#utility.yul\":29698:29716   */\n      tag_540\n      tag_239\n      jump\t// in\n    tag_540:\n        /* \"#utility.yul\":29682:29718   */\n    tag_539:\n        /* \"#utility.yul\":29534:29725   */\n      swap3\n      swap2\n      pop\n      pop\n      jump\t// out\n        /* \"#utility.yul\":29731:29834   */\n    tag_253:\n        /* \"#utility.yul\":29794:29801   */\n      0x00\n        /* \"#utility.yul\":29823:29828   */\n      dup2\n        /* \"#utility.yul\":29812:29828   */\n      swap1\n      pop\n        /* \"#utility.yul\":29731:29834   */\n      swap2\n      swap1\n      pop\n      jump\t// out\n        /* \"#utility.yul\":29840:30034   */\n    tag_254:\n        /* \"#utility.yul\":29916:29925   */\n      0x00\n        /* \"#utility.yul\":29949:30028   */\n      tag_543\n        /* \"#utility.yul\":29967:30027   */\n      tag_544\n        /* \"#utility.yul\":29976:30026   */\n      tag_545\n        /* \"#utility.yul\":30020:30025   */\n      dup5\n        /* \"#utility.yul\":29976:30026   */\n      tag_253\n      jump\t// in\n    tag_545:\n        /* \"#utility.yul\":29967:30027   */\n      tag_205\n      jump\t// in\n    tag_544:\n        /* \"#utility.yul\":29949:30028   */\n      tag_182\n      jump\t// in\n    tag_543:\n        /* \"#utility.yul\":29936:30028   */\n      swap1\n      pop\n        /* \"#utility.yul\":29840:30034   */\n      swap2\n      swap1\n      pop\n      jump\t// out\n        /* \"#utility.yul\":30040:30223   */\n    tag_255:\n        /* \"#utility.yul\":30153:30216   */\n      tag_547\n        /* \"#utility.yul\":30210:30215   */\n      dup2\n        /* \"#utility.yul\":30153:30216   */\n      tag_254\n      jump\t// in\n    tag_547:\n        /* \"#utility.yul\":30148:30151   */\n      dup3\n        /* \"#utility.yul\":30141:30217   */\n      mstore\n        /* \"#utility.yul\":30040:30223   */\n      pop\n      pop\n      jump\t// out\n        /* \"#utility.yul\":30229:30613   */\n    tag_149:\n        /* \"#utility.yul\":30376:30380   */\n      0x00\n        /* \"#utility.yul\":30414:30416   */\n      0x40\n        /* \"#utility.yul\":30403:30412   */\n      dup3\n        /* \"#utility.yul\":30399:30417   */\n      add\n        /* \"#utility.yul\":30391:30417   */\n      swap1\n      pop\n        /* \"#utility.yul\":30427:30498   */\n      tag_549\n        /* \"#utility.yul\":30495:30496   */\n      0x00\n        /* \"#utility.yul\":30484:30493   */\n      dup4\n        /* \"#utility.yul\":30480:30497   */\n      add\n        /* \"#utility.yul\":30471:30477   */\n      dup6\n        /* \"#utility.yul\":30427:30498   */\n      tag_228\n      jump\t// in\n    tag_549:\n        /* \"#utility.yul\":30508:30606   */\n      tag_550\n        /* \"#utility.yul\":30602:30604   */\n      0x20\n        /* \"#utility.yul\":30591:30600   */\n      dup4\n        /* \"#utility.yul\":30587:30605   */\n      add\n        /* \"#utility.yul\":30578:30584   */\n      dup5\n        /* \"#utility.yul\":30508:30606   */\n      tag_255\n      jump\t// in\n    tag_550:\n        /* \"#utility.yul\":30229:30613   */\n      swap4\n      swap3\n      pop\n      pop\n      pop\n      jump\t// out\n        /* \"#utility.yul\":30619:30845   */\n    tag_256:\n        /* \"#utility.yul\":30759:30793   */\n      0x4f6e6c792063726561746f72206f7220636f756e74657270617274792063616e\n        /* \"#utility.yul\":30755:30756   */\n      0x00\n        /* \"#utility.yul\":30747:30753   */\n      dup3\n        /* \"#utility.yul\":30743:30757   */\n      add\n        /* \"#utility.yul\":30736:30794   */\n      mstore\n        /* \"#utility.yul\":30828:30837   */\n      0x206d6f6469667900000000000000000000000000000000000000000000000000\n        /* \"#utility.yul\":30823:30825   */\n      0x20\n        /* \"#utility.yul\":30815:30821   */\n      dup3\n        /* \"#utility.yul\":30811:30826   */\n      add\n        /* \"#utility.yul\":30804:30838   */\n      mstore\n        /* \"#utility.yul\":30619:30845   */\n      pop\n      jump\t// out\n        /* \"#utility.yul\":30851:31217   */\n    tag_257:\n        /* \"#utility.yul\":30993:30996   */\n      0x00\n        /* \"#utility.yul\":31014:31081   */\n      tag_553\n        /* \"#utility.yul\":31078:31080   */\n      0x27\n        /* \"#utility.yul\":31073:31076   */\n      dup4\n        /* \"#utility.yul\":31014:31081   */\n      tag_232\n      jump\t// in\n    tag_553:\n        /* \"#utility.yul\":31007:31081   */\n      swap2\n      pop\n        /* \"#utility.yul\":31090:31183   */\n      tag_554\n        /* \"#utility.yul\":31179:31182   */\n      dup3\n        /* \"#utility.yul\":31090:31183   */\n      tag_256\n      jump\t// in\n    tag_554:\n        /* \"#utility.yul\":31208:31210   */\n      0x40\n        /* \"#utility.yul\":31203:31206   */\n      dup3\n        /* \"#utility.yul\":31199:31211   */\n      add\n        /* \"#utility.yul\":31192:31211   */\n      swap1\n      pop\n        /* \"#utility.yul\":30851:31217   */\n      swap2\n      swap1\n      pop\n      jump\t// out\n        /* \"#utility.yul\":31223:31642   */\n    tag_156:\n        /* \"#utility.yul\":31389:31393   */\n      0x00\n        /* \"#utility.yul\":31427:31429   */\n      0x20\n        /* \"#utility.yul\":31416:31425   */\n      dup3\n        /* \"#utility.yul\":31412:31430   */\n      add\n        /* \"#utility.yul\":31404:31430   */\n      swap1\n      pop\n        /* \"#utility.yul\":31476:31485   */\n      dup2\n        /* \"#utility.yul\":31470:31474   */\n      dup2\n        /* \"#utility.yul\":31466:31486   */\n      sub\n        /* \"#utility.yul\":31462:31463   */\n      0x00\n        /* \"#utility.yul\":31451:31460   */\n      dup4\n        /* \"#utility.yul\":31447:31464   */\n      add\n        /* \"#utility.yul\":31440:31487   */\n      mstore\n        /* \"#utility.yul\":31504:31635   */\n      tag_556\n        /* \"#utility.yul\":31630:31634   */\n      dup2\n        /* \"#utility.yul\":31504:31635   */\n      tag_257\n      jump\t// in\n    tag_556:\n        /* \"#utility.yul\":31496:31635   */\n      swap1\n      pop\n        /* \"#utility.yul\":31223:31642   */\n      swap2\n      swap1\n      pop\n      jump\t// out\n        /* \"#utility.yul\":31648:31824   */\n    tag_258:\n        /* \"#utility.yul\":31788:31816   */\n      0x4d6f64696669636174696f6e206c696d69742072656163686564000000000000\n        /* \"#utility.yul\":31784:31785   */\n      0x00\n        /* \"#utility.yul\":31776:31782   */\n      dup3\n        /* \"#utility.yul\":31772:31786   */\n      add\n        /* \"#utility.yul\":31765:31817   */\n      mstore\n        /* \"#utility.yul\":31648:31824   */\n      pop\n      jump\t// out\n        /* \"#utility.yul\":31830:32196   */\n    tag_259:\n        /* \"#utility.yul\":31972:31975   */\n      0x00\n        /* \"#utility.yul\":31993:32060   */\n      tag_559\n        /* \"#utility.yul\":32057:32059   */\n      0x1a\n        /* \"#utility.yul\":32052:32055   */\n      dup4\n        /* \"#utility.yul\":31993:32060   */\n      tag_232\n      jump\t// in\n    tag_559:\n        /* \"#utility.yul\":31986:32060   */\n      swap2\n      pop\n        /* \"#utility.yul\":32069:32162   */\n      tag_560\n        /* \"#utility.yul\":32158:32161   */\n      dup3\n        /* \"#utility.yul\":32069:32162   */\n      tag_258\n      jump\t// in\n    tag_560:\n        /* \"#utility.yul\":32187:32189   */\n      0x20\n        /* \"#utility.yul\":32182:32185   */\n      dup3\n        /* \"#utility.yul\":32178:32190   */\n      add\n        /* \"#utility.yul\":32171:32190   */\n      swap1\n      pop\n        /* \"#utility.yul\":31830:32196   */\n      swap2\n      swap1\n      pop\n      jump\t// out\n        /* \"#utility.yul\":32202:32621   */\n    tag_159:\n        /* \"#utility.yul\":32368:32372   */\n      0x00\n        /* \"#utility.yul\":32406:32408   */\n      0x20\n        /* \"#utility.yul\":32395:32404   */\n      dup3\n        /* \"#utility.yul\":32391:32409   */\n      add\n        /* \"#utility.yul\":32383:32409   */\n      swap1\n      pop\n        /* \"#utility.yul\":32455:32464   */\n      dup2\n        /* \"#utility.yul\":32449:32453   */\n      dup2\n        /* \"#utility.yul\":32445:32465   */\n      sub\n        /* \"#utility.yul\":32441:32442   */\n      0x00\n        /* \"#utility.yul\":32430:32439   */\n      dup4\n        /* \"#utility.yul\":32426:32443   */\n      add\n        /* \"#utility.yul\":32419:32466   */\n      mstore\n        /* \"#utility.yul\":32483:32614   */\n      tag_562\n        /* \"#utility.yul\":32609:32613   */\n      dup2\n        /* \"#utility.yul\":32483:32614   */\n      tag_259\n      jump\t// in\n    tag_562:\n        /* \"#utility.yul\":32475:32614   */\n      swap1\n      pop\n        /* \"#utility.yul\":32202:32621   */\n      swap2\n      swap1\n      pop\n      jump\t// out\n\n    auxdata: 0xa2646970667358221220c38905a316c8dc70a65245c900c242cf5d9599cfe99377e27a4c8384770515ce64736f6c634300081a0033\n}\n",
				"bytecode": {
					"linkReferences": {},
					"object": "608060405234801561000f575f80fd5b506040516124ba3803806124ba83398181016040528101906100319190610116565b8160035f6101000a81548173ffffffffffffffffffffffffffffffffffffffff021916908373ffffffffffffffffffffffffffffffffffffffff1602179055508060045f6101000a81548173ffffffffffffffffffffffffffffffffffffffff021916908373ffffffffffffffffffffffffffffffffffffffff1602179055505050610154565b5f80fd5b5f73ffffffffffffffffffffffffffffffffffffffff82169050919050565b5f6100e5826100bc565b9050919050565b6100f5816100db565b81146100ff575f80fd5b50565b5f81519050610110816100ec565b92915050565b5f806040838503121561012c5761012b6100b8565b5b5f61013985828601610102565b925050602061014a85828601610102565b9150509250929050565b612359806101615f395ff3fe608060405234801561000f575f80fd5b50600436106100a7575f3560e01c8063aa3344041161006f578063aa33440414610164578063b7f5e4f614610194578063b9e2a5e3146101b0578063bd14de96146101cc578063cb7273a8146101ff578063fba833f41461021d576100a7565b806314f79af7146100ab57806344df770a146100c957806359d71914146100e5578063633772ac1461011657806397465fa814610134575b5f80fd5b6100b3610239565b6040516100c091906113cd565b60405180910390f35b6100e360048036038101906100de919061168b565b61023f565b005b6100ff60048036038101906100fa9190611743565b6104eb565b60405161010d92919061176e565b60405180910390f35b61011e61050b565b60405161012b91906117f0565b60405180910390f35b61014e60048036038101906101499190611809565b610530565b60405161015b9190611a63565b60405180910390f35b61017e60048036038101906101799190611743565b610793565b60405161018b9190611ab0565b60405180910390f35b6101ae60048036038101906101a99190611809565b6107fd565b005b6101ca60048036038101906101c59190611ac9565b6108b8565b005b6101e660048036038101906101e19190611809565b610efa565b6040516101f69493929190611b25565b60405180910390f35b610207610f6f565b6040516102149190611b88565b60405180910390f35b61023760048036038101906102329190611ba1565b610f94565b005b60025481565b600584511115610284576040517f08c379a000000000000000000000000000000000000000000000000000000000815260040161027b90611cb3565b60405180910390fd5b6005835111156102c9576040517f08c379a00000000000000000000000000000000000000000000000000000000081526004016102c090611d1b565b60405180910390fd5b815183511461030d576040517f08c379a000000000000000000000000000000000000000000000000000000000815260040161030490611da9565b60405180910390fd5b5f6040518060e001604052803373ffffffffffffffffffffffffffffffffffffffff1681526020018373ffffffffffffffffffffffffffffffffffffffff1681526020018681526020018581526020018481526020015f8152602001600115158152509050805f8060025481526020019081526020015f205f820151815f015f6101000a81548173ffffffffffffffffffffffffffffffffffffffff021916908373ffffffffffffffffffffffffffffffffffffffff1602179055506020820151816001015f6101000a81548173ffffffffffffffffffffffffffffffffffffffff021916908373ffffffffffffffffffffffffffffffffffffffff160217905550604082015181600201908051906020019061042b929190611249565b506060820151816003019080519060200190610448929190611249565b5060808201518160040190805190602001906104659291906112d0565b5060a0820151816005015560c0820151816006015f6101000a81548160ff0219169083151502179055509050507f9d0109af3593c414edfa74aa36ce36b7b0c4e261998d858618c7a982b423939a600254336040516104c5929190611dc7565b60405180910390a160025f8154809291906104df90611e1b565b91905055505050505050565b6001602052805f5260405f205f91509050805f0154908060010154905082565b60035f9054906101000a900473ffffffffffffffffffffffffffffffffffffffff1681565b61053861131b565b5f808381526020019081526020015f206040518060e00160405290815f82015f9054906101000a900473ffffffffffffffffffffffffffffffffffffffff1673ffffffffffffffffffffffffffffffffffffffff1673ffffffffffffffffffffffffffffffffffffffff168152602001600182015f9054906101000a900473ffffffffffffffffffffffffffffffffffffffff1673ffffffffffffffffffffffffffffffffffffffff1673ffffffffffffffffffffffffffffffffffffffff1681526020016002820180548060200260200160405190810160405280929190818152602001828054801561067e57602002820191905f5260205f20905b815f9054906101000a900473ffffffffffffffffffffffffffffffffffffffff1673ffffffffffffffffffffffffffffffffffffffff1681526020019060010190808311610635575b505050505081526020016003820180548060200260200160405190810160405280929190818152602001828054801561070957602002820191905f5260205f20905b815f9054906101000a900473ffffffffffffffffffffffffffffffffffffffff1673ffffffffffffffffffffffffffffffffffffffff16815260200190600101908083116106c0575b505050505081526020016004820180548060200260200160405190810160405280929190818152602001828054801561075f57602002820191905f5260205f20905b81548152602001906001019080831161074b575b5050505050815260200160058201548152602001600682015f9054906101000a900460ff1615151515815250509050919050565b61079b611382565b60015f8373ffffffffffffffffffffffffffffffffffffffff1673ffffffffffffffffffffffffffffffffffffffff1681526020019081526020015f206040518060400160405290815f82015481526020016001820154815250509050919050565b5f805f8381526020019081526020015f209050806006015f9054906101000a900460ff16610860576040517f08c379a000000000000000000000000000000000000000000000000000000000815260040161085790611eac565b60405180910390fd5b5f816006015f6101000a81548160ff0219169083151502179055507f7afd8b4605290f0a5d60377a975d9372f863e39456013aed50642b4c6343b47382336040516108ac929190611dc7565b60405180910390a15050565b5f805f8481526020019081526020015f209050806006015f9054906101000a900460ff1661091b576040517f08c379a000000000000000000000000000000000000000000000000000000000815260040161091290611eac565b60405180910390fd5b5f60035f9054906101000a900473ffffffffffffffffffffffffffffffffffffffff1673ffffffffffffffffffffffffffffffffffffffff16639b55e638846040518263ffffffff1660e01b815260040161097691906113cd565b5f60405180830381865afa158015610990573d5f803e3d5ffd5b505050506040513d5f823e3d601f19601f820116820180604052508101906109b8919061205e565b905083816020015114610a00576040517f08c379a00000000000000000000000000000000000000000000000000000000081526004016109f7906120ef565b60405180910390fd5b5f826006015f6101000a81548160ff0219169083151502179055505f5b8260020180549050811015610b0a575f836002018281548110610a4357610a4261210d565b5b905f5260205f20015f9054906101000a900473ffffffffffffffffffffffffffffffffffffffff1690508073ffffffffffffffffffffffffffffffffffffffff166342842e0e855f015f9054906101000a900473ffffffffffffffffffffffffffffffffffffffff16855f0151856040518463ffffffff1660e01b8152600401610acf9392919061213a565b5f604051808303815f87803b158015610ae6575f80fd5b505af1158015610af8573d5f803e3d5ffd5b50505050508080600101915050610a1d565b505f5b8260030180549050811015610c31575f836003018281548110610b3357610b3261210d565b5b905f5260205f20015f9054906101000a900473ffffffffffffffffffffffffffffffffffffffff1690505f846004018381548110610b7457610b7361210d565b5b905f5260205f20015490508173ffffffffffffffffffffffffffffffffffffffff166323b872dd855f0151875f015f9054906101000a900473ffffffffffffffffffffffffffffffffffffffff16846040518463ffffffff1660e01b8152600401610be19392919061213a565b6020604051808303815f875af1158015610bfd573d5f803e3d5ffd5b505050506040513d601f19601f82011682018060405250810190610c21919061216f565b5050508080600101915050610b0d565b505f5b8260030180549050811015610e13575f836004018281548110610c5a57610c5961210d565b5b905f5260205f20015490508060015f865f015f9054906101000a900473ffffffffffffffffffffffffffffffffffffffff1673ffffffffffffffffffffffffffffffffffffffff1673ffffffffffffffffffffffffffffffffffffffff1681526020019081526020015f205f015f828254610cd5919061219a565b925050819055506001805f865f015f9054906101000a900473ffffffffffffffffffffffffffffffffffffffff1673ffffffffffffffffffffffffffffffffffffffff1673ffffffffffffffffffffffffffffffffffffffff1681526020019081526020015f206001015f828254610d4d919061219a565b925050819055508060015f855f015173ffffffffffffffffffffffffffffffffffffffff1673ffffffffffffffffffffffffffffffffffffffff1681526020019081526020015f205f015f828254610da5919061219a565b925050819055506001805f855f015173ffffffffffffffffffffffffffffffffffffffff1673ffffffffffffffffffffffffffffffffffffffff1681526020019081526020015f206001015f828254610dfe919061219a565b92505081905550508080600101915050610c34565b507fd9b0ce8f98a79881ceac32107fbd8ea4033cbd5b62f2f41b562867d1c35e5b17825f015f9054906101000a900473ffffffffffffffffffffffffffffffffffffffff16670de0b6b3a7640000604051610e6f929190612206565b60405180910390a17fd9b0ce8f98a79881ceac32107fbd8ea4033cbd5b62f2f41b562867d1c35e5b17815f0151670de0b6b3a7640000604051610eb3929190612206565b60405180910390a17ff224101ad9200623928d9e682ba2635e7cc131c0927bce7b9c0ae8a8cb2187938433604051610eec929190611dc7565b60405180910390a150505050565b5f602052805f5260405f205f91509050805f015f9054906101000a900473ffffffffffffffffffffffffffffffffffffffff1690806001015f9054906101000a900473ffffffffffffffffffffffffffffffffffffffff1690806005015490806006015f9054906101000a900460ff16905084565b60045f9054906101000a900473ffffffffffffffffffffffffffffffffffffffff1681565b5f805f8681526020019081526020015f209050805f015f9054906101000a900473ffffffffffffffffffffffffffffffffffffffff1673ffffffffffffffffffffffffffffffffffffffff163373ffffffffffffffffffffffffffffffffffffffff1614806110515750806001015f9054906101000a900473ffffffffffffffffffffffffffffffffffffffff1673ffffffffffffffffffffffffffffffffffffffff163373ffffffffffffffffffffffffffffffffffffffff16145b611090576040517f08c379a00000000000000000000000000000000000000000000000000000000081526004016110879061229d565b60405180910390fd5b60038160050154106110d7576040517f08c379a00000000000000000000000000000000000000000000000000000000081526004016110ce90612305565b60405180910390fd5b60058451111561111c576040517f08c379a000000000000000000000000000000000000000000000000000000000815260040161111390611cb3565b60405180910390fd5b600583511115611161576040517f08c379a000000000000000000000000000000000000000000000000000000000815260040161115890611d1b565b60405180910390fd5b81518351146111a5576040517f08c379a000000000000000000000000000000000000000000000000000000000815260040161119c90611da9565b60405180910390fd5b838160020190805190602001906111bd929190611249565b50828160030190805190602001906111d6929190611249565b50818160040190805190602001906111ef9291906112d0565b50806005015f81548092919061120490611e1b565b91905055507f4c361a31ca057741d142cc29a91921ca2650cf4cde46ce70dacaade3fbc06cba853360405161123a929190611dc7565b60405180910390a15050505050565b828054828255905f5260205f209081019282156112bf579160200282015b828111156112be578251825f6101000a81548173ffffffffffffffffffffffffffffffffffffffff021916908373ffffffffffffffffffffffffffffffffffffffff16021790555091602001919060010190611267565b5b5090506112cc919061139a565b5090565b828054828255905f5260205f2090810192821561130a579160200282015b828111156113095782518255916020019190600101906112ee565b5b509050611317919061139a565b5090565b6040518060e001604052805f73ffffffffffffffffffffffffffffffffffffffff1681526020015f73ffffffffffffffffffffffffffffffffffffffff1681526020016060815260200160608152602001606081526020015f81526020015f151581525090565b60405180604001604052805f81526020015f81525090565b5b808211156113b1575f815f90555060010161139b565b5090565b5f819050919050565b6113c7816113b5565b82525050565b5f6020820190506113e05f8301846113be565b92915050565b5f604051905090565b5f80fd5b5f80fd5b5f80fd5b5f601f19601f8301169050919050565b7f4e487b71000000000000000000000000000000000000000000000000000000005f52604160045260245ffd5b611441826113fb565b810181811067ffffffffffffffff821117156114605761145f61140b565b5b80604052505050565b5f6114726113e6565b905061147e8282611438565b919050565b5f67ffffffffffffffff82111561149d5761149c61140b565b5b602082029050602081019050919050565b5f80fd5b5f73ffffffffffffffffffffffffffffffffffffffff82169050919050565b5f6114db826114b2565b9050919050565b6114eb816114d1565b81146114f5575f80fd5b50565b5f81359050611506816114e2565b92915050565b5f61151e61151984611483565b611469565b90508083825260208201905060208402830185811115611541576115406114ae565b5b835b8181101561156a578061155688826114f8565b845260208401935050602081019050611543565b5050509392505050565b5f82601f830112611588576115876113f7565b5b813561159884826020860161150c565b91505092915050565b5f67ffffffffffffffff8211156115bb576115ba61140b565b5b602082029050602081019050919050565b6115d5816113b5565b81146115df575f80fd5b50565b5f813590506115f0816115cc565b92915050565b5f611608611603846115a1565b611469565b9050808382526020820190506020840283018581111561162b5761162a6114ae565b5b835b81811015611654578061164088826115e2565b84526020840193505060208101905061162d565b5050509392505050565b5f82601f830112611672576116716113f7565b5b81356116828482602086016115f6565b91505092915050565b5f805f80608085870312156116a3576116a26113ef565b5b5f85013567ffffffffffffffff8111156116c0576116bf6113f3565b5b6116cc87828801611574565b945050602085013567ffffffffffffffff8111156116ed576116ec6113f3565b5b6116f987828801611574565b935050604085013567ffffffffffffffff81111561171a576117196113f3565b5b6117268782880161165e565b9250506060611737878288016114f8565b91505092959194509250565b5f60208284031215611758576117576113ef565b5b5f611765848285016114f8565b91505092915050565b5f6040820190506117815f8301856113be565b61178e60208301846113be565b9392505050565b5f819050919050565b5f6117b86117b36117ae846114b2565b611795565b6114b2565b9050919050565b5f6117c98261179e565b9050919050565b5f6117da826117bf565b9050919050565b6117ea816117d0565b82525050565b5f6020820190506118035f8301846117e1565b92915050565b5f6020828403121561181e5761181d6113ef565b5b5f61182b848285016115e2565b91505092915050565b61183d816114d1565b82525050565b5f81519050919050565b5f82825260208201905092915050565b5f819050602082019050919050565b5f6118778383611834565b60208301905092915050565b5f602082019050919050565b5f61189982611843565b6118a3818561184d565b93506118ae8361185d565b805f5b838110156118de5781516118c5888261186c565b97506118d083611883565b9250506001810190506118b1565b5085935050505092915050565b5f81519050919050565b5f82825260208201905092915050565b5f819050602082019050919050565b61191d816113b5565b82525050565b5f61192e8383611914565b60208301905092915050565b5f602082019050919050565b5f611950826118eb565b61195a81856118f5565b935061196583611905565b805f5b8381101561199557815161197c8882611923565b97506119878361193a565b925050600181019050611968565b5085935050505092915050565b5f8115159050919050565b6119b6816119a2565b82525050565b5f60e083015f8301516119d15f860182611834565b5060208301516119e46020860182611834565b50604083015184820360408601526119fc828261188f565b91505060608301518482036060860152611a16828261188f565b91505060808301518482036080860152611a308282611946565b91505060a0830151611a4560a0860182611914565b5060c0830151611a5860c08601826119ad565b508091505092915050565b5f6020820190508181035f830152611a7b81846119bc565b905092915050565b604082015f820151611a975f850182611914565b506020820151611aaa6020850182611914565b50505050565b5f604082019050611ac35f830184611a83565b92915050565b5f8060408385031215611adf57611ade6113ef565b5b5f611aec858286016115e2565b9250506020611afd858286016115e2565b9150509250929050565b611b10816114d1565b82525050565b611b1f816119a2565b82525050565b5f608082019050611b385f830187611b07565b611b456020830186611b07565b611b5260408301856113be565b611b5f6060830184611b16565b95945050505050565b5f611b72826117bf565b9050919050565b611b8281611b68565b82525050565b5f602082019050611b9b5f830184611b79565b92915050565b5f805f8060808587031215611bb957611bb86113ef565b5b5f611bc6878288016115e2565b945050602085013567ffffffffffffffff811115611be757611be66113f3565b5b611bf387828801611574565b935050604085013567ffffffffffffffff811115611c1457611c136113f3565b5b611c2087828801611574565b925050606085013567ffffffffffffffff811115611c4157611c406113f3565b5b611c4d8782880161165e565b91505092959194509250565b5f82825260208201905092915050565b7f4d6178696d756d2035204e46547320616c6c6f776564000000000000000000005f82015250565b5f611c9d601683611c59565b9150611ca882611c69565b602082019050919050565b5f6020820190508181035f830152611cca81611c91565b9050919050565b7f4d6178696d756d203520746f6b656e7320616c6c6f77656400000000000000005f82015250565b5f611d05601883611c59565b9150611d1082611cd1565b602082019050919050565b5f6020820190508181035f830152611d3281611cf9565b9050919050565b7f546f6b656e7320616e6420746f6b656e416d6f756e7473206c656e677468206d5f8201527f69736d6174636800000000000000000000000000000000000000000000000000602082015250565b5f611d93602783611c59565b9150611d9e82611d39565b604082019050919050565b5f6020820190508181035f830152611dc081611d87565b9050919050565b5f604082019050611dda5f8301856113be565b611de76020830184611b07565b9392505050565b7f4e487b71000000000000000000000000000000000000000000000000000000005f52601160045260245ffd5b5f611e25826113b5565b91507fffffffffffffffffffffffffffffffffffffffffffffffffffffffffffffffff8203611e5757611e56611dee565b5b600182019050919050565b7f41677265656d656e74206973206e6f74206163746976650000000000000000005f82015250565b5f611e96601783611c59565b9150611ea182611e62565b602082019050919050565b5f6020820190508181035f830152611ec381611e8a565b9050919050565b5f80fd5b5f80fd5b5f81519050611ee0816114e2565b92915050565b5f81519050611ef4816115cc565b92915050565b5f611f0c611f0784611483565b611469565b90508083825260208201905060208402830185811115611f2f57611f2e6114ae565b5b835b81811015611f585780611f448882611ed2565b845260208401935050602081019050611f31565b5050509392505050565b5f82601f830112611f7657611f756113f7565b5b8151611f86848260208601611efa565b91505092915050565b611f98816119a2565b8114611fa2575f80fd5b50565b5f81519050611fb381611f8f565b92915050565b5f60a08284031215611fce57611fcd611eca565b5b611fd860a0611469565b90505f611fe784828501611ed2565b5f830152506020611ffa84828501611ee6565b602083015250604082015167ffffffffffffffff81111561201e5761201d611ece565b5b61202a84828501611f62565b604083015250606061203e84828501611ee6565b606083015250608061205284828501611fa5565b60808301525092915050565b5f60208284031215612073576120726113ef565b5b5f82015167ffffffffffffffff8111156120905761208f6113f3565b5b61209c84828501611fb9565b91505092915050565b7f496e76616c6964206f6666657220666f7220746869732061677265656d656e745f82015250565b5f6120d9602083611c59565b91506120e4826120a5565b602082019050919050565b5f6020820190508181035f830152612106816120cd565b9050919050565b7f4e487b71000000000000000000000000000000000000000000000000000000005f52603260045260245ffd5b5f60608201905061214d5f830186611b07565b61215a6020830185611b07565b61216760408301846113be565b949350505050565b5f60208284031215612184576121836113ef565b5b5f61219184828501611fa5565b91505092915050565b5f6121a4826113b5565b91506121af836113b5565b92508282019050808211156121c7576121c6611dee565b5b92915050565b5f819050919050565b5f6121f06121eb6121e6846121cd565b611795565b6113b5565b9050919050565b612200816121d6565b82525050565b5f6040820190506122195f830185611b07565b61222660208301846121f7565b9392505050565b7f4f6e6c792063726561746f72206f7220636f756e74657270617274792063616e5f8201527f206d6f6469667900000000000000000000000000000000000000000000000000602082015250565b5f612287602783611c59565b91506122928261222d565b604082019050919050565b5f6020820190508181035f8301526122b48161227b565b9050919050565b7f4d6f64696669636174696f6e206c696d697420726561636865640000000000005f82015250565b5f6122ef601a83611c59565b91506122fa826122bb565b602082019050919050565b5f6020820190508181035f83015261231c816122e3565b905091905056fea2646970667358221220c38905a316c8dc70a65245c900c242cf5d9599cfe99377e27a4c8384770515ce64736f6c634300081a0033",
					"opcodes": "PUSH1 0x80 PUSH1 0x40 MSTORE CALLVALUE DUP1 ISZERO PUSH2 0xF JUMPI PUSH0 DUP1 REVERT JUMPDEST POP PUSH1 0x40 MLOAD PUSH2 0x24BA CODESIZE SUB DUP1 PUSH2 0x24BA DUP4 CODECOPY DUP2 DUP2 ADD PUSH1 0x40 MSTORE DUP2 ADD SWAP1 PUSH2 0x31 SWAP2 SWAP1 PUSH2 0x116 JUMP JUMPDEST DUP2 PUSH1 0x3 PUSH0 PUSH2 0x100 EXP DUP2 SLOAD DUP2 PUSH20 0xFFFFFFFFFFFFFFFFFFFFFFFFFFFFFFFFFFFFFFFF MUL NOT AND SWAP1 DUP4 PUSH20 0xFFFFFFFFFFFFFFFFFFFFFFFFFFFFFFFFFFFFFFFF AND MUL OR SWAP1 SSTORE POP DUP1 PUSH1 0x4 PUSH0 PUSH2 0x100 EXP DUP2 SLOAD DUP2 PUSH20 0xFFFFFFFFFFFFFFFFFFFFFFFFFFFFFFFFFFFFFFFF MUL NOT AND SWAP1 DUP4 PUSH20 0xFFFFFFFFFFFFFFFFFFFFFFFFFFFFFFFFFFFFFFFF AND MUL OR SWAP1 SSTORE POP POP POP PUSH2 0x154 JUMP JUMPDEST PUSH0 DUP1 REVERT JUMPDEST PUSH0 PUSH20 0xFFFFFFFFFFFFFFFFFFFFFFFFFFFFFFFFFFFFFFFF DUP3 AND SWAP1 POP SWAP2 SWAP1 POP JUMP JUMPDEST PUSH0 PUSH2 0xE5 DUP3 PUSH2 0xBC JUMP JUMPDEST SWAP1 POP SWAP2 SWAP1 POP JUMP JUMPDEST PUSH2 0xF5 DUP2 PUSH2 0xDB JUMP JUMPDEST DUP2 EQ PUSH2 0xFF JUMPI PUSH0 DUP1 REVERT JUMPDEST POP JUMP JUMPDEST PUSH0 DUP2 MLOAD SWAP1 POP PUSH2 0x110 DUP2 PUSH2 0xEC JUMP JUMPDEST SWAP3 SWAP2 POP POP JUMP JUMPDEST PUSH0 DUP1 PUSH1 0x40 DUP4 DUP6 SUB SLT ISZERO PUSH2 0x12C JUMPI PUSH2 0x12B PUSH2 0xB8 JUMP JUMPDEST JUMPDEST PUSH0 PUSH2 0x139 DUP6 DUP3 DUP7 ADD PUSH2 0x102 JUMP JUMPDEST SWAP3 POP POP PUSH1 0x20 PUSH2 0x14A DUP6 DUP3 DUP7 ADD PUSH2 0x102 JUMP JUMPDEST SWAP2 POP POP SWAP3 POP SWAP3 SWAP1 POP JUMP JUMPDEST PUSH2 0x2359 DUP1 PUSH2 0x161 PUSH0 CODECOPY PUSH0 RETURN INVALID PUSH1 0x80 PUSH1 0x40 MSTORE CALLVALUE DUP1 ISZERO PUSH2 0xF JUMPI PUSH0 DUP1 REVERT JUMPDEST POP PUSH1 0x4 CALLDATASIZE LT PUSH2 0xA7 JUMPI PUSH0 CALLDATALOAD PUSH1 0xE0 SHR DUP1 PUSH4 0xAA334404 GT PUSH2 0x6F JUMPI DUP1 PUSH4 0xAA334404 EQ PUSH2 0x164 JUMPI DUP1 PUSH4 0xB7F5E4F6 EQ PUSH2 0x194 JUMPI DUP1 PUSH4 0xB9E2A5E3 EQ PUSH2 0x1B0 JUMPI DUP1 PUSH4 0xBD14DE96 EQ PUSH2 0x1CC JUMPI DUP1 PUSH4 0xCB7273A8 EQ PUSH2 0x1FF JUMPI DUP1 PUSH4 0xFBA833F4 EQ PUSH2 0x21D JUMPI PUSH2 0xA7 JUMP JUMPDEST DUP1 PUSH4 0x14F79AF7 EQ PUSH2 0xAB JUMPI DUP1 PUSH4 0x44DF770A EQ PUSH2 0xC9 JUMPI DUP1 PUSH4 0x59D71914 EQ PUSH2 0xE5 JUMPI DUP1 PUSH4 0x633772AC EQ PUSH2 0x116 JUMPI DUP1 PUSH4 0x97465FA8 EQ PUSH2 0x134 JUMPI JUMPDEST PUSH0 DUP1 REVERT JUMPDEST PUSH2 0xB3 PUSH2 0x239 JUMP JUMPDEST PUSH1 0x40 MLOAD PUSH2 0xC0 SWAP2 SWAP1 PUSH2 0x13CD JUMP JUMPDEST PUSH1 0x40 MLOAD DUP1 SWAP2 SUB SWAP1 RETURN JUMPDEST PUSH2 0xE3 PUSH1 0x4 DUP1 CALLDATASIZE SUB DUP2 ADD SWAP1 PUSH2 0xDE SWAP2 SWAP1 PUSH2 0x168B JUMP JUMPDEST PUSH2 0x23F JUMP JUMPDEST STOP JUMPDEST PUSH2 0xFF PUSH1 0x4 DUP1 CALLDATASIZE SUB DUP2 ADD SWAP1 PUSH2 0xFA SWAP2 SWAP1 PUSH2 0x1743 JUMP JUMPDEST PUSH2 0x4EB JUMP JUMPDEST PUSH1 0x40 MLOAD PUSH2 0x10D SWAP3 SWAP2 SWAP1 PUSH2 0x176E JUMP JUMPDEST PUSH1 0x40 MLOAD DUP1 SWAP2 SUB SWAP1 RETURN JUMPDEST PUSH2 0x11E PUSH2 0x50B JUMP JUMPDEST PUSH1 0x40 MLOAD PUSH2 0x12B SWAP2 SWAP1 PUSH2 0x17F0 JUMP JUMPDEST PUSH1 0x40 MLOAD DUP1 SWAP2 SUB SWAP1 RETURN JUMPDEST PUSH2 0x14E PUSH1 0x4 DUP1 CALLDATASIZE SUB DUP2 ADD SWAP1 PUSH2 0x149 SWAP2 SWAP1 PUSH2 0x1809 JUMP JUMPDEST PUSH2 0x530 JUMP JUMPDEST PUSH1 0x40 MLOAD PUSH2 0x15B SWAP2 SWAP1 PUSH2 0x1A63 JUMP JUMPDEST PUSH1 0x40 MLOAD DUP1 SWAP2 SUB SWAP1 RETURN JUMPDEST PUSH2 0x17E PUSH1 0x4 DUP1 CALLDATASIZE SUB DUP2 ADD SWAP1 PUSH2 0x179 SWAP2 SWAP1 PUSH2 0x1743 JUMP JUMPDEST PUSH2 0x793 JUMP JUMPDEST PUSH1 0x40 MLOAD PUSH2 0x18B SWAP2 SWAP1 PUSH2 0x1AB0 JUMP JUMPDEST PUSH1 0x40 MLOAD DUP1 SWAP2 SUB SWAP1 RETURN JUMPDEST PUSH2 0x1AE PUSH1 0x4 DUP1 CALLDATASIZE SUB DUP2 ADD SWAP1 PUSH2 0x1A9 SWAP2 SWAP1 PUSH2 0x1809 JUMP JUMPDEST PUSH2 0x7FD JUMP JUMPDEST STOP JUMPDEST PUSH2 0x1CA PUSH1 0x4 DUP1 CALLDATASIZE SUB DUP2 ADD SWAP1 PUSH2 0x1C5 SWAP2 SWAP1 PUSH2 0x1AC9 JUMP JUMPDEST PUSH2 0x8B8 JUMP JUMPDEST STOP JUMPDEST PUSH2 0x1E6 PUSH1 0x4 DUP1 CALLDATASIZE SUB DUP2 ADD SWAP1 PUSH2 0x1E1 SWAP2 SWAP1 PUSH2 0x1809 JUMP JUMPDEST PUSH2 0xEFA JUMP JUMPDEST PUSH1 0x40 MLOAD PUSH2 0x1F6 SWAP5 SWAP4 SWAP3 SWAP2 SWAP1 PUSH2 0x1B25 JUMP JUMPDEST PUSH1 0x40 MLOAD DUP1 SWAP2 SUB SWAP1 RETURN JUMPDEST PUSH2 0x207 PUSH2 0xF6F JUMP JUMPDEST PUSH1 0x40 MLOAD PUSH2 0x214 SWAP2 SWAP1 PUSH2 0x1B88 JUMP JUMPDEST PUSH1 0x40 MLOAD DUP1 SWAP2 SUB SWAP1 RETURN JUMPDEST PUSH2 0x237 PUSH1 0x4 DUP1 CALLDATASIZE SUB DUP2 ADD SWAP1 PUSH2 0x232 SWAP2 SWAP1 PUSH2 0x1BA1 JUMP JUMPDEST PUSH2 0xF94 JUMP JUMPDEST STOP JUMPDEST PUSH1 0x2 SLOAD DUP2 JUMP JUMPDEST PUSH1 0x5 DUP5 MLOAD GT ISZERO PUSH2 0x284 JUMPI PUSH1 0x40 MLOAD PUSH32 0x8C379A000000000000000000000000000000000000000000000000000000000 DUP2 MSTORE PUSH1 0x4 ADD PUSH2 0x27B SWAP1 PUSH2 0x1CB3 JUMP JUMPDEST PUSH1 0x40 MLOAD DUP1 SWAP2 SUB SWAP1 REVERT JUMPDEST PUSH1 0x5 DUP4 MLOAD GT ISZERO PUSH2 0x2C9 JUMPI PUSH1 0x40 MLOAD PUSH32 0x8C379A000000000000000000000000000000000000000000000000000000000 DUP2 MSTORE PUSH1 0x4 ADD PUSH2 0x2C0 SWAP1 PUSH2 0x1D1B JUMP JUMPDEST PUSH1 0x40 MLOAD DUP1 SWAP2 SUB SWAP1 REVERT JUMPDEST DUP2 MLOAD DUP4 MLOAD EQ PUSH2 0x30D JUMPI PUSH1 0x40 MLOAD PUSH32 0x8C379A000000000000000000000000000000000000000000000000000000000 DUP2 MSTORE PUSH1 0x4 ADD PUSH2 0x304 SWAP1 PUSH2 0x1DA9 JUMP JUMPDEST PUSH1 0x40 MLOAD DUP1 SWAP2 SUB SWAP1 REVERT JUMPDEST PUSH0 PUSH1 0x40 MLOAD DUP1 PUSH1 0xE0 ADD PUSH1 0x40 MSTORE DUP1 CALLER PUSH20 0xFFFFFFFFFFFFFFFFFFFFFFFFFFFFFFFFFFFFFFFF AND DUP2 MSTORE PUSH1 0x20 ADD DUP4 PUSH20 0xFFFFFFFFFFFFFFFFFFFFFFFFFFFFFFFFFFFFFFFF AND DUP2 MSTORE PUSH1 0x20 ADD DUP7 DUP2 MSTORE PUSH1 0x20 ADD DUP6 DUP2 MSTORE PUSH1 0x20 ADD DUP5 DUP2 MSTORE PUSH1 0x20 ADD PUSH0 DUP2 MSTORE PUSH1 0x20 ADD PUSH1 0x1 ISZERO ISZERO DUP2 MSTORE POP SWAP1 POP DUP1 PUSH0 DUP1 PUSH1 0x2 SLOAD DUP2 MSTORE PUSH1 0x20 ADD SWAP1 DUP2 MSTORE PUSH1 0x20 ADD PUSH0 KECCAK256 PUSH0 DUP3 ADD MLOAD DUP2 PUSH0 ADD PUSH0 PUSH2 0x100 EXP DUP2 SLOAD DUP2 PUSH20 0xFFFFFFFFFFFFFFFFFFFFFFFFFFFFFFFFFFFFFFFF MUL NOT AND SWAP1 DUP4 PUSH20 0xFFFFFFFFFFFFFFFFFFFFFFFFFFFFFFFFFFFFFFFF AND MUL OR SWAP1 SSTORE POP PUSH1 0x20 DUP3 ADD MLOAD DUP2 PUSH1 0x1 ADD PUSH0 PUSH2 0x100 EXP DUP2 SLOAD DUP2 PUSH20 0xFFFFFFFFFFFFFFFFFFFFFFFFFFFFFFFFFFFFFFFF MUL NOT AND SWAP1 DUP4 PUSH20 0xFFFFFFFFFFFFFFFFFFFFFFFFFFFFFFFFFFFFFFFF AND MUL OR SWAP1 SSTORE POP PUSH1 0x40 DUP3 ADD MLOAD DUP2 PUSH1 0x2 ADD SWAP1 DUP1 MLOAD SWAP1 PUSH1 0x20 ADD SWAP1 PUSH2 0x42B SWAP3 SWAP2 SWAP1 PUSH2 0x1249 JUMP JUMPDEST POP PUSH1 0x60 DUP3 ADD MLOAD DUP2 PUSH1 0x3 ADD SWAP1 DUP1 MLOAD SWAP1 PUSH1 0x20 ADD SWAP1 PUSH2 0x448 SWAP3 SWAP2 SWAP1 PUSH2 0x1249 JUMP JUMPDEST POP PUSH1 0x80 DUP3 ADD MLOAD DUP2 PUSH1 0x4 ADD SWAP1 DUP1 MLOAD SWAP1 PUSH1 0x20 ADD SWAP1 PUSH2 0x465 SWAP3 SWAP2 SWAP1 PUSH2 0x12D0 JUMP JUMPDEST POP PUSH1 0xA0 DUP3 ADD MLOAD DUP2 PUSH1 0x5 ADD SSTORE PUSH1 0xC0 DUP3 ADD MLOAD DUP2 PUSH1 0x6 ADD PUSH0 PUSH2 0x100 EXP DUP2 SLOAD DUP2 PUSH1 0xFF MUL NOT AND SWAP1 DUP4 ISZERO ISZERO MUL OR SWAP1 SSTORE POP SWAP1 POP POP PUSH32 0x9D0109AF3593C414EDFA74AA36CE36B7B0C4E261998D858618C7A982B423939A PUSH1 0x2 SLOAD CALLER PUSH1 0x40 MLOAD PUSH2 0x4C5 SWAP3 SWAP2 SWAP1 PUSH2 0x1DC7 JUMP JUMPDEST PUSH1 0x40 MLOAD DUP1 SWAP2 SUB SWAP1 LOG1 PUSH1 0x2 PUSH0 DUP2 SLOAD DUP1 SWAP3 SWAP2 SWAP1 PUSH2 0x4DF SWAP1 PUSH2 0x1E1B JUMP JUMPDEST SWAP2 SWAP1 POP SSTORE POP POP POP POP POP POP JUMP JUMPDEST PUSH1 0x1 PUSH1 0x20 MSTORE DUP1 PUSH0 MSTORE PUSH1 0x40 PUSH0 KECCAK256 PUSH0 SWAP2 POP SWAP1 POP DUP1 PUSH0 ADD SLOAD SWAP1 DUP1 PUSH1 0x1 ADD SLOAD SWAP1 POP DUP3 JUMP JUMPDEST PUSH1 0x3 PUSH0 SWAP1 SLOAD SWAP1 PUSH2 0x100 EXP SWAP1 DIV PUSH20 0xFFFFFFFFFFFFFFFFFFFFFFFFFFFFFFFFFFFFFFFF AND DUP2 JUMP JUMPDEST PUSH2 0x538 PUSH2 0x131B JUMP JUMPDEST PUSH0 DUP1 DUP4 DUP2 MSTORE PUSH1 0x20 ADD SWAP1 DUP2 MSTORE PUSH1 0x20 ADD PUSH0 KECCAK256 PUSH1 0x40 MLOAD DUP1 PUSH1 0xE0 ADD PUSH1 0x40 MSTORE SWAP1 DUP2 PUSH0 DUP3 ADD PUSH0 SWAP1 SLOAD SWAP1 PUSH2 0x100 EXP SWAP1 DIV PUSH20 0xFFFFFFFFFFFFFFFFFFFFFFFFFFFFFFFFFFFFFFFF AND PUSH20 0xFFFFFFFFFFFFFFFFFFFFFFFFFFFFFFFFFFFFFFFF AND PUSH20 0xFFFFFFFFFFFFFFFFFFFFFFFFFFFFFFFFFFFFFFFF AND DUP2 MSTORE PUSH1 0x20 ADD PUSH1 0x1 DUP3 ADD PUSH0 SWAP1 SLOAD SWAP1 PUSH2 0x100 EXP SWAP1 DIV PUSH20 0xFFFFFFFFFFFFFFFFFFFFFFFFFFFFFFFFFFFFFFFF AND PUSH20 0xFFFFFFFFFFFFFFFFFFFFFFFFFFFFFFFFFFFFFFFF AND PUSH20 0xFFFFFFFFFFFFFFFFFFFFFFFFFFFFFFFFFFFFFFFF AND DUP2 MSTORE PUSH1 0x20 ADD PUSH1 0x2 DUP3 ADD DUP1 SLOAD DUP1 PUSH1 0x20 MUL PUSH1 0x20 ADD PUSH1 0x40 MLOAD SWAP1 DUP2 ADD PUSH1 0x40 MSTORE DUP1 SWAP3 SWAP2 SWAP1 DUP2 DUP2 MSTORE PUSH1 0x20 ADD DUP3 DUP1 SLOAD DUP1 ISZERO PUSH2 0x67E JUMPI PUSH1 0x20 MUL DUP3 ADD SWAP2 SWAP1 PUSH0 MSTORE PUSH1 0x20 PUSH0 KECCAK256 SWAP1 JUMPDEST DUP2 PUSH0 SWAP1 SLOAD SWAP1 PUSH2 0x100 EXP SWAP1 DIV PUSH20 0xFFFFFFFFFFFFFFFFFFFFFFFFFFFFFFFFFFFFFFFF AND PUSH20 0xFFFFFFFFFFFFFFFFFFFFFFFFFFFFFFFFFFFFFFFF AND DUP2 MSTORE PUSH1 0x20 ADD SWAP1 PUSH1 0x1 ADD SWAP1 DUP1 DUP4 GT PUSH2 0x635 JUMPI JUMPDEST POP POP POP POP POP DUP2 MSTORE PUSH1 0x20 ADD PUSH1 0x3 DUP3 ADD DUP1 SLOAD DUP1 PUSH1 0x20 MUL PUSH1 0x20 ADD PUSH1 0x40 MLOAD SWAP1 DUP2 ADD PUSH1 0x40 MSTORE DUP1 SWAP3 SWAP2 SWAP1 DUP2 DUP2 MSTORE PUSH1 0x20 ADD DUP3 DUP1 SLOAD DUP1 ISZERO PUSH2 0x709 JUMPI PUSH1 0x20 MUL DUP3 ADD SWAP2 SWAP1 PUSH0 MSTORE PUSH1 0x20 PUSH0 KECCAK256 SWAP1 JUMPDEST DUP2 PUSH0 SWAP1 SLOAD SWAP1 PUSH2 0x100 EXP SWAP1 DIV PUSH20 0xFFFFFFFFFFFFFFFFFFFFFFFFFFFFFFFFFFFFFFFF AND PUSH20 0xFFFFFFFFFFFFFFFFFFFFFFFFFFFFFFFFFFFFFFFF AND DUP2 MSTORE PUSH1 0x20 ADD SWAP1 PUSH1 0x1 ADD SWAP1 DUP1 DUP4 GT PUSH2 0x6C0 JUMPI JUMPDEST POP POP POP POP POP DUP2 MSTORE PUSH1 0x20 ADD PUSH1 0x4 DUP3 ADD DUP1 SLOAD DUP1 PUSH1 0x20 MUL PUSH1 0x20 ADD PUSH1 0x40 MLOAD SWAP1 DUP2 ADD PUSH1 0x40 MSTORE DUP1 SWAP3 SWAP2 SWAP1 DUP2 DUP2 MSTORE PUSH1 0x20 ADD DUP3 DUP1 SLOAD DUP1 ISZERO PUSH2 0x75F JUMPI PUSH1 0x20 MUL DUP3 ADD SWAP2 SWAP1 PUSH0 MSTORE PUSH1 0x20 PUSH0 KECCAK256 SWAP1 JUMPDEST DUP2 SLOAD DUP2 MSTORE PUSH1 0x20 ADD SWAP1 PUSH1 0x1 ADD SWAP1 DUP1 DUP4 GT PUSH2 0x74B JUMPI JUMPDEST POP POP POP POP POP DUP2 MSTORE PUSH1 0x20 ADD PUSH1 0x5 DUP3 ADD SLOAD DUP2 MSTORE PUSH1 0x20 ADD PUSH1 0x6 DUP3 ADD PUSH0 SWAP1 SLOAD SWAP1 PUSH2 0x100 EXP SWAP1 DIV PUSH1 0xFF AND ISZERO ISZERO ISZERO ISZERO DUP2 MSTORE POP POP SWAP1 POP SWAP2 SWAP1 POP JUMP JUMPDEST PUSH2 0x79B PUSH2 0x1382 JUMP JUMPDEST PUSH1 0x1 PUSH0 DUP4 PUSH20 0xFFFFFFFFFFFFFFFFFFFFFFFFFFFFFFFFFFFFFFFF AND PUSH20 0xFFFFFFFFFFFFFFFFFFFFFFFFFFFFFFFFFFFFFFFF AND DUP2 MSTORE PUSH1 0x20 ADD SWAP1 DUP2 MSTORE PUSH1 0x20 ADD PUSH0 KECCAK256 PUSH1 0x40 MLOAD DUP1 PUSH1 0x40 ADD PUSH1 0x40 MSTORE SWAP1 DUP2 PUSH0 DUP3 ADD SLOAD DUP2 MSTORE PUSH1 0x20 ADD PUSH1 0x1 DUP3 ADD SLOAD DUP2 MSTORE POP POP SWAP1 POP SWAP2 SWAP1 POP JUMP JUMPDEST PUSH0 DUP1 PUSH0 DUP4 DUP2 MSTORE PUSH1 0x20 ADD SWAP1 DUP2 MSTORE PUSH1 0x20 ADD PUSH0 KECCAK256 SWAP1 POP DUP1 PUSH1 0x6 ADD PUSH0 SWAP1 SLOAD SWAP1 PUSH2 0x100 EXP SWAP1 DIV PUSH1 0xFF AND PUSH2 0x860 JUMPI PUSH1 0x40 MLOAD PUSH32 0x8C379A000000000000000000000000000000000000000000000000000000000 DUP2 MSTORE PUSH1 0x4 ADD PUSH2 0x857 SWAP1 PUSH2 0x1EAC JUMP JUMPDEST PUSH1 0x40 MLOAD DUP1 SWAP2 SUB SWAP1 REVERT JUMPDEST PUSH0 DUP2 PUSH1 0x6 ADD PUSH0 PUSH2 0x100 EXP DUP2 SLOAD DUP2 PUSH1 0xFF MUL NOT AND SWAP1 DUP4 ISZERO ISZERO MUL OR SWAP1 SSTORE POP PUSH32 0x7AFD8B4605290F0A5D60377A975D9372F863E39456013AED50642B4C6343B473 DUP3 CALLER PUSH1 0x40 MLOAD PUSH2 0x8AC SWAP3 SWAP2 SWAP1 PUSH2 0x1DC7 JUMP JUMPDEST PUSH1 0x40 MLOAD DUP1 SWAP2 SUB SWAP1 LOG1 POP POP JUMP JUMPDEST PUSH0 DUP1 PUSH0 DUP5 DUP2 MSTORE PUSH1 0x20 ADD SWAP1 DUP2 MSTORE PUSH1 0x20 ADD PUSH0 KECCAK256 SWAP1 POP DUP1 PUSH1 0x6 ADD PUSH0 SWAP1 SLOAD SWAP1 PUSH2 0x100 EXP SWAP1 DIV PUSH1 0xFF AND PUSH2 0x91B JUMPI PUSH1 0x40 MLOAD PUSH32 0x8C379A000000000000000000000000000000000000000000000000000000000 DUP2 MSTORE PUSH1 0x4 ADD PUSH2 0x912 SWAP1 PUSH2 0x1EAC JUMP JUMPDEST PUSH1 0x40 MLOAD DUP1 SWAP2 SUB SWAP1 REVERT JUMPDEST PUSH0 PUSH1 0x3 PUSH0 SWAP1 SLOAD SWAP1 PUSH2 0x100 EXP SWAP1 DIV PUSH20 0xFFFFFFFFFFFFFFFFFFFFFFFFFFFFFFFFFFFFFFFF AND PUSH20 0xFFFFFFFFFFFFFFFFFFFFFFFFFFFFFFFFFFFFFFFF AND PUSH4 0x9B55E638 DUP5 PUSH1 0x40 MLOAD DUP3 PUSH4 0xFFFFFFFF AND PUSH1 0xE0 SHL DUP2 MSTORE PUSH1 0x4 ADD PUSH2 0x976 SWAP2 SWAP1 PUSH2 0x13CD JUMP JUMPDEST PUSH0 PUSH1 0x40 MLOAD DUP1 DUP4 SUB DUP2 DUP7 GAS STATICCALL ISZERO DUP1 ISZERO PUSH2 0x990 JUMPI RETURNDATASIZE PUSH0 DUP1 RETURNDATACOPY RETURNDATASIZE PUSH0 REVERT JUMPDEST POP POP POP POP PUSH1 0x40 MLOAD RETURNDATASIZE PUSH0 DUP3 RETURNDATACOPY RETURNDATASIZE PUSH1 0x1F NOT PUSH1 0x1F DUP3 ADD AND DUP3 ADD DUP1 PUSH1 0x40 MSTORE POP DUP2 ADD SWAP1 PUSH2 0x9B8 SWAP2 SWAP1 PUSH2 0x205E JUMP JUMPDEST SWAP1 POP DUP4 DUP2 PUSH1 0x20 ADD MLOAD EQ PUSH2 0xA00 JUMPI PUSH1 0x40 MLOAD PUSH32 0x8C379A000000000000000000000000000000000000000000000000000000000 DUP2 MSTORE PUSH1 0x4 ADD PUSH2 0x9F7 SWAP1 PUSH2 0x20EF JUMP JUMPDEST PUSH1 0x40 MLOAD DUP1 SWAP2 SUB SWAP1 REVERT JUMPDEST PUSH0 DUP3 PUSH1 0x6 ADD PUSH0 PUSH2 0x100 EXP DUP2 SLOAD DUP2 PUSH1 0xFF MUL NOT AND SWAP1 DUP4 ISZERO ISZERO MUL OR SWAP1 SSTORE POP PUSH0 JUMPDEST DUP3 PUSH1 0x2 ADD DUP1 SLOAD SWAP1 POP DUP2 LT ISZERO PUSH2 0xB0A JUMPI PUSH0 DUP4 PUSH1 0x2 ADD DUP3 DUP2 SLOAD DUP2 LT PUSH2 0xA43 JUMPI PUSH2 0xA42 PUSH2 0x210D JUMP JUMPDEST JUMPDEST SWAP1 PUSH0 MSTORE PUSH1 0x20 PUSH0 KECCAK256 ADD PUSH0 SWAP1 SLOAD SWAP1 PUSH2 0x100 EXP SWAP1 DIV PUSH20 0xFFFFFFFFFFFFFFFFFFFFFFFFFFFFFFFFFFFFFFFF AND SWAP1 POP DUP1 PUSH20 0xFFFFFFFFFFFFFFFFFFFFFFFFFFFFFFFFFFFFFFFF AND PUSH4 0x42842E0E DUP6 PUSH0 ADD PUSH0 SWAP1 SLOAD SWAP1 PUSH2 0x100 EXP SWAP1 DIV PUSH20 0xFFFFFFFFFFFFFFFFFFFFFFFFFFFFFFFFFFFFFFFF AND DUP6 PUSH0 ADD MLOAD DUP6 PUSH1 0x40 MLOAD DUP5 PUSH4 0xFFFFFFFF AND PUSH1 0xE0 SHL DUP2 MSTORE PUSH1 0x4 ADD PUSH2 0xACF SWAP4 SWAP3 SWAP2 SWAP1 PUSH2 0x213A JUMP JUMPDEST PUSH0 PUSH1 0x40 MLOAD DUP1 DUP4 SUB DUP2 PUSH0 DUP8 DUP1 EXTCODESIZE ISZERO DUP1 ISZERO PUSH2 0xAE6 JUMPI PUSH0 DUP1 REVERT JUMPDEST POP GAS CALL ISZERO DUP1 ISZERO PUSH2 0xAF8 JUMPI RETURNDATASIZE PUSH0 DUP1 RETURNDATACOPY RETURNDATASIZE PUSH0 REVERT JUMPDEST POP POP POP POP POP DUP1 DUP1 PUSH1 0x1 ADD SWAP2 POP POP PUSH2 0xA1D JUMP JUMPDEST POP PUSH0 JUMPDEST DUP3 PUSH1 0x3 ADD DUP1 SLOAD SWAP1 POP DUP2 LT ISZERO PUSH2 0xC31 JUMPI PUSH0 DUP4 PUSH1 0x3 ADD DUP3 DUP2 SLOAD DUP2 LT PUSH2 0xB33 JUMPI PUSH2 0xB32 PUSH2 0x210D JUMP JUMPDEST JUMPDEST SWAP1 PUSH0 MSTORE PUSH1 0x20 PUSH0 KECCAK256 ADD PUSH0 SWAP1 SLOAD SWAP1 PUSH2 0x100 EXP SWAP1 DIV PUSH20 0xFFFFFFFFFFFFFFFFFFFFFFFFFFFFFFFFFFFFFFFF AND SWAP1 POP PUSH0 DUP5 PUSH1 0x4 ADD DUP4 DUP2 SLOAD DUP2 LT PUSH2 0xB74 JUMPI PUSH2 0xB73 PUSH2 0x210D JUMP JUMPDEST JUMPDEST SWAP1 PUSH0 MSTORE PUSH1 0x20 PUSH0 KECCAK256 ADD SLOAD SWAP1 POP DUP2 PUSH20 0xFFFFFFFFFFFFFFFFFFFFFFFFFFFFFFFFFFFFFFFF AND PUSH4 0x23B872DD DUP6 PUSH0 ADD MLOAD DUP8 PUSH0 ADD PUSH0 SWAP1 SLOAD SWAP1 PUSH2 0x100 EXP SWAP1 DIV PUSH20 0xFFFFFFFFFFFFFFFFFFFFFFFFFFFFFFFFFFFFFFFF AND DUP5 PUSH1 0x40 MLOAD DUP5 PUSH4 0xFFFFFFFF AND PUSH1 0xE0 SHL DUP2 MSTORE PUSH1 0x4 ADD PUSH2 0xBE1 SWAP4 SWAP3 SWAP2 SWAP1 PUSH2 0x213A JUMP JUMPDEST PUSH1 0x20 PUSH1 0x40 MLOAD DUP1 DUP4 SUB DUP2 PUSH0 DUP8 GAS CALL ISZERO DUP1 ISZERO PUSH2 0xBFD JUMPI RETURNDATASIZE PUSH0 DUP1 RETURNDATACOPY RETURNDATASIZE PUSH0 REVERT JUMPDEST POP POP POP POP PUSH1 0x40 MLOAD RETURNDATASIZE PUSH1 0x1F NOT PUSH1 0x1F DUP3 ADD AND DUP3 ADD DUP1 PUSH1 0x40 MSTORE POP DUP2 ADD SWAP1 PUSH2 0xC21 SWAP2 SWAP1 PUSH2 0x216F JUMP JUMPDEST POP POP POP DUP1 DUP1 PUSH1 0x1 ADD SWAP2 POP POP PUSH2 0xB0D JUMP JUMPDEST POP PUSH0 JUMPDEST DUP3 PUSH1 0x3 ADD DUP1 SLOAD SWAP1 POP DUP2 LT ISZERO PUSH2 0xE13 JUMPI PUSH0 DUP4 PUSH1 0x4 ADD DUP3 DUP2 SLOAD DUP2 LT PUSH2 0xC5A JUMPI PUSH2 0xC59 PUSH2 0x210D JUMP JUMPDEST JUMPDEST SWAP1 PUSH0 MSTORE PUSH1 0x20 PUSH0 KECCAK256 ADD SLOAD SWAP1 POP DUP1 PUSH1 0x1 PUSH0 DUP7 PUSH0 ADD PUSH0 SWAP1 SLOAD SWAP1 PUSH2 0x100 EXP SWAP1 DIV PUSH20 0xFFFFFFFFFFFFFFFFFFFFFFFFFFFFFFFFFFFFFFFF AND PUSH20 0xFFFFFFFFFFFFFFFFFFFFFFFFFFFFFFFFFFFFFFFF AND PUSH20 0xFFFFFFFFFFFFFFFFFFFFFFFFFFFFFFFFFFFFFFFF AND DUP2 MSTORE PUSH1 0x20 ADD SWAP1 DUP2 MSTORE PUSH1 0x20 ADD PUSH0 KECCAK256 PUSH0 ADD PUSH0 DUP3 DUP3 SLOAD PUSH2 0xCD5 SWAP2 SWAP1 PUSH2 0x219A JUMP JUMPDEST SWAP3 POP POP DUP2 SWAP1 SSTORE POP PUSH1 0x1 DUP1 PUSH0 DUP7 PUSH0 ADD PUSH0 SWAP1 SLOAD SWAP1 PUSH2 0x100 EXP SWAP1 DIV PUSH20 0xFFFFFFFFFFFFFFFFFFFFFFFFFFFFFFFFFFFFFFFF AND PUSH20 0xFFFFFFFFFFFFFFFFFFFFFFFFFFFFFFFFFFFFFFFF AND PUSH20 0xFFFFFFFFFFFFFFFFFFFFFFFFFFFFFFFFFFFFFFFF AND DUP2 MSTORE PUSH1 0x20 ADD SWAP1 DUP2 MSTORE PUSH1 0x20 ADD PUSH0 KECCAK256 PUSH1 0x1 ADD PUSH0 DUP3 DUP3 SLOAD PUSH2 0xD4D SWAP2 SWAP1 PUSH2 0x219A JUMP JUMPDEST SWAP3 POP POP DUP2 SWAP1 SSTORE POP DUP1 PUSH1 0x1 PUSH0 DUP6 PUSH0 ADD MLOAD PUSH20 0xFFFFFFFFFFFFFFFFFFFFFFFFFFFFFFFFFFFFFFFF AND PUSH20 0xFFFFFFFFFFFFFFFFFFFFFFFFFFFFFFFFFFFFFFFF AND DUP2 MSTORE PUSH1 0x20 ADD SWAP1 DUP2 MSTORE PUSH1 0x20 ADD PUSH0 KECCAK256 PUSH0 ADD PUSH0 DUP3 DUP3 SLOAD PUSH2 0xDA5 SWAP2 SWAP1 PUSH2 0x219A JUMP JUMPDEST SWAP3 POP POP DUP2 SWAP1 SSTORE POP PUSH1 0x1 DUP1 PUSH0 DUP6 PUSH0 ADD MLOAD PUSH20 0xFFFFFFFFFFFFFFFFFFFFFFFFFFFFFFFFFFFFFFFF AND PUSH20 0xFFFFFFFFFFFFFFFFFFFFFFFFFFFFFFFFFFFFFFFF AND DUP2 MSTORE PUSH1 0x20 ADD SWAP1 DUP2 MSTORE PUSH1 0x20 ADD PUSH0 KECCAK256 PUSH1 0x1 ADD PUSH0 DUP3 DUP3 SLOAD PUSH2 0xDFE SWAP2 SWAP1 PUSH2 0x219A JUMP JUMPDEST SWAP3 POP POP DUP2 SWAP1 SSTORE POP POP DUP1 DUP1 PUSH1 0x1 ADD SWAP2 POP POP PUSH2 0xC34 JUMP JUMPDEST POP PUSH32 0xD9B0CE8F98A79881CEAC32107FBD8EA4033CBD5B62F2F41B562867D1C35E5B17 DUP3 PUSH0 ADD PUSH0 SWAP1 SLOAD SWAP1 PUSH2 0x100 EXP SWAP1 DIV PUSH20 0xFFFFFFFFFFFFFFFFFFFFFFFFFFFFFFFFFFFFFFFF AND PUSH8 0xDE0B6B3A7640000 PUSH1 0x40 MLOAD PUSH2 0xE6F SWAP3 SWAP2 SWAP1 PUSH2 0x2206 JUMP JUMPDEST PUSH1 0x40 MLOAD DUP1 SWAP2 SUB SWAP1 LOG1 PUSH32 0xD9B0CE8F98A79881CEAC32107FBD8EA4033CBD5B62F2F41B562867D1C35E5B17 DUP2 PUSH0 ADD MLOAD PUSH8 0xDE0B6B3A7640000 PUSH1 0x40 MLOAD PUSH2 0xEB3 SWAP3 SWAP2 SWAP1 PUSH2 0x2206 JUMP JUMPDEST PUSH1 0x40 MLOAD DUP1 SWAP2 SUB SWAP1 LOG1 PUSH32 0xF224101AD9200623928D9E682BA2635E7CC131C0927BCE7B9C0AE8A8CB218793 DUP5 CALLER PUSH1 0x40 MLOAD PUSH2 0xEEC SWAP3 SWAP2 SWAP1 PUSH2 0x1DC7 JUMP JUMPDEST PUSH1 0x40 MLOAD DUP1 SWAP2 SUB SWAP1 LOG1 POP POP POP POP JUMP JUMPDEST PUSH0 PUSH1 0x20 MSTORE DUP1 PUSH0 MSTORE PUSH1 0x40 PUSH0 KECCAK256 PUSH0 SWAP2 POP SWAP1 POP DUP1 PUSH0 ADD PUSH0 SWAP1 SLOAD SWAP1 PUSH2 0x100 EXP SWAP1 DIV PUSH20 0xFFFFFFFFFFFFFFFFFFFFFFFFFFFFFFFFFFFFFFFF AND SWAP1 DUP1 PUSH1 0x1 ADD PUSH0 SWAP1 SLOAD SWAP1 PUSH2 0x100 EXP SWAP1 DIV PUSH20 0xFFFFFFFFFFFFFFFFFFFFFFFFFFFFFFFFFFFFFFFF AND SWAP1 DUP1 PUSH1 0x5 ADD SLOAD SWAP1 DUP1 PUSH1 0x6 ADD PUSH0 SWAP1 SLOAD SWAP1 PUSH2 0x100 EXP SWAP1 DIV PUSH1 0xFF AND SWAP1 POP DUP5 JUMP JUMPDEST PUSH1 0x4 PUSH0 SWAP1 SLOAD SWAP1 PUSH2 0x100 EXP SWAP1 DIV PUSH20 0xFFFFFFFFFFFFFFFFFFFFFFFFFFFFFFFFFFFFFFFF AND DUP2 JUMP JUMPDEST PUSH0 DUP1 PUSH0 DUP7 DUP2 MSTORE PUSH1 0x20 ADD SWAP1 DUP2 MSTORE PUSH1 0x20 ADD PUSH0 KECCAK256 SWAP1 POP DUP1 PUSH0 ADD PUSH0 SWAP1 SLOAD SWAP1 PUSH2 0x100 EXP SWAP1 DIV PUSH20 0xFFFFFFFFFFFFFFFFFFFFFFFFFFFFFFFFFFFFFFFF AND PUSH20 0xFFFFFFFFFFFFFFFFFFFFFFFFFFFFFFFFFFFFFFFF AND CALLER PUSH20 0xFFFFFFFFFFFFFFFFFFFFFFFFFFFFFFFFFFFFFFFF AND EQ DUP1 PUSH2 0x1051 JUMPI POP DUP1 PUSH1 0x1 ADD PUSH0 SWAP1 SLOAD SWAP1 PUSH2 0x100 EXP SWAP1 DIV PUSH20 0xFFFFFFFFFFFFFFFFFFFFFFFFFFFFFFFFFFFFFFFF AND PUSH20 0xFFFFFFFFFFFFFFFFFFFFFFFFFFFFFFFFFFFFFFFF AND CALLER PUSH20 0xFFFFFFFFFFFFFFFFFFFFFFFFFFFFFFFFFFFFFFFF AND EQ JUMPDEST PUSH2 0x1090 JUMPI PUSH1 0x40 MLOAD PUSH32 0x8C379A000000000000000000000000000000000000000000000000000000000 DUP2 MSTORE PUSH1 0x4 ADD PUSH2 0x1087 SWAP1 PUSH2 0x229D JUMP JUMPDEST PUSH1 0x40 MLOAD DUP1 SWAP2 SUB SWAP1 REVERT JUMPDEST PUSH1 0x3 DUP2 PUSH1 0x5 ADD SLOAD LT PUSH2 0x10D7 JUMPI PUSH1 0x40 MLOAD PUSH32 0x8C379A000000000000000000000000000000000000000000000000000000000 DUP2 MSTORE PUSH1 0x4 ADD PUSH2 0x10CE SWAP1 PUSH2 0x2305 JUMP JUMPDEST PUSH1 0x40 MLOAD DUP1 SWAP2 SUB SWAP1 REVERT JUMPDEST PUSH1 0x5 DUP5 MLOAD GT ISZERO PUSH2 0x111C JUMPI PUSH1 0x40 MLOAD PUSH32 0x8C379A000000000000000000000000000000000000000000000000000000000 DUP2 MSTORE PUSH1 0x4 ADD PUSH2 0x1113 SWAP1 PUSH2 0x1CB3 JUMP JUMPDEST PUSH1 0x40 MLOAD DUP1 SWAP2 SUB SWAP1 REVERT JUMPDEST PUSH1 0x5 DUP4 MLOAD GT ISZERO PUSH2 0x1161 JUMPI PUSH1 0x40 MLOAD PUSH32 0x8C379A000000000000000000000000000000000000000000000000000000000 DUP2 MSTORE PUSH1 0x4 ADD PUSH2 0x1158 SWAP1 PUSH2 0x1D1B JUMP JUMPDEST PUSH1 0x40 MLOAD DUP1 SWAP2 SUB SWAP1 REVERT JUMPDEST DUP2 MLOAD DUP4 MLOAD EQ PUSH2 0x11A5 JUMPI PUSH1 0x40 MLOAD PUSH32 0x8C379A000000000000000000000000000000000000000000000000000000000 DUP2 MSTORE PUSH1 0x4 ADD PUSH2 0x119C SWAP1 PUSH2 0x1DA9 JUMP JUMPDEST PUSH1 0x40 MLOAD DUP1 SWAP2 SUB SWAP1 REVERT JUMPDEST DUP4 DUP2 PUSH1 0x2 ADD SWAP1 DUP1 MLOAD SWAP1 PUSH1 0x20 ADD SWAP1 PUSH2 0x11BD SWAP3 SWAP2 SWAP1 PUSH2 0x1249 JUMP JUMPDEST POP DUP3 DUP2 PUSH1 0x3 ADD SWAP1 DUP1 MLOAD SWAP1 PUSH1 0x20 ADD SWAP1 PUSH2 0x11D6 SWAP3 SWAP2 SWAP1 PUSH2 0x1249 JUMP JUMPDEST POP DUP2 DUP2 PUSH1 0x4 ADD SWAP1 DUP1 MLOAD SWAP1 PUSH1 0x20 ADD SWAP1 PUSH2 0x11EF SWAP3 SWAP2 SWAP1 PUSH2 0x12D0 JUMP JUMPDEST POP DUP1 PUSH1 0x5 ADD PUSH0 DUP2 SLOAD DUP1 SWAP3 SWAP2 SWAP1 PUSH2 0x1204 SWAP1 PUSH2 0x1E1B JUMP JUMPDEST SWAP2 SWAP1 POP SSTORE POP PUSH32 0x4C361A31CA057741D142CC29A91921CA2650CF4CDE46CE70DACAADE3FBC06CBA DUP6 CALLER PUSH1 0x40 MLOAD PUSH2 0x123A SWAP3 SWAP2 SWAP1 PUSH2 0x1DC7 JUMP JUMPDEST PUSH1 0x40 MLOAD DUP1 SWAP2 SUB SWAP1 LOG1 POP POP POP POP POP JUMP JUMPDEST DUP3 DUP1 SLOAD DUP3 DUP3 SSTORE SWAP1 PUSH0 MSTORE PUSH1 0x20 PUSH0 KECCAK256 SWAP1 DUP2 ADD SWAP3 DUP3 ISZERO PUSH2 0x12BF JUMPI SWAP2 PUSH1 0x20 MUL DUP3 ADD JUMPDEST DUP3 DUP2 GT ISZERO PUSH2 0x12BE JUMPI DUP3 MLOAD DUP3 PUSH0 PUSH2 0x100 EXP DUP2 SLOAD DUP2 PUSH20 0xFFFFFFFFFFFFFFFFFFFFFFFFFFFFFFFFFFFFFFFF MUL NOT AND SWAP1 DUP4 PUSH20 0xFFFFFFFFFFFFFFFFFFFFFFFFFFFFFFFFFFFFFFFF AND MUL OR SWAP1 SSTORE POP SWAP2 PUSH1 0x20 ADD SWAP2 SWAP1 PUSH1 0x1 ADD SWAP1 PUSH2 0x1267 JUMP JUMPDEST JUMPDEST POP SWAP1 POP PUSH2 0x12CC SWAP2 SWAP1 PUSH2 0x139A JUMP JUMPDEST POP SWAP1 JUMP JUMPDEST DUP3 DUP1 SLOAD DUP3 DUP3 SSTORE SWAP1 PUSH0 MSTORE PUSH1 0x20 PUSH0 KECCAK256 SWAP1 DUP2 ADD SWAP3 DUP3 ISZERO PUSH2 0x130A JUMPI SWAP2 PUSH1 0x20 MUL DUP3 ADD JUMPDEST DUP3 DUP2 GT ISZERO PUSH2 0x1309 JUMPI DUP3 MLOAD DUP3 SSTORE SWAP2 PUSH1 0x20 ADD SWAP2 SWAP1 PUSH1 0x1 ADD SWAP1 PUSH2 0x12EE JUMP JUMPDEST JUMPDEST POP SWAP1 POP PUSH2 0x1317 SWAP2 SWAP1 PUSH2 0x139A JUMP JUMPDEST POP SWAP1 JUMP JUMPDEST PUSH1 0x40 MLOAD DUP1 PUSH1 0xE0 ADD PUSH1 0x40 MSTORE DUP1 PUSH0 PUSH20 0xFFFFFFFFFFFFFFFFFFFFFFFFFFFFFFFFFFFFFFFF AND DUP2 MSTORE PUSH1 0x20 ADD PUSH0 PUSH20 0xFFFFFFFFFFFFFFFFFFFFFFFFFFFFFFFFFFFFFFFF AND DUP2 MSTORE PUSH1 0x20 ADD PUSH1 0x60 DUP2 MSTORE PUSH1 0x20 ADD PUSH1 0x60 DUP2 MSTORE PUSH1 0x20 ADD PUSH1 0x60 DUP2 MSTORE PUSH1 0x20 ADD PUSH0 DUP2 MSTORE PUSH1 0x20 ADD PUSH0 ISZERO ISZERO DUP2 MSTORE POP SWAP1 JUMP JUMPDEST PUSH1 0x40 MLOAD DUP1 PUSH1 0x40 ADD PUSH1 0x40 MSTORE DUP1 PUSH0 DUP2 MSTORE PUSH1 0x20 ADD PUSH0 DUP2 MSTORE POP SWAP1 JUMP JUMPDEST JUMPDEST DUP1 DUP3 GT ISZERO PUSH2 0x13B1 JUMPI PUSH0 DUP2 PUSH0 SWAP1 SSTORE POP PUSH1 0x1 ADD PUSH2 0x139B JUMP JUMPDEST POP SWAP1 JUMP JUMPDEST PUSH0 DUP2 SWAP1 POP SWAP2 SWAP1 POP JUMP JUMPDEST PUSH2 0x13C7 DUP2 PUSH2 0x13B5 JUMP JUMPDEST DUP3 MSTORE POP POP JUMP JUMPDEST PUSH0 PUSH1 0x20 DUP3 ADD SWAP1 POP PUSH2 0x13E0 PUSH0 DUP4 ADD DUP5 PUSH2 0x13BE JUMP JUMPDEST SWAP3 SWAP2 POP POP JUMP JUMPDEST PUSH0 PUSH1 0x40 MLOAD SWAP1 POP SWAP1 JUMP JUMPDEST PUSH0 DUP1 REVERT JUMPDEST PUSH0 DUP1 REVERT JUMPDEST PUSH0 DUP1 REVERT JUMPDEST PUSH0 PUSH1 0x1F NOT PUSH1 0x1F DUP4 ADD AND SWAP1 POP SWAP2 SWAP1 POP JUMP JUMPDEST PUSH32 0x4E487B7100000000000000000000000000000000000000000000000000000000 PUSH0 MSTORE PUSH1 0x41 PUSH1 0x4 MSTORE PUSH1 0x24 PUSH0 REVERT JUMPDEST PUSH2 0x1441 DUP3 PUSH2 0x13FB JUMP JUMPDEST DUP2 ADD DUP2 DUP2 LT PUSH8 0xFFFFFFFFFFFFFFFF DUP3 GT OR ISZERO PUSH2 0x1460 JUMPI PUSH2 0x145F PUSH2 0x140B JUMP JUMPDEST JUMPDEST DUP1 PUSH1 0x40 MSTORE POP POP POP JUMP JUMPDEST PUSH0 PUSH2 0x1472 PUSH2 0x13E6 JUMP JUMPDEST SWAP1 POP PUSH2 0x147E DUP3 DUP3 PUSH2 0x1438 JUMP JUMPDEST SWAP2 SWAP1 POP JUMP JUMPDEST PUSH0 PUSH8 0xFFFFFFFFFFFFFFFF DUP3 GT ISZERO PUSH2 0x149D JUMPI PUSH2 0x149C PUSH2 0x140B JUMP JUMPDEST JUMPDEST PUSH1 0x20 DUP3 MUL SWAP1 POP PUSH1 0x20 DUP2 ADD SWAP1 POP SWAP2 SWAP1 POP JUMP JUMPDEST PUSH0 DUP1 REVERT JUMPDEST PUSH0 PUSH20 0xFFFFFFFFFFFFFFFFFFFFFFFFFFFFFFFFFFFFFFFF DUP3 AND SWAP1 POP SWAP2 SWAP1 POP JUMP JUMPDEST PUSH0 PUSH2 0x14DB DUP3 PUSH2 0x14B2 JUMP JUMPDEST SWAP1 POP SWAP2 SWAP1 POP JUMP JUMPDEST PUSH2 0x14EB DUP2 PUSH2 0x14D1 JUMP JUMPDEST DUP2 EQ PUSH2 0x14F5 JUMPI PUSH0 DUP1 REVERT JUMPDEST POP JUMP JUMPDEST PUSH0 DUP2 CALLDATALOAD SWAP1 POP PUSH2 0x1506 DUP2 PUSH2 0x14E2 JUMP JUMPDEST SWAP3 SWAP2 POP POP JUMP JUMPDEST PUSH0 PUSH2 0x151E PUSH2 0x1519 DUP5 PUSH2 0x1483 JUMP JUMPDEST PUSH2 0x1469 JUMP JUMPDEST SWAP1 POP DUP1 DUP4 DUP3 MSTORE PUSH1 0x20 DUP3 ADD SWAP1 POP PUSH1 0x20 DUP5 MUL DUP4 ADD DUP6 DUP2 GT ISZERO PUSH2 0x1541 JUMPI PUSH2 0x1540 PUSH2 0x14AE JUMP JUMPDEST JUMPDEST DUP4 JUMPDEST DUP2 DUP2 LT ISZERO PUSH2 0x156A JUMPI DUP1 PUSH2 0x1556 DUP9 DUP3 PUSH2 0x14F8 JUMP JUMPDEST DUP5 MSTORE PUSH1 0x20 DUP5 ADD SWAP4 POP POP PUSH1 0x20 DUP2 ADD SWAP1 POP PUSH2 0x1543 JUMP JUMPDEST POP POP POP SWAP4 SWAP3 POP POP POP JUMP JUMPDEST PUSH0 DUP3 PUSH1 0x1F DUP4 ADD SLT PUSH2 0x1588 JUMPI PUSH2 0x1587 PUSH2 0x13F7 JUMP JUMPDEST JUMPDEST DUP2 CALLDATALOAD PUSH2 0x1598 DUP5 DUP3 PUSH1 0x20 DUP7 ADD PUSH2 0x150C JUMP JUMPDEST SWAP2 POP POP SWAP3 SWAP2 POP POP JUMP JUMPDEST PUSH0 PUSH8 0xFFFFFFFFFFFFFFFF DUP3 GT ISZERO PUSH2 0x15BB JUMPI PUSH2 0x15BA PUSH2 0x140B JUMP JUMPDEST JUMPDEST PUSH1 0x20 DUP3 MUL SWAP1 POP PUSH1 0x20 DUP2 ADD SWAP1 POP SWAP2 SWAP1 POP JUMP JUMPDEST PUSH2 0x15D5 DUP2 PUSH2 0x13B5 JUMP JUMPDEST DUP2 EQ PUSH2 0x15DF JUMPI PUSH0 DUP1 REVERT JUMPDEST POP JUMP JUMPDEST PUSH0 DUP2 CALLDATALOAD SWAP1 POP PUSH2 0x15F0 DUP2 PUSH2 0x15CC JUMP JUMPDEST SWAP3 SWAP2 POP POP JUMP JUMPDEST PUSH0 PUSH2 0x1608 PUSH2 0x1603 DUP5 PUSH2 0x15A1 JUMP JUMPDEST PUSH2 0x1469 JUMP JUMPDEST SWAP1 POP DUP1 DUP4 DUP3 MSTORE PUSH1 0x20 DUP3 ADD SWAP1 POP PUSH1 0x20 DUP5 MUL DUP4 ADD DUP6 DUP2 GT ISZERO PUSH2 0x162B JUMPI PUSH2 0x162A PUSH2 0x14AE JUMP JUMPDEST JUMPDEST DUP4 JUMPDEST DUP2 DUP2 LT ISZERO PUSH2 0x1654 JUMPI DUP1 PUSH2 0x1640 DUP9 DUP3 PUSH2 0x15E2 JUMP JUMPDEST DUP5 MSTORE PUSH1 0x20 DUP5 ADD SWAP4 POP POP PUSH1 0x20 DUP2 ADD SWAP1 POP PUSH2 0x162D JUMP JUMPDEST POP POP POP SWAP4 SWAP3 POP POP POP JUMP JUMPDEST PUSH0 DUP3 PUSH1 0x1F DUP4 ADD SLT PUSH2 0x1672 JUMPI PUSH2 0x1671 PUSH2 0x13F7 JUMP JUMPDEST JUMPDEST DUP2 CALLDATALOAD PUSH2 0x1682 DUP5 DUP3 PUSH1 0x20 DUP7 ADD PUSH2 0x15F6 JUMP JUMPDEST SWAP2 POP POP SWAP3 SWAP2 POP POP JUMP JUMPDEST PUSH0 DUP1 PUSH0 DUP1 PUSH1 0x80 DUP6 DUP8 SUB SLT ISZERO PUSH2 0x16A3 JUMPI PUSH2 0x16A2 PUSH2 0x13EF JUMP JUMPDEST JUMPDEST PUSH0 DUP6 ADD CALLDATALOAD PUSH8 0xFFFFFFFFFFFFFFFF DUP2 GT ISZERO PUSH2 0x16C0 JUMPI PUSH2 0x16BF PUSH2 0x13F3 JUMP JUMPDEST JUMPDEST PUSH2 0x16CC DUP8 DUP3 DUP9 ADD PUSH2 0x1574 JUMP JUMPDEST SWAP5 POP POP PUSH1 0x20 DUP6 ADD CALLDATALOAD PUSH8 0xFFFFFFFFFFFFFFFF DUP2 GT ISZERO PUSH2 0x16ED JUMPI PUSH2 0x16EC PUSH2 0x13F3 JUMP JUMPDEST JUMPDEST PUSH2 0x16F9 DUP8 DUP3 DUP9 ADD PUSH2 0x1574 JUMP JUMPDEST SWAP4 POP POP PUSH1 0x40 DUP6 ADD CALLDATALOAD PUSH8 0xFFFFFFFFFFFFFFFF DUP2 GT ISZERO PUSH2 0x171A JUMPI PUSH2 0x1719 PUSH2 0x13F3 JUMP JUMPDEST JUMPDEST PUSH2 0x1726 DUP8 DUP3 DUP9 ADD PUSH2 0x165E JUMP JUMPDEST SWAP3 POP POP PUSH1 0x60 PUSH2 0x1737 DUP8 DUP3 DUP9 ADD PUSH2 0x14F8 JUMP JUMPDEST SWAP2 POP POP SWAP3 SWAP6 SWAP2 SWAP5 POP SWAP3 POP JUMP JUMPDEST PUSH0 PUSH1 0x20 DUP3 DUP5 SUB SLT ISZERO PUSH2 0x1758 JUMPI PUSH2 0x1757 PUSH2 0x13EF JUMP JUMPDEST JUMPDEST PUSH0 PUSH2 0x1765 DUP5 DUP3 DUP6 ADD PUSH2 0x14F8 JUMP JUMPDEST SWAP2 POP POP SWAP3 SWAP2 POP POP JUMP JUMPDEST PUSH0 PUSH1 0x40 DUP3 ADD SWAP1 POP PUSH2 0x1781 PUSH0 DUP4 ADD DUP6 PUSH2 0x13BE JUMP JUMPDEST PUSH2 0x178E PUSH1 0x20 DUP4 ADD DUP5 PUSH2 0x13BE JUMP JUMPDEST SWAP4 SWAP3 POP POP POP JUMP JUMPDEST PUSH0 DUP2 SWAP1 POP SWAP2 SWAP1 POP JUMP JUMPDEST PUSH0 PUSH2 0x17B8 PUSH2 0x17B3 PUSH2 0x17AE DUP5 PUSH2 0x14B2 JUMP JUMPDEST PUSH2 0x1795 JUMP JUMPDEST PUSH2 0x14B2 JUMP JUMPDEST SWAP1 POP SWAP2 SWAP1 POP JUMP JUMPDEST PUSH0 PUSH2 0x17C9 DUP3 PUSH2 0x179E JUMP JUMPDEST SWAP1 POP SWAP2 SWAP1 POP JUMP JUMPDEST PUSH0 PUSH2 0x17DA DUP3 PUSH2 0x17BF JUMP JUMPDEST SWAP1 POP SWAP2 SWAP1 POP JUMP JUMPDEST PUSH2 0x17EA DUP2 PUSH2 0x17D0 JUMP JUMPDEST DUP3 MSTORE POP POP JUMP JUMPDEST PUSH0 PUSH1 0x20 DUP3 ADD SWAP1 POP PUSH2 0x1803 PUSH0 DUP4 ADD DUP5 PUSH2 0x17E1 JUMP JUMPDEST SWAP3 SWAP2 POP POP JUMP JUMPDEST PUSH0 PUSH1 0x20 DUP3 DUP5 SUB SLT ISZERO PUSH2 0x181E JUMPI PUSH2 0x181D PUSH2 0x13EF JUMP JUMPDEST JUMPDEST PUSH0 PUSH2 0x182B DUP5 DUP3 DUP6 ADD PUSH2 0x15E2 JUMP JUMPDEST SWAP2 POP POP SWAP3 SWAP2 POP POP JUMP JUMPDEST PUSH2 0x183D DUP2 PUSH2 0x14D1 JUMP JUMPDEST DUP3 MSTORE POP POP JUMP JUMPDEST PUSH0 DUP2 MLOAD SWAP1 POP SWAP2 SWAP1 POP JUMP JUMPDEST PUSH0 DUP3 DUP3 MSTORE PUSH1 0x20 DUP3 ADD SWAP1 POP SWAP3 SWAP2 POP POP JUMP JUMPDEST PUSH0 DUP2 SWAP1 POP PUSH1 0x20 DUP3 ADD SWAP1 POP SWAP2 SWAP1 POP JUMP JUMPDEST PUSH0 PUSH2 0x1877 DUP4 DUP4 PUSH2 0x1834 JUMP JUMPDEST PUSH1 0x20 DUP4 ADD SWAP1 POP SWAP3 SWAP2 POP POP JUMP JUMPDEST PUSH0 PUSH1 0x20 DUP3 ADD SWAP1 POP SWAP2 SWAP1 POP JUMP JUMPDEST PUSH0 PUSH2 0x1899 DUP3 PUSH2 0x1843 JUMP JUMPDEST PUSH2 0x18A3 DUP2 DUP6 PUSH2 0x184D JUMP JUMPDEST SWAP4 POP PUSH2 0x18AE DUP4 PUSH2 0x185D JUMP JUMPDEST DUP1 PUSH0 JUMPDEST DUP4 DUP2 LT ISZERO PUSH2 0x18DE JUMPI DUP2 MLOAD PUSH2 0x18C5 DUP9 DUP3 PUSH2 0x186C JUMP JUMPDEST SWAP8 POP PUSH2 0x18D0 DUP4 PUSH2 0x1883 JUMP JUMPDEST SWAP3 POP POP PUSH1 0x1 DUP2 ADD SWAP1 POP PUSH2 0x18B1 JUMP JUMPDEST POP DUP6 SWAP4 POP POP POP POP SWAP3 SWAP2 POP POP JUMP JUMPDEST PUSH0 DUP2 MLOAD SWAP1 POP SWAP2 SWAP1 POP JUMP JUMPDEST PUSH0 DUP3 DUP3 MSTORE PUSH1 0x20 DUP3 ADD SWAP1 POP SWAP3 SWAP2 POP POP JUMP JUMPDEST PUSH0 DUP2 SWAP1 POP PUSH1 0x20 DUP3 ADD SWAP1 POP SWAP2 SWAP1 POP JUMP JUMPDEST PUSH2 0x191D DUP2 PUSH2 0x13B5 JUMP JUMPDEST DUP3 MSTORE POP POP JUMP JUMPDEST PUSH0 PUSH2 0x192E DUP4 DUP4 PUSH2 0x1914 JUMP JUMPDEST PUSH1 0x20 DUP4 ADD SWAP1 POP SWAP3 SWAP2 POP POP JUMP JUMPDEST PUSH0 PUSH1 0x20 DUP3 ADD SWAP1 POP SWAP2 SWAP1 POP JUMP JUMPDEST PUSH0 PUSH2 0x1950 DUP3 PUSH2 0x18EB JUMP JUMPDEST PUSH2 0x195A DUP2 DUP6 PUSH2 0x18F5 JUMP JUMPDEST SWAP4 POP PUSH2 0x1965 DUP4 PUSH2 0x1905 JUMP JUMPDEST DUP1 PUSH0 JUMPDEST DUP4 DUP2 LT ISZERO PUSH2 0x1995 JUMPI DUP2 MLOAD PUSH2 0x197C DUP9 DUP3 PUSH2 0x1923 JUMP JUMPDEST SWAP8 POP PUSH2 0x1987 DUP4 PUSH2 0x193A JUMP JUMPDEST SWAP3 POP POP PUSH1 0x1 DUP2 ADD SWAP1 POP PUSH2 0x1968 JUMP JUMPDEST POP DUP6 SWAP4 POP POP POP POP SWAP3 SWAP2 POP POP JUMP JUMPDEST PUSH0 DUP2 ISZERO ISZERO SWAP1 POP SWAP2 SWAP1 POP JUMP JUMPDEST PUSH2 0x19B6 DUP2 PUSH2 0x19A2 JUMP JUMPDEST DUP3 MSTORE POP POP JUMP JUMPDEST PUSH0 PUSH1 0xE0 DUP4 ADD PUSH0 DUP4 ADD MLOAD PUSH2 0x19D1 PUSH0 DUP7 ADD DUP3 PUSH2 0x1834 JUMP JUMPDEST POP PUSH1 0x20 DUP4 ADD MLOAD PUSH2 0x19E4 PUSH1 0x20 DUP7 ADD DUP3 PUSH2 0x1834 JUMP JUMPDEST POP PUSH1 0x40 DUP4 ADD MLOAD DUP5 DUP3 SUB PUSH1 0x40 DUP7 ADD MSTORE PUSH2 0x19FC DUP3 DUP3 PUSH2 0x188F JUMP JUMPDEST SWAP2 POP POP PUSH1 0x60 DUP4 ADD MLOAD DUP5 DUP3 SUB PUSH1 0x60 DUP7 ADD MSTORE PUSH2 0x1A16 DUP3 DUP3 PUSH2 0x188F JUMP JUMPDEST SWAP2 POP POP PUSH1 0x80 DUP4 ADD MLOAD DUP5 DUP3 SUB PUSH1 0x80 DUP7 ADD MSTORE PUSH2 0x1A30 DUP3 DUP3 PUSH2 0x1946 JUMP JUMPDEST SWAP2 POP POP PUSH1 0xA0 DUP4 ADD MLOAD PUSH2 0x1A45 PUSH1 0xA0 DUP7 ADD DUP3 PUSH2 0x1914 JUMP JUMPDEST POP PUSH1 0xC0 DUP4 ADD MLOAD PUSH2 0x1A58 PUSH1 0xC0 DUP7 ADD DUP3 PUSH2 0x19AD JUMP JUMPDEST POP DUP1 SWAP2 POP POP SWAP3 SWAP2 POP POP JUMP JUMPDEST PUSH0 PUSH1 0x20 DUP3 ADD SWAP1 POP DUP2 DUP2 SUB PUSH0 DUP4 ADD MSTORE PUSH2 0x1A7B DUP2 DUP5 PUSH2 0x19BC JUMP JUMPDEST SWAP1 POP SWAP3 SWAP2 POP POP JUMP JUMPDEST PUSH1 0x40 DUP3 ADD PUSH0 DUP3 ADD MLOAD PUSH2 0x1A97 PUSH0 DUP6 ADD DUP3 PUSH2 0x1914 JUMP JUMPDEST POP PUSH1 0x20 DUP3 ADD MLOAD PUSH2 0x1AAA PUSH1 0x20 DUP6 ADD DUP3 PUSH2 0x1914 JUMP JUMPDEST POP POP POP POP JUMP JUMPDEST PUSH0 PUSH1 0x40 DUP3 ADD SWAP1 POP PUSH2 0x1AC3 PUSH0 DUP4 ADD DUP5 PUSH2 0x1A83 JUMP JUMPDEST SWAP3 SWAP2 POP POP JUMP JUMPDEST PUSH0 DUP1 PUSH1 0x40 DUP4 DUP6 SUB SLT ISZERO PUSH2 0x1ADF JUMPI PUSH2 0x1ADE PUSH2 0x13EF JUMP JUMPDEST JUMPDEST PUSH0 PUSH2 0x1AEC DUP6 DUP3 DUP7 ADD PUSH2 0x15E2 JUMP JUMPDEST SWAP3 POP POP PUSH1 0x20 PUSH2 0x1AFD DUP6 DUP3 DUP7 ADD PUSH2 0x15E2 JUMP JUMPDEST SWAP2 POP POP SWAP3 POP SWAP3 SWAP1 POP JUMP JUMPDEST PUSH2 0x1B10 DUP2 PUSH2 0x14D1 JUMP JUMPDEST DUP3 MSTORE POP POP JUMP JUMPDEST PUSH2 0x1B1F DUP2 PUSH2 0x19A2 JUMP JUMPDEST DUP3 MSTORE POP POP JUMP JUMPDEST PUSH0 PUSH1 0x80 DUP3 ADD SWAP1 POP PUSH2 0x1B38 PUSH0 DUP4 ADD DUP8 PUSH2 0x1B07 JUMP JUMPDEST PUSH2 0x1B45 PUSH1 0x20 DUP4 ADD DUP7 PUSH2 0x1B07 JUMP JUMPDEST PUSH2 0x1B52 PUSH1 0x40 DUP4 ADD DUP6 PUSH2 0x13BE JUMP JUMPDEST PUSH2 0x1B5F PUSH1 0x60 DUP4 ADD DUP5 PUSH2 0x1B16 JUMP JUMPDEST SWAP6 SWAP5 POP POP POP POP POP JUMP JUMPDEST PUSH0 PUSH2 0x1B72 DUP3 PUSH2 0x17BF JUMP JUMPDEST SWAP1 POP SWAP2 SWAP1 POP JUMP JUMPDEST PUSH2 0x1B82 DUP2 PUSH2 0x1B68 JUMP JUMPDEST DUP3 MSTORE POP POP JUMP JUMPDEST PUSH0 PUSH1 0x20 DUP3 ADD SWAP1 POP PUSH2 0x1B9B PUSH0 DUP4 ADD DUP5 PUSH2 0x1B79 JUMP JUMPDEST SWAP3 SWAP2 POP POP JUMP JUMPDEST PUSH0 DUP1 PUSH0 DUP1 PUSH1 0x80 DUP6 DUP8 SUB SLT ISZERO PUSH2 0x1BB9 JUMPI PUSH2 0x1BB8 PUSH2 0x13EF JUMP JUMPDEST JUMPDEST PUSH0 PUSH2 0x1BC6 DUP8 DUP3 DUP9 ADD PUSH2 0x15E2 JUMP JUMPDEST SWAP5 POP POP PUSH1 0x20 DUP6 ADD CALLDATALOAD PUSH8 0xFFFFFFFFFFFFFFFF DUP2 GT ISZERO PUSH2 0x1BE7 JUMPI PUSH2 0x1BE6 PUSH2 0x13F3 JUMP JUMPDEST JUMPDEST PUSH2 0x1BF3 DUP8 DUP3 DUP9 ADD PUSH2 0x1574 JUMP JUMPDEST SWAP4 POP POP PUSH1 0x40 DUP6 ADD CALLDATALOAD PUSH8 0xFFFFFFFFFFFFFFFF DUP2 GT ISZERO PUSH2 0x1C14 JUMPI PUSH2 0x1C13 PUSH2 0x13F3 JUMP JUMPDEST JUMPDEST PUSH2 0x1C20 DUP8 DUP3 DUP9 ADD PUSH2 0x1574 JUMP JUMPDEST SWAP3 POP POP PUSH1 0x60 DUP6 ADD CALLDATALOAD PUSH8 0xFFFFFFFFFFFFFFFF DUP2 GT ISZERO PUSH2 0x1C41 JUMPI PUSH2 0x1C40 PUSH2 0x13F3 JUMP JUMPDEST JUMPDEST PUSH2 0x1C4D DUP8 DUP3 DUP9 ADD PUSH2 0x165E JUMP JUMPDEST SWAP2 POP POP SWAP3 SWAP6 SWAP2 SWAP5 POP SWAP3 POP JUMP JUMPDEST PUSH0 DUP3 DUP3 MSTORE PUSH1 0x20 DUP3 ADD SWAP1 POP SWAP3 SWAP2 POP POP JUMP JUMPDEST PUSH32 0x4D6178696D756D2035204E46547320616C6C6F77656400000000000000000000 PUSH0 DUP3 ADD MSTORE POP JUMP JUMPDEST PUSH0 PUSH2 0x1C9D PUSH1 0x16 DUP4 PUSH2 0x1C59 JUMP JUMPDEST SWAP2 POP PUSH2 0x1CA8 DUP3 PUSH2 0x1C69 JUMP JUMPDEST PUSH1 0x20 DUP3 ADD SWAP1 POP SWAP2 SWAP1 POP JUMP JUMPDEST PUSH0 PUSH1 0x20 DUP3 ADD SWAP1 POP DUP2 DUP2 SUB PUSH0 DUP4 ADD MSTORE PUSH2 0x1CCA DUP2 PUSH2 0x1C91 JUMP JUMPDEST SWAP1 POP SWAP2 SWAP1 POP JUMP JUMPDEST PUSH32 0x4D6178696D756D203520746F6B656E7320616C6C6F7765640000000000000000 PUSH0 DUP3 ADD MSTORE POP JUMP JUMPDEST PUSH0 PUSH2 0x1D05 PUSH1 0x18 DUP4 PUSH2 0x1C59 JUMP JUMPDEST SWAP2 POP PUSH2 0x1D10 DUP3 PUSH2 0x1CD1 JUMP JUMPDEST PUSH1 0x20 DUP3 ADD SWAP1 POP SWAP2 SWAP1 POP JUMP JUMPDEST PUSH0 PUSH1 0x20 DUP3 ADD SWAP1 POP DUP2 DUP2 SUB PUSH0 DUP4 ADD MSTORE PUSH2 0x1D32 DUP2 PUSH2 0x1CF9 JUMP JUMPDEST SWAP1 POP SWAP2 SWAP1 POP JUMP JUMPDEST PUSH32 0x546F6B656E7320616E6420746F6B656E416D6F756E7473206C656E677468206D PUSH0 DUP3 ADD MSTORE PUSH32 0x69736D6174636800000000000000000000000000000000000000000000000000 PUSH1 0x20 DUP3 ADD MSTORE POP JUMP JUMPDEST PUSH0 PUSH2 0x1D93 PUSH1 0x27 DUP4 PUSH2 0x1C59 JUMP JUMPDEST SWAP2 POP PUSH2 0x1D9E DUP3 PUSH2 0x1D39 JUMP JUMPDEST PUSH1 0x40 DUP3 ADD SWAP1 POP SWAP2 SWAP1 POP JUMP JUMPDEST PUSH0 PUSH1 0x20 DUP3 ADD SWAP1 POP DUP2 DUP2 SUB PUSH0 DUP4 ADD MSTORE PUSH2 0x1DC0 DUP2 PUSH2 0x1D87 JUMP JUMPDEST SWAP1 POP SWAP2 SWAP1 POP JUMP JUMPDEST PUSH0 PUSH1 0x40 DUP3 ADD SWAP1 POP PUSH2 0x1DDA PUSH0 DUP4 ADD DUP6 PUSH2 0x13BE JUMP JUMPDEST PUSH2 0x1DE7 PUSH1 0x20 DUP4 ADD DUP5 PUSH2 0x1B07 JUMP JUMPDEST SWAP4 SWAP3 POP POP POP JUMP JUMPDEST PUSH32 0x4E487B7100000000000000000000000000000000000000000000000000000000 PUSH0 MSTORE PUSH1 0x11 PUSH1 0x4 MSTORE PUSH1 0x24 PUSH0 REVERT JUMPDEST PUSH0 PUSH2 0x1E25 DUP3 PUSH2 0x13B5 JUMP JUMPDEST SWAP2 POP PUSH32 0xFFFFFFFFFFFFFFFFFFFFFFFFFFFFFFFFFFFFFFFFFFFFFFFFFFFFFFFFFFFFFFFF DUP3 SUB PUSH2 0x1E57 JUMPI PUSH2 0x1E56 PUSH2 0x1DEE JUMP JUMPDEST JUMPDEST PUSH1 0x1 DUP3 ADD SWAP1 POP SWAP2 SWAP1 POP JUMP JUMPDEST PUSH32 0x41677265656D656E74206973206E6F7420616374697665000000000000000000 PUSH0 DUP3 ADD MSTORE POP JUMP JUMPDEST PUSH0 PUSH2 0x1E96 PUSH1 0x17 DUP4 PUSH2 0x1C59 JUMP JUMPDEST SWAP2 POP PUSH2 0x1EA1 DUP3 PUSH2 0x1E62 JUMP JUMPDEST PUSH1 0x20 DUP3 ADD SWAP1 POP SWAP2 SWAP1 POP JUMP JUMPDEST PUSH0 PUSH1 0x20 DUP3 ADD SWAP1 POP DUP2 DUP2 SUB PUSH0 DUP4 ADD MSTORE PUSH2 0x1EC3 DUP2 PUSH2 0x1E8A JUMP JUMPDEST SWAP1 POP SWAP2 SWAP1 POP JUMP JUMPDEST PUSH0 DUP1 REVERT JUMPDEST PUSH0 DUP1 REVERT JUMPDEST PUSH0 DUP2 MLOAD SWAP1 POP PUSH2 0x1EE0 DUP2 PUSH2 0x14E2 JUMP JUMPDEST SWAP3 SWAP2 POP POP JUMP JUMPDEST PUSH0 DUP2 MLOAD SWAP1 POP PUSH2 0x1EF4 DUP2 PUSH2 0x15CC JUMP JUMPDEST SWAP3 SWAP2 POP POP JUMP JUMPDEST PUSH0 PUSH2 0x1F0C PUSH2 0x1F07 DUP5 PUSH2 0x1483 JUMP JUMPDEST PUSH2 0x1469 JUMP JUMPDEST SWAP1 POP DUP1 DUP4 DUP3 MSTORE PUSH1 0x20 DUP3 ADD SWAP1 POP PUSH1 0x20 DUP5 MUL DUP4 ADD DUP6 DUP2 GT ISZERO PUSH2 0x1F2F JUMPI PUSH2 0x1F2E PUSH2 0x14AE JUMP JUMPDEST JUMPDEST DUP4 JUMPDEST DUP2 DUP2 LT ISZERO PUSH2 0x1F58 JUMPI DUP1 PUSH2 0x1F44 DUP9 DUP3 PUSH2 0x1ED2 JUMP JUMPDEST DUP5 MSTORE PUSH1 0x20 DUP5 ADD SWAP4 POP POP PUSH1 0x20 DUP2 ADD SWAP1 POP PUSH2 0x1F31 JUMP JUMPDEST POP POP POP SWAP4 SWAP3 POP POP POP JUMP JUMPDEST PUSH0 DUP3 PUSH1 0x1F DUP4 ADD SLT PUSH2 0x1F76 JUMPI PUSH2 0x1F75 PUSH2 0x13F7 JUMP JUMPDEST JUMPDEST DUP2 MLOAD PUSH2 0x1F86 DUP5 DUP3 PUSH1 0x20 DUP7 ADD PUSH2 0x1EFA JUMP JUMPDEST SWAP2 POP POP SWAP3 SWAP2 POP POP JUMP JUMPDEST PUSH2 0x1F98 DUP2 PUSH2 0x19A2 JUMP JUMPDEST DUP2 EQ PUSH2 0x1FA2 JUMPI PUSH0 DUP1 REVERT JUMPDEST POP JUMP JUMPDEST PUSH0 DUP2 MLOAD SWAP1 POP PUSH2 0x1FB3 DUP2 PUSH2 0x1F8F JUMP JUMPDEST SWAP3 SWAP2 POP POP JUMP JUMPDEST PUSH0 PUSH1 0xA0 DUP3 DUP5 SUB SLT ISZERO PUSH2 0x1FCE JUMPI PUSH2 0x1FCD PUSH2 0x1ECA JUMP JUMPDEST JUMPDEST PUSH2 0x1FD8 PUSH1 0xA0 PUSH2 0x1469 JUMP JUMPDEST SWAP1 POP PUSH0 PUSH2 0x1FE7 DUP5 DUP3 DUP6 ADD PUSH2 0x1ED2 JUMP JUMPDEST PUSH0 DUP4 ADD MSTORE POP PUSH1 0x20 PUSH2 0x1FFA DUP5 DUP3 DUP6 ADD PUSH2 0x1EE6 JUMP JUMPDEST PUSH1 0x20 DUP4 ADD MSTORE POP PUSH1 0x40 DUP3 ADD MLOAD PUSH8 0xFFFFFFFFFFFFFFFF DUP2 GT ISZERO PUSH2 0x201E JUMPI PUSH2 0x201D PUSH2 0x1ECE JUMP JUMPDEST JUMPDEST PUSH2 0x202A DUP5 DUP3 DUP6 ADD PUSH2 0x1F62 JUMP JUMPDEST PUSH1 0x40 DUP4 ADD MSTORE POP PUSH1 0x60 PUSH2 0x203E DUP5 DUP3 DUP6 ADD PUSH2 0x1EE6 JUMP JUMPDEST PUSH1 0x60 DUP4 ADD MSTORE POP PUSH1 0x80 PUSH2 0x2052 DUP5 DUP3 DUP6 ADD PUSH2 0x1FA5 JUMP JUMPDEST PUSH1 0x80 DUP4 ADD MSTORE POP SWAP3 SWAP2 POP POP JUMP JUMPDEST PUSH0 PUSH1 0x20 DUP3 DUP5 SUB SLT ISZERO PUSH2 0x2073 JUMPI PUSH2 0x2072 PUSH2 0x13EF JUMP JUMPDEST JUMPDEST PUSH0 DUP3 ADD MLOAD PUSH8 0xFFFFFFFFFFFFFFFF DUP2 GT ISZERO PUSH2 0x2090 JUMPI PUSH2 0x208F PUSH2 0x13F3 JUMP JUMPDEST JUMPDEST PUSH2 0x209C DUP5 DUP3 DUP6 ADD PUSH2 0x1FB9 JUMP JUMPDEST SWAP2 POP POP SWAP3 SWAP2 POP POP JUMP JUMPDEST PUSH32 0x496E76616C6964206F6666657220666F7220746869732061677265656D656E74 PUSH0 DUP3 ADD MSTORE POP JUMP JUMPDEST PUSH0 PUSH2 0x20D9 PUSH1 0x20 DUP4 PUSH2 0x1C59 JUMP JUMPDEST SWAP2 POP PUSH2 0x20E4 DUP3 PUSH2 0x20A5 JUMP JUMPDEST PUSH1 0x20 DUP3 ADD SWAP1 POP SWAP2 SWAP1 POP JUMP JUMPDEST PUSH0 PUSH1 0x20 DUP3 ADD SWAP1 POP DUP2 DUP2 SUB PUSH0 DUP4 ADD MSTORE PUSH2 0x2106 DUP2 PUSH2 0x20CD JUMP JUMPDEST SWAP1 POP SWAP2 SWAP1 POP JUMP JUMPDEST PUSH32 0x4E487B7100000000000000000000000000000000000000000000000000000000 PUSH0 MSTORE PUSH1 0x32 PUSH1 0x4 MSTORE PUSH1 0x24 PUSH0 REVERT JUMPDEST PUSH0 PUSH1 0x60 DUP3 ADD SWAP1 POP PUSH2 0x214D PUSH0 DUP4 ADD DUP7 PUSH2 0x1B07 JUMP JUMPDEST PUSH2 0x215A PUSH1 0x20 DUP4 ADD DUP6 PUSH2 0x1B07 JUMP JUMPDEST PUSH2 0x2167 PUSH1 0x40 DUP4 ADD DUP5 PUSH2 0x13BE JUMP JUMPDEST SWAP5 SWAP4 POP POP POP POP JUMP JUMPDEST PUSH0 PUSH1 0x20 DUP3 DUP5 SUB SLT ISZERO PUSH2 0x2184 JUMPI PUSH2 0x2183 PUSH2 0x13EF JUMP JUMPDEST JUMPDEST PUSH0 PUSH2 0x2191 DUP5 DUP3 DUP6 ADD PUSH2 0x1FA5 JUMP JUMPDEST SWAP2 POP POP SWAP3 SWAP2 POP POP JUMP JUMPDEST PUSH0 PUSH2 0x21A4 DUP3 PUSH2 0x13B5 JUMP JUMPDEST SWAP2 POP PUSH2 0x21AF DUP4 PUSH2 0x13B5 JUMP JUMPDEST SWAP3 POP DUP3 DUP3 ADD SWAP1 POP DUP1 DUP3 GT ISZERO PUSH2 0x21C7 JUMPI PUSH2 0x21C6 PUSH2 0x1DEE JUMP JUMPDEST JUMPDEST SWAP3 SWAP2 POP POP JUMP JUMPDEST PUSH0 DUP2 SWAP1 POP SWAP2 SWAP1 POP JUMP JUMPDEST PUSH0 PUSH2 0x21F0 PUSH2 0x21EB PUSH2 0x21E6 DUP5 PUSH2 0x21CD JUMP JUMPDEST PUSH2 0x1795 JUMP JUMPDEST PUSH2 0x13B5 JUMP JUMPDEST SWAP1 POP SWAP2 SWAP1 POP JUMP JUMPDEST PUSH2 0x2200 DUP2 PUSH2 0x21D6 JUMP JUMPDEST DUP3 MSTORE POP POP JUMP JUMPDEST PUSH0 PUSH1 0x40 DUP3 ADD SWAP1 POP PUSH2 0x2219 PUSH0 DUP4 ADD DUP6 PUSH2 0x1B07 JUMP JUMPDEST PUSH2 0x2226 PUSH1 0x20 DUP4 ADD DUP5 PUSH2 0x21F7 JUMP JUMPDEST SWAP4 SWAP3 POP POP POP JUMP JUMPDEST PUSH32 0x4F6E6C792063726561746F72206F7220636F756E74657270617274792063616E PUSH0 DUP3 ADD MSTORE PUSH32 0x206D6F6469667900000000000000000000000000000000000000000000000000 PUSH1 0x20 DUP3 ADD MSTORE POP JUMP JUMPDEST PUSH0 PUSH2 0x2287 PUSH1 0x27 DUP4 PUSH2 0x1C59 JUMP JUMPDEST SWAP2 POP PUSH2 0x2292 DUP3 PUSH2 0x222D JUMP JUMPDEST PUSH1 0x40 DUP3 ADD SWAP1 POP SWAP2 SWAP1 POP JUMP JUMPDEST PUSH0 PUSH1 0x20 DUP3 ADD SWAP1 POP DUP2 DUP2 SUB PUSH0 DUP4 ADD MSTORE PUSH2 0x22B4 DUP2 PUSH2 0x227B JUMP JUMPDEST SWAP1 POP SWAP2 SWAP1 POP JUMP JUMPDEST PUSH32 0x4D6F64696669636174696F6E206C696D69742072656163686564000000000000 PUSH0 DUP3 ADD MSTORE POP JUMP JUMPDEST PUSH0 PUSH2 0x22EF PUSH1 0x1A DUP4 PUSH2 0x1C59 JUMP JUMPDEST SWAP2 POP PUSH2 0x22FA DUP3 PUSH2 0x22BB JUMP JUMPDEST PUSH1 0x20 DUP3 ADD SWAP1 POP SWAP2 SWAP1 POP JUMP JUMPDEST PUSH0 PUSH1 0x20 DUP3 ADD SWAP1 POP DUP2 DUP2 SUB PUSH0 DUP4 ADD MSTORE PUSH2 0x231C DUP2 PUSH2 0x22E3 JUMP JUMPDEST SWAP1 POP SWAP2 SWAP1 POP JUMP INVALID LOG2 PUSH5 0x6970667358 0x22 SLT KECCAK256 0xC3 DUP10 SDIV LOG3 AND 0xC8 0xDC PUSH17 0xA65245C900C242CF5D9599CFE99377E27A 0x4C DUP4 DUP5 PUSH24 0x515CE64736F6C634300081A003300000000000000000000 "
				},
				"gasEstimates": {
					"creation": {
						"codeDepositCost": "1809800",
						"executionCost": "infinite",
						"totalCost": "infinite"
					},
					"external": {
						"acceptTradeAgreement(uint256,uint256)": "infinite",
						"agreementCounter()": "2426",
						"agreements(uint256)": "infinite",
						"createTradeAgreement(address[],address[],uint256[],address)": "infinite",
						"modifyTradeAgreement(uint256,address[],address[],uint256[])": "infinite",
						"rejectTradeAgreement(uint256)": "infinite",
						"roninP2PFeeAndRewardDistribution()": "infinite",
						"roninP2POffer()": "infinite",
						"userTransactions(address)": "infinite",
						"viewTradeAgreement(uint256)": "infinite",
						"viewUserTransactions(address)": "infinite"
					}
				},
				"methodIdentifiers": {
					"acceptTradeAgreement(uint256,uint256)": "b9e2a5e3",
					"agreementCounter()": "14f79af7",
					"agreements(uint256)": "bd14de96",
					"createTradeAgreement(address[],address[],uint256[],address)": "44df770a",
					"modifyTradeAgreement(uint256,address[],address[],uint256[])": "fba833f4",
					"rejectTradeAgreement(uint256)": "b7f5e4f6",
					"roninP2PFeeAndRewardDistribution()": "cb7273a8",
					"roninP2POffer()": "633772ac",
					"userTransactions(address)": "59d71914",
					"viewTradeAgreement(uint256)": "97465fa8",
					"viewUserTransactions(address)": "aa334404"
				}
			},
			"storageLayout": {
				"storage": [
					{
						"astId": 706,
						"contract": "contracts/RoninP2PTradeAgreement.sol:RoninP2PTradeAgreement",
						"label": "agreements",
						"offset": 0,
						"slot": "0",
						"type": "t_mapping(t_uint256,t_struct(Agreement)696_storage)"
					},
					{
						"astId": 711,
						"contract": "contracts/RoninP2PTradeAgreement.sol:RoninP2PTradeAgreement",
						"label": "userTransactions",
						"offset": 0,
						"slot": "1",
						"type": "t_mapping(t_address,t_struct(UserTransaction)701_storage)"
					},
					{
						"astId": 713,
						"contract": "contracts/RoninP2PTradeAgreement.sol:RoninP2PTradeAgreement",
						"label": "agreementCounter",
						"offset": 0,
						"slot": "2",
						"type": "t_uint256"
					},
					{
						"astId": 716,
						"contract": "contracts/RoninP2PTradeAgreement.sol:RoninP2PTradeAgreement",
						"label": "roninP2POffer",
						"offset": 0,
						"slot": "3",
						"type": "t_contract(RoninP2POffer)670"
					},
					{
						"astId": 719,
						"contract": "contracts/RoninP2PTradeAgreement.sol:RoninP2PTradeAgreement",
						"label": "roninP2PFeeAndRewardDistribution",
						"offset": 0,
						"slot": "4",
						"type": "t_contract(RoninP2PFeeAndRewardDistribution)444"
					}
				],
				"types": {
					"t_address": {
						"encoding": "inplace",
						"label": "address",
						"numberOfBytes": "20"
					},
					"t_array(t_address)dyn_storage": {
						"base": "t_address",
						"encoding": "dynamic_array",
						"label": "address[]",
						"numberOfBytes": "32"
					},
					"t_array(t_uint256)dyn_storage": {
						"base": "t_uint256",
						"encoding": "dynamic_array",
						"label": "uint256[]",
						"numberOfBytes": "32"
					},
					"t_bool": {
						"encoding": "inplace",
						"label": "bool",
						"numberOfBytes": "1"
					},
					"t_contract(RoninP2PFeeAndRewardDistribution)444": {
						"encoding": "inplace",
						"label": "contract RoninP2PFeeAndRewardDistribution",
						"numberOfBytes": "20"
					},
					"t_contract(RoninP2POffer)670": {
						"encoding": "inplace",
						"label": "contract RoninP2POffer",
						"numberOfBytes": "20"
					},
					"t_mapping(t_address,t_struct(UserTransaction)701_storage)": {
						"encoding": "mapping",
						"key": "t_address",
						"label": "mapping(address => struct RoninP2PTradeAgreement.UserTransaction)",
						"numberOfBytes": "32",
						"value": "t_struct(UserTransaction)701_storage"
					},
					"t_mapping(t_uint256,t_struct(Agreement)696_storage)": {
						"encoding": "mapping",
						"key": "t_uint256",
						"label": "mapping(uint256 => struct RoninP2PTradeAgreement.Agreement)",
						"numberOfBytes": "32",
						"value": "t_struct(Agreement)696_storage"
					},
					"t_struct(Agreement)696_storage": {
						"encoding": "inplace",
						"label": "struct RoninP2PTradeAgreement.Agreement",
						"members": [
							{
								"astId": 680,
								"contract": "contracts/RoninP2PTradeAgreement.sol:RoninP2PTradeAgreement",
								"label": "creator",
								"offset": 0,
								"slot": "0",
								"type": "t_address"
							},
							{
								"astId": 682,
								"contract": "contracts/RoninP2PTradeAgreement.sol:RoninP2PTradeAgreement",
								"label": "counterparty",
								"offset": 0,
								"slot": "1",
								"type": "t_address"
							},
							{
								"astId": 685,
								"contract": "contracts/RoninP2PTradeAgreement.sol:RoninP2PTradeAgreement",
								"label": "nfts",
								"offset": 0,
								"slot": "2",
								"type": "t_array(t_address)dyn_storage"
							},
							{
								"astId": 688,
								"contract": "contracts/RoninP2PTradeAgreement.sol:RoninP2PTradeAgreement",
								"label": "tokens",
								"offset": 0,
								"slot": "3",
								"type": "t_array(t_address)dyn_storage"
							},
							{
								"astId": 691,
								"contract": "contracts/RoninP2PTradeAgreement.sol:RoninP2PTradeAgreement",
								"label": "tokenAmounts",
								"offset": 0,
								"slot": "4",
								"type": "t_array(t_uint256)dyn_storage"
							},
							{
								"astId": 693,
								"contract": "contracts/RoninP2PTradeAgreement.sol:RoninP2PTradeAgreement",
								"label": "modificationCount",
								"offset": 0,
								"slot": "5",
								"type": "t_uint256"
							},
							{
								"astId": 695,
								"contract": "contracts/RoninP2PTradeAgreement.sol:RoninP2PTradeAgreement",
								"label": "isActive",
								"offset": 0,
								"slot": "6",
								"type": "t_bool"
							}
						],
						"numberOfBytes": "224"
					},
					"t_struct(UserTransaction)701_storage": {
						"encoding": "inplace",
						"label": "struct RoninP2PTradeAgreement.UserTransaction",
						"members": [
							{
								"astId": 698,
								"contract": "contracts/RoninP2PTradeAgreement.sol:RoninP2PTradeAgreement",
								"label": "totalAmount",
								"offset": 0,
								"slot": "0",
								"type": "t_uint256"
							},
							{
								"astId": 700,
								"contract": "contracts/RoninP2PTradeAgreement.sol:RoninP2PTradeAgreement",
								"label": "transactionCount",
								"offset": 0,
								"slot": "1",
								"type": "t_uint256"
							}
						],
						"numberOfBytes": "64"
					},
					"t_uint256": {
						"encoding": "inplace",
						"label": "uint256",
						"numberOfBytes": "32"
					}
				}
			},
			"userdoc": {
				"kind": "user",
				"methods": {},
				"version": 1
			}
		}
	}
}