{
	"contracts/RoninP2POffer.sol": {
		"RoninP2POffer": {
			"abi": [
				{
					"anonymous": false,
					"inputs": [
						{
							"indexed": false,
							"internalType": "uint256",
							"name": "offerId",
							"type": "uint256"
						},
						{
							"indexed": false,
							"internalType": "address",
							"name": "accepter",
							"type": "address"
						}
					],
					"name": "OfferAccepted",
					"type": "event"
				},
				{
					"anonymous": false,
					"inputs": [
						{
							"indexed": false,
							"internalType": "uint256",
							"name": "offerId",
							"type": "uint256"
						},
						{
							"indexed": false,
							"internalType": "address",
							"name": "offerer",
							"type": "address"
						},
						{
							"indexed": false,
							"internalType": "uint256",
							"name": "agreementId",
							"type": "uint256"
						}
					],
					"name": "OfferMade",
					"type": "event"
				},
				{
					"anonymous": false,
					"inputs": [
						{
							"indexed": false,
							"internalType": "uint256",
							"name": "offerId",
							"type": "uint256"
						},
						{
							"indexed": false,
							"internalType": "address",
							"name": "modifiers",
							"type": "address"
						}
					],
					"name": "OfferModified",
					"type": "event"
				},
				{
					"anonymous": false,
					"inputs": [
						{
							"indexed": false,
							"internalType": "uint256",
							"name": "offerId",
							"type": "uint256"
						},
						{
							"indexed": false,
							"internalType": "address",
							"name": "rejecter",
							"type": "address"
						}
					],
					"name": "OfferRejected",
					"type": "event"
				},
				{
					"inputs": [
						{
							"internalType": "uint256",
							"name": "offerId",
							"type": "uint256"
						}
					],
					"name": "acceptOffer",
					"outputs": [],
					"stateMutability": "nonpayable",
					"type": "function"
				},
				{
					"inputs": [
						{
							"internalType": "uint256",
							"name": "agreementId",
							"type": "uint256"
						},
						{
							"internalType": "address[]",
							"name": "nfts",
							"type": "address[]"
						}
					],
					"name": "makeOffer",
					"outputs": [],
					"stateMutability": "nonpayable",
					"type": "function"
				},
				{
					"inputs": [
						{
							"internalType": "uint256",
							"name": "offerId",
							"type": "uint256"
						},
						{
							"internalType": "address[]",
							"name": "newNfts",
							"type": "address[]"
						}
					],
					"name": "modifyOffer",
					"outputs": [],
					"stateMutability": "nonpayable",
					"type": "function"
				},
				{
					"inputs": [],
					"name": "offerCounter",
					"outputs": [
						{
							"internalType": "uint256",
							"name": "",
							"type": "uint256"
						}
					],
					"stateMutability": "view",
					"type": "function"
				},
				{
					"inputs": [
						{
							"internalType": "uint256",
							"name": "",
							"type": "uint256"
						}
					],
					"name": "offers",
					"outputs": [
						{
							"internalType": "address",
							"name": "offerer",
							"type": "address"
						},
						{
							"internalType": "uint256",
							"name": "agreementId",
							"type": "uint256"
						},
						{
							"internalType": "uint256",
							"name": "modificationCount",
							"type": "uint256"
						},
						{
							"internalType": "bool",
							"name": "isActive",
							"type": "bool"
						}
					],
					"stateMutability": "view",
					"type": "function"
				},
				{
					"inputs": [
						{
							"internalType": "uint256",
							"name": "offerId",
							"type": "uint256"
						}
					],
					"name": "rejectOffer",
					"outputs": [],
					"stateMutability": "nonpayable",
					"type": "function"
				},
				{
					"inputs": [
						{
							"internalType": "uint256",
							"name": "offerId",
							"type": "uint256"
						}
					],
					"name": "viewOffer",
					"outputs": [
						{
							"components": [
								{
									"internalType": "address",
									"name": "offerer",
									"type": "address"
								},
								{
									"internalType": "uint256",
									"name": "agreementId",
									"type": "uint256"
								},
								{
									"internalType": "address[]",
									"name": "nfts",
									"type": "address[]"
								},
								{
									"internalType": "uint256",
									"name": "modificationCount",
									"type": "uint256"
								},
								{
									"internalType": "bool",
									"name": "isActive",
									"type": "bool"
								}
							],
							"internalType": "struct RoninP2POffer.OfferDetails",
							"name": "",
							"type": "tuple"
						}
					],
					"stateMutability": "view",
					"type": "function"
				}
			],
			"devdoc": {
				"kind": "dev",
				"methods": {},
				"version": 1
			},
			"evm": {
				"assembly": "    /* \"contracts/RoninP2POffer.sol\":57:11000  contract RoninP2POffer {... */\n  mstore(0x40, 0x80)\n  callvalue\n  dup1\n  iszero\n  tag_1\n  jumpi\n  0x00\n  dup1\n  revert\ntag_1:\n  pop\n  dataSize(sub_0)\n  dup1\n  dataOffset(sub_0)\n  0x00\n  codecopy\n  0x00\n  return\nstop\n\nsub_0: assembly {\n        /* \"contracts/RoninP2POffer.sol\":57:11000  contract RoninP2POffer {... */\n      mstore(0x40, 0x80)\n      callvalue\n      dup1\n      iszero\n      tag_1\n      jumpi\n      0x00\n      dup1\n      revert\n    tag_1:\n      pop\n      jumpi(tag_2, lt(calldatasize, 0x04))\n      shr(0xe0, calldataload(0x00))\n      dup1\n      0xaf8c6ff3\n      gt\n      tag_10\n      jumpi\n      dup1\n      0xaf8c6ff3\n      eq\n      tag_6\n      jumpi\n      dup1\n      0xb7a3c1da\n      eq\n      tag_7\n      jumpi\n      dup1\n      0xc815729d\n      eq\n      tag_8\n      jumpi\n      dup1\n      0xd7a624ed\n      eq\n      tag_9\n      jumpi\n      jump(tag_2)\n    tag_10:\n      dup1\n      0x88b10c75\n      eq\n      tag_3\n      jumpi\n      dup1\n      0x8a72ea6a\n      eq\n      tag_4\n      jumpi\n      dup1\n      0x9b55e638\n      eq\n      tag_5\n      jumpi\n    tag_2:\n      0x00\n      dup1\n      revert\n        /* \"contracts/RoninP2POffer.sol\":8766:10650  function rejectOffer(uint256 offerId) public {... */\n    tag_3:\n      tag_11\n      0x04\n      dup1\n      calldatasize\n      sub\n      dup2\n      add\n      swap1\n      tag_12\n      swap2\n      swap1\n      tag_13\n      jump\t// in\n    tag_12:\n      tag_14\n      jump\t// in\n    tag_11:\n      stop\n        /* \"contracts/RoninP2POffer.sol\":447:493  mapping(uint256 => OfferDetails) public offers */\n    tag_4:\n      tag_15\n      0x04\n      dup1\n      calldatasize\n      sub\n      dup2\n      add\n      swap1\n      tag_16\n      swap2\n      swap1\n      tag_13\n      jump\t// in\n    tag_16:\n      tag_17\n      jump\t// in\n    tag_15:\n      mload(0x40)\n      tag_18\n      swap5\n      swap4\n      swap3\n      swap2\n      swap1\n      tag_19\n      jump\t// in\n    tag_18:\n      mload(0x40)\n      dup1\n      swap2\n      sub\n      swap1\n      return\n        /* \"contracts/RoninP2POffer.sol\":3427:3936  function viewOffer(uint256 offerId) public view returns (OfferDetails memory) {... */\n    tag_5:\n      tag_20\n      0x04\n      dup1\n      calldatasize\n      sub\n      dup2\n      add\n      swap1\n      tag_21\n      swap2\n      swap1\n      tag_13\n      jump\t// in\n    tag_21:\n      tag_22\n      jump\t// in\n    tag_20:\n      mload(0x40)\n      tag_23\n      swap2\n      swap1\n      tag_24\n      jump\t// in\n    tag_23:\n      mload(0x40)\n      dup1\n      swap2\n      sub\n      swap1\n      return\n        /* \"contracts/RoninP2POffer.sol\":4146:6494  function modifyOffer(uint256 offerId, address[] memory newNfts) public {... */\n    tag_6:\n      tag_25\n      0x04\n      dup1\n      calldatasize\n      sub\n      dup2\n      add\n      swap1\n      tag_26\n      swap2\n      swap1\n      tag_27\n      jump\t// in\n    tag_26:\n      tag_28\n      jump\t// in\n    tag_25:\n      stop\n        /* \"contracts/RoninP2POffer.sol\":551:578  uint256 public offerCounter */\n    tag_7:\n      tag_29\n      tag_30\n      jump\t// in\n    tag_29:\n      mload(0x40)\n      tag_31\n      swap2\n      swap1\n      tag_32\n      jump\t// in\n    tag_31:\n      mload(0x40)\n      dup1\n      swap2\n      sub\n      swap1\n      return\n        /* \"contracts/RoninP2POffer.sol\":6768:8452  function acceptOffer(uint256 offerId) public {... */\n    tag_8:\n      tag_33\n      0x04\n      dup1\n      calldatasize\n      sub\n      dup2\n      add\n      swap1\n      tag_34\n      swap2\n      swap1\n      tag_13\n      jump\t// in\n    tag_34:\n      tag_35\n      jump\t// in\n    tag_33:\n      stop\n        /* \"contracts/RoninP2POffer.sol\":1163:3233  function makeOffer(uint256 agreementId, address[] memory nfts) public {... */\n    tag_9:\n      tag_36\n      0x04\n      dup1\n      calldatasize\n      sub\n      dup2\n      add\n      swap1\n      tag_37\n      swap2\n      swap1\n      tag_27\n      jump\t// in\n    tag_37:\n      tag_38\n      jump\t// in\n    tag_36:\n      stop\n        /* \"contracts/RoninP2POffer.sol\":8766:10650  function rejectOffer(uint256 offerId) public {... */\n    tag_14:\n        /* \"contracts/RoninP2POffer.sol\":9133:9159  OfferDetails storage offer */\n      0x00\n        /* \"contracts/RoninP2POffer.sol\":9162:9168  offers */\n      dup1\n        /* \"contracts/RoninP2POffer.sol\":9162:9177  offers[offerId] */\n      0x00\n        /* \"contracts/RoninP2POffer.sol\":9169:9176  offerId */\n      dup4\n        /* \"contracts/RoninP2POffer.sol\":9162:9177  offers[offerId] */\n      dup2\n      mstore\n      0x20\n      add\n      swap1\n      dup2\n      mstore\n      0x20\n      add\n      0x00\n      keccak256\n        /* \"contracts/RoninP2POffer.sol\":9133:9177  OfferDetails storage offer = offers[offerId] */\n      swap1\n      pop\n        /* \"contracts/RoninP2POffer.sol\":9515:9520  offer */\n      dup1\n        /* \"contracts/RoninP2POffer.sol\":9515:9529  offer.isActive */\n      0x04\n      add\n      0x00\n      swap1\n      sload\n      swap1\n      0x0100\n      exp\n      swap1\n      div\n      0xff\n      and\n        /* \"contracts/RoninP2POffer.sol\":9507:9553  require(offer.isActive, \"Offer is not active\") */\n      tag_40\n      jumpi\n      mload(0x40)\n      0x08c379a000000000000000000000000000000000000000000000000000000000\n      dup2\n      mstore\n      0x04\n      add\n      tag_41\n      swap1\n      tag_42\n      jump\t// in\n    tag_41:\n      mload(0x40)\n      dup1\n      swap2\n      sub\n      swap1\n      revert\n    tag_40:\n        /* \"contracts/RoninP2POffer.sol\":9909:9914  false */\n      0x00\n        /* \"contracts/RoninP2POffer.sol\":9892:9897  offer */\n      dup2\n        /* \"contracts/RoninP2POffer.sol\":9892:9906  offer.isActive */\n      0x04\n      add\n      0x00\n        /* \"contracts/RoninP2POffer.sol\":9892:9914  offer.isActive = false */\n      0x0100\n      exp\n      dup2\n      sload\n      dup2\n      0xff\n      mul\n      not\n      and\n      swap1\n      dup4\n      iszero\n      iszero\n      mul\n      or\n      swap1\n      sstore\n      pop\n        /* \"contracts/RoninP2POffer.sol\":10265:10299  OfferRejected(offerId, msg.sender) */\n      0x1b15bc319d6f29dd5bcf76cd2b89490ed2fe49f1a31fb6b8624b0029fd85c265\n        /* \"contracts/RoninP2POffer.sol\":10279:10286  offerId */\n      dup3\n        /* \"contracts/RoninP2POffer.sol\":10288:10298  msg.sender */\n      caller\n        /* \"contracts/RoninP2POffer.sol\":10265:10299  OfferRejected(offerId, msg.sender) */\n      mload(0x40)\n      tag_43\n      swap3\n      swap2\n      swap1\n      tag_44\n      jump\t// in\n    tag_43:\n      mload(0x40)\n      dup1\n      swap2\n      sub\n      swap1\n      log1\n        /* \"contracts/RoninP2POffer.sol\":8811:10650  {... */\n      pop\n        /* \"contracts/RoninP2POffer.sol\":8766:10650  function rejectOffer(uint256 offerId) public {... */\n      pop\n      jump\t// out\n        /* \"contracts/RoninP2POffer.sol\":447:493  mapping(uint256 => OfferDetails) public offers */\n    tag_17:\n      mstore(0x20, 0x00)\n      dup1\n      0x00\n      mstore\n      keccak256(0x00, 0x40)\n      0x00\n      swap2\n      pop\n      swap1\n      pop\n      dup1\n      0x00\n      add\n      0x00\n      swap1\n      sload\n      swap1\n      0x0100\n      exp\n      swap1\n      div\n      0xffffffffffffffffffffffffffffffffffffffff\n      and\n      swap1\n      dup1\n      0x01\n      add\n      sload\n      swap1\n      dup1\n      0x03\n      add\n      sload\n      swap1\n      dup1\n      0x04\n      add\n      0x00\n      swap1\n      sload\n      swap1\n      0x0100\n      exp\n      swap1\n      div\n      0xff\n      and\n      swap1\n      pop\n      dup5\n      jump\t// out\n        /* \"contracts/RoninP2POffer.sol\":3427:3936  function viewOffer(uint256 offerId) public view returns (OfferDetails memory) {... */\n    tag_22:\n        /* \"contracts/RoninP2POffer.sol\":3484:3503  OfferDetails memory */\n      tag_45\n      tag_46\n      jump\t// in\n    tag_45:\n        /* \"contracts/RoninP2POffer.sol\":3714:3720  offers */\n      0x00\n        /* \"contracts/RoninP2POffer.sol\":3714:3729  offers[offerId] */\n      dup1\n        /* \"contracts/RoninP2POffer.sol\":3721:3728  offerId */\n      dup4\n        /* \"contracts/RoninP2POffer.sol\":3714:3729  offers[offerId] */\n      dup2\n      mstore\n      0x20\n      add\n      swap1\n      dup2\n      mstore\n      0x20\n      add\n      0x00\n      keccak256\n        /* \"contracts/RoninP2POffer.sol\":3707:3729  return offers[offerId] */\n      mload(0x40)\n      dup1\n      0xa0\n      add\n      0x40\n      mstore\n      swap1\n      dup2\n      0x00\n      dup3\n      add\n      0x00\n      swap1\n      sload\n      swap1\n      0x0100\n      exp\n      swap1\n      div\n      0xffffffffffffffffffffffffffffffffffffffff\n      and\n      0xffffffffffffffffffffffffffffffffffffffff\n      and\n      0xffffffffffffffffffffffffffffffffffffffff\n      and\n      dup2\n      mstore\n      0x20\n      add\n      0x01\n      dup3\n      add\n      sload\n      dup2\n      mstore\n      0x20\n      add\n      0x02\n      dup3\n      add\n      dup1\n      sload\n      dup1\n      0x20\n      mul\n      0x20\n      add\n      mload(0x40)\n      swap1\n      dup2\n      add\n      0x40\n      mstore\n      dup1\n      swap3\n      swap2\n      swap1\n      dup2\n      dup2\n      mstore\n      0x20\n      add\n      dup3\n      dup1\n      sload\n      dup1\n      iszero\n      tag_48\n      jumpi\n      0x20\n      mul\n      dup3\n      add\n      swap2\n      swap1\n      0x00\n      mstore\n      keccak256(0x00, 0x20)\n      swap1\n    tag_49:\n      dup2\n      0x00\n      swap1\n      sload\n      swap1\n      0x0100\n      exp\n      swap1\n      div\n      0xffffffffffffffffffffffffffffffffffffffff\n      and\n      0xffffffffffffffffffffffffffffffffffffffff\n      and\n      dup2\n      mstore\n      0x20\n      add\n      swap1\n      0x01\n      add\n      swap1\n      dup1\n      dup4\n      gt\n      tag_49\n      jumpi\n    tag_48:\n      pop\n      pop\n      pop\n      pop\n      pop\n      dup2\n      mstore\n      0x20\n      add\n      0x03\n      dup3\n      add\n      sload\n      dup2\n      mstore\n      0x20\n      add\n      0x04\n      dup3\n      add\n      0x00\n      swap1\n      sload\n      swap1\n      0x0100\n      exp\n      swap1\n      div\n      0xff\n      and\n      iszero\n      iszero\n      iszero\n      iszero\n      dup2\n      mstore\n      pop\n      pop\n      swap1\n      pop\n        /* \"contracts/RoninP2POffer.sol\":3427:3936  function viewOffer(uint256 offerId) public view returns (OfferDetails memory) {... */\n      swap2\n      swap1\n      pop\n      jump\t// out\n        /* \"contracts/RoninP2POffer.sol\":4146:6494  function modifyOffer(uint256 offerId, address[] memory newNfts) public {... */\n    tag_28:\n        /* \"contracts/RoninP2POffer.sol\":4435:4461  OfferDetails storage offer */\n      0x00\n        /* \"contracts/RoninP2POffer.sol\":4464:4470  offers */\n      dup1\n        /* \"contracts/RoninP2POffer.sol\":4464:4479  offers[offerId] */\n      0x00\n        /* \"contracts/RoninP2POffer.sol\":4471:4478  offerId */\n      dup5\n        /* \"contracts/RoninP2POffer.sol\":4464:4479  offers[offerId] */\n      dup2\n      mstore\n      0x20\n      add\n      swap1\n      dup2\n      mstore\n      0x20\n      add\n      0x00\n      keccak256\n        /* \"contracts/RoninP2POffer.sol\":4435:4479  OfferDetails storage offer = offers[offerId] */\n      swap1\n      pop\n        /* \"contracts/RoninP2POffer.sol\":4727:4732  offer */\n      dup1\n        /* \"contracts/RoninP2POffer.sol\":4727:4740  offer.offerer */\n      0x00\n      add\n      0x00\n      swap1\n      sload\n      swap1\n      0x0100\n      exp\n      swap1\n      div\n      0xffffffffffffffffffffffffffffffffffffffff\n      and\n        /* \"contracts/RoninP2POffer.sol\":4713:4740  msg.sender == offer.offerer */\n      0xffffffffffffffffffffffffffffffffffffffff\n      and\n        /* \"contracts/RoninP2POffer.sol\":4713:4723  msg.sender */\n      caller\n        /* \"contracts/RoninP2POffer.sol\":4713:4740  msg.sender == offer.offerer */\n      0xffffffffffffffffffffffffffffffffffffffff\n      and\n      eq\n        /* \"contracts/RoninP2POffer.sol\":4705:4768  require(msg.sender == offer.offerer, \"Only offerer can modify\") */\n      tag_51\n      jumpi\n      mload(0x40)\n      0x08c379a000000000000000000000000000000000000000000000000000000000\n      dup2\n      mstore\n      0x04\n      add\n      tag_52\n      swap1\n      tag_53\n      jump\t// in\n    tag_52:\n      mload(0x40)\n      dup1\n      swap2\n      sub\n      swap1\n      revert\n    tag_51:\n        /* \"contracts/RoninP2POffer.sol\":5036:5037  3 */\n      0x03\n        /* \"contracts/RoninP2POffer.sol\":5010:5015  offer */\n      dup2\n        /* \"contracts/RoninP2POffer.sol\":5010:5033  offer.modificationCount */\n      0x03\n      add\n      sload\n        /* \"contracts/RoninP2POffer.sol\":5010:5037  offer.modificationCount < 3 */\n      lt\n        /* \"contracts/RoninP2POffer.sol\":5002:5068  require(offer.modificationCount < 3, \"Modification limit reached\") */\n      tag_54\n      jumpi\n      mload(0x40)\n      0x08c379a000000000000000000000000000000000000000000000000000000000\n      dup2\n      mstore\n      0x04\n      add\n      tag_55\n      swap1\n      tag_56\n      jump\t// in\n    tag_55:\n      mload(0x40)\n      dup1\n      swap2\n      sub\n      swap1\n      revert\n    tag_54:\n        /* \"contracts/RoninP2POffer.sol\":5336:5337  5 */\n      0x05\n        /* \"contracts/RoninP2POffer.sol\":5318:5325  newNfts */\n      dup3\n        /* \"contracts/RoninP2POffer.sol\":5318:5332  newNfts.length */\n      mload\n        /* \"contracts/RoninP2POffer.sol\":5318:5337  newNfts.length <= 5 */\n      gt\n      iszero\n        /* \"contracts/RoninP2POffer.sol\":5310:5364  require(newNfts.length <= 5, \"Maximum 5 NFTs allowed\") */\n      tag_57\n      jumpi\n      mload(0x40)\n      0x08c379a000000000000000000000000000000000000000000000000000000000\n      dup2\n      mstore\n      0x04\n      add\n      tag_58\n      swap1\n      tag_59\n      jump\t// in\n    tag_58:\n      mload(0x40)\n      dup1\n      swap2\n      sub\n      swap1\n      revert\n    tag_57:\n        /* \"contracts/RoninP2POffer.sol\":5628:5635  newNfts */\n      dup2\n        /* \"contracts/RoninP2POffer.sol\":5615:5620  offer */\n      dup2\n        /* \"contracts/RoninP2POffer.sol\":5615:5625  offer.nfts */\n      0x02\n      add\n        /* \"contracts/RoninP2POffer.sol\":5615:5635  offer.nfts = newNfts */\n      swap1\n      dup1\n      mload\n      swap1\n      0x20\n      add\n      swap1\n      tag_60\n      swap3\n      swap2\n      swap1\n      tag_61\n      jump\t// in\n    tag_60:\n      pop\n        /* \"contracts/RoninP2POffer.sol\":5893:5898  offer */\n      dup1\n        /* \"contracts/RoninP2POffer.sol\":5893:5916  offer.modificationCount */\n      0x03\n      add\n      0x00\n        /* \"contracts/RoninP2POffer.sol\":5893:5918  offer.modificationCount++ */\n      dup2\n      sload\n      dup1\n      swap3\n      swap2\n      swap1\n      tag_62\n      swap1\n      tag_63\n      jump\t// in\n    tag_62:\n      swap2\n      swap1\n      pop\n      sstore\n      pop\n        /* \"contracts/RoninP2POffer.sol\":6189:6223  OfferModified(offerId, msg.sender) */\n      0x0fa6badfc2a6f8e5e536338d9b30aa8c9ef5cd8819a1e73a78c08945f5fea7ea\n        /* \"contracts/RoninP2POffer.sol\":6203:6210  offerId */\n      dup4\n        /* \"contracts/RoninP2POffer.sol\":6212:6222  msg.sender */\n      caller\n        /* \"contracts/RoninP2POffer.sol\":6189:6223  OfferModified(offerId, msg.sender) */\n      mload(0x40)\n      tag_64\n      swap3\n      swap2\n      swap1\n      tag_44\n      jump\t// in\n    tag_64:\n      mload(0x40)\n      dup1\n      swap2\n      sub\n      swap1\n      log1\n        /* \"contracts/RoninP2POffer.sol\":4217:6494  {... */\n      pop\n        /* \"contracts/RoninP2POffer.sol\":4146:6494  function modifyOffer(uint256 offerId, address[] memory newNfts) public {... */\n      pop\n      pop\n      jump\t// out\n        /* \"contracts/RoninP2POffer.sol\":551:578  uint256 public offerCounter */\n    tag_30:\n      sload(0x01)\n      dup2\n      jump\t// out\n        /* \"contracts/RoninP2POffer.sol\":6768:8452  function acceptOffer(uint256 offerId) public {... */\n    tag_35:\n        /* \"contracts/RoninP2POffer.sol\":7095:7121  OfferDetails storage offer */\n      0x00\n        /* \"contracts/RoninP2POffer.sol\":7124:7130  offers */\n      dup1\n        /* \"contracts/RoninP2POffer.sol\":7124:7139  offers[offerId] */\n      0x00\n        /* \"contracts/RoninP2POffer.sol\":7131:7138  offerId */\n      dup4\n        /* \"contracts/RoninP2POffer.sol\":7124:7139  offers[offerId] */\n      dup2\n      mstore\n      0x20\n      add\n      swap1\n      dup2\n      mstore\n      0x20\n      add\n      0x00\n      keccak256\n        /* \"contracts/RoninP2POffer.sol\":7095:7139  OfferDetails storage offer = offers[offerId] */\n      swap1\n      pop\n        /* \"contracts/RoninP2POffer.sol\":7437:7442  offer */\n      dup1\n        /* \"contracts/RoninP2POffer.sol\":7437:7451  offer.isActive */\n      0x04\n      add\n      0x00\n      swap1\n      sload\n      swap1\n      0x0100\n      exp\n      swap1\n      div\n      0xff\n      and\n        /* \"contracts/RoninP2POffer.sol\":7429:7475  require(offer.isActive, \"Offer is not active\") */\n      tag_66\n      jumpi\n      mload(0x40)\n      0x08c379a000000000000000000000000000000000000000000000000000000000\n      dup2\n      mstore\n      0x04\n      add\n      tag_67\n      swap1\n      tag_42\n      jump\t// in\n    tag_67:\n      mload(0x40)\n      dup1\n      swap2\n      sub\n      swap1\n      revert\n    tag_66:\n        /* \"contracts/RoninP2POffer.sol\":7791:7796  false */\n      0x00\n        /* \"contracts/RoninP2POffer.sol\":7774:7779  offer */\n      dup2\n        /* \"contracts/RoninP2POffer.sol\":7774:7788  offer.isActive */\n      0x04\n      add\n      0x00\n        /* \"contracts/RoninP2POffer.sol\":7774:7796  offer.isActive = false */\n      0x0100\n      exp\n      dup2\n      sload\n      dup2\n      0xff\n      mul\n      not\n      and\n      swap1\n      dup4\n      iszero\n      iszero\n      mul\n      or\n      swap1\n      sstore\n      pop\n        /* \"contracts/RoninP2POffer.sol\":8107:8141  OfferAccepted(offerId, msg.sender) */\n      0xa7a40af5a1d0c10a3eb94af90cb008170915e8a71a6aaff052794cd762c72fc0\n        /* \"contracts/RoninP2POffer.sol\":8121:8128  offerId */\n      dup3\n        /* \"contracts/RoninP2POffer.sol\":8130:8140  msg.sender */\n      caller\n        /* \"contracts/RoninP2POffer.sol\":8107:8141  OfferAccepted(offerId, msg.sender) */\n      mload(0x40)\n      tag_68\n      swap3\n      swap2\n      swap1\n      tag_44\n      jump\t// in\n    tag_68:\n      mload(0x40)\n      dup1\n      swap2\n      sub\n      swap1\n      log1\n        /* \"contracts/RoninP2POffer.sol\":6813:8452  {... */\n      pop\n        /* \"contracts/RoninP2POffer.sol\":6768:8452  function acceptOffer(uint256 offerId) public {... */\n      pop\n      jump\t// out\n        /* \"contracts/RoninP2POffer.sol\":1163:3233  function makeOffer(uint256 agreementId, address[] memory nfts) public {... */\n    tag_38:\n        /* \"contracts/RoninP2POffer.sol\":1342:1343  5 */\n      0x05\n        /* \"contracts/RoninP2POffer.sol\":1327:1331  nfts */\n      dup2\n        /* \"contracts/RoninP2POffer.sol\":1327:1338  nfts.length */\n      mload\n        /* \"contracts/RoninP2POffer.sol\":1327:1343  nfts.length <= 5 */\n      gt\n      iszero\n        /* \"contracts/RoninP2POffer.sol\":1319:1370  require(nfts.length <= 5, \"Maximum 5 NFTs allowed\") */\n      tag_70\n      jumpi\n      mload(0x40)\n      0x08c379a000000000000000000000000000000000000000000000000000000000\n      dup2\n      mstore\n      0x04\n      add\n      tag_71\n      swap1\n      tag_59\n      jump\t// in\n    tag_71:\n      mload(0x40)\n      dup1\n      swap2\n      sub\n      swap1\n      revert\n    tag_70:\n        /* \"contracts/RoninP2POffer.sol\":1465:1493  OfferDetails memory newOffer */\n      0x00\n        /* \"contracts/RoninP2POffer.sol\":1496:2409  OfferDetails({... */\n      mload(0x40)\n      dup1\n      0xa0\n      add\n      0x40\n      mstore\n      dup1\n        /* \"contracts/RoninP2POffer.sol\":1624:1634  msg.sender */\n      caller\n        /* \"contracts/RoninP2POffer.sol\":1496:2409  OfferDetails({... */\n      0xffffffffffffffffffffffffffffffffffffffff\n      and\n      dup2\n      mstore\n      0x20\n      add\n        /* \"contracts/RoninP2POffer.sol\":1765:1776  agreementId */\n      dup5\n        /* \"contracts/RoninP2POffer.sol\":1496:2409  OfferDetails({... */\n      dup2\n      mstore\n      0x20\n      add\n        /* \"contracts/RoninP2POffer.sol\":1912:1916  nfts */\n      dup4\n        /* \"contracts/RoninP2POffer.sol\":1496:2409  OfferDetails({... */\n      dup2\n      mstore\n      0x20\n      add\n        /* \"contracts/RoninP2POffer.sol\":2077:2078  0 */\n      0x00\n        /* \"contracts/RoninP2POffer.sol\":1496:2409  OfferDetails({... */\n      dup2\n      mstore\n      0x20\n      add\n        /* \"contracts/RoninP2POffer.sol\":2242:2246  true */\n      0x01\n        /* \"contracts/RoninP2POffer.sol\":1496:2409  OfferDetails({... */\n      iszero\n      iszero\n      dup2\n      mstore\n      pop\n        /* \"contracts/RoninP2POffer.sol\":1465:2409  OfferDetails memory newOffer = OfferDetails({... */\n      swap1\n      pop\n        /* \"contracts/RoninP2POffer.sol\":2603:2611  newOffer */\n      dup1\n        /* \"contracts/RoninP2POffer.sol\":2580:2586  offers */\n      0x00\n        /* \"contracts/RoninP2POffer.sol\":2580:2600  offers[offerCounter] */\n      dup1\n        /* \"contracts/RoninP2POffer.sol\":2587:2599  offerCounter */\n      sload(0x01)\n        /* \"contracts/RoninP2POffer.sol\":2580:2600  offers[offerCounter] */\n      dup2\n      mstore\n      0x20\n      add\n      swap1\n      dup2\n      mstore\n      0x20\n      add\n      0x00\n      keccak256\n        /* \"contracts/RoninP2POffer.sol\":2580:2611  offers[offerCounter] = newOffer */\n      0x00\n      dup3\n      add\n      mload\n      dup2\n      0x00\n      add\n      exp(0x0100, 0x00)\n      dup2\n      sload\n      dup2\n      0xffffffffffffffffffffffffffffffffffffffff\n      mul\n      not\n      and\n      swap1\n      dup4\n      0xffffffffffffffffffffffffffffffffffffffff\n      and\n      mul\n      or\n      swap1\n      sstore\n      pop\n      0x20\n      dup3\n      add\n      mload\n      dup2\n      0x01\n      add\n      sstore\n      0x40\n      dup3\n      add\n      mload\n      dup2\n      0x02\n      add\n      swap1\n      dup1\n      mload\n      swap1\n      0x20\n      add\n      swap1\n      tag_72\n      swap3\n      swap2\n      swap1\n      tag_61\n      jump\t// in\n    tag_72:\n      pop\n      0x60\n      dup3\n      add\n      mload\n      dup2\n      0x03\n      add\n      sstore\n      0x80\n      dup3\n      add\n      mload\n      dup2\n      0x04\n      add\n      exp(0x0100, 0x00)\n      dup2\n      sload\n      dup2\n      0xff\n      mul\n      not\n      and\n      swap1\n      dup4\n      iszero\n      iszero\n      mul\n      or\n      swap1\n      sstore\n      pop\n      swap1\n      pop\n      pop\n        /* \"contracts/RoninP2POffer.sol\":2794:2842  OfferMade(offerCounter, msg.sender, agreementId) */\n      0xbdf1e76c2ba2a5c85b93bf78678a4a3b06d63b18422612dac8d7d5249ed46714\n        /* \"contracts/RoninP2POffer.sol\":2804:2816  offerCounter */\n      sload(0x01)\n        /* \"contracts/RoninP2POffer.sol\":2818:2828  msg.sender */\n      caller\n        /* \"contracts/RoninP2POffer.sol\":2830:2841  agreementId */\n      dup6\n        /* \"contracts/RoninP2POffer.sol\":2794:2842  OfferMade(offerCounter, msg.sender, agreementId) */\n      mload(0x40)\n      tag_73\n      swap4\n      swap3\n      swap2\n      swap1\n      tag_74\n      jump\t// in\n    tag_73:\n      mload(0x40)\n      dup1\n      swap2\n      sub\n      swap1\n      log1\n        /* \"contracts/RoninP2POffer.sol\":3028:3040  offerCounter */\n      0x01\n      0x00\n        /* \"contracts/RoninP2POffer.sol\":3028:3042  offerCounter++ */\n      dup2\n      sload\n      dup1\n      swap3\n      swap2\n      swap1\n      tag_75\n      swap1\n      tag_63\n      jump\t// in\n    tag_75:\n      swap2\n      swap1\n      pop\n      sstore\n      pop\n        /* \"contracts/RoninP2POffer.sol\":1233:3233  {... */\n      pop\n        /* \"contracts/RoninP2POffer.sol\":1163:3233  function makeOffer(uint256 agreementId, address[] memory nfts) public {... */\n      pop\n      pop\n      jump\t// out\n    tag_46:\n      mload(0x40)\n      dup1\n      0xa0\n      add\n      0x40\n      mstore\n      dup1\n      and(0xffffffffffffffffffffffffffffffffffffffff, 0x00)\n      dup2\n      mstore\n      0x20\n      add\n      0x00\n      dup2\n      mstore\n      0x20\n      add\n      0x60\n      dup2\n      mstore\n      0x20\n      add\n      0x00\n      dup2\n      mstore\n      0x20\n      add\n      iszero(iszero(0x00))\n      dup2\n      mstore\n      pop\n      swap1\n      jump\t// out\n    tag_61:\n      dup3\n      dup1\n      sload\n      dup3\n      dup3\n      sstore\n      swap1\n      0x00\n      mstore\n      keccak256(0x00, 0x20)\n      swap1\n      dup2\n      add\n      swap3\n      dup3\n      iszero\n      tag_76\n      jumpi\n      swap2\n      0x20\n      mul\n      dup3\n      add\n    tag_77:\n      dup3\n      dup2\n      gt\n      iszero\n      tag_78\n      jumpi\n      dup3\n      mload\n      dup3\n      exp(0x0100, 0x00)\n      dup2\n      sload\n      dup2\n      0xffffffffffffffffffffffffffffffffffffffff\n      mul\n      not\n      and\n      swap1\n      dup4\n      0xffffffffffffffffffffffffffffffffffffffff\n      and\n      mul\n      or\n      swap1\n      sstore\n      pop\n      swap2\n      0x20\n      add\n      swap2\n      swap1\n      0x01\n      add\n      swap1\n      jump(tag_77)\n    tag_78:\n    tag_76:\n      pop\n      swap1\n      pop\n      tag_79\n      swap2\n      swap1\n      tag_80\n      jump\t// in\n    tag_79:\n      pop\n      swap1\n      jump\t// out\n    tag_80:\n    tag_81:\n      dup1\n      dup3\n      gt\n      iszero\n      tag_82\n      jumpi\n      0x00\n      dup2\n      0x00\n      swap1\n      sstore\n      pop\n      0x01\n      add\n      jump(tag_81)\n    tag_82:\n      pop\n      swap1\n      jump\t// out\n        /* \"#utility.yul\":7:82   */\n    tag_83:\n        /* \"#utility.yul\":40:46   */\n      0x00\n        /* \"#utility.yul\":73:75   */\n      0x40\n        /* \"#utility.yul\":67:76   */\n      mload\n        /* \"#utility.yul\":57:76   */\n      swap1\n      pop\n        /* \"#utility.yul\":7:82   */\n      swap1\n      jump\t// out\n        /* \"#utility.yul\":88:205   */\n    tag_84:\n        /* \"#utility.yul\":197:198   */\n      0x00\n        /* \"#utility.yul\":194:195   */\n      dup1\n        /* \"#utility.yul\":187:199   */\n      revert\n        /* \"#utility.yul\":211:328   */\n    tag_85:\n        /* \"#utility.yul\":320:321   */\n      0x00\n        /* \"#utility.yul\":317:318   */\n      dup1\n        /* \"#utility.yul\":310:322   */\n      revert\n        /* \"#utility.yul\":334:411   */\n    tag_86:\n        /* \"#utility.yul\":371:378   */\n      0x00\n        /* \"#utility.yul\":400:405   */\n      dup2\n        /* \"#utility.yul\":389:405   */\n      swap1\n      pop\n        /* \"#utility.yul\":334:411   */\n      swap2\n      swap1\n      pop\n      jump\t// out\n        /* \"#utility.yul\":417:539   */\n    tag_87:\n        /* \"#utility.yul\":490:514   */\n      tag_132\n        /* \"#utility.yul\":508:513   */\n      dup2\n        /* \"#utility.yul\":490:514   */\n      tag_86\n      jump\t// in\n    tag_132:\n        /* \"#utility.yul\":483:488   */\n      dup2\n        /* \"#utility.yul\":480:515   */\n      eq\n        /* \"#utility.yul\":470:533   */\n      tag_133\n      jumpi\n        /* \"#utility.yul\":529:530   */\n      0x00\n        /* \"#utility.yul\":526:527   */\n      dup1\n        /* \"#utility.yul\":519:531   */\n      revert\n        /* \"#utility.yul\":470:533   */\n    tag_133:\n        /* \"#utility.yul\":417:539   */\n      pop\n      jump\t// out\n        /* \"#utility.yul\":545:684   */\n    tag_88:\n        /* \"#utility.yul\":591:596   */\n      0x00\n        /* \"#utility.yul\":629:635   */\n      dup2\n        /* \"#utility.yul\":616:636   */\n      calldataload\n        /* \"#utility.yul\":607:636   */\n      swap1\n      pop\n        /* \"#utility.yul\":645:678   */\n      tag_135\n        /* \"#utility.yul\":672:677   */\n      dup2\n        /* \"#utility.yul\":645:678   */\n      tag_87\n      jump\t// in\n    tag_135:\n        /* \"#utility.yul\":545:684   */\n      swap3\n      swap2\n      pop\n      pop\n      jump\t// out\n        /* \"#utility.yul\":690:1019   */\n    tag_13:\n        /* \"#utility.yul\":749:755   */\n      0x00\n        /* \"#utility.yul\":798:800   */\n      0x20\n        /* \"#utility.yul\":786:795   */\n      dup3\n        /* \"#utility.yul\":777:784   */\n      dup5\n        /* \"#utility.yul\":773:796   */\n      sub\n        /* \"#utility.yul\":769:801   */\n      slt\n        /* \"#utility.yul\":766:885   */\n      iszero\n      tag_137\n      jumpi\n        /* \"#utility.yul\":804:883   */\n      tag_138\n      tag_84\n      jump\t// in\n    tag_138:\n        /* \"#utility.yul\":766:885   */\n    tag_137:\n        /* \"#utility.yul\":924:925   */\n      0x00\n        /* \"#utility.yul\":949:1002   */\n      tag_139\n        /* \"#utility.yul\":994:1001   */\n      dup5\n        /* \"#utility.yul\":985:991   */\n      dup3\n        /* \"#utility.yul\":974:983   */\n      dup6\n        /* \"#utility.yul\":970:992   */\n      add\n        /* \"#utility.yul\":949:1002   */\n      tag_88\n      jump\t// in\n    tag_139:\n        /* \"#utility.yul\":939:1002   */\n      swap2\n      pop\n        /* \"#utility.yul\":895:1012   */\n      pop\n        /* \"#utility.yul\":690:1019   */\n      swap3\n      swap2\n      pop\n      pop\n      jump\t// out\n        /* \"#utility.yul\":1025:1151   */\n    tag_89:\n        /* \"#utility.yul\":1062:1069   */\n      0x00\n        /* \"#utility.yul\":1102:1144   */\n      0xffffffffffffffffffffffffffffffffffffffff\n        /* \"#utility.yul\":1095:1100   */\n      dup3\n        /* \"#utility.yul\":1091:1145   */\n      and\n        /* \"#utility.yul\":1080:1145   */\n      swap1\n      pop\n        /* \"#utility.yul\":1025:1151   */\n      swap2\n      swap1\n      pop\n      jump\t// out\n        /* \"#utility.yul\":1157:1253   */\n    tag_90:\n        /* \"#utility.yul\":1194:1201   */\n      0x00\n        /* \"#utility.yul\":1223:1247   */\n      tag_142\n        /* \"#utility.yul\":1241:1246   */\n      dup3\n        /* \"#utility.yul\":1223:1247   */\n      tag_89\n      jump\t// in\n    tag_142:\n        /* \"#utility.yul\":1212:1247   */\n      swap1\n      pop\n        /* \"#utility.yul\":1157:1253   */\n      swap2\n      swap1\n      pop\n      jump\t// out\n        /* \"#utility.yul\":1259:1377   */\n    tag_91:\n        /* \"#utility.yul\":1346:1370   */\n      tag_144\n        /* \"#utility.yul\":1364:1369   */\n      dup2\n        /* \"#utility.yul\":1346:1370   */\n      tag_90\n      jump\t// in\n    tag_144:\n        /* \"#utility.yul\":1341:1344   */\n      dup3\n        /* \"#utility.yul\":1334:1371   */\n      mstore\n        /* \"#utility.yul\":1259:1377   */\n      pop\n      pop\n      jump\t// out\n        /* \"#utility.yul\":1383:1501   */\n    tag_92:\n        /* \"#utility.yul\":1470:1494   */\n      tag_146\n        /* \"#utility.yul\":1488:1493   */\n      dup2\n        /* \"#utility.yul\":1470:1494   */\n      tag_86\n      jump\t// in\n    tag_146:\n        /* \"#utility.yul\":1465:1468   */\n      dup3\n        /* \"#utility.yul\":1458:1495   */\n      mstore\n        /* \"#utility.yul\":1383:1501   */\n      pop\n      pop\n      jump\t// out\n        /* \"#utility.yul\":1507:1597   */\n    tag_93:\n        /* \"#utility.yul\":1541:1548   */\n      0x00\n        /* \"#utility.yul\":1584:1589   */\n      dup2\n        /* \"#utility.yul\":1577:1590   */\n      iszero\n        /* \"#utility.yul\":1570:1591   */\n      iszero\n        /* \"#utility.yul\":1559:1591   */\n      swap1\n      pop\n        /* \"#utility.yul\":1507:1597   */\n      swap2\n      swap1\n      pop\n      jump\t// out\n        /* \"#utility.yul\":1603:1712   */\n    tag_94:\n        /* \"#utility.yul\":1684:1705   */\n      tag_149\n        /* \"#utility.yul\":1699:1704   */\n      dup2\n        /* \"#utility.yul\":1684:1705   */\n      tag_93\n      jump\t// in\n    tag_149:\n        /* \"#utility.yul\":1679:1682   */\n      dup3\n        /* \"#utility.yul\":1672:1706   */\n      mstore\n        /* \"#utility.yul\":1603:1712   */\n      pop\n      pop\n      jump\t// out\n        /* \"#utility.yul\":1718:2259   */\n    tag_19:\n        /* \"#utility.yul\":1889:1893   */\n      0x00\n        /* \"#utility.yul\":1927:1930   */\n      0x80\n        /* \"#utility.yul\":1916:1925   */\n      dup3\n        /* \"#utility.yul\":1912:1931   */\n      add\n        /* \"#utility.yul\":1904:1931   */\n      swap1\n      pop\n        /* \"#utility.yul\":1941:2012   */\n      tag_151\n        /* \"#utility.yul\":2009:2010   */\n      0x00\n        /* \"#utility.yul\":1998:2007   */\n      dup4\n        /* \"#utility.yul\":1994:2011   */\n      add\n        /* \"#utility.yul\":1985:1991   */\n      dup8\n        /* \"#utility.yul\":1941:2012   */\n      tag_91\n      jump\t// in\n    tag_151:\n        /* \"#utility.yul\":2022:2094   */\n      tag_152\n        /* \"#utility.yul\":2090:2092   */\n      0x20\n        /* \"#utility.yul\":2079:2088   */\n      dup4\n        /* \"#utility.yul\":2075:2093   */\n      add\n        /* \"#utility.yul\":2066:2072   */\n      dup7\n        /* \"#utility.yul\":2022:2094   */\n      tag_92\n      jump\t// in\n    tag_152:\n        /* \"#utility.yul\":2104:2176   */\n      tag_153\n        /* \"#utility.yul\":2172:2174   */\n      0x40\n        /* \"#utility.yul\":2161:2170   */\n      dup4\n        /* \"#utility.yul\":2157:2175   */\n      add\n        /* \"#utility.yul\":2148:2154   */\n      dup6\n        /* \"#utility.yul\":2104:2176   */\n      tag_92\n      jump\t// in\n    tag_153:\n        /* \"#utility.yul\":2186:2252   */\n      tag_154\n        /* \"#utility.yul\":2248:2250   */\n      0x60\n        /* \"#utility.yul\":2237:2246   */\n      dup4\n        /* \"#utility.yul\":2233:2251   */\n      add\n        /* \"#utility.yul\":2224:2230   */\n      dup5\n        /* \"#utility.yul\":2186:2252   */\n      tag_94\n      jump\t// in\n    tag_154:\n        /* \"#utility.yul\":1718:2259   */\n      swap6\n      swap5\n      pop\n      pop\n      pop\n      pop\n      pop\n      jump\t// out\n        /* \"#utility.yul\":2265:2373   */\n    tag_95:\n        /* \"#utility.yul\":2342:2366   */\n      tag_156\n        /* \"#utility.yul\":2360:2365   */\n      dup2\n        /* \"#utility.yul\":2342:2366   */\n      tag_90\n      jump\t// in\n    tag_156:\n        /* \"#utility.yul\":2337:2340   */\n      dup3\n        /* \"#utility.yul\":2330:2367   */\n      mstore\n        /* \"#utility.yul\":2265:2373   */\n      pop\n      pop\n      jump\t// out\n        /* \"#utility.yul\":2379:2487   */\n    tag_96:\n        /* \"#utility.yul\":2456:2480   */\n      tag_158\n        /* \"#utility.yul\":2474:2479   */\n      dup2\n        /* \"#utility.yul\":2456:2480   */\n      tag_86\n      jump\t// in\n    tag_158:\n        /* \"#utility.yul\":2451:2454   */\n      dup3\n        /* \"#utility.yul\":2444:2481   */\n      mstore\n        /* \"#utility.yul\":2379:2487   */\n      pop\n      pop\n      jump\t// out\n        /* \"#utility.yul\":2493:2607   */\n    tag_97:\n        /* \"#utility.yul\":2560:2566   */\n      0x00\n        /* \"#utility.yul\":2594:2599   */\n      dup2\n        /* \"#utility.yul\":2588:2600   */\n      mload\n        /* \"#utility.yul\":2578:2600   */\n      swap1\n      pop\n        /* \"#utility.yul\":2493:2607   */\n      swap2\n      swap1\n      pop\n      jump\t// out\n        /* \"#utility.yul\":2613:2787   */\n    tag_98:\n        /* \"#utility.yul\":2702:2713   */\n      0x00\n        /* \"#utility.yul\":2736:2742   */\n      dup3\n        /* \"#utility.yul\":2731:2734   */\n      dup3\n        /* \"#utility.yul\":2724:2743   */\n      mstore\n        /* \"#utility.yul\":2776:2780   */\n      0x20\n        /* \"#utility.yul\":2771:2774   */\n      dup3\n        /* \"#utility.yul\":2767:2781   */\n      add\n        /* \"#utility.yul\":2752:2781   */\n      swap1\n      pop\n        /* \"#utility.yul\":2613:2787   */\n      swap3\n      swap2\n      pop\n      pop\n      jump\t// out\n        /* \"#utility.yul\":2793:2925   */\n    tag_99:\n        /* \"#utility.yul\":2860:2864   */\n      0x00\n        /* \"#utility.yul\":2883:2886   */\n      dup2\n        /* \"#utility.yul\":2875:2886   */\n      swap1\n      pop\n        /* \"#utility.yul\":2913:2917   */\n      0x20\n        /* \"#utility.yul\":2908:2911   */\n      dup3\n        /* \"#utility.yul\":2904:2918   */\n      add\n        /* \"#utility.yul\":2896:2918   */\n      swap1\n      pop\n        /* \"#utility.yul\":2793:2925   */\n      swap2\n      swap1\n      pop\n      jump\t// out\n        /* \"#utility.yul\":2931:3110   */\n    tag_100:\n        /* \"#utility.yul\":3000:3010   */\n      0x00\n        /* \"#utility.yul\":3021:3067   */\n      tag_163\n        /* \"#utility.yul\":3063:3066   */\n      dup4\n        /* \"#utility.yul\":3055:3061   */\n      dup4\n        /* \"#utility.yul\":3021:3067   */\n      tag_95\n      jump\t// in\n    tag_163:\n        /* \"#utility.yul\":3099:3103   */\n      0x20\n        /* \"#utility.yul\":3094:3097   */\n      dup4\n        /* \"#utility.yul\":3090:3104   */\n      add\n        /* \"#utility.yul\":3076:3104   */\n      swap1\n      pop\n        /* \"#utility.yul\":2931:3110   */\n      swap3\n      swap2\n      pop\n      pop\n      jump\t// out\n        /* \"#utility.yul\":3116:3229   */\n    tag_101:\n        /* \"#utility.yul\":3186:3190   */\n      0x00\n        /* \"#utility.yul\":3218:3222   */\n      0x20\n        /* \"#utility.yul\":3213:3216   */\n      dup3\n        /* \"#utility.yul\":3209:3223   */\n      add\n        /* \"#utility.yul\":3201:3223   */\n      swap1\n      pop\n        /* \"#utility.yul\":3116:3229   */\n      swap2\n      swap1\n      pop\n      jump\t// out\n        /* \"#utility.yul\":3265:3977   */\n    tag_102:\n        /* \"#utility.yul\":3374:3377   */\n      0x00\n        /* \"#utility.yul\":3403:3457   */\n      tag_166\n        /* \"#utility.yul\":3451:3456   */\n      dup3\n        /* \"#utility.yul\":3403:3457   */\n      tag_97\n      jump\t// in\n    tag_166:\n        /* \"#utility.yul\":3473:3549   */\n      tag_167\n        /* \"#utility.yul\":3542:3548   */\n      dup2\n        /* \"#utility.yul\":3537:3540   */\n      dup6\n        /* \"#utility.yul\":3473:3549   */\n      tag_98\n      jump\t// in\n    tag_167:\n        /* \"#utility.yul\":3466:3549   */\n      swap4\n      pop\n        /* \"#utility.yul\":3573:3629   */\n      tag_168\n        /* \"#utility.yul\":3623:3628   */\n      dup4\n        /* \"#utility.yul\":3573:3629   */\n      tag_99\n      jump\t// in\n    tag_168:\n        /* \"#utility.yul\":3652:3659   */\n      dup1\n        /* \"#utility.yul\":3683:3684   */\n      0x00\n        /* \"#utility.yul\":3668:3952   */\n    tag_169:\n        /* \"#utility.yul\":3693:3699   */\n      dup4\n        /* \"#utility.yul\":3690:3691   */\n      dup2\n        /* \"#utility.yul\":3687:3700   */\n      lt\n        /* \"#utility.yul\":3668:3952   */\n      iszero\n      tag_171\n      jumpi\n        /* \"#utility.yul\":3769:3775   */\n      dup2\n        /* \"#utility.yul\":3763:3776   */\n      mload\n        /* \"#utility.yul\":3796:3859   */\n      tag_172\n        /* \"#utility.yul\":3855:3858   */\n      dup9\n        /* \"#utility.yul\":3840:3853   */\n      dup3\n        /* \"#utility.yul\":3796:3859   */\n      tag_100\n      jump\t// in\n    tag_172:\n        /* \"#utility.yul\":3789:3859   */\n      swap8\n      pop\n        /* \"#utility.yul\":3882:3942   */\n      tag_173\n        /* \"#utility.yul\":3935:3941   */\n      dup4\n        /* \"#utility.yul\":3882:3942   */\n      tag_101\n      jump\t// in\n    tag_173:\n        /* \"#utility.yul\":3872:3942   */\n      swap3\n      pop\n        /* \"#utility.yul\":3728:3952   */\n      pop\n        /* \"#utility.yul\":3715:3716   */\n      0x01\n        /* \"#utility.yul\":3712:3713   */\n      dup2\n        /* \"#utility.yul\":3708:3717   */\n      add\n        /* \"#utility.yul\":3703:3717   */\n      swap1\n      pop\n        /* \"#utility.yul\":3668:3952   */\n      jump(tag_169)\n    tag_171:\n        /* \"#utility.yul\":3672:3686   */\n      pop\n        /* \"#utility.yul\":3968:3971   */\n      dup6\n        /* \"#utility.yul\":3961:3971   */\n      swap4\n      pop\n        /* \"#utility.yul\":3379:3977   */\n      pop\n      pop\n      pop\n        /* \"#utility.yul\":3265:3977   */\n      swap3\n      swap2\n      pop\n      pop\n      jump\t// out\n        /* \"#utility.yul\":3983:4082   */\n    tag_103:\n        /* \"#utility.yul\":4054:4075   */\n      tag_175\n        /* \"#utility.yul\":4069:4074   */\n      dup2\n        /* \"#utility.yul\":4054:4075   */\n      tag_93\n      jump\t// in\n    tag_175:\n        /* \"#utility.yul\":4049:4052   */\n      dup3\n        /* \"#utility.yul\":4042:4076   */\n      mstore\n        /* \"#utility.yul\":3983:4082   */\n      pop\n      pop\n      jump\t// out\n        /* \"#utility.yul\":4166:5353   */\n    tag_104:\n        /* \"#utility.yul\":4293:4296   */\n      0x00\n        /* \"#utility.yul\":4329:4333   */\n      0xa0\n        /* \"#utility.yul\":4324:4327   */\n      dup4\n        /* \"#utility.yul\":4320:4334   */\n      add\n        /* \"#utility.yul\":4419:4423   */\n      0x00\n        /* \"#utility.yul\":4412:4417   */\n      dup4\n        /* \"#utility.yul\":4408:4424   */\n      add\n        /* \"#utility.yul\":4402:4425   */\n      mload\n        /* \"#utility.yul\":4438:4501   */\n      tag_177\n        /* \"#utility.yul\":4495:4499   */\n      0x00\n        /* \"#utility.yul\":4490:4493   */\n      dup7\n        /* \"#utility.yul\":4486:4500   */\n      add\n        /* \"#utility.yul\":4472:4484   */\n      dup3\n        /* \"#utility.yul\":4438:4501   */\n      tag_95\n      jump\t// in\n    tag_177:\n        /* \"#utility.yul\":4344:4511   */\n      pop\n        /* \"#utility.yul\":4600:4604   */\n      0x20\n        /* \"#utility.yul\":4593:4598   */\n      dup4\n        /* \"#utility.yul\":4589:4605   */\n      add\n        /* \"#utility.yul\":4583:4606   */\n      mload\n        /* \"#utility.yul\":4619:4682   */\n      tag_178\n        /* \"#utility.yul\":4676:4680   */\n      0x20\n        /* \"#utility.yul\":4671:4674   */\n      dup7\n        /* \"#utility.yul\":4667:4681   */\n      add\n        /* \"#utility.yul\":4653:4665   */\n      dup3\n        /* \"#utility.yul\":4619:4682   */\n      tag_96\n      jump\t// in\n    tag_178:\n        /* \"#utility.yul\":4521:4692   */\n      pop\n        /* \"#utility.yul\":4774:4778   */\n      0x40\n        /* \"#utility.yul\":4767:4772   */\n      dup4\n        /* \"#utility.yul\":4763:4779   */\n      add\n        /* \"#utility.yul\":4757:4780   */\n      mload\n        /* \"#utility.yul\":4827:4830   */\n      dup5\n        /* \"#utility.yul\":4821:4825   */\n      dup3\n        /* \"#utility.yul\":4817:4831   */\n      sub\n        /* \"#utility.yul\":4810:4814   */\n      0x40\n        /* \"#utility.yul\":4805:4808   */\n      dup7\n        /* \"#utility.yul\":4801:4815   */\n      add\n        /* \"#utility.yul\":4794:4832   */\n      mstore\n        /* \"#utility.yul\":4853:4956   */\n      tag_179\n        /* \"#utility.yul\":4951:4955   */\n      dup3\n        /* \"#utility.yul\":4937:4949   */\n      dup3\n        /* \"#utility.yul\":4853:4956   */\n      tag_102\n      jump\t// in\n    tag_179:\n        /* \"#utility.yul\":4845:4956   */\n      swap2\n      pop\n        /* \"#utility.yul\":4702:4967   */\n      pop\n        /* \"#utility.yul\":5062:5066   */\n      0x60\n        /* \"#utility.yul\":5055:5060   */\n      dup4\n        /* \"#utility.yul\":5051:5067   */\n      add\n        /* \"#utility.yul\":5045:5068   */\n      mload\n        /* \"#utility.yul\":5081:5144   */\n      tag_180\n        /* \"#utility.yul\":5138:5142   */\n      0x60\n        /* \"#utility.yul\":5133:5136   */\n      dup7\n        /* \"#utility.yul\":5129:5143   */\n      add\n        /* \"#utility.yul\":5115:5127   */\n      dup3\n        /* \"#utility.yul\":5081:5144   */\n      tag_96\n      jump\t// in\n    tag_180:\n        /* \"#utility.yul\":4977:5154   */\n      pop\n        /* \"#utility.yul\":5240:5244   */\n      0x80\n        /* \"#utility.yul\":5233:5238   */\n      dup4\n        /* \"#utility.yul\":5229:5245   */\n      add\n        /* \"#utility.yul\":5223:5246   */\n      mload\n        /* \"#utility.yul\":5259:5316   */\n      tag_181\n        /* \"#utility.yul\":5310:5314   */\n      0x80\n        /* \"#utility.yul\":5305:5308   */\n      dup7\n        /* \"#utility.yul\":5301:5315   */\n      add\n        /* \"#utility.yul\":5287:5299   */\n      dup3\n        /* \"#utility.yul\":5259:5316   */\n      tag_103\n      jump\t// in\n    tag_181:\n        /* \"#utility.yul\":5164:5326   */\n      pop\n        /* \"#utility.yul\":5343:5347   */\n      dup1\n        /* \"#utility.yul\":5336:5347   */\n      swap2\n      pop\n        /* \"#utility.yul\":4298:5353   */\n      pop\n        /* \"#utility.yul\":4166:5353   */\n      swap3\n      swap2\n      pop\n      pop\n      jump\t// out\n        /* \"#utility.yul\":5359:5748   */\n    tag_24:\n        /* \"#utility.yul\":5510:5514   */\n      0x00\n        /* \"#utility.yul\":5548:5550   */\n      0x20\n        /* \"#utility.yul\":5537:5546   */\n      dup3\n        /* \"#utility.yul\":5533:5551   */\n      add\n        /* \"#utility.yul\":5525:5551   */\n      swap1\n      pop\n        /* \"#utility.yul\":5597:5606   */\n      dup2\n        /* \"#utility.yul\":5591:5595   */\n      dup2\n        /* \"#utility.yul\":5587:5607   */\n      sub\n        /* \"#utility.yul\":5583:5584   */\n      0x00\n        /* \"#utility.yul\":5572:5581   */\n      dup4\n        /* \"#utility.yul\":5568:5585   */\n      add\n        /* \"#utility.yul\":5561:5608   */\n      mstore\n        /* \"#utility.yul\":5625:5741   */\n      tag_183\n        /* \"#utility.yul\":5736:5740   */\n      dup2\n        /* \"#utility.yul\":5727:5733   */\n      dup5\n        /* \"#utility.yul\":5625:5741   */\n      tag_104\n      jump\t// in\n    tag_183:\n        /* \"#utility.yul\":5617:5741   */\n      swap1\n      pop\n        /* \"#utility.yul\":5359:5748   */\n      swap3\n      swap2\n      pop\n      pop\n      jump\t// out\n        /* \"#utility.yul\":5754:5871   */\n    tag_105:\n        /* \"#utility.yul\":5863:5864   */\n      0x00\n        /* \"#utility.yul\":5860:5861   */\n      dup1\n        /* \"#utility.yul\":5853:5865   */\n      revert\n        /* \"#utility.yul\":5877:5979   */\n    tag_106:\n        /* \"#utility.yul\":5918:5924   */\n      0x00\n        /* \"#utility.yul\":5969:5971   */\n      0x1f\n        /* \"#utility.yul\":5965:5972   */\n      not\n        /* \"#utility.yul\":5960:5962   */\n      0x1f\n        /* \"#utility.yul\":5953:5958   */\n      dup4\n        /* \"#utility.yul\":5949:5963   */\n      add\n        /* \"#utility.yul\":5945:5973   */\n      and\n        /* \"#utility.yul\":5935:5973   */\n      swap1\n      pop\n        /* \"#utility.yul\":5877:5979   */\n      swap2\n      swap1\n      pop\n      jump\t// out\n        /* \"#utility.yul\":5985:6165   */\n    tag_107:\n        /* \"#utility.yul\":6033:6110   */\n      0x4e487b7100000000000000000000000000000000000000000000000000000000\n        /* \"#utility.yul\":6030:6031   */\n      0x00\n        /* \"#utility.yul\":6023:6111   */\n      mstore\n        /* \"#utility.yul\":6130:6134   */\n      0x41\n        /* \"#utility.yul\":6127:6128   */\n      0x04\n        /* \"#utility.yul\":6120:6135   */\n      mstore\n        /* \"#utility.yul\":6154:6158   */\n      0x24\n        /* \"#utility.yul\":6151:6152   */\n      0x00\n        /* \"#utility.yul\":6144:6159   */\n      revert\n        /* \"#utility.yul\":6171:6452   */\n    tag_108:\n        /* \"#utility.yul\":6254:6281   */\n      tag_188\n        /* \"#utility.yul\":6276:6280   */\n      dup3\n        /* \"#utility.yul\":6254:6281   */\n      tag_106\n      jump\t// in\n    tag_188:\n        /* \"#utility.yul\":6246:6252   */\n      dup2\n        /* \"#utility.yul\":6242:6282   */\n      add\n        /* \"#utility.yul\":6384:6390   */\n      dup2\n        /* \"#utility.yul\":6372:6382   */\n      dup2\n        /* \"#utility.yul\":6369:6391   */\n      lt\n        /* \"#utility.yul\":6348:6366   */\n      0xffffffffffffffff\n        /* \"#utility.yul\":6336:6346   */\n      dup3\n        /* \"#utility.yul\":6333:6367   */\n      gt\n        /* \"#utility.yul\":6330:6392   */\n      or\n        /* \"#utility.yul\":6327:6415   */\n      iszero\n      tag_189\n      jumpi\n        /* \"#utility.yul\":6395:6413   */\n      tag_190\n      tag_107\n      jump\t// in\n    tag_190:\n        /* \"#utility.yul\":6327:6415   */\n    tag_189:\n        /* \"#utility.yul\":6435:6445   */\n      dup1\n        /* \"#utility.yul\":6431:6433   */\n      0x40\n        /* \"#utility.yul\":6424:6446   */\n      mstore\n        /* \"#utility.yul\":6214:6452   */\n      pop\n        /* \"#utility.yul\":6171:6452   */\n      pop\n      pop\n      jump\t// out\n        /* \"#utility.yul\":6458:6587   */\n    tag_109:\n        /* \"#utility.yul\":6492:6498   */\n      0x00\n        /* \"#utility.yul\":6519:6539   */\n      tag_192\n      tag_83\n      jump\t// in\n    tag_192:\n        /* \"#utility.yul\":6509:6539   */\n      swap1\n      pop\n        /* \"#utility.yul\":6548:6581   */\n      tag_193\n        /* \"#utility.yul\":6576:6580   */\n      dup3\n        /* \"#utility.yul\":6568:6574   */\n      dup3\n        /* \"#utility.yul\":6548:6581   */\n      tag_108\n      jump\t// in\n    tag_193:\n        /* \"#utility.yul\":6458:6587   */\n      swap2\n      swap1\n      pop\n      jump\t// out\n        /* \"#utility.yul\":6593:6904   */\n    tag_110:\n        /* \"#utility.yul\":6670:6674   */\n      0x00\n        /* \"#utility.yul\":6760:6778   */\n      0xffffffffffffffff\n        /* \"#utility.yul\":6752:6758   */\n      dup3\n        /* \"#utility.yul\":6749:6779   */\n      gt\n        /* \"#utility.yul\":6746:6802   */\n      iszero\n      tag_195\n      jumpi\n        /* \"#utility.yul\":6782:6800   */\n      tag_196\n      tag_107\n      jump\t// in\n    tag_196:\n        /* \"#utility.yul\":6746:6802   */\n    tag_195:\n        /* \"#utility.yul\":6832:6836   */\n      0x20\n        /* \"#utility.yul\":6824:6830   */\n      dup3\n        /* \"#utility.yul\":6820:6837   */\n      mul\n        /* \"#utility.yul\":6812:6837   */\n      swap1\n      pop\n        /* \"#utility.yul\":6892:6896   */\n      0x20\n        /* \"#utility.yul\":6886:6890   */\n      dup2\n        /* \"#utility.yul\":6882:6897   */\n      add\n        /* \"#utility.yul\":6874:6897   */\n      swap1\n      pop\n        /* \"#utility.yul\":6593:6904   */\n      swap2\n      swap1\n      pop\n      jump\t// out\n        /* \"#utility.yul\":6910:7027   */\n    tag_111:\n        /* \"#utility.yul\":7019:7020   */\n      0x00\n        /* \"#utility.yul\":7016:7017   */\n      dup1\n        /* \"#utility.yul\":7009:7021   */\n      revert\n        /* \"#utility.yul\":7033:7155   */\n    tag_112:\n        /* \"#utility.yul\":7106:7130   */\n      tag_199\n        /* \"#utility.yul\":7124:7129   */\n      dup2\n        /* \"#utility.yul\":7106:7130   */\n      tag_90\n      jump\t// in\n    tag_199:\n        /* \"#utility.yul\":7099:7104   */\n      dup2\n        /* \"#utility.yul\":7096:7131   */\n      eq\n        /* \"#utility.yul\":7086:7149   */\n      tag_200\n      jumpi\n        /* \"#utility.yul\":7145:7146   */\n      0x00\n        /* \"#utility.yul\":7142:7143   */\n      dup1\n        /* \"#utility.yul\":7135:7147   */\n      revert\n        /* \"#utility.yul\":7086:7149   */\n    tag_200:\n        /* \"#utility.yul\":7033:7155   */\n      pop\n      jump\t// out\n        /* \"#utility.yul\":7161:7300   */\n    tag_113:\n        /* \"#utility.yul\":7207:7212   */\n      0x00\n        /* \"#utility.yul\":7245:7251   */\n      dup2\n        /* \"#utility.yul\":7232:7252   */\n      calldataload\n        /* \"#utility.yul\":7223:7252   */\n      swap1\n      pop\n        /* \"#utility.yul\":7261:7294   */\n      tag_202\n        /* \"#utility.yul\":7288:7293   */\n      dup2\n        /* \"#utility.yul\":7261:7294   */\n      tag_112\n      jump\t// in\n    tag_202:\n        /* \"#utility.yul\":7161:7300   */\n      swap3\n      swap2\n      pop\n      pop\n      jump\t// out\n        /* \"#utility.yul\":7323:8033   */\n    tag_114:\n        /* \"#utility.yul\":7419:7424   */\n      0x00\n        /* \"#utility.yul\":7444:7525   */\n      tag_204\n        /* \"#utility.yul\":7460:7524   */\n      tag_205\n        /* \"#utility.yul\":7517:7523   */\n      dup5\n        /* \"#utility.yul\":7460:7524   */\n      tag_110\n      jump\t// in\n    tag_205:\n        /* \"#utility.yul\":7444:7525   */\n      tag_109\n      jump\t// in\n    tag_204:\n        /* \"#utility.yul\":7435:7525   */\n      swap1\n      pop\n        /* \"#utility.yul\":7545:7550   */\n      dup1\n        /* \"#utility.yul\":7574:7580   */\n      dup4\n        /* \"#utility.yul\":7567:7572   */\n      dup3\n        /* \"#utility.yul\":7560:7581   */\n      mstore\n        /* \"#utility.yul\":7608:7612   */\n      0x20\n        /* \"#utility.yul\":7601:7606   */\n      dup3\n        /* \"#utility.yul\":7597:7613   */\n      add\n        /* \"#utility.yul\":7590:7613   */\n      swap1\n      pop\n        /* \"#utility.yul\":7661:7665   */\n      0x20\n        /* \"#utility.yul\":7653:7659   */\n      dup5\n        /* \"#utility.yul\":7649:7666   */\n      mul\n        /* \"#utility.yul\":7641:7647   */\n      dup4\n        /* \"#utility.yul\":7637:7667   */\n      add\n        /* \"#utility.yul\":7690:7693   */\n      dup6\n        /* \"#utility.yul\":7682:7688   */\n      dup2\n        /* \"#utility.yul\":7679:7694   */\n      gt\n        /* \"#utility.yul\":7676:7798   */\n      iszero\n      tag_206\n      jumpi\n        /* \"#utility.yul\":7709:7788   */\n      tag_207\n      tag_111\n      jump\t// in\n    tag_207:\n        /* \"#utility.yul\":7676:7798   */\n    tag_206:\n        /* \"#utility.yul\":7824:7830   */\n      dup4\n        /* \"#utility.yul\":7807:8027   */\n    tag_208:\n        /* \"#utility.yul\":7841:7847   */\n      dup2\n        /* \"#utility.yul\":7836:7839   */\n      dup2\n        /* \"#utility.yul\":7833:7848   */\n      lt\n        /* \"#utility.yul\":7807:8027   */\n      iszero\n      tag_210\n      jumpi\n        /* \"#utility.yul\":7916:7919   */\n      dup1\n        /* \"#utility.yul\":7945:7982   */\n      tag_211\n        /* \"#utility.yul\":7978:7981   */\n      dup9\n        /* \"#utility.yul\":7966:7976   */\n      dup3\n        /* \"#utility.yul\":7945:7982   */\n      tag_113\n      jump\t// in\n    tag_211:\n        /* \"#utility.yul\":7940:7943   */\n      dup5\n        /* \"#utility.yul\":7933:7983   */\n      mstore\n        /* \"#utility.yul\":8012:8016   */\n      0x20\n        /* \"#utility.yul\":8007:8010   */\n      dup5\n        /* \"#utility.yul\":8003:8017   */\n      add\n        /* \"#utility.yul\":7996:8017   */\n      swap4\n      pop\n        /* \"#utility.yul\":7883:8027   */\n      pop\n        /* \"#utility.yul\":7867:7871   */\n      0x20\n        /* \"#utility.yul\":7862:7865   */\n      dup2\n        /* \"#utility.yul\":7858:7872   */\n      add\n        /* \"#utility.yul\":7851:7872   */\n      swap1\n      pop\n        /* \"#utility.yul\":7807:8027   */\n      jump(tag_208)\n    tag_210:\n        /* \"#utility.yul\":7811:7832   */\n      pop\n        /* \"#utility.yul\":7425:8033   */\n      pop\n      pop\n        /* \"#utility.yul\":7323:8033   */\n      swap4\n      swap3\n      pop\n      pop\n      pop\n      jump\t// out\n        /* \"#utility.yul\":8056:8426   */\n    tag_115:\n        /* \"#utility.yul\":8127:8132   */\n      0x00\n        /* \"#utility.yul\":8176:8179   */\n      dup3\n        /* \"#utility.yul\":8169:8173   */\n      0x1f\n        /* \"#utility.yul\":8161:8167   */\n      dup4\n        /* \"#utility.yul\":8157:8174   */\n      add\n        /* \"#utility.yul\":8153:8180   */\n      slt\n        /* \"#utility.yul\":8143:8265   */\n      tag_213\n      jumpi\n        /* \"#utility.yul\":8184:8263   */\n      tag_214\n      tag_105\n      jump\t// in\n    tag_214:\n        /* \"#utility.yul\":8143:8265   */\n    tag_213:\n        /* \"#utility.yul\":8301:8307   */\n      dup2\n        /* \"#utility.yul\":8288:8308   */\n      calldataload\n        /* \"#utility.yul\":8326:8420   */\n      tag_215\n        /* \"#utility.yul\":8416:8419   */\n      dup5\n        /* \"#utility.yul\":8408:8414   */\n      dup3\n        /* \"#utility.yul\":8401:8405   */\n      0x20\n        /* \"#utility.yul\":8393:8399   */\n      dup7\n        /* \"#utility.yul\":8389:8406   */\n      add\n        /* \"#utility.yul\":8326:8420   */\n      tag_114\n      jump\t// in\n    tag_215:\n        /* \"#utility.yul\":8317:8420   */\n      swap2\n      pop\n        /* \"#utility.yul\":8133:8426   */\n      pop\n        /* \"#utility.yul\":8056:8426   */\n      swap3\n      swap2\n      pop\n      pop\n      jump\t// out\n        /* \"#utility.yul\":8432:9116   */\n    tag_27:\n        /* \"#utility.yul\":8525:8531   */\n      0x00\n        /* \"#utility.yul\":8533:8539   */\n      dup1\n        /* \"#utility.yul\":8582:8584   */\n      0x40\n        /* \"#utility.yul\":8570:8579   */\n      dup4\n        /* \"#utility.yul\":8561:8568   */\n      dup6\n        /* \"#utility.yul\":8557:8580   */\n      sub\n        /* \"#utility.yul\":8553:8585   */\n      slt\n        /* \"#utility.yul\":8550:8669   */\n      iszero\n      tag_217\n      jumpi\n        /* \"#utility.yul\":8588:8667   */\n      tag_218\n      tag_84\n      jump\t// in\n    tag_218:\n        /* \"#utility.yul\":8550:8669   */\n    tag_217:\n        /* \"#utility.yul\":8708:8709   */\n      0x00\n        /* \"#utility.yul\":8733:8786   */\n      tag_219\n        /* \"#utility.yul\":8778:8785   */\n      dup6\n        /* \"#utility.yul\":8769:8775   */\n      dup3\n        /* \"#utility.yul\":8758:8767   */\n      dup7\n        /* \"#utility.yul\":8754:8776   */\n      add\n        /* \"#utility.yul\":8733:8786   */\n      tag_88\n      jump\t// in\n    tag_219:\n        /* \"#utility.yul\":8723:8786   */\n      swap3\n      pop\n        /* \"#utility.yul\":8679:8796   */\n      pop\n        /* \"#utility.yul\":8863:8865   */\n      0x20\n        /* \"#utility.yul\":8852:8861   */\n      dup4\n        /* \"#utility.yul\":8848:8866   */\n      add\n        /* \"#utility.yul\":8835:8867   */\n      calldataload\n        /* \"#utility.yul\":8894:8912   */\n      0xffffffffffffffff\n        /* \"#utility.yul\":8886:8892   */\n      dup2\n        /* \"#utility.yul\":8883:8913   */\n      gt\n        /* \"#utility.yul\":8880:8997   */\n      iszero\n      tag_220\n      jumpi\n        /* \"#utility.yul\":8916:8995   */\n      tag_221\n      tag_85\n      jump\t// in\n    tag_221:\n        /* \"#utility.yul\":8880:8997   */\n    tag_220:\n        /* \"#utility.yul\":9021:9099   */\n      tag_222\n        /* \"#utility.yul\":9091:9098   */\n      dup6\n        /* \"#utility.yul\":9082:9088   */\n      dup3\n        /* \"#utility.yul\":9071:9080   */\n      dup7\n        /* \"#utility.yul\":9067:9089   */\n      add\n        /* \"#utility.yul\":9021:9099   */\n      tag_115\n      jump\t// in\n    tag_222:\n        /* \"#utility.yul\":9011:9099   */\n      swap2\n      pop\n        /* \"#utility.yul\":8806:9109   */\n      pop\n        /* \"#utility.yul\":8432:9116   */\n      swap3\n      pop\n      swap3\n      swap1\n      pop\n      jump\t// out\n        /* \"#utility.yul\":9122:9344   */\n    tag_32:\n        /* \"#utility.yul\":9215:9219   */\n      0x00\n        /* \"#utility.yul\":9253:9255   */\n      0x20\n        /* \"#utility.yul\":9242:9251   */\n      dup3\n        /* \"#utility.yul\":9238:9256   */\n      add\n        /* \"#utility.yul\":9230:9256   */\n      swap1\n      pop\n        /* \"#utility.yul\":9266:9337   */\n      tag_224\n        /* \"#utility.yul\":9334:9335   */\n      0x00\n        /* \"#utility.yul\":9323:9332   */\n      dup4\n        /* \"#utility.yul\":9319:9336   */\n      add\n        /* \"#utility.yul\":9310:9316   */\n      dup5\n        /* \"#utility.yul\":9266:9337   */\n      tag_92\n      jump\t// in\n    tag_224:\n        /* \"#utility.yul\":9122:9344   */\n      swap3\n      swap2\n      pop\n      pop\n      jump\t// out\n        /* \"#utility.yul\":9350:9519   */\n    tag_116:\n        /* \"#utility.yul\":9434:9445   */\n      0x00\n        /* \"#utility.yul\":9468:9474   */\n      dup3\n        /* \"#utility.yul\":9463:9466   */\n      dup3\n        /* \"#utility.yul\":9456:9475   */\n      mstore\n        /* \"#utility.yul\":9508:9512   */\n      0x20\n        /* \"#utility.yul\":9503:9506   */\n      dup3\n        /* \"#utility.yul\":9499:9513   */\n      add\n        /* \"#utility.yul\":9484:9513   */\n      swap1\n      pop\n        /* \"#utility.yul\":9350:9519   */\n      swap3\n      swap2\n      pop\n      pop\n      jump\t// out\n        /* \"#utility.yul\":9525:9694   */\n    tag_117:\n        /* \"#utility.yul\":9665:9686   */\n      0x4f66666572206973206e6f742061637469766500000000000000000000000000\n        /* \"#utility.yul\":9661:9662   */\n      0x00\n        /* \"#utility.yul\":9653:9659   */\n      dup3\n        /* \"#utility.yul\":9649:9663   */\n      add\n        /* \"#utility.yul\":9642:9687   */\n      mstore\n        /* \"#utility.yul\":9525:9694   */\n      pop\n      jump\t// out\n        /* \"#utility.yul\":9700:10066   */\n    tag_118:\n        /* \"#utility.yul\":9842:9845   */\n      0x00\n        /* \"#utility.yul\":9863:9930   */\n      tag_228\n        /* \"#utility.yul\":9927:9929   */\n      0x13\n        /* \"#utility.yul\":9922:9925   */\n      dup4\n        /* \"#utility.yul\":9863:9930   */\n      tag_116\n      jump\t// in\n    tag_228:\n        /* \"#utility.yul\":9856:9930   */\n      swap2\n      pop\n        /* \"#utility.yul\":9939:10032   */\n      tag_229\n        /* \"#utility.yul\":10028:10031   */\n      dup3\n        /* \"#utility.yul\":9939:10032   */\n      tag_117\n      jump\t// in\n    tag_229:\n        /* \"#utility.yul\":10057:10059   */\n      0x20\n        /* \"#utility.yul\":10052:10055   */\n      dup3\n        /* \"#utility.yul\":10048:10060   */\n      add\n        /* \"#utility.yul\":10041:10060   */\n      swap1\n      pop\n        /* \"#utility.yul\":9700:10066   */\n      swap2\n      swap1\n      pop\n      jump\t// out\n        /* \"#utility.yul\":10072:10491   */\n    tag_42:\n        /* \"#utility.yul\":10238:10242   */\n      0x00\n        /* \"#utility.yul\":10276:10278   */\n      0x20\n        /* \"#utility.yul\":10265:10274   */\n      dup3\n        /* \"#utility.yul\":10261:10279   */\n      add\n        /* \"#utility.yul\":10253:10279   */\n      swap1\n      pop\n        /* \"#utility.yul\":10325:10334   */\n      dup2\n        /* \"#utility.yul\":10319:10323   */\n      dup2\n        /* \"#utility.yul\":10315:10335   */\n      sub\n        /* \"#utility.yul\":10311:10312   */\n      0x00\n        /* \"#utility.yul\":10300:10309   */\n      dup4\n        /* \"#utility.yul\":10296:10313   */\n      add\n        /* \"#utility.yul\":10289:10336   */\n      mstore\n        /* \"#utility.yul\":10353:10484   */\n      tag_231\n        /* \"#utility.yul\":10479:10483   */\n      dup2\n        /* \"#utility.yul\":10353:10484   */\n      tag_118\n      jump\t// in\n    tag_231:\n        /* \"#utility.yul\":10345:10484   */\n      swap1\n      pop\n        /* \"#utility.yul\":10072:10491   */\n      swap2\n      swap1\n      pop\n      jump\t// out\n        /* \"#utility.yul\":10497:10829   */\n    tag_44:\n        /* \"#utility.yul\":10618:10622   */\n      0x00\n        /* \"#utility.yul\":10656:10658   */\n      0x40\n        /* \"#utility.yul\":10645:10654   */\n      dup3\n        /* \"#utility.yul\":10641:10659   */\n      add\n        /* \"#utility.yul\":10633:10659   */\n      swap1\n      pop\n        /* \"#utility.yul\":10669:10740   */\n      tag_233\n        /* \"#utility.yul\":10737:10738   */\n      0x00\n        /* \"#utility.yul\":10726:10735   */\n      dup4\n        /* \"#utility.yul\":10722:10739   */\n      add\n        /* \"#utility.yul\":10713:10719   */\n      dup6\n        /* \"#utility.yul\":10669:10740   */\n      tag_92\n      jump\t// in\n    tag_233:\n        /* \"#utility.yul\":10750:10822   */\n      tag_234\n        /* \"#utility.yul\":10818:10820   */\n      0x20\n        /* \"#utility.yul\":10807:10816   */\n      dup4\n        /* \"#utility.yul\":10803:10821   */\n      add\n        /* \"#utility.yul\":10794:10800   */\n      dup5\n        /* \"#utility.yul\":10750:10822   */\n      tag_91\n      jump\t// in\n    tag_234:\n        /* \"#utility.yul\":10497:10829   */\n      swap4\n      swap3\n      pop\n      pop\n      pop\n      jump\t// out\n        /* \"#utility.yul\":10835:11008   */\n    tag_119:\n        /* \"#utility.yul\":10975:11000   */\n      0x4f6e6c79206f6666657265722063616e206d6f64696679000000000000000000\n        /* \"#utility.yul\":10971:10972   */\n      0x00\n        /* \"#utility.yul\":10963:10969   */\n      dup3\n        /* \"#utility.yul\":10959:10973   */\n      add\n        /* \"#utility.yul\":10952:11001   */\n      mstore\n        /* \"#utility.yul\":10835:11008   */\n      pop\n      jump\t// out\n        /* \"#utility.yul\":11014:11380   */\n    tag_120:\n        /* \"#utility.yul\":11156:11159   */\n      0x00\n        /* \"#utility.yul\":11177:11244   */\n      tag_237\n        /* \"#utility.yul\":11241:11243   */\n      0x17\n        /* \"#utility.yul\":11236:11239   */\n      dup4\n        /* \"#utility.yul\":11177:11244   */\n      tag_116\n      jump\t// in\n    tag_237:\n        /* \"#utility.yul\":11170:11244   */\n      swap2\n      pop\n        /* \"#utility.yul\":11253:11346   */\n      tag_238\n        /* \"#utility.yul\":11342:11345   */\n      dup3\n        /* \"#utility.yul\":11253:11346   */\n      tag_119\n      jump\t// in\n    tag_238:\n        /* \"#utility.yul\":11371:11373   */\n      0x20\n        /* \"#utility.yul\":11366:11369   */\n      dup3\n        /* \"#utility.yul\":11362:11374   */\n      add\n        /* \"#utility.yul\":11355:11374   */\n      swap1\n      pop\n        /* \"#utility.yul\":11014:11380   */\n      swap2\n      swap1\n      pop\n      jump\t// out\n        /* \"#utility.yul\":11386:11805   */\n    tag_53:\n        /* \"#utility.yul\":11552:11556   */\n      0x00\n        /* \"#utility.yul\":11590:11592   */\n      0x20\n        /* \"#utility.yul\":11579:11588   */\n      dup3\n        /* \"#utility.yul\":11575:11593   */\n      add\n        /* \"#utility.yul\":11567:11593   */\n      swap1\n      pop\n        /* \"#utility.yul\":11639:11648   */\n      dup2\n        /* \"#utility.yul\":11633:11637   */\n      dup2\n        /* \"#utility.yul\":11629:11649   */\n      sub\n        /* \"#utility.yul\":11625:11626   */\n      0x00\n        /* \"#utility.yul\":11614:11623   */\n      dup4\n        /* \"#utility.yul\":11610:11627   */\n      add\n        /* \"#utility.yul\":11603:11650   */\n      mstore\n        /* \"#utility.yul\":11667:11798   */\n      tag_240\n        /* \"#utility.yul\":11793:11797   */\n      dup2\n        /* \"#utility.yul\":11667:11798   */\n      tag_120\n      jump\t// in\n    tag_240:\n        /* \"#utility.yul\":11659:11798   */\n      swap1\n      pop\n        /* \"#utility.yul\":11386:11805   */\n      swap2\n      swap1\n      pop\n      jump\t// out\n        /* \"#utility.yul\":11811:11987   */\n    tag_121:\n        /* \"#utility.yul\":11951:11979   */\n      0x4d6f64696669636174696f6e206c696d69742072656163686564000000000000\n        /* \"#utility.yul\":11947:11948   */\n      0x00\n        /* \"#utility.yul\":11939:11945   */\n      dup3\n        /* \"#utility.yul\":11935:11949   */\n      add\n        /* \"#utility.yul\":11928:11980   */\n      mstore\n        /* \"#utility.yul\":11811:11987   */\n      pop\n      jump\t// out\n        /* \"#utility.yul\":11993:12359   */\n    tag_122:\n        /* \"#utility.yul\":12135:12138   */\n      0x00\n        /* \"#utility.yul\":12156:12223   */\n      tag_243\n        /* \"#utility.yul\":12220:12222   */\n      0x1a\n        /* \"#utility.yul\":12215:12218   */\n      dup4\n        /* \"#utility.yul\":12156:12223   */\n      tag_116\n      jump\t// in\n    tag_243:\n        /* \"#utility.yul\":12149:12223   */\n      swap2\n      pop\n        /* \"#utility.yul\":12232:12325   */\n      tag_244\n        /* \"#utility.yul\":12321:12324   */\n      dup3\n        /* \"#utility.yul\":12232:12325   */\n      tag_121\n      jump\t// in\n    tag_244:\n        /* \"#utility.yul\":12350:12352   */\n      0x20\n        /* \"#utility.yul\":12345:12348   */\n      dup3\n        /* \"#utility.yul\":12341:12353   */\n      add\n        /* \"#utility.yul\":12334:12353   */\n      swap1\n      pop\n        /* \"#utility.yul\":11993:12359   */\n      swap2\n      swap1\n      pop\n      jump\t// out\n        /* \"#utility.yul\":12365:12784   */\n    tag_56:\n        /* \"#utility.yul\":12531:12535   */\n      0x00\n        /* \"#utility.yul\":12569:12571   */\n      0x20\n        /* \"#utility.yul\":12558:12567   */\n      dup3\n        /* \"#utility.yul\":12554:12572   */\n      add\n        /* \"#utility.yul\":12546:12572   */\n      swap1\n      pop\n        /* \"#utility.yul\":12618:12627   */\n      dup2\n        /* \"#utility.yul\":12612:12616   */\n      dup2\n        /* \"#utility.yul\":12608:12628   */\n      sub\n        /* \"#utility.yul\":12604:12605   */\n      0x00\n        /* \"#utility.yul\":12593:12602   */\n      dup4\n        /* \"#utility.yul\":12589:12606   */\n      add\n        /* \"#utility.yul\":12582:12629   */\n      mstore\n        /* \"#utility.yul\":12646:12777   */\n      tag_246\n        /* \"#utility.yul\":12772:12776   */\n      dup2\n        /* \"#utility.yul\":12646:12777   */\n      tag_122\n      jump\t// in\n    tag_246:\n        /* \"#utility.yul\":12638:12777   */\n      swap1\n      pop\n        /* \"#utility.yul\":12365:12784   */\n      swap2\n      swap1\n      pop\n      jump\t// out\n        /* \"#utility.yul\":12790:12962   */\n    tag_123:\n        /* \"#utility.yul\":12930:12954   */\n      0x4d6178696d756d2035204e46547320616c6c6f77656400000000000000000000\n        /* \"#utility.yul\":12926:12927   */\n      0x00\n        /* \"#utility.yul\":12918:12924   */\n      dup3\n        /* \"#utility.yul\":12914:12928   */\n      add\n        /* \"#utility.yul\":12907:12955   */\n      mstore\n        /* \"#utility.yul\":12790:12962   */\n      pop\n      jump\t// out\n        /* \"#utility.yul\":12968:13334   */\n    tag_124:\n        /* \"#utility.yul\":13110:13113   */\n      0x00\n        /* \"#utility.yul\":13131:13198   */\n      tag_249\n        /* \"#utility.yul\":13195:13197   */\n      0x16\n        /* \"#utility.yul\":13190:13193   */\n      dup4\n        /* \"#utility.yul\":13131:13198   */\n      tag_116\n      jump\t// in\n    tag_249:\n        /* \"#utility.yul\":13124:13198   */\n      swap2\n      pop\n        /* \"#utility.yul\":13207:13300   */\n      tag_250\n        /* \"#utility.yul\":13296:13299   */\n      dup3\n        /* \"#utility.yul\":13207:13300   */\n      tag_123\n      jump\t// in\n    tag_250:\n        /* \"#utility.yul\":13325:13327   */\n      0x20\n        /* \"#utility.yul\":13320:13323   */\n      dup3\n        /* \"#utility.yul\":13316:13328   */\n      add\n        /* \"#utility.yul\":13309:13328   */\n      swap1\n      pop\n        /* \"#utility.yul\":12968:13334   */\n      swap2\n      swap1\n      pop\n      jump\t// out\n        /* \"#utility.yul\":13340:13759   */\n    tag_59:\n        /* \"#utility.yul\":13506:13510   */\n      0x00\n        /* \"#utility.yul\":13544:13546   */\n      0x20\n        /* \"#utility.yul\":13533:13542   */\n      dup3\n        /* \"#utility.yul\":13529:13547   */\n      add\n        /* \"#utility.yul\":13521:13547   */\n      swap1\n      pop\n        /* \"#utility.yul\":13593:13602   */\n      dup2\n        /* \"#utility.yul\":13587:13591   */\n      dup2\n        /* \"#utility.yul\":13583:13603   */\n      sub\n        /* \"#utility.yul\":13579:13580   */\n      0x00\n        /* \"#utility.yul\":13568:13577   */\n      dup4\n        /* \"#utility.yul\":13564:13581   */\n      add\n        /* \"#utility.yul\":13557:13604   */\n      mstore\n        /* \"#utility.yul\":13621:13752   */\n      tag_252\n        /* \"#utility.yul\":13747:13751   */\n      dup2\n        /* \"#utility.yul\":13621:13752   */\n      tag_124\n      jump\t// in\n    tag_252:\n        /* \"#utility.yul\":13613:13752   */\n      swap1\n      pop\n        /* \"#utility.yul\":13340:13759   */\n      swap2\n      swap1\n      pop\n      jump\t// out\n        /* \"#utility.yul\":13765:13945   */\n    tag_125:\n        /* \"#utility.yul\":13813:13890   */\n      0x4e487b7100000000000000000000000000000000000000000000000000000000\n        /* \"#utility.yul\":13810:13811   */\n      0x00\n        /* \"#utility.yul\":13803:13891   */\n      mstore\n        /* \"#utility.yul\":13910:13914   */\n      0x11\n        /* \"#utility.yul\":13907:13908   */\n      0x04\n        /* \"#utility.yul\":13900:13915   */\n      mstore\n        /* \"#utility.yul\":13934:13938   */\n      0x24\n        /* \"#utility.yul\":13931:13932   */\n      0x00\n        /* \"#utility.yul\":13924:13939   */\n      revert\n        /* \"#utility.yul\":13951:14184   */\n    tag_63:\n        /* \"#utility.yul\":13990:13993   */\n      0x00\n        /* \"#utility.yul\":14013:14037   */\n      tag_255\n        /* \"#utility.yul\":14031:14036   */\n      dup3\n        /* \"#utility.yul\":14013:14037   */\n      tag_86\n      jump\t// in\n    tag_255:\n        /* \"#utility.yul\":14004:14037   */\n      swap2\n      pop\n        /* \"#utility.yul\":14059:14125   */\n      0xffffffffffffffffffffffffffffffffffffffffffffffffffffffffffffffff\n        /* \"#utility.yul\":14052:14057   */\n      dup3\n        /* \"#utility.yul\":14049:14126   */\n      sub\n        /* \"#utility.yul\":14046:14149   */\n      tag_256\n      jumpi\n        /* \"#utility.yul\":14129:14147   */\n      tag_257\n      tag_125\n      jump\t// in\n    tag_257:\n        /* \"#utility.yul\":14046:14149   */\n    tag_256:\n        /* \"#utility.yul\":14176:14177   */\n      0x01\n        /* \"#utility.yul\":14169:14174   */\n      dup3\n        /* \"#utility.yul\":14165:14178   */\n      add\n        /* \"#utility.yul\":14158:14178   */\n      swap1\n      pop\n        /* \"#utility.yul\":13951:14184   */\n      swap2\n      swap1\n      pop\n      jump\t// out\n        /* \"#utility.yul\":14190:14632   */\n    tag_74:\n        /* \"#utility.yul\":14339:14343   */\n      0x00\n        /* \"#utility.yul\":14377:14379   */\n      0x60\n        /* \"#utility.yul\":14366:14375   */\n      dup3\n        /* \"#utility.yul\":14362:14380   */\n      add\n        /* \"#utility.yul\":14354:14380   */\n      swap1\n      pop\n        /* \"#utility.yul\":14390:14461   */\n      tag_259\n        /* \"#utility.yul\":14458:14459   */\n      0x00\n        /* \"#utility.yul\":14447:14456   */\n      dup4\n        /* \"#utility.yul\":14443:14460   */\n      add\n        /* \"#utility.yul\":14434:14440   */\n      dup7\n        /* \"#utility.yul\":14390:14461   */\n      tag_92\n      jump\t// in\n    tag_259:\n        /* \"#utility.yul\":14471:14543   */\n      tag_260\n        /* \"#utility.yul\":14539:14541   */\n      0x20\n        /* \"#utility.yul\":14528:14537   */\n      dup4\n        /* \"#utility.yul\":14524:14542   */\n      add\n        /* \"#utility.yul\":14515:14521   */\n      dup6\n        /* \"#utility.yul\":14471:14543   */\n      tag_91\n      jump\t// in\n    tag_260:\n        /* \"#utility.yul\":14553:14625   */\n      tag_261\n        /* \"#utility.yul\":14621:14623   */\n      0x40\n        /* \"#utility.yul\":14610:14619   */\n      dup4\n        /* \"#utility.yul\":14606:14624   */\n      add\n        /* \"#utility.yul\":14597:14603   */\n      dup5\n        /* \"#utility.yul\":14553:14625   */\n      tag_92\n      jump\t// in\n    tag_261:\n        /* \"#utility.yul\":14190:14632   */\n      swap5\n      swap4\n      pop\n      pop\n      pop\n      pop\n      jump\t// out\n\n    auxdata: 0xa2646970667358221220618c30a41f45756c3f3a05929e918af0630ee6d18524e45c0b897c5e1b1225d264736f6c634300081a0033\n}\n",
				"bytecode": {
					"linkReferences": {},
					"object": "6080604052348015600e575f80fd5b50610fad8061001c5f395ff3fe608060405234801561000f575f80fd5b506004361061007b575f3560e01c8063af8c6ff311610059578063af8c6ff3146100fe578063b7a3c1da1461011a578063c815729d14610138578063d7a624ed146101545761007b565b806388b10c751461007f5780638a72ea6a1461009b5780639b55e638146100ce575b5f80fd5b610099600480360381019061009491906108cc565b610170565b005b6100b560048036038101906100b091906108cc565b61022b565b6040516100c5949392919061095f565b60405180910390f35b6100e860048036038101906100e391906108cc565b610281565b6040516100f59190610aea565b60405180910390f35b61011860048036038101906101139190610c84565b6103b8565b005b610122610557565b60405161012f9190610cde565b60405180910390f35b610152600480360381019061014d91906108cc565b61055d565b005b61016e60048036038101906101699190610c84565b610618565b005b5f805f8381526020019081526020015f209050806004015f9054906101000a900460ff166101d3576040517f08c379a00000000000000000000000000000000000000000000000000000000081526004016101ca90610d51565b60405180910390fd5b5f816004015f6101000a81548160ff0219169083151502179055507f1b15bc319d6f29dd5bcf76cd2b89490ed2fe49f1a31fb6b8624b0029fd85c265823360405161021f929190610d6f565b60405180910390a15050565b5f602052805f5260405f205f91509050805f015f9054906101000a900473ffffffffffffffffffffffffffffffffffffffff1690806001015490806003015490806004015f9054906101000a900460ff16905084565b6102896107a3565b5f808381526020019081526020015f206040518060a00160405290815f82015f9054906101000a900473ffffffffffffffffffffffffffffffffffffffff1673ffffffffffffffffffffffffffffffffffffffff1673ffffffffffffffffffffffffffffffffffffffff168152602001600182015481526020016002820180548060200260200160405190810160405280929190818152602001828054801561038457602002820191905f5260205f20905b815f9054906101000a900473ffffffffffffffffffffffffffffffffffffffff1673ffffffffffffffffffffffffffffffffffffffff168152602001906001019080831161033b575b5050505050815260200160038201548152602001600482015f9054906101000a900460ff1615151515815250509050919050565b5f805f8481526020019081526020015f209050805f015f9054906101000a900473ffffffffffffffffffffffffffffffffffffffff1673ffffffffffffffffffffffffffffffffffffffff163373ffffffffffffffffffffffffffffffffffffffff161461045b576040517f08c379a000000000000000000000000000000000000000000000000000000000815260040161045290610de0565b60405180910390fd5b60038160030154106104a2576040517f08c379a000000000000000000000000000000000000000000000000000000000815260040161049990610e48565b60405180910390fd5b6005825111156104e7576040517f08c379a00000000000000000000000000000000000000000000000000000000081526004016104de90610eb0565b60405180910390fd5b818160020190805190602001906104ff9291906107e6565b50806003015f81548092919061051490610efb565b91905055507f0fa6badfc2a6f8e5e536338d9b30aa8c9ef5cd8819a1e73a78c08945f5fea7ea833360405161054a929190610d6f565b60405180910390a1505050565b60015481565b5f805f8381526020019081526020015f209050806004015f9054906101000a900460ff166105c0576040517f08c379a00000000000000000000000000000000000000000000000000000000081526004016105b790610d51565b60405180910390fd5b5f816004015f6101000a81548160ff0219169083151502179055507fa7a40af5a1d0c10a3eb94af90cb008170915e8a71a6aaff052794cd762c72fc0823360405161060c929190610d6f565b60405180910390a15050565b60058151111561065d576040517f08c379a000000000000000000000000000000000000000000000000000000000815260040161065490610eb0565b60405180910390fd5b5f6040518060a001604052803373ffffffffffffffffffffffffffffffffffffffff1681526020018481526020018381526020015f8152602001600115158152509050805f8060015481526020019081526020015f205f820151815f015f6101000a81548173ffffffffffffffffffffffffffffffffffffffff021916908373ffffffffffffffffffffffffffffffffffffffff16021790555060208201518160010155604082015181600201908051906020019061071d9291906107e6565b50606082015181600301556080820151816004015f6101000a81548160ff0219169083151502179055509050507fbdf1e76c2ba2a5c85b93bf78678a4a3b06d63b18422612dac8d7d5249ed46714600154338560405161077f93929190610f42565b60405180910390a160015f81548092919061079990610efb565b9190505550505050565b6040518060a001604052805f73ffffffffffffffffffffffffffffffffffffffff1681526020015f8152602001606081526020015f81526020015f151581525090565b828054828255905f5260205f2090810192821561085c579160200282015b8281111561085b578251825f6101000a81548173ffffffffffffffffffffffffffffffffffffffff021916908373ffffffffffffffffffffffffffffffffffffffff16021790555091602001919060010190610804565b5b509050610869919061086d565b5090565b5b80821115610884575f815f90555060010161086e565b5090565b5f604051905090565b5f80fd5b5f80fd5b5f819050919050565b6108ab81610899565b81146108b5575f80fd5b50565b5f813590506108c6816108a2565b92915050565b5f602082840312156108e1576108e0610891565b5b5f6108ee848285016108b8565b91505092915050565b5f73ffffffffffffffffffffffffffffffffffffffff82169050919050565b5f610920826108f7565b9050919050565b61093081610916565b82525050565b61093f81610899565b82525050565b5f8115159050919050565b61095981610945565b82525050565b5f6080820190506109725f830187610927565b61097f6020830186610936565b61098c6040830185610936565b6109996060830184610950565b95945050505050565b6109ab81610916565b82525050565b6109ba81610899565b82525050565b5f81519050919050565b5f82825260208201905092915050565b5f819050602082019050919050565b5f6109f483836109a2565b60208301905092915050565b5f602082019050919050565b5f610a16826109c0565b610a2081856109ca565b9350610a2b836109da565b805f5b83811015610a5b578151610a4288826109e9565b9750610a4d83610a00565b925050600181019050610a2e565b5085935050505092915050565b610a7181610945565b82525050565b5f60a083015f830151610a8c5f8601826109a2565b506020830151610a9f60208601826109b1565b5060408301518482036040860152610ab78282610a0c565b9150506060830151610acc60608601826109b1565b506080830151610adf6080860182610a68565b508091505092915050565b5f6020820190508181035f830152610b028184610a77565b905092915050565b5f80fd5b5f601f19601f8301169050919050565b7f4e487b71000000000000000000000000000000000000000000000000000000005f52604160045260245ffd5b610b5482610b0e565b810181811067ffffffffffffffff82111715610b7357610b72610b1e565b5b80604052505050565b5f610b85610888565b9050610b918282610b4b565b919050565b5f67ffffffffffffffff821115610bb057610baf610b1e565b5b602082029050602081019050919050565b5f80fd5b610bce81610916565b8114610bd8575f80fd5b50565b5f81359050610be981610bc5565b92915050565b5f610c01610bfc84610b96565b610b7c565b90508083825260208201905060208402830185811115610c2457610c23610bc1565b5b835b81811015610c4d5780610c398882610bdb565b845260208401935050602081019050610c26565b5050509392505050565b5f82601f830112610c6b57610c6a610b0a565b5b8135610c7b848260208601610bef565b91505092915050565b5f8060408385031215610c9a57610c99610891565b5b5f610ca7858286016108b8565b925050602083013567ffffffffffffffff811115610cc857610cc7610895565b5b610cd485828601610c57565b9150509250929050565b5f602082019050610cf15f830184610936565b92915050565b5f82825260208201905092915050565b7f4f66666572206973206e6f7420616374697665000000000000000000000000005f82015250565b5f610d3b601383610cf7565b9150610d4682610d07565b602082019050919050565b5f6020820190508181035f830152610d6881610d2f565b9050919050565b5f604082019050610d825f830185610936565b610d8f6020830184610927565b9392505050565b7f4f6e6c79206f6666657265722063616e206d6f646966790000000000000000005f82015250565b5f610dca601783610cf7565b9150610dd582610d96565b602082019050919050565b5f6020820190508181035f830152610df781610dbe565b9050919050565b7f4d6f64696669636174696f6e206c696d697420726561636865640000000000005f82015250565b5f610e32601a83610cf7565b9150610e3d82610dfe565b602082019050919050565b5f6020820190508181035f830152610e5f81610e26565b9050919050565b7f4d6178696d756d2035204e46547320616c6c6f776564000000000000000000005f82015250565b5f610e9a601683610cf7565b9150610ea582610e66565b602082019050919050565b5f6020820190508181035f830152610ec781610e8e565b9050919050565b7f4e487b71000000000000000000000000000000000000000000000000000000005f52601160045260245ffd5b5f610f0582610899565b91507fffffffffffffffffffffffffffffffffffffffffffffffffffffffffffffffff8203610f3757610f36610ece565b5b600182019050919050565b5f606082019050610f555f830186610936565b610f626020830185610927565b610f6f6040830184610936565b94935050505056fea2646970667358221220618c30a41f45756c3f3a05929e918af0630ee6d18524e45c0b897c5e1b1225d264736f6c634300081a0033",
					"opcodes": "PUSH1 0x80 PUSH1 0x40 MSTORE CALLVALUE DUP1 ISZERO PUSH1 0xE JUMPI PUSH0 DUP1 REVERT JUMPDEST POP PUSH2 0xFAD DUP1 PUSH2 0x1C PUSH0 CODECOPY PUSH0 RETURN INVALID PUSH1 0x80 PUSH1 0x40 MSTORE CALLVALUE DUP1 ISZERO PUSH2 0xF JUMPI PUSH0 DUP1 REVERT JUMPDEST POP PUSH1 0x4 CALLDATASIZE LT PUSH2 0x7B JUMPI PUSH0 CALLDATALOAD PUSH1 0xE0 SHR DUP1 PUSH4 0xAF8C6FF3 GT PUSH2 0x59 JUMPI DUP1 PUSH4 0xAF8C6FF3 EQ PUSH2 0xFE JUMPI DUP1 PUSH4 0xB7A3C1DA EQ PUSH2 0x11A JUMPI DUP1 PUSH4 0xC815729D EQ PUSH2 0x138 JUMPI DUP1 PUSH4 0xD7A624ED EQ PUSH2 0x154 JUMPI PUSH2 0x7B JUMP JUMPDEST DUP1 PUSH4 0x88B10C75 EQ PUSH2 0x7F JUMPI DUP1 PUSH4 0x8A72EA6A EQ PUSH2 0x9B JUMPI DUP1 PUSH4 0x9B55E638 EQ PUSH2 0xCE JUMPI JUMPDEST PUSH0 DUP1 REVERT JUMPDEST PUSH2 0x99 PUSH1 0x4 DUP1 CALLDATASIZE SUB DUP2 ADD SWAP1 PUSH2 0x94 SWAP2 SWAP1 PUSH2 0x8CC JUMP JUMPDEST PUSH2 0x170 JUMP JUMPDEST STOP JUMPDEST PUSH2 0xB5 PUSH1 0x4 DUP1 CALLDATASIZE SUB DUP2 ADD SWAP1 PUSH2 0xB0 SWAP2 SWAP1 PUSH2 0x8CC JUMP JUMPDEST PUSH2 0x22B JUMP JUMPDEST PUSH1 0x40 MLOAD PUSH2 0xC5 SWAP5 SWAP4 SWAP3 SWAP2 SWAP1 PUSH2 0x95F JUMP JUMPDEST PUSH1 0x40 MLOAD DUP1 SWAP2 SUB SWAP1 RETURN JUMPDEST PUSH2 0xE8 PUSH1 0x4 DUP1 CALLDATASIZE SUB DUP2 ADD SWAP1 PUSH2 0xE3 SWAP2 SWAP1 PUSH2 0x8CC JUMP JUMPDEST PUSH2 0x281 JUMP JUMPDEST PUSH1 0x40 MLOAD PUSH2 0xF5 SWAP2 SWAP1 PUSH2 0xAEA JUMP JUMPDEST PUSH1 0x40 MLOAD DUP1 SWAP2 SUB SWAP1 RETURN JUMPDEST PUSH2 0x118 PUSH1 0x4 DUP1 CALLDATASIZE SUB DUP2 ADD SWAP1 PUSH2 0x113 SWAP2 SWAP1 PUSH2 0xC84 JUMP JUMPDEST PUSH2 0x3B8 JUMP JUMPDEST STOP JUMPDEST PUSH2 0x122 PUSH2 0x557 JUMP JUMPDEST PUSH1 0x40 MLOAD PUSH2 0x12F SWAP2 SWAP1 PUSH2 0xCDE JUMP JUMPDEST PUSH1 0x40 MLOAD DUP1 SWAP2 SUB SWAP1 RETURN JUMPDEST PUSH2 0x152 PUSH1 0x4 DUP1 CALLDATASIZE SUB DUP2 ADD SWAP1 PUSH2 0x14D SWAP2 SWAP1 PUSH2 0x8CC JUMP JUMPDEST PUSH2 0x55D JUMP JUMPDEST STOP JUMPDEST PUSH2 0x16E PUSH1 0x4 DUP1 CALLDATASIZE SUB DUP2 ADD SWAP1 PUSH2 0x169 SWAP2 SWAP1 PUSH2 0xC84 JUMP JUMPDEST PUSH2 0x618 JUMP JUMPDEST STOP JUMPDEST PUSH0 DUP1 PUSH0 DUP4 DUP2 MSTORE PUSH1 0x20 ADD SWAP1 DUP2 MSTORE PUSH1 0x20 ADD PUSH0 KECCAK256 SWAP1 POP DUP1 PUSH1 0x4 ADD PUSH0 SWAP1 SLOAD SWAP1 PUSH2 0x100 EXP SWAP1 DIV PUSH1 0xFF AND PUSH2 0x1D3 JUMPI PUSH1 0x40 MLOAD PUSH32 0x8C379A000000000000000000000000000000000000000000000000000000000 DUP2 MSTORE PUSH1 0x4 ADD PUSH2 0x1CA SWAP1 PUSH2 0xD51 JUMP JUMPDEST PUSH1 0x40 MLOAD DUP1 SWAP2 SUB SWAP1 REVERT JUMPDEST PUSH0 DUP2 PUSH1 0x4 ADD PUSH0 PUSH2 0x100 EXP DUP2 SLOAD DUP2 PUSH1 0xFF MUL NOT AND SWAP1 DUP4 ISZERO ISZERO MUL OR SWAP1 SSTORE POP PUSH32 0x1B15BC319D6F29DD5BCF76CD2B89490ED2FE49F1A31FB6B8624B0029FD85C265 DUP3 CALLER PUSH1 0x40 MLOAD PUSH2 0x21F SWAP3 SWAP2 SWAP1 PUSH2 0xD6F JUMP JUMPDEST PUSH1 0x40 MLOAD DUP1 SWAP2 SUB SWAP1 LOG1 POP POP JUMP JUMPDEST PUSH0 PUSH1 0x20 MSTORE DUP1 PUSH0 MSTORE PUSH1 0x40 PUSH0 KECCAK256 PUSH0 SWAP2 POP SWAP1 POP DUP1 PUSH0 ADD PUSH0 SWAP1 SLOAD SWAP1 PUSH2 0x100 EXP SWAP1 DIV PUSH20 0xFFFFFFFFFFFFFFFFFFFFFFFFFFFFFFFFFFFFFFFF AND SWAP1 DUP1 PUSH1 0x1 ADD SLOAD SWAP1 DUP1 PUSH1 0x3 ADD SLOAD SWAP1 DUP1 PUSH1 0x4 ADD PUSH0 SWAP1 SLOAD SWAP1 PUSH2 0x100 EXP SWAP1 DIV PUSH1 0xFF AND SWAP1 POP DUP5 JUMP JUMPDEST PUSH2 0x289 PUSH2 0x7A3 JUMP JUMPDEST PUSH0 DUP1 DUP4 DUP2 MSTORE PUSH1 0x20 ADD SWAP1 DUP2 MSTORE PUSH1 0x20 ADD PUSH0 KECCAK256 PUSH1 0x40 MLOAD DUP1 PUSH1 0xA0 ADD PUSH1 0x40 MSTORE SWAP1 DUP2 PUSH0 DUP3 ADD PUSH0 SWAP1 SLOAD SWAP1 PUSH2 0x100 EXP SWAP1 DIV PUSH20 0xFFFFFFFFFFFFFFFFFFFFFFFFFFFFFFFFFFFFFFFF AND PUSH20 0xFFFFFFFFFFFFFFFFFFFFFFFFFFFFFFFFFFFFFFFF AND PUSH20 0xFFFFFFFFFFFFFFFFFFFFFFFFFFFFFFFFFFFFFFFF AND DUP2 MSTORE PUSH1 0x20 ADD PUSH1 0x1 DUP3 ADD SLOAD DUP2 MSTORE PUSH1 0x20 ADD PUSH1 0x2 DUP3 ADD DUP1 SLOAD DUP1 PUSH1 0x20 MUL PUSH1 0x20 ADD PUSH1 0x40 MLOAD SWAP1 DUP2 ADD PUSH1 0x40 MSTORE DUP1 SWAP3 SWAP2 SWAP1 DUP2 DUP2 MSTORE PUSH1 0x20 ADD DUP3 DUP1 SLOAD DUP1 ISZERO PUSH2 0x384 JUMPI PUSH1 0x20 MUL DUP3 ADD SWAP2 SWAP1 PUSH0 MSTORE PUSH1 0x20 PUSH0 KECCAK256 SWAP1 JUMPDEST DUP2 PUSH0 SWAP1 SLOAD SWAP1 PUSH2 0x100 EXP SWAP1 DIV PUSH20 0xFFFFFFFFFFFFFFFFFFFFFFFFFFFFFFFFFFFFFFFF AND PUSH20 0xFFFFFFFFFFFFFFFFFFFFFFFFFFFFFFFFFFFFFFFF AND DUP2 MSTORE PUSH1 0x20 ADD SWAP1 PUSH1 0x1 ADD SWAP1 DUP1 DUP4 GT PUSH2 0x33B JUMPI JUMPDEST POP POP POP POP POP DUP2 MSTORE PUSH1 0x20 ADD PUSH1 0x3 DUP3 ADD SLOAD DUP2 MSTORE PUSH1 0x20 ADD PUSH1 0x4 DUP3 ADD PUSH0 SWAP1 SLOAD SWAP1 PUSH2 0x100 EXP SWAP1 DIV PUSH1 0xFF AND ISZERO ISZERO ISZERO ISZERO DUP2 MSTORE POP POP SWAP1 POP SWAP2 SWAP1 POP JUMP JUMPDEST PUSH0 DUP1 PUSH0 DUP5 DUP2 MSTORE PUSH1 0x20 ADD SWAP1 DUP2 MSTORE PUSH1 0x20 ADD PUSH0 KECCAK256 SWAP1 POP DUP1 PUSH0 ADD PUSH0 SWAP1 SLOAD SWAP1 PUSH2 0x100 EXP SWAP1 DIV PUSH20 0xFFFFFFFFFFFFFFFFFFFFFFFFFFFFFFFFFFFFFFFF AND PUSH20 0xFFFFFFFFFFFFFFFFFFFFFFFFFFFFFFFFFFFFFFFF AND CALLER PUSH20 0xFFFFFFFFFFFFFFFFFFFFFFFFFFFFFFFFFFFFFFFF AND EQ PUSH2 0x45B JUMPI PUSH1 0x40 MLOAD PUSH32 0x8C379A000000000000000000000000000000000000000000000000000000000 DUP2 MSTORE PUSH1 0x4 ADD PUSH2 0x452 SWAP1 PUSH2 0xDE0 JUMP JUMPDEST PUSH1 0x40 MLOAD DUP1 SWAP2 SUB SWAP1 REVERT JUMPDEST PUSH1 0x3 DUP2 PUSH1 0x3 ADD SLOAD LT PUSH2 0x4A2 JUMPI PUSH1 0x40 MLOAD PUSH32 0x8C379A000000000000000000000000000000000000000000000000000000000 DUP2 MSTORE PUSH1 0x4 ADD PUSH2 0x499 SWAP1 PUSH2 0xE48 JUMP JUMPDEST PUSH1 0x40 MLOAD DUP1 SWAP2 SUB SWAP1 REVERT JUMPDEST PUSH1 0x5 DUP3 MLOAD GT ISZERO PUSH2 0x4E7 JUMPI PUSH1 0x40 MLOAD PUSH32 0x8C379A000000000000000000000000000000000000000000000000000000000 DUP2 MSTORE PUSH1 0x4 ADD PUSH2 0x4DE SWAP1 PUSH2 0xEB0 JUMP JUMPDEST PUSH1 0x40 MLOAD DUP1 SWAP2 SUB SWAP1 REVERT JUMPDEST DUP2 DUP2 PUSH1 0x2 ADD SWAP1 DUP1 MLOAD SWAP1 PUSH1 0x20 ADD SWAP1 PUSH2 0x4FF SWAP3 SWAP2 SWAP1 PUSH2 0x7E6 JUMP JUMPDEST POP DUP1 PUSH1 0x3 ADD PUSH0 DUP2 SLOAD DUP1 SWAP3 SWAP2 SWAP1 PUSH2 0x514 SWAP1 PUSH2 0xEFB JUMP JUMPDEST SWAP2 SWAP1 POP SSTORE POP PUSH32 0xFA6BADFC2A6F8E5E536338D9B30AA8C9EF5CD8819A1E73A78C08945F5FEA7EA DUP4 CALLER PUSH1 0x40 MLOAD PUSH2 0x54A SWAP3 SWAP2 SWAP1 PUSH2 0xD6F JUMP JUMPDEST PUSH1 0x40 MLOAD DUP1 SWAP2 SUB SWAP1 LOG1 POP POP POP JUMP JUMPDEST PUSH1 0x1 SLOAD DUP2 JUMP JUMPDEST PUSH0 DUP1 PUSH0 DUP4 DUP2 MSTORE PUSH1 0x20 ADD SWAP1 DUP2 MSTORE PUSH1 0x20 ADD PUSH0 KECCAK256 SWAP1 POP DUP1 PUSH1 0x4 ADD PUSH0 SWAP1 SLOAD SWAP1 PUSH2 0x100 EXP SWAP1 DIV PUSH1 0xFF AND PUSH2 0x5C0 JUMPI PUSH1 0x40 MLOAD PUSH32 0x8C379A000000000000000000000000000000000000000000000000000000000 DUP2 MSTORE PUSH1 0x4 ADD PUSH2 0x5B7 SWAP1 PUSH2 0xD51 JUMP JUMPDEST PUSH1 0x40 MLOAD DUP1 SWAP2 SUB SWAP1 REVERT JUMPDEST PUSH0 DUP2 PUSH1 0x4 ADD PUSH0 PUSH2 0x100 EXP DUP2 SLOAD DUP2 PUSH1 0xFF MUL NOT AND SWAP1 DUP4 ISZERO ISZERO MUL OR SWAP1 SSTORE POP PUSH32 0xA7A40AF5A1D0C10A3EB94AF90CB008170915E8A71A6AAFF052794CD762C72FC0 DUP3 CALLER PUSH1 0x40 MLOAD PUSH2 0x60C SWAP3 SWAP2 SWAP1 PUSH2 0xD6F JUMP JUMPDEST PUSH1 0x40 MLOAD DUP1 SWAP2 SUB SWAP1 LOG1 POP POP JUMP JUMPDEST PUSH1 0x5 DUP2 MLOAD GT ISZERO PUSH2 0x65D JUMPI PUSH1 0x40 MLOAD PUSH32 0x8C379A000000000000000000000000000000000000000000000000000000000 DUP2 MSTORE PUSH1 0x4 ADD PUSH2 0x654 SWAP1 PUSH2 0xEB0 JUMP JUMPDEST PUSH1 0x40 MLOAD DUP1 SWAP2 SUB SWAP1 REVERT JUMPDEST PUSH0 PUSH1 0x40 MLOAD DUP1 PUSH1 0xA0 ADD PUSH1 0x40 MSTORE DUP1 CALLER PUSH20 0xFFFFFFFFFFFFFFFFFFFFFFFFFFFFFFFFFFFFFFFF AND DUP2 MSTORE PUSH1 0x20 ADD DUP5 DUP2 MSTORE PUSH1 0x20 ADD DUP4 DUP2 MSTORE PUSH1 0x20 ADD PUSH0 DUP2 MSTORE PUSH1 0x20 ADD PUSH1 0x1 ISZERO ISZERO DUP2 MSTORE POP SWAP1 POP DUP1 PUSH0 DUP1 PUSH1 0x1 SLOAD DUP2 MSTORE PUSH1 0x20 ADD SWAP1 DUP2 MSTORE PUSH1 0x20 ADD PUSH0 KECCAK256 PUSH0 DUP3 ADD MLOAD DUP2 PUSH0 ADD PUSH0 PUSH2 0x100 EXP DUP2 SLOAD DUP2 PUSH20 0xFFFFFFFFFFFFFFFFFFFFFFFFFFFFFFFFFFFFFFFF MUL NOT AND SWAP1 DUP4 PUSH20 0xFFFFFFFFFFFFFFFFFFFFFFFFFFFFFFFFFFFFFFFF AND MUL OR SWAP1 SSTORE POP PUSH1 0x20 DUP3 ADD MLOAD DUP2 PUSH1 0x1 ADD SSTORE PUSH1 0x40 DUP3 ADD MLOAD DUP2 PUSH1 0x2 ADD SWAP1 DUP1 MLOAD SWAP1 PUSH1 0x20 ADD SWAP1 PUSH2 0x71D SWAP3 SWAP2 SWAP1 PUSH2 0x7E6 JUMP JUMPDEST POP PUSH1 0x60 DUP3 ADD MLOAD DUP2 PUSH1 0x3 ADD SSTORE PUSH1 0x80 DUP3 ADD MLOAD DUP2 PUSH1 0x4 ADD PUSH0 PUSH2 0x100 EXP DUP2 SLOAD DUP2 PUSH1 0xFF MUL NOT AND SWAP1 DUP4 ISZERO ISZERO MUL OR SWAP1 SSTORE POP SWAP1 POP POP PUSH32 0xBDF1E76C2BA2A5C85B93BF78678A4A3B06D63B18422612DAC8D7D5249ED46714 PUSH1 0x1 SLOAD CALLER DUP6 PUSH1 0x40 MLOAD PUSH2 0x77F SWAP4 SWAP3 SWAP2 SWAP1 PUSH2 0xF42 JUMP JUMPDEST PUSH1 0x40 MLOAD DUP1 SWAP2 SUB SWAP1 LOG1 PUSH1 0x1 PUSH0 DUP2 SLOAD DUP1 SWAP3 SWAP2 SWAP1 PUSH2 0x799 SWAP1 PUSH2 0xEFB JUMP JUMPDEST SWAP2 SWAP1 POP SSTORE POP POP POP POP JUMP JUMPDEST PUSH1 0x40 MLOAD DUP1 PUSH1 0xA0 ADD PUSH1 0x40 MSTORE DUP1 PUSH0 PUSH20 0xFFFFFFFFFFFFFFFFFFFFFFFFFFFFFFFFFFFFFFFF AND DUP2 MSTORE PUSH1 0x20 ADD PUSH0 DUP2 MSTORE PUSH1 0x20 ADD PUSH1 0x60 DUP2 MSTORE PUSH1 0x20 ADD PUSH0 DUP2 MSTORE PUSH1 0x20 ADD PUSH0 ISZERO ISZERO DUP2 MSTORE POP SWAP1 JUMP JUMPDEST DUP3 DUP1 SLOAD DUP3 DUP3 SSTORE SWAP1 PUSH0 MSTORE PUSH1 0x20 PUSH0 KECCAK256 SWAP1 DUP2 ADD SWAP3 DUP3 ISZERO PUSH2 0x85C JUMPI SWAP2 PUSH1 0x20 MUL DUP3 ADD JUMPDEST DUP3 DUP2 GT ISZERO PUSH2 0x85B JUMPI DUP3 MLOAD DUP3 PUSH0 PUSH2 0x100 EXP DUP2 SLOAD DUP2 PUSH20 0xFFFFFFFFFFFFFFFFFFFFFFFFFFFFFFFFFFFFFFFF MUL NOT AND SWAP1 DUP4 PUSH20 0xFFFFFFFFFFFFFFFFFFFFFFFFFFFFFFFFFFFFFFFF AND MUL OR SWAP1 SSTORE POP SWAP2 PUSH1 0x20 ADD SWAP2 SWAP1 PUSH1 0x1 ADD SWAP1 PUSH2 0x804 JUMP JUMPDEST JUMPDEST POP SWAP1 POP PUSH2 0x869 SWAP2 SWAP1 PUSH2 0x86D JUMP JUMPDEST POP SWAP1 JUMP JUMPDEST JUMPDEST DUP1 DUP3 GT ISZERO PUSH2 0x884 JUMPI PUSH0 DUP2 PUSH0 SWAP1 SSTORE POP PUSH1 0x1 ADD PUSH2 0x86E JUMP JUMPDEST POP SWAP1 JUMP JUMPDEST PUSH0 PUSH1 0x40 MLOAD SWAP1 POP SWAP1 JUMP JUMPDEST PUSH0 DUP1 REVERT JUMPDEST PUSH0 DUP1 REVERT JUMPDEST PUSH0 DUP2 SWAP1 POP SWAP2 SWAP1 POP JUMP JUMPDEST PUSH2 0x8AB DUP2 PUSH2 0x899 JUMP JUMPDEST DUP2 EQ PUSH2 0x8B5 JUMPI PUSH0 DUP1 REVERT JUMPDEST POP JUMP JUMPDEST PUSH0 DUP2 CALLDATALOAD SWAP1 POP PUSH2 0x8C6 DUP2 PUSH2 0x8A2 JUMP JUMPDEST SWAP3 SWAP2 POP POP JUMP JUMPDEST PUSH0 PUSH1 0x20 DUP3 DUP5 SUB SLT ISZERO PUSH2 0x8E1 JUMPI PUSH2 0x8E0 PUSH2 0x891 JUMP JUMPDEST JUMPDEST PUSH0 PUSH2 0x8EE DUP5 DUP3 DUP6 ADD PUSH2 0x8B8 JUMP JUMPDEST SWAP2 POP POP SWAP3 SWAP2 POP POP JUMP JUMPDEST PUSH0 PUSH20 0xFFFFFFFFFFFFFFFFFFFFFFFFFFFFFFFFFFFFFFFF DUP3 AND SWAP1 POP SWAP2 SWAP1 POP JUMP JUMPDEST PUSH0 PUSH2 0x920 DUP3 PUSH2 0x8F7 JUMP JUMPDEST SWAP1 POP SWAP2 SWAP1 POP JUMP JUMPDEST PUSH2 0x930 DUP2 PUSH2 0x916 JUMP JUMPDEST DUP3 MSTORE POP POP JUMP JUMPDEST PUSH2 0x93F DUP2 PUSH2 0x899 JUMP JUMPDEST DUP3 MSTORE POP POP JUMP JUMPDEST PUSH0 DUP2 ISZERO ISZERO SWAP1 POP SWAP2 SWAP1 POP JUMP JUMPDEST PUSH2 0x959 DUP2 PUSH2 0x945 JUMP JUMPDEST DUP3 MSTORE POP POP JUMP JUMPDEST PUSH0 PUSH1 0x80 DUP3 ADD SWAP1 POP PUSH2 0x972 PUSH0 DUP4 ADD DUP8 PUSH2 0x927 JUMP JUMPDEST PUSH2 0x97F PUSH1 0x20 DUP4 ADD DUP7 PUSH2 0x936 JUMP JUMPDEST PUSH2 0x98C PUSH1 0x40 DUP4 ADD DUP6 PUSH2 0x936 JUMP JUMPDEST PUSH2 0x999 PUSH1 0x60 DUP4 ADD DUP5 PUSH2 0x950 JUMP JUMPDEST SWAP6 SWAP5 POP POP POP POP POP JUMP JUMPDEST PUSH2 0x9AB DUP2 PUSH2 0x916 JUMP JUMPDEST DUP3 MSTORE POP POP JUMP JUMPDEST PUSH2 0x9BA DUP2 PUSH2 0x899 JUMP JUMPDEST DUP3 MSTORE POP POP JUMP JUMPDEST PUSH0 DUP2 MLOAD SWAP1 POP SWAP2 SWAP1 POP JUMP JUMPDEST PUSH0 DUP3 DUP3 MSTORE PUSH1 0x20 DUP3 ADD SWAP1 POP SWAP3 SWAP2 POP POP JUMP JUMPDEST PUSH0 DUP2 SWAP1 POP PUSH1 0x20 DUP3 ADD SWAP1 POP SWAP2 SWAP1 POP JUMP JUMPDEST PUSH0 PUSH2 0x9F4 DUP4 DUP4 PUSH2 0x9A2 JUMP JUMPDEST PUSH1 0x20 DUP4 ADD SWAP1 POP SWAP3 SWAP2 POP POP JUMP JUMPDEST PUSH0 PUSH1 0x20 DUP3 ADD SWAP1 POP SWAP2 SWAP1 POP JUMP JUMPDEST PUSH0 PUSH2 0xA16 DUP3 PUSH2 0x9C0 JUMP JUMPDEST PUSH2 0xA20 DUP2 DUP6 PUSH2 0x9CA JUMP JUMPDEST SWAP4 POP PUSH2 0xA2B DUP4 PUSH2 0x9DA JUMP JUMPDEST DUP1 PUSH0 JUMPDEST DUP4 DUP2 LT ISZERO PUSH2 0xA5B JUMPI DUP2 MLOAD PUSH2 0xA42 DUP9 DUP3 PUSH2 0x9E9 JUMP JUMPDEST SWAP8 POP PUSH2 0xA4D DUP4 PUSH2 0xA00 JUMP JUMPDEST SWAP3 POP POP PUSH1 0x1 DUP2 ADD SWAP1 POP PUSH2 0xA2E JUMP JUMPDEST POP DUP6 SWAP4 POP POP POP POP SWAP3 SWAP2 POP POP JUMP JUMPDEST PUSH2 0xA71 DUP2 PUSH2 0x945 JUMP JUMPDEST DUP3 MSTORE POP POP JUMP JUMPDEST PUSH0 PUSH1 0xA0 DUP4 ADD PUSH0 DUP4 ADD MLOAD PUSH2 0xA8C PUSH0 DUP7 ADD DUP3 PUSH2 0x9A2 JUMP JUMPDEST POP PUSH1 0x20 DUP4 ADD MLOAD PUSH2 0xA9F PUSH1 0x20 DUP7 ADD DUP3 PUSH2 0x9B1 JUMP JUMPDEST POP PUSH1 0x40 DUP4 ADD MLOAD DUP5 DUP3 SUB PUSH1 0x40 DUP7 ADD MSTORE PUSH2 0xAB7 DUP3 DUP3 PUSH2 0xA0C JUMP JUMPDEST SWAP2 POP POP PUSH1 0x60 DUP4 ADD MLOAD PUSH2 0xACC PUSH1 0x60 DUP7 ADD DUP3 PUSH2 0x9B1 JUMP JUMPDEST POP PUSH1 0x80 DUP4 ADD MLOAD PUSH2 0xADF PUSH1 0x80 DUP7 ADD DUP3 PUSH2 0xA68 JUMP JUMPDEST POP DUP1 SWAP2 POP POP SWAP3 SWAP2 POP POP JUMP JUMPDEST PUSH0 PUSH1 0x20 DUP3 ADD SWAP1 POP DUP2 DUP2 SUB PUSH0 DUP4 ADD MSTORE PUSH2 0xB02 DUP2 DUP5 PUSH2 0xA77 JUMP JUMPDEST SWAP1 POP SWAP3 SWAP2 POP POP JUMP JUMPDEST PUSH0 DUP1 REVERT JUMPDEST PUSH0 PUSH1 0x1F NOT PUSH1 0x1F DUP4 ADD AND SWAP1 POP SWAP2 SWAP1 POP JUMP JUMPDEST PUSH32 0x4E487B7100000000000000000000000000000000000000000000000000000000 PUSH0 MSTORE PUSH1 0x41 PUSH1 0x4 MSTORE PUSH1 0x24 PUSH0 REVERT JUMPDEST PUSH2 0xB54 DUP3 PUSH2 0xB0E JUMP JUMPDEST DUP2 ADD DUP2 DUP2 LT PUSH8 0xFFFFFFFFFFFFFFFF DUP3 GT OR ISZERO PUSH2 0xB73 JUMPI PUSH2 0xB72 PUSH2 0xB1E JUMP JUMPDEST JUMPDEST DUP1 PUSH1 0x40 MSTORE POP POP POP JUMP JUMPDEST PUSH0 PUSH2 0xB85 PUSH2 0x888 JUMP JUMPDEST SWAP1 POP PUSH2 0xB91 DUP3 DUP3 PUSH2 0xB4B JUMP JUMPDEST SWAP2 SWAP1 POP JUMP JUMPDEST PUSH0 PUSH8 0xFFFFFFFFFFFFFFFF DUP3 GT ISZERO PUSH2 0xBB0 JUMPI PUSH2 0xBAF PUSH2 0xB1E JUMP JUMPDEST JUMPDEST PUSH1 0x20 DUP3 MUL SWAP1 POP PUSH1 0x20 DUP2 ADD SWAP1 POP SWAP2 SWAP1 POP JUMP JUMPDEST PUSH0 DUP1 REVERT JUMPDEST PUSH2 0xBCE DUP2 PUSH2 0x916 JUMP JUMPDEST DUP2 EQ PUSH2 0xBD8 JUMPI PUSH0 DUP1 REVERT JUMPDEST POP JUMP JUMPDEST PUSH0 DUP2 CALLDATALOAD SWAP1 POP PUSH2 0xBE9 DUP2 PUSH2 0xBC5 JUMP JUMPDEST SWAP3 SWAP2 POP POP JUMP JUMPDEST PUSH0 PUSH2 0xC01 PUSH2 0xBFC DUP5 PUSH2 0xB96 JUMP JUMPDEST PUSH2 0xB7C JUMP JUMPDEST SWAP1 POP DUP1 DUP4 DUP3 MSTORE PUSH1 0x20 DUP3 ADD SWAP1 POP PUSH1 0x20 DUP5 MUL DUP4 ADD DUP6 DUP2 GT ISZERO PUSH2 0xC24 JUMPI PUSH2 0xC23 PUSH2 0xBC1 JUMP JUMPDEST JUMPDEST DUP4 JUMPDEST DUP2 DUP2 LT ISZERO PUSH2 0xC4D JUMPI DUP1 PUSH2 0xC39 DUP9 DUP3 PUSH2 0xBDB JUMP JUMPDEST DUP5 MSTORE PUSH1 0x20 DUP5 ADD SWAP4 POP POP PUSH1 0x20 DUP2 ADD SWAP1 POP PUSH2 0xC26 JUMP JUMPDEST POP POP POP SWAP4 SWAP3 POP POP POP JUMP JUMPDEST PUSH0 DUP3 PUSH1 0x1F DUP4 ADD SLT PUSH2 0xC6B JUMPI PUSH2 0xC6A PUSH2 0xB0A JUMP JUMPDEST JUMPDEST DUP2 CALLDATALOAD PUSH2 0xC7B DUP5 DUP3 PUSH1 0x20 DUP7 ADD PUSH2 0xBEF JUMP JUMPDEST SWAP2 POP POP SWAP3 SWAP2 POP POP JUMP JUMPDEST PUSH0 DUP1 PUSH1 0x40 DUP4 DUP6 SUB SLT ISZERO PUSH2 0xC9A JUMPI PUSH2 0xC99 PUSH2 0x891 JUMP JUMPDEST JUMPDEST PUSH0 PUSH2 0xCA7 DUP6 DUP3 DUP7 ADD PUSH2 0x8B8 JUMP JUMPDEST SWAP3 POP POP PUSH1 0x20 DUP4 ADD CALLDATALOAD PUSH8 0xFFFFFFFFFFFFFFFF DUP2 GT ISZERO PUSH2 0xCC8 JUMPI PUSH2 0xCC7 PUSH2 0x895 JUMP JUMPDEST JUMPDEST PUSH2 0xCD4 DUP6 DUP3 DUP7 ADD PUSH2 0xC57 JUMP JUMPDEST SWAP2 POP POP SWAP3 POP SWAP3 SWAP1 POP JUMP JUMPDEST PUSH0 PUSH1 0x20 DUP3 ADD SWAP1 POP PUSH2 0xCF1 PUSH0 DUP4 ADD DUP5 PUSH2 0x936 JUMP JUMPDEST SWAP3 SWAP2 POP POP JUMP JUMPDEST PUSH0 DUP3 DUP3 MSTORE PUSH1 0x20 DUP3 ADD SWAP1 POP SWAP3 SWAP2 POP POP JUMP JUMPDEST PUSH32 0x4F66666572206973206E6F742061637469766500000000000000000000000000 PUSH0 DUP3 ADD MSTORE POP JUMP JUMPDEST PUSH0 PUSH2 0xD3B PUSH1 0x13 DUP4 PUSH2 0xCF7 JUMP JUMPDEST SWAP2 POP PUSH2 0xD46 DUP3 PUSH2 0xD07 JUMP JUMPDEST PUSH1 0x20 DUP3 ADD SWAP1 POP SWAP2 SWAP1 POP JUMP JUMPDEST PUSH0 PUSH1 0x20 DUP3 ADD SWAP1 POP DUP2 DUP2 SUB PUSH0 DUP4 ADD MSTORE PUSH2 0xD68 DUP2 PUSH2 0xD2F JUMP JUMPDEST SWAP1 POP SWAP2 SWAP1 POP JUMP JUMPDEST PUSH0 PUSH1 0x40 DUP3 ADD SWAP1 POP PUSH2 0xD82 PUSH0 DUP4 ADD DUP6 PUSH2 0x936 JUMP JUMPDEST PUSH2 0xD8F PUSH1 0x20 DUP4 ADD DUP5 PUSH2 0x927 JUMP JUMPDEST SWAP4 SWAP3 POP POP POP JUMP JUMPDEST PUSH32 0x4F6E6C79206F6666657265722063616E206D6F64696679000000000000000000 PUSH0 DUP3 ADD MSTORE POP JUMP JUMPDEST PUSH0 PUSH2 0xDCA PUSH1 0x17 DUP4 PUSH2 0xCF7 JUMP JUMPDEST SWAP2 POP PUSH2 0xDD5 DUP3 PUSH2 0xD96 JUMP JUMPDEST PUSH1 0x20 DUP3 ADD SWAP1 POP SWAP2 SWAP1 POP JUMP JUMPDEST PUSH0 PUSH1 0x20 DUP3 ADD SWAP1 POP DUP2 DUP2 SUB PUSH0 DUP4 ADD MSTORE PUSH2 0xDF7 DUP2 PUSH2 0xDBE JUMP JUMPDEST SWAP1 POP SWAP2 SWAP1 POP JUMP JUMPDEST PUSH32 0x4D6F64696669636174696F6E206C696D69742072656163686564000000000000 PUSH0 DUP3 ADD MSTORE POP JUMP JUMPDEST PUSH0 PUSH2 0xE32 PUSH1 0x1A DUP4 PUSH2 0xCF7 JUMP JUMPDEST SWAP2 POP PUSH2 0xE3D DUP3 PUSH2 0xDFE JUMP JUMPDEST PUSH1 0x20 DUP3 ADD SWAP1 POP SWAP2 SWAP1 POP JUMP JUMPDEST PUSH0 PUSH1 0x20 DUP3 ADD SWAP1 POP DUP2 DUP2 SUB PUSH0 DUP4 ADD MSTORE PUSH2 0xE5F DUP2 PUSH2 0xE26 JUMP JUMPDEST SWAP1 POP SWAP2 SWAP1 POP JUMP JUMPDEST PUSH32 0x4D6178696D756D2035204E46547320616C6C6F77656400000000000000000000 PUSH0 DUP3 ADD MSTORE POP JUMP JUMPDEST PUSH0 PUSH2 0xE9A PUSH1 0x16 DUP4 PUSH2 0xCF7 JUMP JUMPDEST SWAP2 POP PUSH2 0xEA5 DUP3 PUSH2 0xE66 JUMP JUMPDEST PUSH1 0x20 DUP3 ADD SWAP1 POP SWAP2 SWAP1 POP JUMP JUMPDEST PUSH0 PUSH1 0x20 DUP3 ADD SWAP1 POP DUP2 DUP2 SUB PUSH0 DUP4 ADD MSTORE PUSH2 0xEC7 DUP2 PUSH2 0xE8E JUMP JUMPDEST SWAP1 POP SWAP2 SWAP1 POP JUMP JUMPDEST PUSH32 0x4E487B7100000000000000000000000000000000000000000000000000000000 PUSH0 MSTORE PUSH1 0x11 PUSH1 0x4 MSTORE PUSH1 0x24 PUSH0 REVERT JUMPDEST PUSH0 PUSH2 0xF05 DUP3 PUSH2 0x899 JUMP JUMPDEST SWAP2 POP PUSH32 0xFFFFFFFFFFFFFFFFFFFFFFFFFFFFFFFFFFFFFFFFFFFFFFFFFFFFFFFFFFFFFFFF DUP3 SUB PUSH2 0xF37 JUMPI PUSH2 0xF36 PUSH2 0xECE JUMP JUMPDEST JUMPDEST PUSH1 0x1 DUP3 ADD SWAP1 POP SWAP2 SWAP1 POP JUMP JUMPDEST PUSH0 PUSH1 0x60 DUP3 ADD SWAP1 POP PUSH2 0xF55 PUSH0 DUP4 ADD DUP7 PUSH2 0x936 JUMP JUMPDEST PUSH2 0xF62 PUSH1 0x20 DUP4 ADD DUP6 PUSH2 0x927 JUMP JUMPDEST PUSH2 0xF6F PUSH1 0x40 DUP4 ADD DUP5 PUSH2 0x936 JUMP JUMPDEST SWAP5 SWAP4 POP POP POP POP JUMP INVALID LOG2 PUSH5 0x6970667358 0x22 SLT KECCAK256 PUSH2 0x8C30 LOG4 0x1F GASLIMIT PUSH22 0x6C3F3A05929E918AF0630EE6D18524E45C0B897C5E1B SLT 0x25 0xD2 PUSH5 0x736F6C6343 STOP ADDMOD BYTE STOP CALLER "
				},
				"gasEstimates": {
					"creation": {
						"codeDepositCost": "802600",
						"executionCost": "836",
						"totalCost": "803436"
					},
					"external": {
						"acceptOffer(uint256)": "infinite",
						"makeOffer(uint256,address[])": "infinite",
						"modifyOffer(uint256,address[])": "infinite",
						"offerCounter()": "2447",
						"offers(uint256)": "infinite",
						"rejectOffer(uint256)": "infinite",
						"viewOffer(uint256)": "infinite"
					}
				},
				"methodIdentifiers": {
					"acceptOffer(uint256)": "c815729d",
					"makeOffer(uint256,address[])": "d7a624ed",
					"modifyOffer(uint256,address[])": "af8c6ff3",
					"offerCounter()": "b7a3c1da",
					"offers(uint256)": "8a72ea6a",
					"rejectOffer(uint256)": "88b10c75",
					"viewOffer(uint256)": "9b55e638"
				}
			},
			"storageLayout": {
				"storage": [
					{
						"astId": 463,
						"contract": "contracts/RoninP2POffer.sol:RoninP2POffer",
						"label": "offers",
						"offset": 0,
						"slot": "0",
						"type": "t_mapping(t_uint256,t_struct(OfferDetails)458_storage)"
					},
					{
						"astId": 465,
						"contract": "contracts/RoninP2POffer.sol:RoninP2POffer",
						"label": "offerCounter",
						"offset": 0,
						"slot": "1",
						"type": "t_uint256"
					}
				],
				"types": {
					"t_address": {
						"encoding": "inplace",
						"label": "address",
						"numberOfBytes": "20"
					},
					"t_array(t_address)dyn_storage": {
						"base": "t_address",
						"encoding": "dynamic_array",
						"label": "address[]",
						"numberOfBytes": "32"
					},
					"t_bool": {
						"encoding": "inplace",
						"label": "bool",
						"numberOfBytes": "1"
					},
					"t_mapping(t_uint256,t_struct(OfferDetails)458_storage)": {
						"encoding": "mapping",
						"key": "t_uint256",
						"label": "mapping(uint256 => struct RoninP2POffer.OfferDetails)",
						"numberOfBytes": "32",
						"value": "t_struct(OfferDetails)458_storage"
					},
					"t_struct(OfferDetails)458_storage": {
						"encoding": "inplace",
						"label": "struct RoninP2POffer.OfferDetails",
						"members": [
							{
								"astId": 448,
								"contract": "contracts/RoninP2POffer.sol:RoninP2POffer",
								"label": "offerer",
								"offset": 0,
								"slot": "0",
								"type": "t_address"
							},
							{
								"astId": 450,
								"contract": "contracts/RoninP2POffer.sol:RoninP2POffer",
								"label": "agreementId",
								"offset": 0,
								"slot": "1",
								"type": "t_uint256"
							},
							{
								"astId": 453,
								"contract": "contracts/RoninP2POffer.sol:RoninP2POffer",
								"label": "nfts",
								"offset": 0,
								"slot": "2",
								"type": "t_array(t_address)dyn_storage"
							},
							{
								"astId": 455,
								"contract": "contracts/RoninP2POffer.sol:RoninP2POffer",
								"label": "modificationCount",
								"offset": 0,
								"slot": "3",
								"type": "t_uint256"
							},
							{
								"astId": 457,
								"contract": "contracts/RoninP2POffer.sol:RoninP2POffer",
								"label": "isActive",
								"offset": 0,
								"slot": "4",
								"type": "t_bool"
							}
						],
						"numberOfBytes": "160"
					},
					"t_uint256": {
						"encoding": "inplace",
						"label": "uint256",
						"numberOfBytes": "32"
					}
				}
			},
			"userdoc": {
				"kind": "user",
				"methods": {},
				"version": 1
			}
		}
	}
}